{"contracts/CommunityFinance.sol":{"CommunityFinance":{"abi":[{"inputs":[],"stateMutability":"nonpayable","type":"constructor"},{"anonymous":false,"inputs":[{"indexed":true,"internalType":"uint256","name":"gid","type":"uint256"},{"indexed":false,"internalType":"address","name":"borrower","type":"address"},{"indexed":false,"internalType":"bool","name":"wasTie","type":"bool"}],"name":"BorrowerSelected","type":"event"},{"anonymous":false,"inputs":[{"indexed":true,"internalType":"uint256","name":"gid","type":"uint256"},{"indexed":false,"internalType":"address","name":"member","type":"address"},{"indexed":false,"internalType":"uint256","name":"newScore","type":"uint256"}],"name":"CreditUpdated","type":"event"},{"anonymous":false,"inputs":[{"indexed":true,"internalType":"uint256","name":"gid","type":"uint256"},{"indexed":false,"internalType":"address","name":"borrower","type":"address"},{"indexed":false,"internalType":"uint256","name":"missedCount","type":"uint256"}],"name":"EMIMissed","type":"event"},{"anonymous":false,"inputs":[{"indexed":true,"internalType":"uint256","name":"gid","type":"uint256"},{"indexed":false,"internalType":"address","name":"borrower","type":"address"},{"indexed":false,"internalType":"uint256","name":"amount","type":"uint256"},{"indexed":false,"internalType":"uint256","name":"month","type":"uint256"},{"indexed":false,"internalType":"uint256","name":"lateFee","type":"uint256"}],"name":"EMIPaid","type":"event"},{"anonymous":false,"inputs":[{"indexed":true,"internalType":"uint256","name":"gid","type":"uint256"},{"indexed":true,"internalType":"uint256","name":"rid","type":"uint256"},{"indexed":false,"internalType":"address","name":"requester","type":"address"},{"indexed":false,"internalType":"uint256","name":"amount","type":"uint256"}],"name":"EmergencyReleased","type":"event"},{"anonymous":false,"inputs":[{"indexed":true,"internalType":"uint256","name":"gid","type":"uint256"},{"indexed":true,"internalType":"uint256","name":"rid","type":"uint256"},{"indexed":false,"internalType":"address","name":"requester","type":"address"},{"indexed":false,"internalType":"uint256","name":"amount","type":"uint256"}],"name":"EmergencyRepaid","type":"event"},{"anonymous":false,"inputs":[{"indexed":true,"internalType":"uint256","name":"gid","type":"uint256"},{"indexed":true,"internalType":"uint256","name":"rid","type":"uint256"},{"indexed":false,"internalType":"address","name":"requester","type":"address"},{"indexed":false,"internalType":"uint256","name":"amount","type":"uint256"},{"indexed":false,"internalType":"string","name":"reason","type":"string"}],"name":"EmergencyRequested","type":"event"},{"anonymous":false,"inputs":[{"indexed":true,"internalType":"uint256","name":"gid","type":"uint256"},{"indexed":true,"internalType":"uint256","name":"rid","type":"uint256"},{"indexed":false,"internalType":"bool","name":"approved","type":"bool"},{"indexed":false,"internalType":"uint256","name":"yes","type":"uint256"},{"indexed":false,"internalType":"uint256","name":"no","type":"uint256"}],"name":"EmergencyResolved","type":"event"},{"anonymous":false,"inputs":[{"indexed":true,"internalType":"uint256","name":"gid","type":"uint256"},{"indexed":true,"internalType":"uint256","name":"rid","type":"uint256"},{"indexed":false,"internalType":"address","name":"voter","type":"address"},{"indexed":false,"internalType":"bool","name":"support","type":"bool"}],"name":"EmergencyVoteCast","type":"event"},{"anonymous":false,"inputs":[{"indexed":true,"internalType":"uint256","name":"gid","type":"uint256"}],"name":"GroupApproved","type":"event"},{"anonymous":false,"inputs":[{"indexed":true,"internalType":"uint256","name":"gid","type":"uint256"},{"indexed":false,"internalType":"string","name":"reason","type":"string"}],"name":"GroupClosed","type":"event"},{"anonymous":false,"inputs":[{"indexed":true,"internalType":"uint256","name":"gid","type":"uint256"},{"indexed":false,"internalType":"address","name":"creator","type":"address"},{"indexed":false,"internalType":"string","name":"name","type":"string"},{"indexed":false,"internalType":"uint256","name":"contribution","type":"uint256"},{"indexed":false,"internalType":"uint256","name":"maxSize","type":"uint256"},{"indexed":false,"internalType":"uint256","name":"tenure","type":"uint256"},{"indexed":false,"internalType":"bool","name":"isPrivate","type":"bool"}],"name":"GroupCreated","type":"event"},{"anonymous":false,"inputs":[{"indexed":true,"internalType":"uint256","name":"gid","type":"uint256"}],"name":"GroupRejected","type":"event"},{"anonymous":false,"inputs":[{"indexed":true,"internalType":"uint256","name":"gid","type":"uint256"},{"indexed":true,"internalType":"address","name":"invitee","type":"address"}],"name":"InviteRevoked","type":"event"},{"anonymous":false,"inputs":[{"indexed":true,"internalType":"uint256","name":"gid","type":"uint256"},{"indexed":true,"internalType":"uint256","name":"kid","type":"uint256"},{"indexed":false,"internalType":"address","name":"target","type":"address"},{"indexed":false,"internalType":"address","name":"raisedBy","type":"address"}],"name":"KickRaised","type":"event"},{"anonymous":false,"inputs":[{"indexed":true,"internalType":"uint256","name":"gid","type":"uint256"},{"indexed":true,"internalType":"uint256","name":"kid","type":"uint256"},{"indexed":false,"internalType":"address","name":"target","type":"address"},{"indexed":false,"internalType":"bool","name":"kicked","type":"bool"}],"name":"KickResolved","type":"event"},{"anonymous":false,"inputs":[{"indexed":true,"internalType":"uint256","name":"gid","type":"uint256"},{"indexed":true,"internalType":"uint256","name":"kid","type":"uint256"},{"indexed":false,"internalType":"address","name":"voter","type":"address"},{"indexed":false,"internalType":"bool","name":"support","type":"bool"}],"name":"KickVoteCast","type":"event"},{"anonymous":false,"inputs":[{"indexed":true,"internalType":"uint256","name":"gid","type":"uint256"},{"indexed":false,"internalType":"uint256","name":"round","type":"uint256"}],"name":"LoanCompleted","type":"event"},{"anonymous":false,"inputs":[{"indexed":true,"internalType":"uint256","name":"gid","type":"uint256"},{"indexed":false,"internalType":"address","name":"borrower","type":"address"},{"indexed":false,"internalType":"uint256","name":"amount","type":"uint256"}],"name":"LoanReleased","type":"event"},{"anonymous":false,"inputs":[{"indexed":true,"internalType":"uint256","name":"gid","type":"uint256"},{"indexed":true,"internalType":"address","name":"invitee","type":"address"}],"name":"MemberInvited","type":"event"},{"anonymous":false,"inputs":[{"indexed":true,"internalType":"uint256","name":"gid","type":"uint256"},{"indexed":false,"internalType":"address","name":"member","type":"address"}],"name":"MemberJoined","type":"event"},{"anonymous":false,"inputs":[{"indexed":true,"internalType":"uint256","name":"gid","type":"uint256"},{"indexed":false,"internalType":"address","name":"member","type":"address"}],"name":"MemberLeft","type":"event"},{"anonymous":false,"inputs":[{"indexed":false,"internalType":"address","name":"account","type":"address"}],"name":"Paused","type":"event"},{"anonymous":false,"inputs":[{"indexed":true,"internalType":"uint256","name":"gid","type":"uint256"},{"indexed":false,"internalType":"address","name":"member","type":"address"},{"indexed":false,"internalType":"uint256","name":"amount","type":"uint256"}],"name":"ProfitWithdrawn","type":"event"},{"anonymous":false,"inputs":[{"indexed":false,"internalType":"address","name":"account","type":"address"}],"name":"Unpaused","type":"event"},{"anonymous":false,"inputs":[{"indexed":true,"internalType":"uint256","name":"gid","type":"uint256"},{"indexed":false,"internalType":"address","name":"voter","type":"address"},{"indexed":false,"internalType":"address","name":"candidate","type":"address"}],"name":"VoteCast","type":"event"},{"anonymous":false,"inputs":[{"indexed":true,"internalType":"uint256","name":"gid","type":"uint256"},{"indexed":false,"internalType":"uint256","name":"endTime","type":"uint256"}],"name":"VotingStarted","type":"event"},{"inputs":[],"name":"CREDIT_DEFAULT","outputs":[{"internalType":"uint256","name":"","type":"uint256"}],"stateMutability":"view","type":"function"},{"inputs":[],"name":"CREDIT_LATE","outputs":[{"internalType":"uint256","name":"","type":"uint256"}],"stateMutability":"view","type":"function"},{"inputs":[],"name":"CREDIT_ON_TIME","outputs":[{"internalType":"uint256","name":"","type":"uint256"}],"stateMutability":"view","type":"function"},{"inputs":[],"name":"EMERGENCY_CAP_PCT","outputs":[{"internalType":"uint256","name":"","type":"uint256"}],"stateMutability":"view","type":"function"},{"inputs":[],"name":"EMERGENCY_EXTRA","outputs":[{"internalType":"uint256","name":"","type":"uint256"}],"stateMutability":"view","type":"function"},{"inputs":[],"name":"EMERGENCY_WINDOW","outputs":[{"internalType":"uint256","name":"","type":"uint256"}],"stateMutability":"view","type":"function"},{"inputs":[],"name":"ETH_TO_INR","outputs":[{"internalType":"uint256","name":"","type":"uint256"}],"stateMutability":"view","type":"function"},{"inputs":[],"name":"FILL_DEADLINE","outputs":[{"internalType":"uint256","name":"","type":"uint256"}],"stateMutability":"view","type":"function"},{"inputs":[],"name":"INTEREST_RATE","outputs":[{"internalType":"uint256","name":"","type":"uint256"}],"stateMutability":"view","type":"function"},{"inputs":[],"name":"KICK_WINDOW","outputs":[{"internalType":"uint256","name":"","type":"uint256"}],"stateMutability":"view","type":"function"},{"inputs":[],"name":"LATE_FEE_PER_DAY","outputs":[{"internalType":"uint256","name":"","type":"uint256"}],"stateMutability":"view","type":"function"},{"inputs":[],"name":"MAX_SIZE","outputs":[{"internalType":"uint256","name":"","type":"uint256"}],"stateMutability":"view","type":"function"},{"inputs":[],"name":"MIN_SIZE","outputs":[{"internalType":"uint256","name":"","type":"uint256"}],"stateMutability":"view","type":"function"},{"inputs":[],"name":"MISS_LIMIT","outputs":[{"internalType":"uint256","name":"","type":"uint256"}],"stateMutability":"view","type":"function"},{"inputs":[],"name":"MONTH","outputs":[{"internalType":"uint256","name":"","type":"uint256"}],"stateMutability":"view","type":"function"},{"inputs":[],"name":"VOTE_WINDOW","outputs":[{"internalType":"uint256","name":"","type":"uint256"}],"stateMutability":"view","type":"function"},{"inputs":[{"internalType":"address","name":"","type":"address"}],"name":"activeEmergencyGroup","outputs":[{"internalType":"uint256","name":"","type":"uint256"}],"stateMutability":"view","type":"function"},{"inputs":[{"internalType":"uint256","name":"","type":"uint256"},{"internalType":"address","name":"","type":"address"}],"name":"activeKick","outputs":[{"internalType":"uint256","name":"","type":"uint256"}],"stateMutability":"view","type":"function"},{"inputs":[],"name":"admin","outputs":[{"internalType":"address","name":"","type":"address"}],"stateMutability":"view","type":"function"},{"inputs":[{"internalType":"uint256","name":"gid","type":"uint256"}],"name":"approveGroup","outputs":[],"stateMutability":"nonpayable","type":"function"},{"inputs":[{"internalType":"uint256","name":"gid","type":"uint256"},{"internalType":"address","name":"candidate","type":"address"}],"name":"castVote","outputs":[],"stateMutability":"nonpayable","type":"function"},{"inputs":[{"internalType":"uint256","name":"gid","type":"uint256"}],"name":"checkAndMarkMissed","outputs":[],"stateMutability":"nonpayable","type":"function"},{"inputs":[{"internalType":"string","name":"name","type":"string"},{"internalType":"uint256","name":"maxSize","type":"uint256"},{"internalType":"uint256","name":"tenure","type":"uint256"},{"internalType":"bool","name":"isPrivate","type":"bool"},{"internalType":"address[]","name":"invites","type":"address[]"}],"name":"createGroup","outputs":[],"stateMutability":"payable","type":"function"},{"inputs":[{"internalType":"uint256","name":"","type":"uint256"},{"internalType":"uint256","name":"","type":"uint256"}],"name":"emergencyRequests","outputs":[{"internalType":"uint256","name":"id","type":"uint256"},{"internalType":"address","name":"requester","type":"address"},{"internalType":"uint256","name":"amount","type":"uint256"},{"internalType":"string","name":"reason","type":"string"},{"internalType":"uint256","name":"endTime","type":"uint256"},{"internalType":"uint256","name":"yesVotes","type":"uint256"},{"internalType":"uint256","name":"noVotes","type":"uint256"},{"internalType":"bool","name":"resolved","type":"bool"},{"internalType":"bool","name":"approved","type":"bool"},{"internalType":"bool","name":"repaid","type":"bool"},{"internalType":"uint256","name":"repayBy","type":"uint256"}],"stateMutability":"view","type":"function"},{"inputs":[{"internalType":"uint256","name":"","type":"uint256"},{"internalType":"uint256","name":"","type":"uint256"},{"internalType":"address","name":"","type":"address"}],"name":"emergencyVoted","outputs":[{"internalType":"bool","name":"","type":"bool"}],"stateMutability":"view","type":"function"},{"inputs":[{"internalType":"uint256","name":"","type":"uint256"},{"internalType":"uint256","name":"","type":"uint256"},{"internalType":"address","name":"","type":"address"}],"name":"emiPaid","outputs":[{"internalType":"bool","name":"","type":"bool"}],"stateMutability":"view","type":"function"},{"inputs":[{"internalType":"uint256","name":"ethAmount","type":"uint256"}],"name":"ethToINR","outputs":[{"internalType":"uint256","name":"","type":"uint256"}],"stateMutability":"pure","type":"function"},{"inputs":[{"internalType":"uint256","name":"gid","type":"uint256"}],"name":"expireGroup","outputs":[],"stateMutability":"nonpayable","type":"function"},{"inputs":[{"internalType":"uint256","name":"gid","type":"uint256"},{"internalType":"address","name":"member","type":"address"}],"name":"getCreditScore","outputs":[{"internalType":"uint256","name":"","type":"uint256"}],"stateMutability":"view","type":"function"},{"inputs":[{"internalType":"uint256","name":"gid","type":"uint256"}],"name":"getEMI","outputs":[{"internalType":"uint256","name":"","type":"uint256"}],"stateMutability":"view","type":"function"},{"inputs":[{"internalType":"uint256","name":"gid","type":"uint256"}],"name":"getEMIinINR","outputs":[{"internalType":"uint256","name":"","type":"uint256"}],"stateMutability":"view","type":"function"},{"inputs":[],"name":"getGroupCount","outputs":[{"internalType":"uint256","name":"","type":"uint256"}],"stateMutability":"view","type":"function"},{"inputs":[{"internalType":"uint256","name":"gid","type":"uint256"}],"name":"getGroupHealth","outputs":[{"internalType":"uint256","name":"fillPercentage","type":"uint256"},{"internalType":"uint256","name":"averageCreditScore","type":"uint256"},{"internalType":"uint256","name":"onTimeMemberCount","type":"uint256"},{"internalType":"uint256","name":"defaultedMemberCount","type":"uint256"},{"internalType":"uint256","name":"profitPoolAmount","type":"uint256"}],"stateMutability":"view","type":"function"},{"inputs":[{"internalType":"uint256","name":"gid","type":"uint256"}],"name":"getGroupMetrics","outputs":[{"internalType":"uint256","name":"totalMembers","type":"uint256"},{"internalType":"bool","name":"activeLoan","type":"bool"},{"internalType":"uint256","name":"poolETH","type":"uint256"},{"internalType":"uint256","name":"completedLoans","type":"uint256"}],"stateMutability":"view","type":"function"},{"inputs":[{"internalType":"uint256","name":"gid","type":"uint256"}],"name":"getGroupROI","outputs":[{"internalType":"uint256","name":"principalReturned","type":"uint256"},{"internalType":"uint256","name":"profitEarned","type":"uint256"},{"internalType":"uint256","name":"roiPercentage","type":"uint256"},{"internalType":"uint256","name":"defaultRate","type":"uint256"}],"stateMutability":"view","type":"function"},{"inputs":[{"internalType":"uint256","name":"gid","type":"uint256"}],"name":"getInvitedList","outputs":[{"internalType":"address[]","name":"","type":"address[]"}],"stateMutability":"view","type":"function"},{"inputs":[{"internalType":"uint256","name":"gid","type":"uint256"}],"name":"getLateFee","outputs":[{"internalType":"uint256","name":"","type":"uint256"}],"stateMutability":"view","type":"function"},{"inputs":[{"internalType":"uint256","name":"gid","type":"uint256"},{"internalType":"address","name":"member","type":"address"}],"name":"getMemberInfo","outputs":[{"internalType":"uint256","name":"creditScore","type":"uint256"},{"internalType":"uint256","name":"missed","type":"uint256"},{"internalType":"uint256","name":"onTime","type":"uint256"},{"internalType":"uint256","name":"late","type":"uint256"}],"stateMutability":"view","type":"function"},{"inputs":[{"internalType":"uint256","name":"gid","type":"uint256"}],"name":"getMembers","outputs":[{"internalType":"address[]","name":"","type":"address[]"}],"stateMutability":"view","type":"function"},{"inputs":[{"internalType":"address","name":"user","type":"address"}],"name":"getMyInvites","outputs":[{"internalType":"uint256[]","name":"","type":"uint256[]"}],"stateMutability":"view","type":"function"},{"inputs":[{"internalType":"address","name":"user","type":"address"}],"name":"getMyPrivateInvites","outputs":[{"internalType":"uint256[]","name":"","type":"uint256[]"}],"stateMutability":"view","type":"function"},{"inputs":[{"internalType":"uint256","name":"gid","type":"uint256"}],"name":"getNextDueTime","outputs":[{"internalType":"uint256","name":"","type":"uint256"}],"stateMutability":"view","type":"function"},{"inputs":[],"name":"getOpenGroups","outputs":[{"internalType":"uint256[]","name":"","type":"uint256[]"}],"stateMutability":"view","type":"function"},{"inputs":[],"name":"getPendingGroups","outputs":[{"internalType":"uint256[]","name":"","type":"uint256[]"}],"stateMutability":"view","type":"function"},{"inputs":[{"internalType":"uint256","name":"gid","type":"uint256"}],"name":"getPoolBalance","outputs":[{"internalType":"uint256","name":"","type":"uint256"}],"stateMutability":"view","type":"function"},{"inputs":[{"internalType":"uint256","name":"gid","type":"uint256"}],"name":"getPoolInINR","outputs":[{"internalType":"uint256","name":"","type":"uint256"}],"stateMutability":"view","type":"function"},{"inputs":[{"internalType":"uint256","name":"gid","type":"uint256"},{"internalType":"address","name":"member","type":"address"}],"name":"getProfitBalance","outputs":[{"internalType":"uint256","name":"","type":"uint256"}],"stateMutability":"view","type":"function"},{"inputs":[{"internalType":"uint256","name":"gid","type":"uint256"}],"name":"getRemainingMonths","outputs":[{"internalType":"uint256","name":"","type":"uint256"}],"stateMutability":"view","type":"function"},{"inputs":[{"internalType":"uint256","name":"gid","type":"uint256"},{"internalType":"address","name":"member","type":"address"}],"name":"getTrustScore","outputs":[{"internalType":"uint256","name":"","type":"uint256"}],"stateMutability":"view","type":"function"},{"inputs":[{"internalType":"uint256","name":"gid","type":"uint256"},{"internalType":"address","name":"candidate","type":"address"}],"name":"getVoteCount","outputs":[{"internalType":"uint256","name":"","type":"uint256"}],"stateMutability":"view","type":"function"},{"inputs":[],"name":"groupCount","outputs":[{"internalType":"uint256","name":"","type":"uint256"}],"stateMutability":"view","type":"function"},{"inputs":[{"internalType":"uint256","name":"","type":"uint256"},{"internalType":"address","name":"","type":"address"}],"name":"groupInvites","outputs":[{"internalType":"bool","name":"","type":"bool"}],"stateMutability":"view","type":"function"},{"inputs":[{"internalType":"uint256","name":"","type":"uint256"}],"name":"groups","outputs":[{"internalType":"uint256","name":"id","type":"uint256"},{"internalType":"string","name":"name","type":"string"},{"internalType":"address","name":"creator","type":"address"},{"internalType":"enum CommunityFinance.GroupStatus","name":"status","type":"uint8"},{"internalType":"uint256","name":"contribution","type":"uint256"},{"internalType":"uint256","name":"maxSize","type":"uint256"},{"internalType":"uint256","name":"tenure","type":"uint256"},{"internalType":"uint256","name":"fillDeadline","type":"uint256"},{"internalType":"address","name":"borrower","type":"address"},{"components":[{"internalType":"uint256","name":"principal","type":"uint256"},{"internalType":"uint256","name":"monthlyInterest","type":"uint256"},{"internalType":"uint256","name":"monthlyPrincipal","type":"uint256"},{"internalType":"uint256","name":"monthsPaid","type":"uint256"},{"internalType":"uint256","name":"lastPaymentTime","type":"uint256"},{"internalType":"uint256","name":"nextDueTime","type":"uint256"},{"internalType":"bool","name":"active","type":"bool"}],"internalType":"struct CommunityFinance.Loan","name":"loan","type":"tuple"},{"components":[{"internalType":"enum CommunityFinance.VoteState","name":"state","type":"uint8"},{"internalType":"uint256","name":"endTime","type":"uint256"},{"internalType":"uint256","name":"totalCast","type":"uint256"},{"internalType":"address","name":"winner","type":"address"},{"internalType":"bool","name":"wasTie","type":"bool"}],"internalType":"struct CommunityFinance.VoteRound","name":"voteRound","type":"tuple"},{"internalType":"uint256","name":"emergencyCount","type":"uint256"},{"internalType":"uint256","name":"kickCount","type":"uint256"},{"internalType":"uint256","name":"totalPool","type":"uint256"},{"internalType":"uint256","name":"profitPool","type":"uint256"},{"internalType":"bool","name":"isPrivate","type":"bool"},{"internalType":"uint256","name":"completedLoans","type":"uint256"}],"stateMutability":"view","type":"function"},{"inputs":[{"internalType":"uint256","name":"","type":"uint256"},{"internalType":"address","name":"","type":"address"}],"name":"hasVoted","outputs":[{"internalType":"bool","name":"","type":"bool"}],"stateMutability":"view","type":"function"},{"inputs":[{"internalType":"address","name":"","type":"address"}],"name":"inGroup","outputs":[{"internalType":"bool","name":"","type":"bool"}],"stateMutability":"view","type":"function"},{"inputs":[{"internalType":"uint256","name":"gid","type":"uint256"},{"internalType":"address","name":"invitee","type":"address"}],"name":"inviteMember","outputs":[],"stateMutability":"nonpayable","type":"function"},{"inputs":[{"internalType":"uint256","name":"","type":"uint256"},{"internalType":"uint256","name":"","type":"uint256"}],"name":"invitedList","outputs":[{"internalType":"address","name":"","type":"address"}],"stateMutability":"view","type":"function"},{"inputs":[{"internalType":"uint256","name":"gid","type":"uint256"},{"internalType":"address","name":"user","type":"address"}],"name":"isInvited","outputs":[{"internalType":"bool","name":"","type":"bool"}],"stateMutability":"view","type":"function"},{"inputs":[{"internalType":"uint256","name":"gid","type":"uint256"}],"name":"joinGroup","outputs":[],"stateMutability":"payable","type":"function"},{"inputs":[{"internalType":"uint256","name":"","type":"uint256"},{"internalType":"uint256","name":"","type":"uint256"}],"name":"kickRequests","outputs":[{"internalType":"uint256","name":"id","type":"uint256"},{"internalType":"address","name":"target","type":"address"},{"internalType":"address","name":"raisedBy","type":"address"},{"internalType":"uint256","name":"endTime","type":"uint256"},{"internalType":"uint256","name":"yesVotes","type":"uint256"},{"internalType":"uint256","name":"noVotes","type":"uint256"},{"internalType":"bool","name":"resolved","type":"bool"},{"internalType":"bool","name":"approved","type":"bool"}],"stateMutability":"view","type":"function"},{"inputs":[{"internalType":"uint256","name":"","type":"uint256"},{"internalType":"uint256","name":"","type":"uint256"},{"internalType":"address","name":"","type":"address"}],"name":"kickVoted","outputs":[{"internalType":"bool","name":"","type":"bool"}],"stateMutability":"view","type":"function"},{"inputs":[{"internalType":"uint256","name":"gid","type":"uint256"}],"name":"leaveGroup","outputs":[],"stateMutability":"nonpayable","type":"function"},{"inputs":[{"internalType":"address","name":"","type":"address"}],"name":"memberGroup","outputs":[{"internalType":"uint256","name":"","type":"uint256"}],"stateMutability":"view","type":"function"},{"inputs":[{"internalType":"uint256","name":"","type":"uint256"},{"internalType":"address","name":"","type":"address"}],"name":"memberInfo","outputs":[{"internalType":"address","name":"wallet","type":"address"},{"internalType":"uint256","name":"creditScore","type":"uint256"},{"internalType":"uint256","name":"missedEMIs","type":"uint256"},{"internalType":"uint256","name":"onTimeEMIs","type":"uint256"},{"internalType":"uint256","name":"lateEMIs","type":"uint256"},{"internalType":"bool","name":"active","type":"bool"}],"stateMutability":"view","type":"function"},{"inputs":[],"name":"pause","outputs":[],"stateMutability":"nonpayable","type":"function"},{"inputs":[],"name":"paused","outputs":[{"internalType":"bool","name":"","type":"bool"}],"stateMutability":"view","type":"function"},{"inputs":[{"internalType":"uint256","name":"gid","type":"uint256"}],"name":"payEMI","outputs":[],"stateMutability":"payable","type":"function"},{"inputs":[{"internalType":"uint256","name":"","type":"uint256"},{"internalType":"address","name":"","type":"address"}],"name":"profitBalance","outputs":[{"internalType":"uint256","name":"","type":"uint256"}],"stateMutability":"view","type":"function"},{"inputs":[{"internalType":"uint256","name":"gid","type":"uint256"},{"internalType":"uint256","name":"amount","type":"uint256"},{"internalType":"string","name":"reason","type":"string"}],"name":"raiseEmergency","outputs":[],"stateMutability":"nonpayable","type":"function"},{"inputs":[{"internalType":"uint256","name":"gid","type":"uint256"},{"internalType":"address","name":"target","type":"address"}],"name":"raiseKick","outputs":[],"stateMutability":"nonpayable","type":"function"},{"inputs":[{"internalType":"uint256","name":"gid","type":"uint256"}],"name":"rejectGroup","outputs":[],"stateMutability":"nonpayable","type":"function"},{"inputs":[{"internalType":"uint256","name":"gid","type":"uint256"}],"name":"releaseFunds","outputs":[],"stateMutability":"nonpayable","type":"function"},{"inputs":[{"internalType":"uint256","name":"gid","type":"uint256"},{"internalType":"uint256","name":"rid","type":"uint256"}],"name":"repayEmergency","outputs":[],"stateMutability":"payable","type":"function"},{"inputs":[{"internalType":"uint256","name":"gid","type":"uint256"},{"internalType":"uint256","name":"rid","type":"uint256"}],"name":"resolveEmergency","outputs":[],"stateMutability":"nonpayable","type":"function"},{"inputs":[{"internalType":"uint256","name":"gid","type":"uint256"},{"internalType":"uint256","name":"kid","type":"uint256"}],"name":"resolveKick","outputs":[],"stateMutability":"nonpayable","type":"function"},{"inputs":[{"internalType":"uint256","name":"gid","type":"uint256"}],"name":"resolveVote","outputs":[],"stateMutability":"nonpayable","type":"function"},{"inputs":[{"internalType":"uint256","name":"gid","type":"uint256"},{"internalType":"address","name":"invitee","type":"address"}],"name":"revokeInvite","outputs":[],"stateMutability":"nonpayable","type":"function"},{"inputs":[{"internalType":"uint256","name":"gid","type":"uint256"}],"name":"startVoting","outputs":[],"stateMutability":"nonpayable","type":"function"},{"inputs":[],"name":"unpause","outputs":[],"stateMutability":"nonpayable","type":"function"},{"inputs":[{"internalType":"uint256","name":"gid","type":"uint256"},{"internalType":"uint256","name":"rid","type":"uint256"},{"internalType":"bool","name":"support","type":"bool"}],"name":"voteEmergency","outputs":[],"stateMutability":"nonpayable","type":"function"},{"inputs":[{"internalType":"uint256","name":"gid","type":"uint256"},{"internalType":"uint256","name":"kid","type":"uint256"},{"internalType":"bool","name":"support","type":"bool"}],"name":"voteKick","outputs":[],"stateMutability":"nonpayable","type":"function"},{"inputs":[{"internalType":"uint256","name":"","type":"uint256"},{"internalType":"address","name":"","type":"address"}],"name":"votesReceived","outputs":[{"internalType":"uint256","name":"","type":"uint256"}],"stateMutability":"view","type":"function"},{"inputs":[{"internalType":"uint256","name":"gid","type":"uint256"}],"name":"withdrawAllProfit","outputs":[],"stateMutability":"nonpayable","type":"function"},{"inputs":[{"internalType":"uint256","name":"gid","type":"uint256"},{"internalType":"uint256","name":"amount","type":"uint256"}],"name":"withdrawPartialProfit","outputs":[],"stateMutability":"nonpayable","type":"function"},{"stateMutability":"payable","type":"receive"}],"evm":{"bytecode":{"linkReferences":{},"object":"6080806040523461003b576001600081905580546001600160a81b0319163360081b610100600160a81b03161790556163349081620000418239f35b600080fdfe60a0604052600436101561001b575b361561001957600080fd5b005b60003560e01c806305bcca8c146150a257806306545a93146124d55780630691166014614ea257806307e079d314614e1b5780630eb8d82414614b0757806312e81b801461041d57806315a9313e14614a755780631e67939e146149d85780631faba943146148fa5780632048cba4146148bb57806323e955d81461369957806329fe0bda1461467057806330f4ccac1461421c57806331c19d5014613aab57806333471df51461405e57806333dd6bed1461270157806336b8c1261461401e5780633d2f5bda14613d355780633e737a7214613be95780633f4ba83a14613b4557806342d3d77f14613afd5780634385963214613ab057806345dcd02c1461369957806346013b7314613aab578063469a78d214613a8d57806349c7032d14613a715780634aa5f1e2146138ab5780634d68282f146136bc57806353b7e0e51461369e5780635a45d69b146136995780635b72a33a146136945780635c975abb146136715780635def8d8314613655578063612e67541461358f57806363c1f262146134215780636433b9b3146131ba5780636a47f8e81461318b5780636cacddb61461313f5780637337060014612d4357806374bf539214612cf95780637728c70914612b6f57806377df41b7146129285780637d8884991461285c5780637f08ee7c1461283e5780638115f4ff146127495780638169bb73146127015780638456cb59146126985780638746a4be1461265057806387b673931461250f5780638d67799e146124f35780638f23b326146124d557806390657587146124b7578063935d2ed01461246c578063938ce87e1461244e57806395ad7d2e1461231557806396324bd41461211e57806399c4993814611eef5780639e6d683014611c90578063a415d2f41461144e578063a4db91b914611b95578063a5d0338114611b49578063a673cee614611b1d578063b5555a3d14611496578063b6eb3afc1461144e578063c046cd3814611428578063c04977d3146113dc578063c477ecab1461139d578063c648fe8e14611169578063ca61b30114611060578063cf6a77d514610c07578063d3f514ca14610beb578063d5999a5c14610bcd578063ddf1a68114610b93578063de21901a14610b55578063dfd9935814610b2f578063e517dd1a14610979578063e7aae1151461083f578063ebe5915214610805578063ed1375d5146107d6578063eed02e4b14610486578063f3d25fc51461046a578063f5b029261461041d578063f62da739146103ee5763f851a4400361000e57346103e95760003660031901126103e95760015460405160089190911c6001600160a01b03168152602090f35b600080fd5b346103e95760203660031901126103e95760043560005260036020526020600e60406000200154604051908152f35b346103e95760403660031901126103e9576104366150be565b600435600052601260205260406000209060018060a01b0316600052602052602060ff604060002054166040519015158152f35b346103e95760003660031901126103e9576020604051600a8152f35b6020806003193601126103e9576004359061049f61566c565b811515806107ca575b6104b1906154f4565b816000526003815260ff60026040600020015460a01c1660048110156107b45760016104dd91146157e7565b6104e5615616565b81600052600381526040600020336000526011825260ff6040600020541661077a5760078101805460048301541115610745576003820154340361070d57600682015442116106cb5760ff601883015416610639575b7f78da64a590c3052953ad9e0a5546bbf12bb68ae7634e3fb2a774e22a8c6557c1929161056b6016923390615784565b01610577348254615571565b9055336000526010815282604060002055601181526040600020600160ff1982541617905561062b6040516105ab81615230565b3381526005838201606481526040830160008152606084016000815260808501916000835260a0860193600185528a600052858952604060002033600052895260406000209660018060a01b0390511660018060a01b0319885416178755516001870155516002860155516003850155516004840155511515910161557e565b604051338152a26001600055005b8360005260128352604060002033600052835260ff604060002054161561067c57600084815260128452604080822033835285529020805460ff1916905561053b565b60405162461bcd60e51b815260048101849052602160248201527f4e6f7420696e766974656420746f207468697320707269766174652067726f756044820152600760fc1b6064820152608490fd5b60405162461bcd60e51b815260048101849052601a60248201527911dc9bdd5c08199a5b1b08191958591b1a5b99481c185cdcd95960321b6044820152606490fd5b60405162461bcd60e51b815260048101849052601060248201526f15dc9bdb99c811551208185b5bdd5b9d60821b6044820152606490fd5b60405162461bcd60e51b815260048101849052600d60248201526c11dc9bdd5c081a5cc8199d5b1b609a1b6044820152606490fd5b60405162461bcd60e51b81526004810183905260126024820152710416c726561647920696e20612067726f75760741b6044820152606490fd5b634e487b7160e01b600052602160045260246000fd5b506002548211156104a8565b346103e95760203660031901126103e95760043560005260036020526020601660406000200154604051908152f35b346103e95760203660031901126103e9576001600160a01b036108266150d4565b1660005260106020526020604060002054604051908152f35b346103e95761084d366150ea565b61085561566c565b8115158061096d575b610867906154f4565b6108796108743384616116565b61588d565b610881615616565b61088c811515615aaa565b8160005260206004815260406000203360005281528160406000205410610933576000805160206162df833981519152916003610929928560005260048152604060002033600052815260406000206108e6848254615828565b905585600052526017604060002001610900828254615828565b905561091c600080808085335af16109166155aa565b50615a6c565b6040519182913383615a14565b0390a26001600055005b6064906040519062461bcd60e51b825260048201526013602482015272125b9cdd59999a58da595b9d081c1c9bd99a5d606a1b6044820152fd5b5060025482111561085e565b346103e95761098736615191565b61099292919261566c565b81151580610b23575b6109a4906154f4565b6109b16108743384616116565b816000526020600d815260406000208460005281526040600020906109dd60ff60068401541615615b03565b60038201544211610aef5783600052600e815260406000208560005281526040600020336000528152610a1860ff604060002054161561596e565b60018201546001600160a01b03163314610ab6576000848152600e82526040808220878352835280822033835290925220805460ff191660011790557fe53131b3767d3218d9029021e0da07299664eb92b41dc80ab1f2be0f41ce47b991610a9d918115610aa257600401610a8d81546156b0565b90555b60405191829133836159ef565b0390a3005b600501610aaf81546156b0565b9055610a90565b6064906040519062461bcd60e51b8252600482015260126024820152715461726765742063616e6e6f7420766f746560701b6044820152fd5b6064906040519062461bcd60e51b82526004820152600d60248201526c15da5b991bddc818db1bdcd959609a1b6044820152fd5b5060025482111561099b565b346103e95760203660031901126103e9576020610b4d600435615c39565b604051908152f35b346103e95760203660031901126103e95760a0610b73600435615e94565b926040929192519485526020850152604084015260608301526080820152f35b346103e95760203660031901126103e9576001600160a01b03610bb46150d4565b16600052600c6020526020604060002054604051908152f35b346103e95760003660031901126103e957602060405162278d008152f35b346103e95760003660031901126103e957602060405160038152f35b346103e95760603660031901126103e9576044356001600160401b0381116103e957610c3790369060040161548f565b610c3f61566c565b600435151580611052575b610c53906154f4565b610c6261087433600435616116565b6004356000526003602052604060002033600052600c60205260406000205461100f578115610fd857610c986024351515615aaa565b47603281029080820460321490151715610f7f576064900460243511610f955760140191610cc683546156b0565b8093556203f48042014211610f7f5760405161016081016001600160401b03811182821017610f69576040528381523360208201526024356040820152610d0c8361558f565b610d196040519182615282565b83815236848401116103e9578383602083013760006020858301015260608201526203f48042016080820152600060a0820152600060c0820152600060e0820152600061010082015260006101208201526000610140820152600435600052600a602052604060002084600052602052604060002090805182556001820160018060a01b0360208301511660018060a01b031982541617905560408101516002830155606081015180519060018060401b038211610f6957610deb82610de260038701546151f6565b6003870161573f565b602090601f8311600114610edf5760008051602061627f833981519152959383610a9d969460089461014094600092610ed4575b50508160011b916000199060031b1c19161760038501555b6080810151600485015560a0810151600585015560c0810151600685015560078401610e6960e083015115158261557e565b610e7a610100830151151582615aeb565b610120820151151562ff000082549160101b169062ff00001916179055015191015533600052600c6020526004356040600020556040519182913383526024356020840152606060408401526004359560608401916157c6565b015190508b80610e1f565b906003850160005260206000209160005b601f1985168110610f515750936001846008946101409460008051602061627f8339815191529a98610a9d9a98601f19811610610f38575b505050811b016003850155610e37565b015160001960f88460031b161c191690558b8080610f28565b91926020600181928685015181550194019201610ef0565b634e487b7160e01b600052604160045260246000fd5b634e487b7160e01b600052601160045260246000fd5b60405162461bcd60e51b815260206004820152601b60248201527a4578636565647320353025206f6620706f6f6c2062616c616e636560281b6044820152606490fd5b60405162461bcd60e51b815260206004820152600f60248201526e1499585cdbdb881c995c5d5a5c9959608a1b6044820152606490fd5b60405162461bcd60e51b815260206004820152601b60248201527a105b1c9958591e481a185d99481858dd1a5d99481c995c5d595cdd602a1b6044820152606490fd5b506002546004351115610c4a565b346103e95760203660031901126103e95760043560018060a01b0361108d8160015460081c1633146154bc565b8115158061115d575b61109f906154f4565b6110a7615616565b816000526003602052604060002090600282019182549060ff8260a01c1660048110156107b4576000808686600383968b99611131996110e8879915615537565b8360a01b60ff60a01b19821617865516855260116020526040852060ff198154169055828454168552601060205284604081205501549154165af161112b6155aa565b506155da565b7f6e5041900d295bfa61f87310386b97d863882ff214021a45b4e5da847849f10f600080a26001600055005b50600254821115611096565b346103e957611177366150ea565b61117f61566c565b81151580611391575b611191906154f4565b61119e6108743384616116565b6111a6615616565b816000526003916020928084526040600020600d8552604060002084600052855260406000209060068201928354966111e260ff891615615b03565b6111f0828501544211615b42565b60078301908154986001998a1c948a8601809611610f7f576112258b966004890154101580998860ff19809616178155615aeb565b871561135057868601546001600160a01b039290831690611246828c616176565b8160005260118552604060002081815416905560108552600060408120558a600052600585526040600020826000528552600560406000200190815416905589600052600f8452604060002090600052835260006040812055835490816112e6575b505050505050509060008051602061623f833981519152915b8501546040519182916112de91906001600160a01b0316836159ef565b0390a3600055005b90856112f3920154615a0a565b936000865b156112a857845481101561134b57611345908a6000526004855260406000208461132283896151de565b905490861b1c166000528552604060002061133e888254615571565b90556156b0565b866112f8565b6112a8565b50506000878152600f825260408082208b8801546001600160a01b03168352909252908120555060008051602061623f833981519152939291506112c19050565b50600254821115611188565b346103e95760203660031901126103e95760043560005260036020526113d86113cc6007604060002001615835565b6040519182918261544b565b0390f35b346103e9576113ea366151b4565b91600052600e60205260406000209060005260205260406000209060018060a01b0316600052602052602060ff604060002054166040519015158152f35b346103e95760403660031901126103e9576020610b4d6114466150be565b600435615d91565b346103e95760403660031901126103e9576114676150be565b600435600052600460205260406000209060018060a01b03166000526020526020604060002054604051908152f35b60a03660031901126103e9576004356001600160401b0381116103e9576114c190369060040161548f565b6064351515606435036103e9576001600160401b03608435116103e9573660236084350112156103e9576001600160401b0360046084350135116103e9573660246084356004013560051b6084350101116103e95761151e61566c565b33600052601160205260ff60406000205416611adc578015611aa057600260243510611a6757602860243511611a2d5760449160018335101580611a21575b156119e45734156119a557606435611898575b61157b6002546156b0565b9182600255826000526003602052604060002083815560018060401b038211610f69576115b8826115af60018401546151f6565b6001840161573f565b60009082601f81116001146118275761163a9260009161181c575b508360011b906000198560031b1c19161760018201555b6002810180546001600160a81b0319163360ff60a01b1916179055346003820181905560243560048301558635600583015560168201556116306064356018830161557e565b6007339101615784565b33600052601060205282604060002055601160205260406000209360ff19946001868254161790556040519461166f86615230565b3386526116f660208701606481526005604089016000815260608a016000815260808b01906000825260a08c0192600184528b6000528460205260406000203360005260205260406000209560018060a01b03809e511660018060a01b0319885416178755516001870155516002860155516003850155516004840155511515910161557e565b606435611752575b506000805160206162bf83398151915293945061172e60405193849333855260c0602086015260c08501916157c6565b903460408401526024356060840152356080830152606435151560a08301520390a2005b60843560240160005b6084356004013581106117a6575050846000805160206162bf8339815191529596506000526012602052604060002033600052602052600160406000209182541617905584936116fe565b611817908760005260126020526040600020896117d26117cd8460843560040135886156bf565b6156cf565b166000526020526040600020600185825416179055876000526013602052611812604060002061180c6117cd8460843560040135886156bf565b90615784565b6156b0565b61175b565b9050840135876115d3565b506001810160005260206000206000925b601f19851684106118805761163a935084601f19811610611866575b5050600183811b0160018201556115ea565b850135600019600386901b60f8161c191690558680611854565b85810135825560209384019360019092019101611838565b608435600401351561194c5760843560240160005b6084356004013581106118c1575050611570565b6001600160a01b03806118de6117cd8460046084350135876156bf565b161561190f579061181261190a9233906119026117cd8560843560040135896156bf565b1614156156e3565b6118ad565b60405162461bcd60e51b8152602060048201526016602482015275496e76616c696420696e76697465206164647265737360501b81880152606490fd5b60405162461bcd60e51b815260206004820152602c60248201527f507269766174652067726f757073206d7573742068617665206174206c656173818501526b74206f6e6520696e7669746560a01b6064820152608490fd5b60405162461bcd60e51b81526020600482015260186024820152770436f6e747269627574696f6e206d757374206265203e20360441b81850152606490fd5b60405162461bcd60e51b815260206004820152601660248201527554656e7572653a203120746f203234206d6f6e74687360501b81850152606490fd5b5060188335111561155d565b60405162461bcd60e51b81526020600482015260126024820152714d6178696d756d203430206d656d6265727360701b6044820152606490fd5b60405162461bcd60e51b81526020600482015260116024820152704d696e696d756d2032206d656d6265727360781b6044820152606490fd5b60405162461bcd60e51b81526020600482015260146024820152734e616d652063616e6e6f7420626520656d70747960601b6044820152606490fd5b60405162461bcd60e51b81526020600482015260196024820152781319585d994818dd5c9c995b9d0819dc9bdd5c08199a5c9cdd603a1b6044820152606490fd5b346103e95760203660031901126103e95760043560005260136020526113d86113cc6040600020615835565b346103e957611b57366151b4565b91600052600b60205260406000209060005260205260406000209060018060a01b0316600052602052602060ff604060002054166040519015158152f35b346103e9576020806003193601126103e957611baf6150d4565b604051637728c70960e01b81526001600160a01b039091166004820152600081602481305afa908115611c8457600091611bf2575b604051806113d88482615156565b90503d806000833e611c048183615282565b81019082818303126103e9578051906001600160401b0382116103e957019080601f830112156103e9578151611c39816159c4565b92611c476040519485615282565b818452848085019260051b8201019283116103e9578401905b828210611c75575050506113d8915082611be4565b81518152908401908401611c60565b6040513d6000823e3d90fd5b346103e95760403660031901126103e957600435611cac6150be565b90611cb561566c565b80151580611ee3575b611cc7906154f4565b600081815260036020908152604090912060028101546001600160a01b039492918582163303611ea4576018015460ff1615611e6d57836000526012825260406000209483169485600052825260ff60406000205416611e36578415611dff5760ff90611d36338714156156e3565b60a01c1660048110156107b45760018114908115611df6575b5015611db557906013611d8e92846000526012815260406000208660005281526040600020600160ff1982541617905584600052526040600020615784565b7f6e32da99952e6892c42b54eec8c835d9a2e0a6c879c0219cc693229e6894175a600080a3005b6064906040519062461bcd60e51b82526004820152601a60248201527947726f7570206e6f74206f70656e20666f7220696e766974657360301b6044820152fd5b90501585611d4f565b60405162461bcd60e51b815260048101839052600f60248201526e496e76616c6964206164647265737360881b6044820152606490fd5b60405162461bcd60e51b815260048101839052600f60248201526e105b1c9958591e481a5b9d9a5d1959608a1b6044820152606490fd5b60405162461bcd60e51b815260048101839052600f60248201526e47726f7570206973207075626c696360881b6044820152606490fd5b60405162461bcd60e51b81526004810184905260176024820152764f6e6c792063726561746f722063616e20696e7669746560481b6044820152606490fd5b50600254811115611cbe565b346103e9576020806003193601126103e957600435908160005260038152604060002060405191611f1f8361524b565b81548352611f2f600183016152a5565b838201526002828101546001600160a01b038082166040870152959060a01c60ff1660048110156107b457606086015260038401546080860152600484015460a08601526005918285015460c0870152600685015460e0870152611f9560078601615835565b956101008101968752876008870154166101208201526102206019611fbc6009890161538b565b976101408401988952611fd1601082016153e0565b610160850152601481015461018085015260158101546101a085015260168101546101c085015260178101546101e085015260ff6018820154161515610200850152015491015285515194519586519461204360608901519861203d836040830151920151918b615918565b99615918565b98600096806120f8575b5060009560005b8981106120a657505087159450612098935050505057606481029080820460641490151715610f7f576113d89261208a91615a0a565b905b60405194859485615100565b506113d8915060009061208c565b866000528184526040600020836120be8388516159db565b5116600052845285806040600020015410156120e3575b6120de906156b0565b612054565b966120f06120de916156b0565b9790506120d5565b90965060648a02908a82046064148b151715610f7f5761211791615a0a565b958a61204d565b346103e95760203660031901126103e9576004356000526003602052604060002080546001820161214e906152a5565b600283015460038401546004850154600586015460068701546008880154939795949293919290916001600160a01b03169061218c6009880161538b565b612198601089016153e0565b9260148901549460158a01549660168b01549860178c01549a60188d015460ff169c601901549d60405180608052526103608060805160200152608051016121df9161534b565b6080516001600160a01b0388166040909101529d60ff60a088901c16600411156107b45760ff60c09760a01c166060608051015260808051015260a0608051015284608051015260e0608051015261010060805101528051610120608051015260208101516101406080510152604081015161016060805101526060810151610180608051015260808101516101a0608051015260a08101516101c06080510152015115156101e0608051015280519060038210156107b4576080916102008351015260208101516102208351015260408101516102408351015260018060a01b03606082015116610260835101520151151561028060805101526102a060805101526102c060805101526102e06080510152610300608051015215156103206080510152610340608051015260805180910390f35b346103e95760003660031901126103e95760028054600060015b828111156123d8575061234190615b80565b9060009260015b8281111561235e57604051806113d88682615156565b80600052600390602082815260ff80856040600020015460a01c169360048510156107b457600161239d951492836123bc575b5050506123a2576156b0565b612348565b806123b66123af886156b0565b97876159db565b526156b0565b9091925083600052526018604060002001541615878080612391565b80600052600360209080825260ff9081876040600020015460a01c1660048110156107b4576001149283612432575b50505061241d575b612418906156b0565b61232f565b9061242a612418916156b0565b91905061240f565b9091925083600052526018604060002001541615858080612407565b346103e95760203660031901126103e9576020610b4d600435615d6e565b346103e95760403660031901126103e9576124856150be565b600435600052600560205260406000209060018060a01b03166000526020526020600160406000200154604051908152f35b346103e95760003660031901126103e95760206040516207a1208152f35b346103e95760003660031901126103e9576020600254604051908152f35b346103e95760003660031901126103e957602060405160288152f35b346103e95760403660031901126103e95760043561252b6150be565b9061253461566c565b80151580612644575b612546906154f4565b8060005260206003815260018060a01b0380600260406000200154163303612605578260005260128252604060002093169283600052815260ff60406000205416156125d35781600052601281526040600020908360005252604060002060ff1981541690557f8aec0db50e2fb503d8ef5d554809d700e2878a7431e522a5da1d94bf356dc438600080a3005b6064906040519062461bcd60e51b82526004820152600b60248201526a139bdd081a5b9d9a5d195960aa1b6044820152fd5b60405162461bcd60e51b81526004810183905260176024820152764f6e6c792063726561746f722063616e207265766f6b6560481b6044820152606490fd5b5060025481111561253d565b346103e95760203660031901126103e95760043560005260036020526020610b4d612693612684600960406000200161538b565b83604082015191015190615571565b615d6e565b346103e95760003660031901126103e957600180546126c533600883901c6001600160a01b0316146154bc565b6126cd61566c565b60ff1916176001557f62e78cea01bee320cd4e420270b5ea74000d11b0c9f74754ebdbfc544b05a2586020604051338152a1005b346103e95760403660031901126103e95761271a6150be565b600435600052600860205260406000209060018060a01b03166000526020526020604060002054604051908152f35b346103e9576020806003193601126103e9576004359061276761566c565b81151580612832575b612779906154f4565b6127866108743384616116565b61278e615616565b816000526004815260406000203360005281526040600020549081156127f6576000805160206162df83398151915291600361092992856000526004815260406000203360005281526000604081205585600052526017604060002001610900828254615828565b6064906040519062461bcd60e51b8252600482015260156024820152744e6f2070726f66697420746f20776974686472617760581b6044820152fd5b50600254821115612770565b346103e95760003660031901126103e957602060405162093a808152f35b346103e95761286a366150ea565b90600052600a6020526040600020906000526020526040600020805460018060a01b0360018301541691600281015460ff6128a7600384016152a5565b9260048101549360058201546128ea60068401549260086007860154950154966040519a8b9a8b5260208b015260408a01526101608060608b015289019061534b565b95608088015260a087015260c0860152818116151560e0860152818160081c16151561010086015260101c1615156101208401526101408301520390f35b346103e95760403660031901126103e9576004356129446150be565b61294c61566c565b81151580612b63575b61295e906154f4565b61296b6108743384616116565b8160005260206003815260406000209060ff60108301541660038110156107b457600103612b2e576129a3601183015442111561592b565b836000526007815260406000203360005281526129c860ff604060002054161561596e565b6001600160a01b03831690338214612aef576129e48486616116565b15612ab257612a92927fcfff1651bcea794952a516ce970ab17518a85210bd939aaeaac670a8d3e65ec794926012928760005260088152604060002082600052815260406000205415612a97575b876000526007815260406000203360005281526040600020600160ff198254161790558760005260088152604060002091600052526040600020612a7681546156b0565b905501612a8381546156b0565b905560405191829133836159aa565b0390a2005b8760005260098152612aad856040600020615784565b612a32565b6064906040519062461bcd60e51b825260048201526016602482015275043616e646964617465206e6f7420696e2067726f75760541b6044820152fd5b6064906040519062461bcd60e51b82526004820152601860248201527721b0b73737ba103b37ba32903337b9103cb7bab939b2b63360411b6044820152fd5b6064906040519062461bcd60e51b82526004820152600e60248201526d4e6f2061637469766520766f746560901b6044820152fd5b50600254821115612955565b346103e9576020806003193601126103e957612b896150d4565b60028054909291600060015b83811115612c605750612ba790615b80565b9260009460015b84811115612bc457604051806113d88882615156565b80600052600380845260ff80601860406000200154169182612c3c575b82612c10575b505090612bf791612bfc576156b0565b612bae565b806123b6612c098a6156b0565b99896159db565b909150826000528452826040600020015460a01c169060048210156107b45790600114612bf789612be7565b60128652604060008181206001600160a01b038a1682528852205482169250612be1565b80600052600380865260ff80601860406000200154169182612cd5575b82612cad575b5050612c98575b612c93906156b0565b612b95565b90612ca5612c93916156b0565b919050612c8a565b909150826000528652866040600020015460a01c1660048110156107b4576001148780612c83565b60128852604060008181206001600160a01b03891682528a52205482169250612c7d565b346103e957612d07366150ea565b906000526013602052604060002080548210156103e957602091612d2a916151de565b905460405160039290921b1c6001600160a01b03168152f35b60203660031901126103e957612d5761566c565b600435151580613131575b612d6b906154f4565b612d73615616565b600435600090815260036020526040902060088101546001600160a01b031633036130f957612da860ff600f83015416615a2f565b600c810154600582015411156130c057600b810154612dcc600a8301548092615571565b600091600190600e850154804211613086575b50612dea8484615571565b340361304a5783612dfa91615571565b92612e09600786015485615a0a565b9260005b6007870154811015612e6457612e5f9060043560005260046020526040600020612e3a8260078b016151de565b60018060a01b0391549060031b1c16600052602052604060002061133e878254615571565b612e0d565b5085935084612e7860178601918254615571565b9055612e87600c8501546156b0565b600c85015542600d85015562278d004201804211610f7f57600e8501556004356000526005602052604060002060018060a01b0360088601541660005260205260406000209260001461300f5760038301612ee281546156b0565b905560018301805490600a8201809211610f7f57555b600c8401549160405191338352602083015282604083015260608201527fa311ef6156db45bbe3ce4128bbe878541a06d895ff987c4316315b345ad499c0608060043592a26001600884015492015460008051602061625f83398151915260405180612f706004359460018060a01b03881683615a14565b0390a2600583015414612f85575b6001600055005b60009160129160ff199081600f84015416600f84015560198301612fa981546156b0565b8091556040519081527f03d7f456a773b484d2552719bd744b62049588737d6a02948eba3dcae1b0d77f602060043592a26001600160a01b031916600883015560108201805490911690556013810180546001600160a81b031916905501558080612f7e565b6004830161301d81546156b0565b9055600183018054600511613041578054600419810191908211610f7f5755612ef8565b60009055612ef8565b60405162461bcd60e51b8152602060048201526014602482015273125b98dbdc9c9958dd0811535248185b5bdd5b9d60621b6044820152606490fd5b83919450613098620151809142615828565b04911b82810460021483151715610f7f576064916130b591615918565b049160009085612ddf565b60405162461bcd60e51b8152602060048201526011602482015270131bd85b88199d5b1b1e481c995c185a59607a1b6044820152606490fd5b60405162461bcd60e51b815260206004820152601060248201526f2737ba103a3432903137b93937bbb2b960811b6044820152606490fd5b506002546004351115612d62565b346103e95761314d366151b4565b91600052600660205260406000209060005260205260406000209060018060a01b0316600052602052602060ff604060002054166040519015158152f35b346103e95760203660031901126103e95760043560005260036020526020610b4d601660406000200154615d6e565b6131c3366150ea565b6131cb61566c565b81151580613415575b6131dd906154f4565b6131e5615616565b81600052602091600a83526040600020826000528352604060002081600052600393848152604060002060018060a01b039560019680888601541633036133dc57600785019384549560ff8760081c161561339c5760ff8760101c16613366576002015494838602868104851487151715610f7f57606461326891048097615571565b968734036133245790620100008b9594939262ff0000191617905533600052600c81526000604081205560078501916132a2835488615a0a565b936000865b6132f4575b50858b8b7f5b32583ca9f1a2a6ac67b63a9553e4ae06ed06e8dee3ad359e71e202dd84d5cd6112de8d8d6132e560178f01918254615571565b90556040519182913383615a14565b845481101561331f57613319908b6000526004855260406000208461132283896151de565b866132a7565b6132ac565b60405162461bcd60e51b815260048101849052601a602482015279125b98dbdc9c9958dd081c995c185e5b595b9d08185b5bdd5b9d60321b6044820152606490fd5b60405162461bcd60e51b815260048101839052600e60248201526d105b1c9958591e481c995c185a5960921b6044820152606490fd5b60405162461bcd60e51b815260048101839052601860248201527714995c5d595cdd081dd85cc81b9bdd08185c1c1c9bdd995960421b6044820152606490fd5b60405162461bcd60e51b81526004810185905260116024820152702737ba103a3432903932b8bab2b9ba32b960791b6044820152606490fd5b506002548211156131d4565b346103e95761342f36615191565b61343a92919261566c565b81151580613583575b61344c906154f4565b6134596108743384616116565b816000526020600a8152604060002084600052815260406000209061348560ff60078401541615615b03565b613495600483015442111561592b565b83600052600b8152604060002085600052815260406000203360005281526134c560ff604060002054161561596e565b60018201546001600160a01b03163314613547576000848152600b82526040808220878352835280822033835290925220805460ff191660011790557f6f6e44e06b7560d636d01fa051314d5d0169c306bb1ad5914156cb73d166373791610a9d91811561353a57600501610a8d81546156b0565b600601610aaf81546156b0565b6064906040519062461bcd60e51b8252600482015260156024820152745265717565737465722063616e6e6f7420766f746560581b6044820152fd5b50600254821115613443565b346103e95760003660031901126103e95760028054600060015b8281111561360c57506135bb90615b80565b9060009260015b828111156135d857604051806113d88682615156565b80600052600360205260ff826040600020015460a01c169060048210156107b45761360791156123a2576156b0565b6135c2565b80600052600360205260ff846040600020015460a01c1660048110156107b45715613640575b61363b906156b0565b6135a9565b9061364d61363b916156b0565b919050613632565b346103e95760003660031901126103e957602060405160328152f35b346103e95760003660031901126103e957602060ff600154166040519015158152f35b6150a2565b61511c565b346103e95760203660031901126103e9576020610b4d600435615bb2565b346103e95760203660031901126103e9576004356136d861566c565b8015158061389f575b6136ea906154f4565b6136f76108743383616116565b6136ff615616565b8060005260036020526040600020600f81019081549061372260ff8316156158d6565b600881019260018060a01b03918285541693841561386257601682018054956005870287810460051488151715610f7f576064900490613766600586015489615a0a565b9462278d00420193844211610f7f576000976001899897899897600e8a99968f99978b988660c08d6040519061379b82615267565b81528360208201528460408201528c60608201524260808201528760a082015201528b6009840155600a830155600b82015587600c82015542600d820155015560ff1916179055555af16137ed6155aa565b5015613826577f895130d6ec3d51c762d94617e61152b1be8447db99e1efe41d743cbde09b39d792541661092960405192839283615a14565b60405162461bcd60e51b8152602060048201526014602482015273119d5b99081d1c985b9cd9995c8819985a5b195960621b6044820152606490fd5b60405162461bcd60e51b8152602060048201526015602482015274109bdc9c9bddd95c881b9bdd081cd95b1958dd1959605a1b6044820152606490fd5b506002548111156136e1565b346103e9576020806003193601126103e957600435906138c961566c565b81151580613a65575b6138db906154f4565b81600052600381526040600020906138f960ff600f84015416615a2f565b6008820180546001600160a01b039390841691908215613a3257600e019182549362278d0094858101809111610f7f574211156139ee578660005260058152604060002091600052526040600020926001600285019461395986546156b0565b865501926014845410156000146139e55783546013198101908111610f7f5784555b8054918201809211610f7f5760008051602061625f8339815191529587937f0a90557dba179566735be5e2a7c9e8b16e2242037372b763e05c77590bcd2992936139d19355541694546040519182918783615a14565b0390a25490612a9260405192839283615a14565b6000845561397b565b6064906040519062461bcd60e51b82526004820152601f60248201527f4e6f7420796574206f76657264756520627920612066756c6c206d6f6e7468006044820152fd5b60405162461bcd60e51b815260048101859052600b60248201526a2737903137b93937bbb2b960a91b6044820152606490fd5b506002548211156138d2565b346103e95760003660031901126103e957602060405160148152f35b346103e95760003660031901126103e95760206040516202a3008152f35b615138565b346103e95760403660031901126103e957613ac96150be565b600435600052600760205260406000209060018060a01b0316600052602052602060ff604060002054166040519015158152f35b346103e95760403660031901126103e957613b166150be565b600435600052600f60205260406000209060018060a01b03166000526020526020604060002054604051908152f35b346103e95760003660031901126103e957600154613b7133600883901c6001600160a01b0316146154bc565b60ff811615613bad5760ff19166001557f5db9ee0a495bf2e6ff9c91a7834c1ba4fdd244a5e8aa4e537bd38aeae4b073aa6020604051338152a1005b60405162461bcd60e51b815260206004820152601460248201527314185d5cd8589b194e881b9bdd081c185d5cd95960621b6044820152606490fd5b346103e95760203660031901126103e95760043560005260036020526040600020604051613c168161524b565b81548152613c26600183016152a5565b602082015260028201546001600160a01b03808216604084015260a09190911c60ff169260048410156107b45760c0610220926080956060860152600383015486860152600483015460a0860152600583015482860152600683015460e0860152613c9360078401615835565b906101008601918252600884015416610120860152613cb46009840161538b565b946101408101958652613cc9601085016153e0565b610160820152601484015461018082015260158401546101a08201526019601685015494856101c084015260178101546101e084015260ff6018820154161515610200840152015494859101525151935101511515604051938452602084015260408301526060820152f35b346103e9576020806003193601126103e95760043590613d5361566c565b81151580614012575b613d65906154f4565b613d726108743384616116565b8160005260038082526040600020916007808401928354600486015403613fd8576008858101546001600160a01b0393908416613f9957601087019660ff885416848110156107b457613f5d57613dd060ff600f83015416156158d6565b6002810160ff815460a01c1660048110156107b45760028114908115613f52575b5015613f1e5760005b8854811015613e6b57613e66908b600052848952604060002088613e1e838d6151de565b9054908a1b1c166000528952604060002060ff1981541690558b600052858952604060002088613e4e838d6151de565b9054908a1b1c166000528952600060408120556156b0565b613dfa565b8a8389848d8460005260098352604060002080546000825580613f03575b5050600160ff198254161790556202a300420190814211610f7f57601184018290556000601285015560139390930180546001600160a01b0319169055825460ff60a01b1916600160a11b179092556040519182527ff8c022056754dbacca05aff710dc315a2fa7699ae9309fda403cd1e55c11d40f91a2005b613f17916000528460002090810190615728565b8580613e89565b60405162461bcd60e51b815260048101889052600c60248201526b57726f6e672073746174757360a01b6044820152606490fd5b60019150148b613df1565b60405162461bcd60e51b8152600481018790526014602482015273159bdd1948185b1c9958591e481cdd185c9d195960621b6044820152606490fd5b60405162461bcd60e51b81526004810186905260176024820152762137b93937bbb2b91030b63932b0b23c9031b437b9b2b760491b6044820152606490fd5b60405162461bcd60e51b815260048101849052601260248201527111dc9bdd5c081b9bdd08199d5b1b081e595d60721b6044820152606490fd5b50600254821115613d5c565b346103e95760203660031901126103e95760043560005260036020526020610b4d61404f600960406000200161538b565b82604082015191015190615571565b346103e9576020806003193601126103e9576004359061407c61566c565b81151580614210575b61408e906154f4565b816000526003815260ff60026040600020015460a01c1660048110156107b45760016140ba91146157e7565b6140c2615616565b816000526003815260406000206140d93384616116565b156141dc5760028101546001600160a01b03163314614187579061062b60008080807fa8dcd974806422d974a6135dd981896f1694065789986f7ba7947fbb4759e89996614127338a616176565b600381019061413d601683549201918254615828565b9055338252601187526040822060ff199081815416905560108852826040812055898352600588526040832033845288526005604084200190815416905554335af161112b6155aa565b60405162461bcd60e51b815260048101839052602760248201527f43726561746f722063616e6e6f74206c65617665202d2072656a656374207669604482015266309030b236b4b760c91b6064820152608490fd5b60405162461bcd60e51b815260048101839052600c60248201526b2737ba10309036b2b6b132b960a11b6044820152606490fd5b50600254821115614085565b346103e95760203660031901126103e95761423561566c565b600435151580614662575b614249906154f4565b61425861087433600435616116565b60043560005260036020526040600020601081015460ff811660038110156107b45760010361462e5760118201544211801561461d575b156145df576000601283015480156000146143505750600783019081541561433a5760008051602061629f83398151915292612a9292600052601360018060a01b0360206000205416955b6008810180546001600160a01b0319166001600160a01b03891690811790915560ff1990931660021760108201550180546001600160a81b03191690911782151560a01b60ff60a01b1617905560405160043594909283929091836159ef565b634e487b7160e01b600052603260045260246000fd5b60009060005b600435600052600980602052604060002054821015614409576008806020526040600020908260205261438d8460406000206151de565b929060018060a01b03938491549060031b1c1660005260205285604060002054116143c4575b5050506143bf906156b0565b614356565b90919294506004356000526020526040600020916020526143e98460406000206151de565b90549060031b1c166000526020526143bf604060002054929087806143b3565b50509291600435600052600960205260406000205492614428846159c4565b936144366040519586615282565b808552614445601f19916159c4565b0136602086013760009160005b60043560005260096020526040600020548110156144f7576144b79060086020526040600020600960205261448b8260406000206151de565b919060018060a01b03928391549060031b1c1660005260205286604060002054146144bc575b506156b0565b614452565b60043560005260096020526144d58260406000206151de565b90549060031b1c166144f06144e9876156b0565b96896159db565b52896144b1565b509250936001821460001461453c57505081511561433a576020909101516001600160a01b03169260008051602061629f83398151915292612a9292916013906142da565b91509192600191600019430190438211610f7f57604051906020820192408352426040830152606082015260043560808201526080815260a0810181811060018060401b03821117610f69576040525190209383156145c95760008051602061629f83398151915294612a92946013926001600160a01b03926145c1929006906159db565b5116956142da565b634e487b7160e01b600052601260045260246000fd5b60405162461bcd60e51b8152602060048201526016602482015275566f7465207374696c6c20696e2070726f677265737360501b6044820152606490fd5b50601282015460078301541461428f565b60405162461bcd60e51b815260206004820152600c60248201526b4e6f206f70656e20766f746560a01b6044820152606490fd5b506002546004351115614240565b346103e95761467e366150ea565b61468661566c565b811515806148af575b614698906154f4565b6146a56108743384616116565b6146ad615616565b81600052602091600383526040600020600a84526040600020836000528452604060002060078101948554956146e660ff881615615b03565b6146f560048401544211615b42565b600784015496600197881c888101809111610f7f577fb910e2ac7b2959d46de10c641870eb1ca8bef723e4f53e0e026dd2ef9c6d04ab6060889261474e8b958d9760058b01938454101598899260ff1916178155615aeb565b54600688015460405191878352888301526040820152a31561488a5747916002810193845480941061484557600501549062278d0091828102928184041490151715610f7f5761479f889242615571565b60088201550190600080808060018060a01b0396878754165af16147c16155aa565b50156148055750907faca58d80f1ad9e62dac1912d6c507cd35fe5410df8d1d09d6ba4487241d1db6e929154169054906112de60405192839283615a14565b600055005b6064906040519062461bcd60e51b825260048201526019602482015278115b595c99d95b98de481d1c985b9cd9995c8819985a5b1959603a1b6044820152fd5b60405162461bcd60e51b815260048101849052601d60248201527f496e73756666696369656e7420636f6e74726163742062616c616e63650000006044820152606490fd5b908501546001600160a01b03166000908152600c909152604081205550614800915050565b5060025482111561468f565b346103e95760203660031901126103e9576001600160a01b036148dc6150d4565b166000526011602052602060ff604060002054166040519015158152f35b346103e95760203660031901126103e95760043561492660018060a01b0360015460081c1633146154bc565b801515806149cc575b614938906154f4565b80600052600360205260ff60026040600020015460a01c1660048110156107b4576149639015615537565b6000818152600360205260409020600201805460ff60a01b1916600160a01b1790554262093a808101908110610f7f578160005260036020526006604060002001557f6afb1f32c9b62907732c7131785b4227d9840afc33d8762875f6dada618d620a600080a2005b5060025481111561492f565b346103e95760403660031901126103e9576149f16150be565b6004356000526005602052604060002060018060a01b03809216600052602052604060002060405191614a2383615230565b81541682526113d860018201549182602085015260028101549384604082015260038201549081606082015260a060ff6005600486015495866080860152015416151591015260405194859485615100565b346103e957614a83366150ea565b90600052600d602052604060002090600052602052610100604060002060ff81549160018060a01b0390816001820154169160028201541660038201546004830154916006600585015494015494604051978852602088015260408701526060860152608085015260a0840152818116151560c084015260081c16151560e0820152f35b346103e95760403660031901126103e957614b206150be565b614b2861566c565b600435151580614e0d575b614b3c906154f4565b614b4b61087433600435616116565b60043560009081526003602052604090206001600160a01b0382169190338314614dd157614b7b82600435616116565b15614d965760043560005260056020526040600020836000526020526002806040600020015410614d5857600435600052600f602052604060002083600052602052604060002054614d185760150191614bd583546156b0565b8093556203f4804201804211610f7f576040516101008101916001600160401b03831182841017610f6957614cc692604052858252614cbd60c0600660208501878152604086019433865260608701908152608087016000815260a0880191600083526000868a015260e089019760008952600435600052600d6020528d6040600020906000526020526040600020948a518655600186019060018060a01b039051169060018060a01b03199182825416179055600286019160018060a01b03905116908254161790555160038401555160048301555160058201550193015115158361557e565b51151590615aeb565b600435600052600f602052604060002090600052602052816040600020557f079aade8012992f30385b9c91c5bdca9b4dffdb497b853421e7833b758617b4460405180610a9d600435943390836159aa565b60405162461bcd60e51b81526020600482015260186024820152774b69636b20616c726561647920696e2070726f677265737360401b6044820152606490fd5b60405162461bcd60e51b81526020600482015260166024820152754e6f7420656e6f756768206d697373656420454d497360501b6044820152606490fd5b60405162461bcd60e51b81526020600482015260136024820152720546172676574206e6f7420696e2067726f757606c1b6044820152606490fd5b60405162461bcd60e51b815260206004820152601460248201527321b0b73737ba1035b4b1b5903cb7bab939b2b63360611b6044820152606490fd5b506002546004351115614b33565b346103e95760403660031901126103e95760c0614e366150be565b6004356000526005602052604060002060018060a01b0380921660005260205260406000209081541690600181015490600281015460038201549060ff6005600485015494015416936040519586526020860152604085015260608401526080830152151560a0820152f35b346103e9576020806003193601126103e957600435614ebf61566c565b80151580615096575b614ed1906154f4565b8060005260039182815260ff60026040600020015460a01c169260048410156107b457614f0160018095146157e7565b614f09615616565b82600052808252604060002090600682015442111561505b57600782018054600484015411156150175760028301805460ff60a01b1916600360a01b179055918101918591906000835b614fb4575b83877f7aac2e1f5d480dd5ee714064322c3f2b41af09e78bcf63417f5c981c424c6a30606089601b604051918083528201527a457870697265643a206e6f742066696c6c656420696e2074696d6560281b6040820152a2600055005b815481101561501257806118126000808080614fd361500c97896151de565b9054908a1b1c6001600160a01b031680825260118d526040808320805460ff1916905560108e5282208290558b54905af161112b6155aa565b83614f53565b614f58565b60405162461bcd60e51b815260048101859052601c60248201527b47726f75702069732066756c6c2c2063616e6e6f742065787069726560201b6044820152606490fd5b60405162461bcd60e51b8152600481018490526013602482015272111958591b1a5b99481b9bdd081c185cdcd959606a1b6044820152606490fd5b50600254811115614ec8565b346103e95760003660031901126103e957602060405160058152f35b602435906001600160a01b03821682036103e957565b600435906001600160a01b03821682036103e957565b60409060031901126103e9576004359060243590565b9094939260609260808301968352602083015260408201520152565b346103e95760003660031901126103e957602060405160028152f35b346103e95760003660031901126103e95760206040516203f4808152f35b6020908160408183019282815285518094520193019160005b82811061517d575050505090565b83518552938101939281019260010161516f565b60609060031901126103e957600435906024359060443580151581036103e95790565b60609060031901126103e95760043590602435906044356001600160a01b03811681036103e95790565b805482101561433a5760005260206000200190600090565b90600182811c92168015615226575b602083101461521057565b634e487b7160e01b600052602260045260246000fd5b91607f1691615205565b60c081019081106001600160401b03821117610f6957604052565b61024081019081106001600160401b03821117610f6957604052565b60e081019081106001600160401b03821117610f6957604052565b601f909101601f19168101906001600160401b03821190821017610f6957604052565b90604051918260008254926152b9846151f6565b90818452600194858116908160001461532857506001146152e5575b50506152e392500383615282565b565b9093915060005260209081600020936000915b8183106153105750506152e3935082010138806152d5565b855488840185015294850194879450918301916152f8565b9150506152e394506020925060ff191682840152151560051b82010138806152d5565b919082519283825260005b848110615377575050826000602080949584010152601f8019910116010190565b602081830181015184830182015201615356565b9060405161539881615267565b60c060ff600683958054855260018101546020860152600281015460408601526003810154606086015260048101546080860152600581015460a08601520154161515910152565b60405190919060a081016001600160401b03811182821017610f6957604052809260ff8154169060038210156107b4579082526001810154602083015260028101546040830152600301546001600160a01b038116606083015260a01c60ff16151560809190910152565b6020908160408183019282815285518094520193019160005b828110615472575050505090565b83516001600160a01b031685529381019392810192600101615464565b9181601f840112156103e9578235916001600160401b0383116103e957602083818601950101116103e957565b156154c357565b60405162461bcd60e51b81526020600482015260096024820152682737ba1030b236b4b760b91b6044820152606490fd5b156154fb57565b60405162461bcd60e51b815260206004820152601460248201527311dc9bdd5c08191bd95cc81b9bdd08195e1a5cdd60621b6044820152606490fd5b1561553e57565b60405162461bcd60e51b815260206004820152600b60248201526a4e6f742070656e64696e6760a81b6044820152606490fd5b91908201809211610f7f57565b9060ff801983541691151516179055565b6001600160401b038111610f6957601f01601f191660200190565b3d156155d5573d906155bb8261558f565b916155c96040519384615282565b82523d6000602084013e565b606090565b156155e157565b60405162461bcd60e51b815260206004820152600d60248201526c1499599d5b990819985a5b1959609a1b6044820152606490fd5b600260005414615627576002600055565b60405162461bcd60e51b815260206004820152601f60248201527f5265656e7472616e637947756172643a207265656e7472616e742063616c6c006044820152606490fd5b60ff6001541661567857565b60405162461bcd60e51b815260206004820152601060248201526f14185d5cd8589b194e881c185d5cd95960821b6044820152606490fd5b6000198114610f7f5760010190565b919081101561433a5760051b0190565b356001600160a01b03811681036103e95790565b156156ea57565b60405162461bcd60e51b815260206004820152601660248201527521b0b73737ba1034b73b34ba32903cb7bab939b2b63360511b6044820152606490fd5b818110615733575050565b60008155600101615728565b9190601f811161574e57505050565b6152e3926000526020600020906020601f840160051c8301931061577a575b601f0160051c0190615728565b909150819061576d565b80549190600160401b831015610f6957826157a79160016152e3950181556151de565b90919082549060031b9160018060a01b03809116831b921b1916179055565b908060209392818452848401376000828201840152601f01601f1916010190565b156157ee57565b60405162461bcd60e51b815260206004820152601260248201527157726f6e672067726f75702073746174757360701b6044820152606490fd5b91908203918211610f7f57565b9060405191828154918282526020928383019160005283600020936000905b82821061586a575050506152e392500383615282565b85546001600160a01b031684526001958601958895509381019390910190615854565b1561589457565b60405162461bcd60e51b815260206004820152601a60248201527904e6f742061206d656d626572206f6620746869732067726f75760341b6044820152606490fd5b156158dd57565b60405162461bcd60e51b81526020600482015260136024820152724c6f616e20616c72656164792061637469766560681b6044820152606490fd5b81810292918115918404141715610f7f57565b1561593257565b60405162461bcd60e51b8152602060048201526014602482015273159bdd1a5b99c81dda5b991bddc818db1bdcd95960621b6044820152606490fd5b1561597557565b60405162461bcd60e51b815260206004820152600d60248201526c105b1c9958591e481d9bdd1959609a1b6044820152606490fd5b6001600160a01b0391821681529116602082015260400190565b6001600160401b038111610f695760051b60200190565b805182101561433a5760209160051b010190565b6001600160a01b039091168152901515602082015260400190565b81156145c9570490565b6001600160a01b039091168152602081019190915260400190565b15615a3657565b60405162461bcd60e51b815260206004820152600e60248201526d27379030b1ba34bb32903637b0b760911b6044820152606490fd5b15615a7357565b60405162461bcd60e51b815260206004820152600f60248201526e151c985b9cd9995c8819985a5b1959608a1b6044820152606490fd5b15615ab157565b60405162461bcd60e51b81526020600482015260126024820152710416d6f756e74206d757374206265203e20360741b6044820152606490fd5b9061ff00825491151560081b169061ff001916179055565b15615b0a57565b60405162461bcd60e51b815260206004820152601060248201526f105b1c9958591e481c995cdbdb1d995960821b6044820152606490fd5b15615b4957565b60405162461bcd60e51b815260206004820152600f60248201526e2b37ba329039ba34b6361037b832b760891b6044820152606490fd5b90615b8a826159c4565b615b976040519182615282565b8281528092615ba8601f19916159c4565b0190602036910137565b6000526003602052615bca600960406000200161538b565b60c0810151158015615c2b575b615c2557615c0262015180615bf060a084015142615828565b04916020604082015191015190615571565b8060011b9080820460021490151715610f7f57606491615c2191615918565b0490565b50600090565b5060a0810151421115615bd7565b60005260036020526040600020604051615c528161524b565b81548152615c62600183016152a5565b602082015260028201546001600160a01b0380821660408401529260a09190911c60ff169160048310156107b4576060928382015260038201546080820152600482015460a082015260058201549360c08201948552600683015460e0830152615cce60078401615835565b6101008301526008830154166101208201526102206019615cf16009850161538b565b936101408401948552615d06601082016153e0565b610160850152601481015461018085015260158101546101a085015260168101546101c085015260178101546101e085015260ff6018820154161515610200850152015491015251015190519081811015615d6757615d6491615828565b90565b5050600090565b6207a12090818102918183041490151715610f7f57670de0b6b3a7640000900490565b90600091825260056020526040822060018060a01b0380921683526020526040822060405191615dc083615230565b815416825260018101548060208401526002820154926040810193845260a060ff6005600386015495866060860152600481015460808601520154161515910152600582029180830460051490151715615e805790615e269160328211615e7757615571565b905190600f820291808304600f1490151715615e6357808211615e5e57615e4d9250615828565b60c88111615e585790565b5060c890565b505090565b634e487b7160e01b83526011600452602483fd5b60329150615571565b634e487b7160e01b84526011600452602484fd5b9081600052600360205260406000209160405192615eb18461524b565b80548452615ec1600182016152a5565b602085015260028101546001600160a01b038116604086015260a01c60ff169060048210156107b457601991606086015260038101546080860152600481015460a0860152600581015460c0860152600681015460e0860152615f2660078201615835565b61010086015260088101546001600160a01b0316610120860152615f4c6009820161538b565b610140860152615f5e601082016153e0565b610160860152601481015461018086015260158101546101a086015260168101546101c086015260178101546101e086015260ff60188201541615156102008601520154610220840152610100830151519182156161065760009060009360009360005b82811061600057505060648102818104606403610f7f576101e091615fef615ff59260a08a015190615a0a565b94615a0a565b950151919493929190565b816000526005602052604060002060018060a01b03616024836101008c01516159db565b511660005260205261608d60406000206040519661604188615230565b81546001600160a01b03168852600182015460208901819052600283015460408a0152600383015460608a0152600483015460808a015260059092015460ff16151560a0890152615571565b9460608101511515806160fa575b806160ee575b6160d7575b6040600291015110156160c2575b6160bd906156b0565b615fc2565b946160cf6160bd916156b0565b9590506160b4565b9660406160e56002926156b0565b989150506160a6565b506040810151156160a1565b5060808101511561609b565b6000935083925082915081908190565b600052600360205261612e6007604060002001615835565b9060005b825181101561616e576001600160a01b038061614e83866159db565b51169083161461616657616161906156b0565b616132565b505050600190565b505050600090565b906000918252600390816020526007604084200190835b825480821015616236576161a182856151de565b90546001600160a01b039291871b1c8216848316146161ca5750506161c5906156b0565b61618d565b92509293949060001992838101908111615e6357906157a7856161f06161fe94896151de565b9054908a1b1c1691876151de565b83549081156162225750019261621484846151de565b81939154921b1b1916905555565b634e487b7160e01b81526031600452602490fd5b50505050505056fedfb03b3beee04de7b14abd3e288ba800b7aaa69f5b9f8ee9fe361dd24d4c098d52b03660df9e58e6a5519f066933b571653ce7309b41e9e172a00a429d5f11ae51e7b7715627110f62280ac03d656c8dbd6adb8f0c4acbbfb4b9ed094e3d0be2a4de64f8ece5e3d0e00794857bf4663d0774d75efc197695fa248f3f3e0b43e97a227e0e50d43ccba33ae2da80553feecfe250cb454156c8d1d7fd53e80a6d169dadf9e0a46d44d7f45907190d0c0fdbf833f91d9b4b7478bad96964bb98372ca2646970667358221220502b1d70d0634182bb259d54cf0393823044219ade0935d68344491edc6f5ec364736f6c63430008140033","opcodes":"PUSH1 0x80 DUP1 PUSH1 0x40 MSTORE CALLVALUE PUSH2 0x3B JUMPI PUSH1 0x1 PUSH1 0x0 DUP2 SWAP1 SSTORE DUP1 SLOAD PUSH1 0x1 PUSH1 0x1 PUSH1 0xA8 SHL SUB NOT AND CALLER PUSH1 0x8 SHL PUSH2 0x100 PUSH1 0x1 PUSH1 0xA8 SHL SUB AND OR SWAP1 SSTORE PUSH2 0x6334 SWAP1 DUP2 PUSH3 0x41 DUP3 CODECOPY RETURN JUMPDEST PUSH1 0x0 DUP1 REVERT INVALID PUSH1 0xA0 PUSH1 0x40 MSTORE PUSH1 0x4 CALLDATASIZE LT ISZERO PUSH2 0x1B JUMPI JUMPDEST CALLDATASIZE ISZERO PUSH2 0x19 JUMPI PUSH1 0x0 DUP1 REVERT JUMPDEST STOP JUMPDEST PUSH1 0x0 CALLDATALOAD PUSH1 0xE0 SHR DUP1 PUSH4 0x5BCCA8C EQ PUSH2 0x50A2 JUMPI DUP1 PUSH4 0x6545A93 EQ PUSH2 0x24D5 JUMPI DUP1 PUSH4 0x6911660 EQ PUSH2 0x4EA2 JUMPI DUP1 PUSH4 0x7E079D3 EQ PUSH2 0x4E1B JUMPI DUP1 PUSH4 0xEB8D824 EQ PUSH2 0x4B07 JUMPI DUP1 PUSH4 0x12E81B80 EQ PUSH2 0x41D JUMPI DUP1 PUSH4 0x15A9313E EQ PUSH2 0x4A75 JUMPI DUP1 PUSH4 0x1E67939E EQ PUSH2 0x49D8 JUMPI DUP1 PUSH4 0x1FABA943 EQ PUSH2 0x48FA JUMPI DUP1 PUSH4 0x2048CBA4 EQ PUSH2 0x48BB JUMPI DUP1 PUSH4 0x23E955D8 EQ PUSH2 0x3699 JUMPI DUP1 PUSH4 0x29FE0BDA EQ PUSH2 0x4670 JUMPI DUP1 PUSH4 0x30F4CCAC EQ PUSH2 0x421C JUMPI DUP1 PUSH4 0x31C19D50 EQ PUSH2 0x3AAB JUMPI DUP1 PUSH4 0x33471DF5 EQ PUSH2 0x405E JUMPI DUP1 PUSH4 0x33DD6BED EQ PUSH2 0x2701 JUMPI DUP1 PUSH4 0x36B8C126 EQ PUSH2 0x401E JUMPI DUP1 PUSH4 0x3D2F5BDA EQ PUSH2 0x3D35 JUMPI DUP1 PUSH4 0x3E737A72 EQ PUSH2 0x3BE9 JUMPI DUP1 PUSH4 0x3F4BA83A EQ PUSH2 0x3B45 JUMPI DUP1 PUSH4 0x42D3D77F EQ PUSH2 0x3AFD JUMPI DUP1 PUSH4 0x43859632 EQ PUSH2 0x3AB0 JUMPI DUP1 PUSH4 0x45DCD02C EQ PUSH2 0x3699 JUMPI DUP1 PUSH4 0x46013B73 EQ PUSH2 0x3AAB JUMPI DUP1 PUSH4 0x469A78D2 EQ PUSH2 0x3A8D JUMPI DUP1 PUSH4 0x49C7032D EQ PUSH2 0x3A71 JUMPI DUP1 PUSH4 0x4AA5F1E2 EQ PUSH2 0x38AB JUMPI DUP1 PUSH4 0x4D68282F EQ PUSH2 0x36BC JUMPI DUP1 PUSH4 0x53B7E0E5 EQ PUSH2 0x369E JUMPI DUP1 PUSH4 0x5A45D69B EQ PUSH2 0x3699 JUMPI DUP1 PUSH4 0x5B72A33A EQ PUSH2 0x3694 JUMPI DUP1 PUSH4 0x5C975ABB EQ PUSH2 0x3671 JUMPI DUP1 PUSH4 0x5DEF8D83 EQ PUSH2 0x3655 JUMPI DUP1 PUSH4 0x612E6754 EQ PUSH2 0x358F JUMPI DUP1 PUSH4 0x63C1F262 EQ PUSH2 0x3421 JUMPI DUP1 PUSH4 0x6433B9B3 EQ PUSH2 0x31BA JUMPI DUP1 PUSH4 0x6A47F8E8 EQ PUSH2 0x318B JUMPI DUP1 PUSH4 0x6CACDDB6 EQ PUSH2 0x313F JUMPI DUP1 PUSH4 0x73370600 EQ PUSH2 0x2D43 JUMPI DUP1 PUSH4 0x74BF5392 EQ PUSH2 0x2CF9 JUMPI DUP1 PUSH4 0x7728C709 EQ PUSH2 0x2B6F JUMPI DUP1 PUSH4 0x77DF41B7 EQ PUSH2 0x2928 JUMPI DUP1 PUSH4 0x7D888499 EQ PUSH2 0x285C JUMPI DUP1 PUSH4 0x7F08EE7C EQ PUSH2 0x283E JUMPI DUP1 PUSH4 0x8115F4FF EQ PUSH2 0x2749 JUMPI DUP1 PUSH4 0x8169BB73 EQ PUSH2 0x2701 JUMPI DUP1 PUSH4 0x8456CB59 EQ PUSH2 0x2698 JUMPI DUP1 PUSH4 0x8746A4BE EQ PUSH2 0x2650 JUMPI DUP1 PUSH4 0x87B67393 EQ PUSH2 0x250F JUMPI DUP1 PUSH4 0x8D67799E EQ PUSH2 0x24F3 JUMPI DUP1 PUSH4 0x8F23B326 EQ PUSH2 0x24D5 JUMPI DUP1 PUSH4 0x90657587 EQ PUSH2 0x24B7 JUMPI DUP1 PUSH4 0x935D2ED0 EQ PUSH2 0x246C JUMPI DUP1 PUSH4 0x938CE87E EQ PUSH2 0x244E JUMPI DUP1 PUSH4 0x95AD7D2E EQ PUSH2 0x2315 JUMPI DUP1 PUSH4 0x96324BD4 EQ PUSH2 0x211E JUMPI DUP1 PUSH4 0x99C49938 EQ PUSH2 0x1EEF JUMPI DUP1 PUSH4 0x9E6D6830 EQ PUSH2 0x1C90 JUMPI DUP1 PUSH4 0xA415D2F4 EQ PUSH2 0x144E JUMPI DUP1 PUSH4 0xA4DB91B9 EQ PUSH2 0x1B95 JUMPI DUP1 PUSH4 0xA5D03381 EQ PUSH2 0x1B49 JUMPI DUP1 PUSH4 0xA673CEE6 EQ PUSH2 0x1B1D JUMPI DUP1 PUSH4 0xB5555A3D EQ PUSH2 0x1496 JUMPI DUP1 PUSH4 0xB6EB3AFC EQ PUSH2 0x144E JUMPI DUP1 PUSH4 0xC046CD38 EQ PUSH2 0x1428 JUMPI DUP1 PUSH4 0xC04977D3 EQ PUSH2 0x13DC JUMPI DUP1 PUSH4 0xC477ECAB EQ PUSH2 0x139D JUMPI DUP1 PUSH4 0xC648FE8E EQ PUSH2 0x1169 JUMPI DUP1 PUSH4 0xCA61B301 EQ PUSH2 0x1060 JUMPI DUP1 PUSH4 0xCF6A77D5 EQ PUSH2 0xC07 JUMPI DUP1 PUSH4 0xD3F514CA EQ PUSH2 0xBEB JUMPI DUP1 PUSH4 0xD5999A5C EQ PUSH2 0xBCD JUMPI DUP1 PUSH4 0xDDF1A681 EQ PUSH2 0xB93 JUMPI DUP1 PUSH4 0xDE21901A EQ PUSH2 0xB55 JUMPI DUP1 PUSH4 0xDFD99358 EQ PUSH2 0xB2F JUMPI DUP1 PUSH4 0xE517DD1A EQ PUSH2 0x979 JUMPI DUP1 PUSH4 0xE7AAE115 EQ PUSH2 0x83F JUMPI DUP1 PUSH4 0xEBE59152 EQ PUSH2 0x805 JUMPI DUP1 PUSH4 0xED1375D5 EQ PUSH2 0x7D6 JUMPI DUP1 PUSH4 0xEED02E4B EQ PUSH2 0x486 JUMPI DUP1 PUSH4 0xF3D25FC5 EQ PUSH2 0x46A JUMPI DUP1 PUSH4 0xF5B02926 EQ PUSH2 0x41D JUMPI DUP1 PUSH4 0xF62DA739 EQ PUSH2 0x3EE JUMPI PUSH4 0xF851A440 SUB PUSH2 0xE JUMPI CALLVALUE PUSH2 0x3E9 JUMPI PUSH1 0x0 CALLDATASIZE PUSH1 0x3 NOT ADD SLT PUSH2 0x3E9 JUMPI PUSH1 0x1 SLOAD PUSH1 0x40 MLOAD PUSH1 0x8 SWAP2 SWAP1 SWAP2 SHR PUSH1 0x1 PUSH1 0x1 PUSH1 0xA0 SHL SUB AND DUP2 MSTORE PUSH1 0x20 SWAP1 RETURN JUMPDEST PUSH1 0x0 DUP1 REVERT JUMPDEST CALLVALUE PUSH2 0x3E9 JUMPI PUSH1 0x20 CALLDATASIZE PUSH1 0x3 NOT ADD SLT PUSH2 0x3E9 JUMPI PUSH1 0x4 CALLDATALOAD PUSH1 0x0 MSTORE PUSH1 0x3 PUSH1 0x20 MSTORE PUSH1 0x20 PUSH1 0xE PUSH1 0x40 PUSH1 0x0 KECCAK256 ADD SLOAD PUSH1 0x40 MLOAD SWAP1 DUP2 MSTORE RETURN JUMPDEST CALLVALUE PUSH2 0x3E9 JUMPI PUSH1 0x40 CALLDATASIZE PUSH1 0x3 NOT ADD SLT PUSH2 0x3E9 JUMPI PUSH2 0x436 PUSH2 0x50BE JUMP JUMPDEST PUSH1 0x4 CALLDATALOAD PUSH1 0x0 MSTORE PUSH1 0x12 PUSH1 0x20 MSTORE PUSH1 0x40 PUSH1 0x0 KECCAK256 SWAP1 PUSH1 0x1 DUP1 PUSH1 0xA0 SHL SUB AND PUSH1 0x0 MSTORE PUSH1 0x20 MSTORE PUSH1 0x20 PUSH1 0xFF PUSH1 0x40 PUSH1 0x0 KECCAK256 SLOAD AND PUSH1 0x40 MLOAD SWAP1 ISZERO ISZERO DUP2 MSTORE RETURN JUMPDEST CALLVALUE PUSH2 0x3E9 JUMPI PUSH1 0x0 CALLDATASIZE PUSH1 0x3 NOT ADD SLT PUSH2 0x3E9 JUMPI PUSH1 0x20 PUSH1 0x40 MLOAD PUSH1 0xA DUP2 MSTORE RETURN JUMPDEST PUSH1 0x20 DUP1 PUSH1 0x3 NOT CALLDATASIZE ADD SLT PUSH2 0x3E9 JUMPI PUSH1 0x4 CALLDATALOAD SWAP1 PUSH2 0x49F PUSH2 0x566C JUMP JUMPDEST DUP2 ISZERO ISZERO DUP1 PUSH2 0x7CA JUMPI JUMPDEST PUSH2 0x4B1 SWAP1 PUSH2 0x54F4 JUMP JUMPDEST DUP2 PUSH1 0x0 MSTORE PUSH1 0x3 DUP2 MSTORE PUSH1 0xFF PUSH1 0x2 PUSH1 0x40 PUSH1 0x0 KECCAK256 ADD SLOAD PUSH1 0xA0 SHR AND PUSH1 0x4 DUP2 LT ISZERO PUSH2 0x7B4 JUMPI PUSH1 0x1 PUSH2 0x4DD SWAP2 EQ PUSH2 0x57E7 JUMP JUMPDEST PUSH2 0x4E5 PUSH2 0x5616 JUMP JUMPDEST DUP2 PUSH1 0x0 MSTORE PUSH1 0x3 DUP2 MSTORE PUSH1 0x40 PUSH1 0x0 KECCAK256 CALLER PUSH1 0x0 MSTORE PUSH1 0x11 DUP3 MSTORE PUSH1 0xFF PUSH1 0x40 PUSH1 0x0 KECCAK256 SLOAD AND PUSH2 0x77A JUMPI PUSH1 0x7 DUP2 ADD DUP1 SLOAD PUSH1 0x4 DUP4 ADD SLOAD GT ISZERO PUSH2 0x745 JUMPI PUSH1 0x3 DUP3 ADD SLOAD CALLVALUE SUB PUSH2 0x70D JUMPI PUSH1 0x6 DUP3 ADD SLOAD TIMESTAMP GT PUSH2 0x6CB JUMPI PUSH1 0xFF PUSH1 0x18 DUP4 ADD SLOAD AND PUSH2 0x639 JUMPI JUMPDEST PUSH32 0x78DA64A590C3052953AD9E0A5546BBF12BB68AE7634E3FB2A774E22A8C6557C1 SWAP3 SWAP2 PUSH2 0x56B PUSH1 0x16 SWAP3 CALLER SWAP1 PUSH2 0x5784 JUMP JUMPDEST ADD PUSH2 0x577 CALLVALUE DUP3 SLOAD PUSH2 0x5571 JUMP JUMPDEST SWAP1 SSTORE CALLER PUSH1 0x0 MSTORE PUSH1 0x10 DUP2 MSTORE DUP3 PUSH1 0x40 PUSH1 0x0 KECCAK256 SSTORE PUSH1 0x11 DUP2 MSTORE PUSH1 0x40 PUSH1 0x0 KECCAK256 PUSH1 0x1 PUSH1 0xFF NOT DUP3 SLOAD AND OR SWAP1 SSTORE PUSH2 0x62B PUSH1 0x40 MLOAD PUSH2 0x5AB DUP2 PUSH2 0x5230 JUMP JUMPDEST CALLER DUP2 MSTORE PUSH1 0x5 DUP4 DUP3 ADD PUSH1 0x64 DUP2 MSTORE PUSH1 0x40 DUP4 ADD PUSH1 0x0 DUP2 MSTORE PUSH1 0x60 DUP5 ADD PUSH1 0x0 DUP2 MSTORE PUSH1 0x80 DUP6 ADD SWAP2 PUSH1 0x0 DUP4 MSTORE PUSH1 0xA0 DUP7 ADD SWAP4 PUSH1 0x1 DUP6 MSTORE DUP11 PUSH1 0x0 MSTORE DUP6 DUP10 MSTORE PUSH1 0x40 PUSH1 0x0 KECCAK256 CALLER PUSH1 0x0 MSTORE DUP10 MSTORE PUSH1 0x40 PUSH1 0x0 KECCAK256 SWAP7 PUSH1 0x1 DUP1 PUSH1 0xA0 SHL SUB SWAP1 MLOAD AND PUSH1 0x1 DUP1 PUSH1 0xA0 SHL SUB NOT DUP9 SLOAD AND OR DUP8 SSTORE MLOAD PUSH1 0x1 DUP8 ADD SSTORE MLOAD PUSH1 0x2 DUP7 ADD SSTORE MLOAD PUSH1 0x3 DUP6 ADD SSTORE MLOAD PUSH1 0x4 DUP5 ADD SSTORE MLOAD ISZERO ISZERO SWAP2 ADD PUSH2 0x557E JUMP JUMPDEST PUSH1 0x40 MLOAD CALLER DUP2 MSTORE LOG2 PUSH1 0x1 PUSH1 0x0 SSTORE STOP JUMPDEST DUP4 PUSH1 0x0 MSTORE PUSH1 0x12 DUP4 MSTORE PUSH1 0x40 PUSH1 0x0 KECCAK256 CALLER PUSH1 0x0 MSTORE DUP4 MSTORE PUSH1 0xFF PUSH1 0x40 PUSH1 0x0 KECCAK256 SLOAD AND ISZERO PUSH2 0x67C JUMPI PUSH1 0x0 DUP5 DUP2 MSTORE PUSH1 0x12 DUP5 MSTORE PUSH1 0x40 DUP1 DUP3 KECCAK256 CALLER DUP4 MSTORE DUP6 MSTORE SWAP1 KECCAK256 DUP1 SLOAD PUSH1 0xFF NOT AND SWAP1 SSTORE PUSH2 0x53B JUMP JUMPDEST PUSH1 0x40 MLOAD PUSH3 0x461BCD PUSH1 0xE5 SHL DUP2 MSTORE PUSH1 0x4 DUP2 ADD DUP5 SWAP1 MSTORE PUSH1 0x21 PUSH1 0x24 DUP3 ADD MSTORE PUSH32 0x4E6F7420696E766974656420746F207468697320707269766174652067726F75 PUSH1 0x44 DUP3 ADD MSTORE PUSH1 0x7 PUSH1 0xFC SHL PUSH1 0x64 DUP3 ADD MSTORE PUSH1 0x84 SWAP1 REVERT JUMPDEST PUSH1 0x40 MLOAD PUSH3 0x461BCD PUSH1 0xE5 SHL DUP2 MSTORE PUSH1 0x4 DUP2 ADD DUP5 SWAP1 MSTORE PUSH1 0x1A PUSH1 0x24 DUP3 ADD MSTORE PUSH26 0x11DC9BDD5C08199A5B1B08191958591B1A5B99481C185CDCD959 PUSH1 0x32 SHL PUSH1 0x44 DUP3 ADD MSTORE PUSH1 0x64 SWAP1 REVERT JUMPDEST PUSH1 0x40 MLOAD PUSH3 0x461BCD PUSH1 0xE5 SHL DUP2 MSTORE PUSH1 0x4 DUP2 ADD DUP5 SWAP1 MSTORE PUSH1 0x10 PUSH1 0x24 DUP3 ADD MSTORE PUSH16 0x15DC9BDB99C811551208185B5BDD5B9D PUSH1 0x82 SHL PUSH1 0x44 DUP3 ADD MSTORE PUSH1 0x64 SWAP1 REVERT JUMPDEST PUSH1 0x40 MLOAD PUSH3 0x461BCD PUSH1 0xE5 SHL DUP2 MSTORE PUSH1 0x4 DUP2 ADD DUP5 SWAP1 MSTORE PUSH1 0xD PUSH1 0x24 DUP3 ADD MSTORE PUSH13 0x11DC9BDD5C081A5CC8199D5B1B PUSH1 0x9A SHL PUSH1 0x44 DUP3 ADD MSTORE PUSH1 0x64 SWAP1 REVERT JUMPDEST PUSH1 0x40 MLOAD PUSH3 0x461BCD PUSH1 0xE5 SHL DUP2 MSTORE PUSH1 0x4 DUP2 ADD DUP4 SWAP1 MSTORE PUSH1 0x12 PUSH1 0x24 DUP3 ADD MSTORE PUSH18 0x416C726561647920696E20612067726F757 PUSH1 0x74 SHL PUSH1 0x44 DUP3 ADD MSTORE PUSH1 0x64 SWAP1 REVERT JUMPDEST PUSH4 0x4E487B71 PUSH1 0xE0 SHL PUSH1 0x0 MSTORE PUSH1 0x21 PUSH1 0x4 MSTORE PUSH1 0x24 PUSH1 0x0 REVERT JUMPDEST POP PUSH1 0x2 SLOAD DUP3 GT ISZERO PUSH2 0x4A8 JUMP JUMPDEST CALLVALUE PUSH2 0x3E9 JUMPI PUSH1 0x20 CALLDATASIZE PUSH1 0x3 NOT ADD SLT PUSH2 0x3E9 JUMPI PUSH1 0x4 CALLDATALOAD PUSH1 0x0 MSTORE PUSH1 0x3 PUSH1 0x20 MSTORE PUSH1 0x20 PUSH1 0x16 PUSH1 0x40 PUSH1 0x0 KECCAK256 ADD SLOAD PUSH1 0x40 MLOAD SWAP1 DUP2 MSTORE RETURN JUMPDEST CALLVALUE PUSH2 0x3E9 JUMPI PUSH1 0x20 CALLDATASIZE PUSH1 0x3 NOT ADD SLT PUSH2 0x3E9 JUMPI PUSH1 0x1 PUSH1 0x1 PUSH1 0xA0 SHL SUB PUSH2 0x826 PUSH2 0x50D4 JUMP JUMPDEST AND PUSH1 0x0 MSTORE PUSH1 0x10 PUSH1 0x20 MSTORE PUSH1 0x20 PUSH1 0x40 PUSH1 0x0 KECCAK256 SLOAD PUSH1 0x40 MLOAD SWAP1 DUP2 MSTORE RETURN JUMPDEST CALLVALUE PUSH2 0x3E9 JUMPI PUSH2 0x84D CALLDATASIZE PUSH2 0x50EA JUMP JUMPDEST PUSH2 0x855 PUSH2 0x566C JUMP JUMPDEST DUP2 ISZERO ISZERO DUP1 PUSH2 0x96D JUMPI JUMPDEST PUSH2 0x867 SWAP1 PUSH2 0x54F4 JUMP JUMPDEST PUSH2 0x879 PUSH2 0x874 CALLER DUP5 PUSH2 0x6116 JUMP JUMPDEST PUSH2 0x588D JUMP JUMPDEST PUSH2 0x881 PUSH2 0x5616 JUMP JUMPDEST PUSH2 0x88C DUP2 ISZERO ISZERO PUSH2 0x5AAA JUMP JUMPDEST DUP2 PUSH1 0x0 MSTORE PUSH1 0x20 PUSH1 0x4 DUP2 MSTORE PUSH1 0x40 PUSH1 0x0 KECCAK256 CALLER PUSH1 0x0 MSTORE DUP2 MSTORE DUP2 PUSH1 0x40 PUSH1 0x0 KECCAK256 SLOAD LT PUSH2 0x933 JUMPI PUSH1 0x0 DUP1 MLOAD PUSH1 0x20 PUSH2 0x62DF DUP4 CODECOPY DUP2 MLOAD SWAP2 MSTORE SWAP2 PUSH1 0x3 PUSH2 0x929 SWAP3 DUP6 PUSH1 0x0 MSTORE PUSH1 0x4 DUP2 MSTORE PUSH1 0x40 PUSH1 0x0 KECCAK256 CALLER PUSH1 0x0 MSTORE DUP2 MSTORE PUSH1 0x40 PUSH1 0x0 KECCAK256 PUSH2 0x8E6 DUP5 DUP3 SLOAD PUSH2 0x5828 JUMP JUMPDEST SWAP1 SSTORE DUP6 PUSH1 0x0 MSTORE MSTORE PUSH1 0x17 PUSH1 0x40 PUSH1 0x0 KECCAK256 ADD PUSH2 0x900 DUP3 DUP3 SLOAD PUSH2 0x5828 JUMP JUMPDEST SWAP1 SSTORE PUSH2 0x91C PUSH1 0x0 DUP1 DUP1 DUP1 DUP6 CALLER GAS CALL PUSH2 0x916 PUSH2 0x55AA JUMP JUMPDEST POP PUSH2 0x5A6C JUMP JUMPDEST PUSH1 0x40 MLOAD SWAP2 DUP3 SWAP2 CALLER DUP4 PUSH2 0x5A14 JUMP JUMPDEST SUB SWAP1 LOG2 PUSH1 0x1 PUSH1 0x0 SSTORE STOP JUMPDEST PUSH1 0x64 SWAP1 PUSH1 0x40 MLOAD SWAP1 PUSH3 0x461BCD PUSH1 0xE5 SHL DUP3 MSTORE PUSH1 0x4 DUP3 ADD MSTORE PUSH1 0x13 PUSH1 0x24 DUP3 ADD MSTORE PUSH19 0x125B9CDD59999A58DA595B9D081C1C9BD99A5D PUSH1 0x6A SHL PUSH1 0x44 DUP3 ADD MSTORE REVERT JUMPDEST POP PUSH1 0x2 SLOAD DUP3 GT ISZERO PUSH2 0x85E JUMP JUMPDEST CALLVALUE PUSH2 0x3E9 JUMPI PUSH2 0x987 CALLDATASIZE PUSH2 0x5191 JUMP JUMPDEST PUSH2 0x992 SWAP3 SWAP2 SWAP3 PUSH2 0x566C JUMP JUMPDEST DUP2 ISZERO ISZERO DUP1 PUSH2 0xB23 JUMPI JUMPDEST PUSH2 0x9A4 SWAP1 PUSH2 0x54F4 JUMP JUMPDEST PUSH2 0x9B1 PUSH2 0x874 CALLER DUP5 PUSH2 0x6116 JUMP JUMPDEST DUP2 PUSH1 0x0 MSTORE PUSH1 0x20 PUSH1 0xD DUP2 MSTORE PUSH1 0x40 PUSH1 0x0 KECCAK256 DUP5 PUSH1 0x0 MSTORE DUP2 MSTORE PUSH1 0x40 PUSH1 0x0 KECCAK256 SWAP1 PUSH2 0x9DD PUSH1 0xFF PUSH1 0x6 DUP5 ADD SLOAD AND ISZERO PUSH2 0x5B03 JUMP JUMPDEST PUSH1 0x3 DUP3 ADD SLOAD TIMESTAMP GT PUSH2 0xAEF JUMPI DUP4 PUSH1 0x0 MSTORE PUSH1 0xE DUP2 MSTORE PUSH1 0x40 PUSH1 0x0 KECCAK256 DUP6 PUSH1 0x0 MSTORE DUP2 MSTORE PUSH1 0x40 PUSH1 0x0 KECCAK256 CALLER PUSH1 0x0 MSTORE DUP2 MSTORE PUSH2 0xA18 PUSH1 0xFF PUSH1 0x40 PUSH1 0x0 KECCAK256 SLOAD AND ISZERO PUSH2 0x596E JUMP JUMPDEST PUSH1 0x1 DUP3 ADD SLOAD PUSH1 0x1 PUSH1 0x1 PUSH1 0xA0 SHL SUB AND CALLER EQ PUSH2 0xAB6 JUMPI PUSH1 0x0 DUP5 DUP2 MSTORE PUSH1 0xE DUP3 MSTORE PUSH1 0x40 DUP1 DUP3 KECCAK256 DUP8 DUP4 MSTORE DUP4 MSTORE DUP1 DUP3 KECCAK256 CALLER DUP4 MSTORE SWAP1 SWAP3 MSTORE KECCAK256 DUP1 SLOAD PUSH1 0xFF NOT AND PUSH1 0x1 OR SWAP1 SSTORE PUSH32 0xE53131B3767D3218D9029021E0DA07299664EB92B41DC80AB1F2BE0F41CE47B9 SWAP2 PUSH2 0xA9D SWAP2 DUP2 ISZERO PUSH2 0xAA2 JUMPI PUSH1 0x4 ADD PUSH2 0xA8D DUP2 SLOAD PUSH2 0x56B0 JUMP JUMPDEST SWAP1 SSTORE JUMPDEST PUSH1 0x40 MLOAD SWAP2 DUP3 SWAP2 CALLER DUP4 PUSH2 0x59EF JUMP JUMPDEST SUB SWAP1 LOG3 STOP JUMPDEST PUSH1 0x5 ADD PUSH2 0xAAF DUP2 SLOAD PUSH2 0x56B0 JUMP JUMPDEST SWAP1 SSTORE PUSH2 0xA90 JUMP JUMPDEST PUSH1 0x64 SWAP1 PUSH1 0x40 MLOAD SWAP1 PUSH3 0x461BCD PUSH1 0xE5 SHL DUP3 MSTORE PUSH1 0x4 DUP3 ADD MSTORE PUSH1 0x12 PUSH1 0x24 DUP3 ADD MSTORE PUSH18 0x5461726765742063616E6E6F7420766F7465 PUSH1 0x70 SHL PUSH1 0x44 DUP3 ADD MSTORE REVERT JUMPDEST PUSH1 0x64 SWAP1 PUSH1 0x40 MLOAD SWAP1 PUSH3 0x461BCD PUSH1 0xE5 SHL DUP3 MSTORE PUSH1 0x4 DUP3 ADD MSTORE PUSH1 0xD PUSH1 0x24 DUP3 ADD MSTORE PUSH13 0x15DA5B991BDDC818DB1BDCD959 PUSH1 0x9A SHL PUSH1 0x44 DUP3 ADD MSTORE REVERT JUMPDEST POP PUSH1 0x2 SLOAD DUP3 GT ISZERO PUSH2 0x99B JUMP JUMPDEST CALLVALUE PUSH2 0x3E9 JUMPI PUSH1 0x20 CALLDATASIZE PUSH1 0x3 NOT ADD SLT PUSH2 0x3E9 JUMPI PUSH1 0x20 PUSH2 0xB4D PUSH1 0x4 CALLDATALOAD PUSH2 0x5C39 JUMP JUMPDEST PUSH1 0x40 MLOAD SWAP1 DUP2 MSTORE RETURN JUMPDEST CALLVALUE PUSH2 0x3E9 JUMPI PUSH1 0x20 CALLDATASIZE PUSH1 0x3 NOT ADD SLT PUSH2 0x3E9 JUMPI PUSH1 0xA0 PUSH2 0xB73 PUSH1 0x4 CALLDATALOAD PUSH2 0x5E94 JUMP JUMPDEST SWAP3 PUSH1 0x40 SWAP3 SWAP2 SWAP3 MLOAD SWAP5 DUP6 MSTORE PUSH1 0x20 DUP6 ADD MSTORE PUSH1 0x40 DUP5 ADD MSTORE PUSH1 0x60 DUP4 ADD MSTORE PUSH1 0x80 DUP3 ADD MSTORE RETURN JUMPDEST CALLVALUE PUSH2 0x3E9 JUMPI PUSH1 0x20 CALLDATASIZE PUSH1 0x3 NOT ADD SLT PUSH2 0x3E9 JUMPI PUSH1 0x1 PUSH1 0x1 PUSH1 0xA0 SHL SUB PUSH2 0xBB4 PUSH2 0x50D4 JUMP JUMPDEST AND PUSH1 0x0 MSTORE PUSH1 0xC PUSH1 0x20 MSTORE PUSH1 0x20 PUSH1 0x40 PUSH1 0x0 KECCAK256 SLOAD PUSH1 0x40 MLOAD SWAP1 DUP2 MSTORE RETURN JUMPDEST CALLVALUE PUSH2 0x3E9 JUMPI PUSH1 0x0 CALLDATASIZE PUSH1 0x3 NOT ADD SLT PUSH2 0x3E9 JUMPI PUSH1 0x20 PUSH1 0x40 MLOAD PUSH3 0x278D00 DUP2 MSTORE RETURN JUMPDEST CALLVALUE PUSH2 0x3E9 JUMPI PUSH1 0x0 CALLDATASIZE PUSH1 0x3 NOT ADD SLT PUSH2 0x3E9 JUMPI PUSH1 0x20 PUSH1 0x40 MLOAD PUSH1 0x3 DUP2 MSTORE RETURN JUMPDEST CALLVALUE PUSH2 0x3E9 JUMPI PUSH1 0x60 CALLDATASIZE PUSH1 0x3 NOT ADD SLT PUSH2 0x3E9 JUMPI PUSH1 0x44 CALLDATALOAD PUSH1 0x1 PUSH1 0x1 PUSH1 0x40 SHL SUB DUP2 GT PUSH2 0x3E9 JUMPI PUSH2 0xC37 SWAP1 CALLDATASIZE SWAP1 PUSH1 0x4 ADD PUSH2 0x548F JUMP JUMPDEST PUSH2 0xC3F PUSH2 0x566C JUMP JUMPDEST PUSH1 0x4 CALLDATALOAD ISZERO ISZERO DUP1 PUSH2 0x1052 JUMPI JUMPDEST PUSH2 0xC53 SWAP1 PUSH2 0x54F4 JUMP JUMPDEST PUSH2 0xC62 PUSH2 0x874 CALLER PUSH1 0x4 CALLDATALOAD PUSH2 0x6116 JUMP JUMPDEST PUSH1 0x4 CALLDATALOAD PUSH1 0x0 MSTORE PUSH1 0x3 PUSH1 0x20 MSTORE PUSH1 0x40 PUSH1 0x0 KECCAK256 CALLER PUSH1 0x0 MSTORE PUSH1 0xC PUSH1 0x20 MSTORE PUSH1 0x40 PUSH1 0x0 KECCAK256 SLOAD PUSH2 0x100F JUMPI DUP2 ISZERO PUSH2 0xFD8 JUMPI PUSH2 0xC98 PUSH1 0x24 CALLDATALOAD ISZERO ISZERO PUSH2 0x5AAA JUMP JUMPDEST SELFBALANCE PUSH1 0x32 DUP2 MUL SWAP1 DUP1 DUP3 DIV PUSH1 0x32 EQ SWAP1 ISZERO OR ISZERO PUSH2 0xF7F JUMPI PUSH1 0x64 SWAP1 DIV PUSH1 0x24 CALLDATALOAD GT PUSH2 0xF95 JUMPI PUSH1 0x14 ADD SWAP2 PUSH2 0xCC6 DUP4 SLOAD PUSH2 0x56B0 JUMP JUMPDEST DUP1 SWAP4 SSTORE PUSH3 0x3F480 TIMESTAMP ADD TIMESTAMP GT PUSH2 0xF7F JUMPI PUSH1 0x40 MLOAD PUSH2 0x160 DUP2 ADD PUSH1 0x1 PUSH1 0x1 PUSH1 0x40 SHL SUB DUP2 GT DUP3 DUP3 LT OR PUSH2 0xF69 JUMPI PUSH1 0x40 MSTORE DUP4 DUP2 MSTORE CALLER PUSH1 0x20 DUP3 ADD MSTORE PUSH1 0x24 CALLDATALOAD PUSH1 0x40 DUP3 ADD MSTORE PUSH2 0xD0C DUP4 PUSH2 0x558F JUMP JUMPDEST PUSH2 0xD19 PUSH1 0x40 MLOAD SWAP2 DUP3 PUSH2 0x5282 JUMP JUMPDEST DUP4 DUP2 MSTORE CALLDATASIZE DUP5 DUP5 ADD GT PUSH2 0x3E9 JUMPI DUP4 DUP4 PUSH1 0x20 DUP4 ADD CALLDATACOPY PUSH1 0x0 PUSH1 0x20 DUP6 DUP4 ADD ADD MSTORE PUSH1 0x60 DUP3 ADD MSTORE PUSH3 0x3F480 TIMESTAMP ADD PUSH1 0x80 DUP3 ADD MSTORE PUSH1 0x0 PUSH1 0xA0 DUP3 ADD MSTORE PUSH1 0x0 PUSH1 0xC0 DUP3 ADD MSTORE PUSH1 0x0 PUSH1 0xE0 DUP3 ADD MSTORE PUSH1 0x0 PUSH2 0x100 DUP3 ADD MSTORE PUSH1 0x0 PUSH2 0x120 DUP3 ADD MSTORE PUSH1 0x0 PUSH2 0x140 DUP3 ADD MSTORE PUSH1 0x4 CALLDATALOAD PUSH1 0x0 MSTORE PUSH1 0xA PUSH1 0x20 MSTORE PUSH1 0x40 PUSH1 0x0 KECCAK256 DUP5 PUSH1 0x0 MSTORE PUSH1 0x20 MSTORE PUSH1 0x40 PUSH1 0x0 KECCAK256 SWAP1 DUP1 MLOAD DUP3 SSTORE PUSH1 0x1 DUP3 ADD PUSH1 0x1 DUP1 PUSH1 0xA0 SHL SUB PUSH1 0x20 DUP4 ADD MLOAD AND PUSH1 0x1 DUP1 PUSH1 0xA0 SHL SUB NOT DUP3 SLOAD AND OR SWAP1 SSTORE PUSH1 0x40 DUP2 ADD MLOAD PUSH1 0x2 DUP4 ADD SSTORE PUSH1 0x60 DUP2 ADD MLOAD DUP1 MLOAD SWAP1 PUSH1 0x1 DUP1 PUSH1 0x40 SHL SUB DUP3 GT PUSH2 0xF69 JUMPI PUSH2 0xDEB DUP3 PUSH2 0xDE2 PUSH1 0x3 DUP8 ADD SLOAD PUSH2 0x51F6 JUMP JUMPDEST PUSH1 0x3 DUP8 ADD PUSH2 0x573F JUMP JUMPDEST PUSH1 0x20 SWAP1 PUSH1 0x1F DUP4 GT PUSH1 0x1 EQ PUSH2 0xEDF JUMPI PUSH1 0x0 DUP1 MLOAD PUSH1 0x20 PUSH2 0x627F DUP4 CODECOPY DUP2 MLOAD SWAP2 MSTORE SWAP6 SWAP4 DUP4 PUSH2 0xA9D SWAP7 SWAP5 PUSH1 0x8 SWAP5 PUSH2 0x140 SWAP5 PUSH1 0x0 SWAP3 PUSH2 0xED4 JUMPI JUMPDEST POP POP DUP2 PUSH1 0x1 SHL SWAP2 PUSH1 0x0 NOT SWAP1 PUSH1 0x3 SHL SHR NOT AND OR PUSH1 0x3 DUP6 ADD SSTORE JUMPDEST PUSH1 0x80 DUP2 ADD MLOAD PUSH1 0x4 DUP6 ADD SSTORE PUSH1 0xA0 DUP2 ADD MLOAD PUSH1 0x5 DUP6 ADD SSTORE PUSH1 0xC0 DUP2 ADD MLOAD PUSH1 0x6 DUP6 ADD SSTORE PUSH1 0x7 DUP5 ADD PUSH2 0xE69 PUSH1 0xE0 DUP4 ADD MLOAD ISZERO ISZERO DUP3 PUSH2 0x557E JUMP JUMPDEST PUSH2 0xE7A PUSH2 0x100 DUP4 ADD MLOAD ISZERO ISZERO DUP3 PUSH2 0x5AEB JUMP JUMPDEST PUSH2 0x120 DUP3 ADD MLOAD ISZERO ISZERO PUSH3 0xFF0000 DUP3 SLOAD SWAP2 PUSH1 0x10 SHL AND SWAP1 PUSH3 0xFF0000 NOT AND OR SWAP1 SSTORE ADD MLOAD SWAP2 ADD SSTORE CALLER PUSH1 0x0 MSTORE PUSH1 0xC PUSH1 0x20 MSTORE PUSH1 0x4 CALLDATALOAD PUSH1 0x40 PUSH1 0x0 KECCAK256 SSTORE PUSH1 0x40 MLOAD SWAP2 DUP3 SWAP2 CALLER DUP4 MSTORE PUSH1 0x24 CALLDATALOAD PUSH1 0x20 DUP5 ADD MSTORE PUSH1 0x60 PUSH1 0x40 DUP5 ADD MSTORE PUSH1 0x4 CALLDATALOAD SWAP6 PUSH1 0x60 DUP5 ADD SWAP2 PUSH2 0x57C6 JUMP JUMPDEST ADD MLOAD SWAP1 POP DUP12 DUP1 PUSH2 0xE1F JUMP JUMPDEST SWAP1 PUSH1 0x3 DUP6 ADD PUSH1 0x0 MSTORE PUSH1 0x20 PUSH1 0x0 KECCAK256 SWAP2 PUSH1 0x0 JUMPDEST PUSH1 0x1F NOT DUP6 AND DUP2 LT PUSH2 0xF51 JUMPI POP SWAP4 PUSH1 0x1 DUP5 PUSH1 0x8 SWAP5 PUSH2 0x140 SWAP5 PUSH1 0x0 DUP1 MLOAD PUSH1 0x20 PUSH2 0x627F DUP4 CODECOPY DUP2 MLOAD SWAP2 MSTORE SWAP11 SWAP9 PUSH2 0xA9D SWAP11 SWAP9 PUSH1 0x1F NOT DUP2 AND LT PUSH2 0xF38 JUMPI JUMPDEST POP POP POP DUP2 SHL ADD PUSH1 0x3 DUP6 ADD SSTORE PUSH2 0xE37 JUMP JUMPDEST ADD MLOAD PUSH1 0x0 NOT PUSH1 0xF8 DUP5 PUSH1 0x3 SHL AND SHR NOT AND SWAP1 SSTORE DUP12 DUP1 DUP1 PUSH2 0xF28 JUMP JUMPDEST SWAP2 SWAP3 PUSH1 0x20 PUSH1 0x1 DUP2 SWAP3 DUP7 DUP6 ADD MLOAD DUP2 SSTORE ADD SWAP5 ADD SWAP3 ADD PUSH2 0xEF0 JUMP JUMPDEST PUSH4 0x4E487B71 PUSH1 0xE0 SHL PUSH1 0x0 MSTORE PUSH1 0x41 PUSH1 0x4 MSTORE PUSH1 0x24 PUSH1 0x0 REVERT JUMPDEST PUSH4 0x4E487B71 PUSH1 0xE0 SHL PUSH1 0x0 MSTORE PUSH1 0x11 PUSH1 0x4 MSTORE PUSH1 0x24 PUSH1 0x0 REVERT JUMPDEST PUSH1 0x40 MLOAD PUSH3 0x461BCD PUSH1 0xE5 SHL DUP2 MSTORE PUSH1 0x20 PUSH1 0x4 DUP3 ADD MSTORE PUSH1 0x1B PUSH1 0x24 DUP3 ADD MSTORE PUSH27 0x4578636565647320353025206F6620706F6F6C2062616C616E6365 PUSH1 0x28 SHL PUSH1 0x44 DUP3 ADD MSTORE PUSH1 0x64 SWAP1 REVERT JUMPDEST PUSH1 0x40 MLOAD PUSH3 0x461BCD PUSH1 0xE5 SHL DUP2 MSTORE PUSH1 0x20 PUSH1 0x4 DUP3 ADD MSTORE PUSH1 0xF PUSH1 0x24 DUP3 ADD MSTORE PUSH15 0x1499585CDBDB881C995C5D5A5C9959 PUSH1 0x8A SHL PUSH1 0x44 DUP3 ADD MSTORE PUSH1 0x64 SWAP1 REVERT JUMPDEST PUSH1 0x40 MLOAD PUSH3 0x461BCD PUSH1 0xE5 SHL DUP2 MSTORE PUSH1 0x20 PUSH1 0x4 DUP3 ADD MSTORE PUSH1 0x1B PUSH1 0x24 DUP3 ADD MSTORE PUSH27 0x105B1C9958591E481A185D99481858DD1A5D99481C995C5D595CDD PUSH1 0x2A SHL PUSH1 0x44 DUP3 ADD MSTORE PUSH1 0x64 SWAP1 REVERT JUMPDEST POP PUSH1 0x2 SLOAD PUSH1 0x4 CALLDATALOAD GT ISZERO PUSH2 0xC4A JUMP JUMPDEST CALLVALUE PUSH2 0x3E9 JUMPI PUSH1 0x20 CALLDATASIZE PUSH1 0x3 NOT ADD SLT PUSH2 0x3E9 JUMPI PUSH1 0x4 CALLDATALOAD PUSH1 0x1 DUP1 PUSH1 0xA0 SHL SUB PUSH2 0x108D DUP2 PUSH1 0x1 SLOAD PUSH1 0x8 SHR AND CALLER EQ PUSH2 0x54BC JUMP JUMPDEST DUP2 ISZERO ISZERO DUP1 PUSH2 0x115D JUMPI JUMPDEST PUSH2 0x109F SWAP1 PUSH2 0x54F4 JUMP JUMPDEST PUSH2 0x10A7 PUSH2 0x5616 JUMP JUMPDEST DUP2 PUSH1 0x0 MSTORE PUSH1 0x3 PUSH1 0x20 MSTORE PUSH1 0x40 PUSH1 0x0 KECCAK256 SWAP1 PUSH1 0x2 DUP3 ADD SWAP2 DUP3 SLOAD SWAP1 PUSH1 0xFF DUP3 PUSH1 0xA0 SHR AND PUSH1 0x4 DUP2 LT ISZERO PUSH2 0x7B4 JUMPI PUSH1 0x0 DUP1 DUP7 DUP7 PUSH1 0x3 DUP4 SWAP7 DUP12 SWAP10 PUSH2 0x1131 SWAP10 PUSH2 0x10E8 DUP8 SWAP10 ISZERO PUSH2 0x5537 JUMP JUMPDEST DUP4 PUSH1 0xA0 SHL PUSH1 0xFF PUSH1 0xA0 SHL NOT DUP3 AND OR DUP7 SSTORE AND DUP6 MSTORE PUSH1 0x11 PUSH1 0x20 MSTORE PUSH1 0x40 DUP6 KECCAK256 PUSH1 0xFF NOT DUP2 SLOAD AND SWAP1 SSTORE DUP3 DUP5 SLOAD AND DUP6 MSTORE PUSH1 0x10 PUSH1 0x20 MSTORE DUP5 PUSH1 0x40 DUP2 KECCAK256 SSTORE ADD SLOAD SWAP2 SLOAD AND GAS CALL PUSH2 0x112B PUSH2 0x55AA JUMP JUMPDEST POP PUSH2 0x55DA JUMP JUMPDEST PUSH32 0x6E5041900D295BFA61F87310386B97D863882FF214021A45B4E5DA847849F10F PUSH1 0x0 DUP1 LOG2 PUSH1 0x1 PUSH1 0x0 SSTORE STOP JUMPDEST POP PUSH1 0x2 SLOAD DUP3 GT ISZERO PUSH2 0x1096 JUMP JUMPDEST CALLVALUE PUSH2 0x3E9 JUMPI PUSH2 0x1177 CALLDATASIZE PUSH2 0x50EA JUMP JUMPDEST PUSH2 0x117F PUSH2 0x566C JUMP JUMPDEST DUP2 ISZERO ISZERO DUP1 PUSH2 0x1391 JUMPI JUMPDEST PUSH2 0x1191 SWAP1 PUSH2 0x54F4 JUMP JUMPDEST PUSH2 0x119E PUSH2 0x874 CALLER DUP5 PUSH2 0x6116 JUMP JUMPDEST PUSH2 0x11A6 PUSH2 0x5616 JUMP JUMPDEST DUP2 PUSH1 0x0 MSTORE PUSH1 0x3 SWAP2 PUSH1 0x20 SWAP3 DUP1 DUP5 MSTORE PUSH1 0x40 PUSH1 0x0 KECCAK256 PUSH1 0xD DUP6 MSTORE PUSH1 0x40 PUSH1 0x0 KECCAK256 DUP5 PUSH1 0x0 MSTORE DUP6 MSTORE PUSH1 0x40 PUSH1 0x0 KECCAK256 SWAP1 PUSH1 0x6 DUP3 ADD SWAP3 DUP4 SLOAD SWAP7 PUSH2 0x11E2 PUSH1 0xFF DUP10 AND ISZERO PUSH2 0x5B03 JUMP JUMPDEST PUSH2 0x11F0 DUP3 DUP6 ADD SLOAD TIMESTAMP GT PUSH2 0x5B42 JUMP JUMPDEST PUSH1 0x7 DUP4 ADD SWAP1 DUP2 SLOAD SWAP9 PUSH1 0x1 SWAP10 DUP11 SHR SWAP5 DUP11 DUP7 ADD DUP1 SWAP7 GT PUSH2 0xF7F JUMPI PUSH2 0x1225 DUP12 SWAP7 PUSH1 0x4 DUP10 ADD SLOAD LT ISZERO DUP1 SWAP10 DUP9 PUSH1 0xFF NOT DUP1 SWAP7 AND OR DUP2 SSTORE PUSH2 0x5AEB JUMP JUMPDEST DUP8 ISZERO PUSH2 0x1350 JUMPI DUP7 DUP7 ADD SLOAD PUSH1 0x1 PUSH1 0x1 PUSH1 0xA0 SHL SUB SWAP3 SWAP1 DUP4 AND SWAP1 PUSH2 0x1246 DUP3 DUP13 PUSH2 0x6176 JUMP JUMPDEST DUP2 PUSH1 0x0 MSTORE PUSH1 0x11 DUP6 MSTORE PUSH1 0x40 PUSH1 0x0 KECCAK256 DUP2 DUP2 SLOAD AND SWAP1 SSTORE PUSH1 0x10 DUP6 MSTORE PUSH1 0x0 PUSH1 0x40 DUP2 KECCAK256 SSTORE DUP11 PUSH1 0x0 MSTORE PUSH1 0x5 DUP6 MSTORE PUSH1 0x40 PUSH1 0x0 KECCAK256 DUP3 PUSH1 0x0 MSTORE DUP6 MSTORE PUSH1 0x5 PUSH1 0x40 PUSH1 0x0 KECCAK256 ADD SWAP1 DUP2 SLOAD AND SWAP1 SSTORE DUP10 PUSH1 0x0 MSTORE PUSH1 0xF DUP5 MSTORE PUSH1 0x40 PUSH1 0x0 KECCAK256 SWAP1 PUSH1 0x0 MSTORE DUP4 MSTORE PUSH1 0x0 PUSH1 0x40 DUP2 KECCAK256 SSTORE DUP4 SLOAD SWAP1 DUP2 PUSH2 0x12E6 JUMPI JUMPDEST POP POP POP POP POP POP POP SWAP1 PUSH1 0x0 DUP1 MLOAD PUSH1 0x20 PUSH2 0x623F DUP4 CODECOPY DUP2 MLOAD SWAP2 MSTORE SWAP2 JUMPDEST DUP6 ADD SLOAD PUSH1 0x40 MLOAD SWAP2 DUP3 SWAP2 PUSH2 0x12DE SWAP2 SWAP1 PUSH1 0x1 PUSH1 0x1 PUSH1 0xA0 SHL SUB AND DUP4 PUSH2 0x59EF JUMP JUMPDEST SUB SWAP1 LOG3 PUSH1 0x0 SSTORE STOP JUMPDEST SWAP1 DUP6 PUSH2 0x12F3 SWAP3 ADD SLOAD PUSH2 0x5A0A JUMP JUMPDEST SWAP4 PUSH1 0x0 DUP7 JUMPDEST ISZERO PUSH2 0x12A8 JUMPI DUP5 SLOAD DUP2 LT ISZERO PUSH2 0x134B JUMPI PUSH2 0x1345 SWAP1 DUP11 PUSH1 0x0 MSTORE PUSH1 0x4 DUP6 MSTORE PUSH1 0x40 PUSH1 0x0 KECCAK256 DUP5 PUSH2 0x1322 DUP4 DUP10 PUSH2 0x51DE JUMP JUMPDEST SWAP1 SLOAD SWAP1 DUP7 SHL SHR AND PUSH1 0x0 MSTORE DUP6 MSTORE PUSH1 0x40 PUSH1 0x0 KECCAK256 PUSH2 0x133E DUP9 DUP3 SLOAD PUSH2 0x5571 JUMP JUMPDEST SWAP1 SSTORE PUSH2 0x56B0 JUMP JUMPDEST DUP7 PUSH2 0x12F8 JUMP JUMPDEST PUSH2 0x12A8 JUMP JUMPDEST POP POP PUSH1 0x0 DUP8 DUP2 MSTORE PUSH1 0xF DUP3 MSTORE PUSH1 0x40 DUP1 DUP3 KECCAK256 DUP12 DUP9 ADD SLOAD PUSH1 0x1 PUSH1 0x1 PUSH1 0xA0 SHL SUB AND DUP4 MSTORE SWAP1 SWAP3 MSTORE SWAP1 DUP2 KECCAK256 SSTORE POP PUSH1 0x0 DUP1 MLOAD PUSH1 0x20 PUSH2 0x623F DUP4 CODECOPY DUP2 MLOAD SWAP2 MSTORE SWAP4 SWAP3 SWAP2 POP PUSH2 0x12C1 SWAP1 POP JUMP JUMPDEST POP PUSH1 0x2 SLOAD DUP3 GT ISZERO PUSH2 0x1188 JUMP JUMPDEST CALLVALUE PUSH2 0x3E9 JUMPI PUSH1 0x20 CALLDATASIZE PUSH1 0x3 NOT ADD SLT PUSH2 0x3E9 JUMPI PUSH1 0x4 CALLDATALOAD PUSH1 0x0 MSTORE PUSH1 0x3 PUSH1 0x20 MSTORE PUSH2 0x13D8 PUSH2 0x13CC PUSH1 0x7 PUSH1 0x40 PUSH1 0x0 KECCAK256 ADD PUSH2 0x5835 JUMP JUMPDEST PUSH1 0x40 MLOAD SWAP2 DUP3 SWAP2 DUP3 PUSH2 0x544B JUMP JUMPDEST SUB SWAP1 RETURN JUMPDEST CALLVALUE PUSH2 0x3E9 JUMPI PUSH2 0x13EA CALLDATASIZE PUSH2 0x51B4 JUMP JUMPDEST SWAP2 PUSH1 0x0 MSTORE PUSH1 0xE PUSH1 0x20 MSTORE PUSH1 0x40 PUSH1 0x0 KECCAK256 SWAP1 PUSH1 0x0 MSTORE PUSH1 0x20 MSTORE PUSH1 0x40 PUSH1 0x0 KECCAK256 SWAP1 PUSH1 0x1 DUP1 PUSH1 0xA0 SHL SUB AND PUSH1 0x0 MSTORE PUSH1 0x20 MSTORE PUSH1 0x20 PUSH1 0xFF PUSH1 0x40 PUSH1 0x0 KECCAK256 SLOAD AND PUSH1 0x40 MLOAD SWAP1 ISZERO ISZERO DUP2 MSTORE RETURN JUMPDEST CALLVALUE PUSH2 0x3E9 JUMPI PUSH1 0x40 CALLDATASIZE PUSH1 0x3 NOT ADD SLT PUSH2 0x3E9 JUMPI PUSH1 0x20 PUSH2 0xB4D PUSH2 0x1446 PUSH2 0x50BE JUMP JUMPDEST PUSH1 0x4 CALLDATALOAD PUSH2 0x5D91 JUMP JUMPDEST CALLVALUE PUSH2 0x3E9 JUMPI PUSH1 0x40 CALLDATASIZE PUSH1 0x3 NOT ADD SLT PUSH2 0x3E9 JUMPI PUSH2 0x1467 PUSH2 0x50BE JUMP JUMPDEST PUSH1 0x4 CALLDATALOAD PUSH1 0x0 MSTORE PUSH1 0x4 PUSH1 0x20 MSTORE PUSH1 0x40 PUSH1 0x0 KECCAK256 SWAP1 PUSH1 0x1 DUP1 PUSH1 0xA0 SHL SUB AND PUSH1 0x0 MSTORE PUSH1 0x20 MSTORE PUSH1 0x20 PUSH1 0x40 PUSH1 0x0 KECCAK256 SLOAD PUSH1 0x40 MLOAD SWAP1 DUP2 MSTORE RETURN JUMPDEST PUSH1 0xA0 CALLDATASIZE PUSH1 0x3 NOT ADD SLT PUSH2 0x3E9 JUMPI PUSH1 0x4 CALLDATALOAD PUSH1 0x1 PUSH1 0x1 PUSH1 0x40 SHL SUB DUP2 GT PUSH2 0x3E9 JUMPI PUSH2 0x14C1 SWAP1 CALLDATASIZE SWAP1 PUSH1 0x4 ADD PUSH2 0x548F JUMP JUMPDEST PUSH1 0x64 CALLDATALOAD ISZERO ISZERO PUSH1 0x64 CALLDATALOAD SUB PUSH2 0x3E9 JUMPI PUSH1 0x1 PUSH1 0x1 PUSH1 0x40 SHL SUB PUSH1 0x84 CALLDATALOAD GT PUSH2 0x3E9 JUMPI CALLDATASIZE PUSH1 0x23 PUSH1 0x84 CALLDATALOAD ADD SLT ISZERO PUSH2 0x3E9 JUMPI PUSH1 0x1 PUSH1 0x1 PUSH1 0x40 SHL SUB PUSH1 0x4 PUSH1 0x84 CALLDATALOAD ADD CALLDATALOAD GT PUSH2 0x3E9 JUMPI CALLDATASIZE PUSH1 0x24 PUSH1 0x84 CALLDATALOAD PUSH1 0x4 ADD CALLDATALOAD PUSH1 0x5 SHL PUSH1 0x84 CALLDATALOAD ADD ADD GT PUSH2 0x3E9 JUMPI PUSH2 0x151E PUSH2 0x566C JUMP JUMPDEST CALLER PUSH1 0x0 MSTORE PUSH1 0x11 PUSH1 0x20 MSTORE PUSH1 0xFF PUSH1 0x40 PUSH1 0x0 KECCAK256 SLOAD AND PUSH2 0x1ADC JUMPI DUP1 ISZERO PUSH2 0x1AA0 JUMPI PUSH1 0x2 PUSH1 0x24 CALLDATALOAD LT PUSH2 0x1A67 JUMPI PUSH1 0x28 PUSH1 0x24 CALLDATALOAD GT PUSH2 0x1A2D JUMPI PUSH1 0x44 SWAP2 PUSH1 0x1 DUP4 CALLDATALOAD LT ISZERO DUP1 PUSH2 0x1A21 JUMPI JUMPDEST ISZERO PUSH2 0x19E4 JUMPI CALLVALUE ISZERO PUSH2 0x19A5 JUMPI PUSH1 0x64 CALLDATALOAD PUSH2 0x1898 JUMPI JUMPDEST PUSH2 0x157B PUSH1 0x2 SLOAD PUSH2 0x56B0 JUMP JUMPDEST SWAP2 DUP3 PUSH1 0x2 SSTORE DUP3 PUSH1 0x0 MSTORE PUSH1 0x3 PUSH1 0x20 MSTORE PUSH1 0x40 PUSH1 0x0 KECCAK256 DUP4 DUP2 SSTORE PUSH1 0x1 DUP1 PUSH1 0x40 SHL SUB DUP3 GT PUSH2 0xF69 JUMPI PUSH2 0x15B8 DUP3 PUSH2 0x15AF PUSH1 0x1 DUP5 ADD SLOAD PUSH2 0x51F6 JUMP JUMPDEST PUSH1 0x1 DUP5 ADD PUSH2 0x573F JUMP JUMPDEST PUSH1 0x0 SWAP1 DUP3 PUSH1 0x1F DUP2 GT PUSH1 0x1 EQ PUSH2 0x1827 JUMPI PUSH2 0x163A SWAP3 PUSH1 0x0 SWAP2 PUSH2 0x181C JUMPI JUMPDEST POP DUP4 PUSH1 0x1 SHL SWAP1 PUSH1 0x0 NOT DUP6 PUSH1 0x3 SHL SHR NOT AND OR PUSH1 0x1 DUP3 ADD SSTORE JUMPDEST PUSH1 0x2 DUP2 ADD DUP1 SLOAD PUSH1 0x1 PUSH1 0x1 PUSH1 0xA8 SHL SUB NOT AND CALLER PUSH1 0xFF PUSH1 0xA0 SHL NOT AND OR SWAP1 SSTORE CALLVALUE PUSH1 0x3 DUP3 ADD DUP2 SWAP1 SSTORE PUSH1 0x24 CALLDATALOAD PUSH1 0x4 DUP4 ADD SSTORE DUP7 CALLDATALOAD PUSH1 0x5 DUP4 ADD SSTORE PUSH1 0x16 DUP3 ADD SSTORE PUSH2 0x1630 PUSH1 0x64 CALLDATALOAD PUSH1 0x18 DUP4 ADD PUSH2 0x557E JUMP JUMPDEST PUSH1 0x7 CALLER SWAP2 ADD PUSH2 0x5784 JUMP JUMPDEST CALLER PUSH1 0x0 MSTORE PUSH1 0x10 PUSH1 0x20 MSTORE DUP3 PUSH1 0x40 PUSH1 0x0 KECCAK256 SSTORE PUSH1 0x11 PUSH1 0x20 MSTORE PUSH1 0x40 PUSH1 0x0 KECCAK256 SWAP4 PUSH1 0xFF NOT SWAP5 PUSH1 0x1 DUP7 DUP3 SLOAD AND OR SWAP1 SSTORE PUSH1 0x40 MLOAD SWAP5 PUSH2 0x166F DUP7 PUSH2 0x5230 JUMP JUMPDEST CALLER DUP7 MSTORE PUSH2 0x16F6 PUSH1 0x20 DUP8 ADD PUSH1 0x64 DUP2 MSTORE PUSH1 0x5 PUSH1 0x40 DUP10 ADD PUSH1 0x0 DUP2 MSTORE PUSH1 0x60 DUP11 ADD PUSH1 0x0 DUP2 MSTORE PUSH1 0x80 DUP12 ADD SWAP1 PUSH1 0x0 DUP3 MSTORE PUSH1 0xA0 DUP13 ADD SWAP3 PUSH1 0x1 DUP5 MSTORE DUP12 PUSH1 0x0 MSTORE DUP5 PUSH1 0x20 MSTORE PUSH1 0x40 PUSH1 0x0 KECCAK256 CALLER PUSH1 0x0 MSTORE PUSH1 0x20 MSTORE PUSH1 0x40 PUSH1 0x0 KECCAK256 SWAP6 PUSH1 0x1 DUP1 PUSH1 0xA0 SHL SUB DUP1 SWAP15 MLOAD AND PUSH1 0x1 DUP1 PUSH1 0xA0 SHL SUB NOT DUP9 SLOAD AND OR DUP8 SSTORE MLOAD PUSH1 0x1 DUP8 ADD SSTORE MLOAD PUSH1 0x2 DUP7 ADD SSTORE MLOAD PUSH1 0x3 DUP6 ADD SSTORE MLOAD PUSH1 0x4 DUP5 ADD SSTORE MLOAD ISZERO ISZERO SWAP2 ADD PUSH2 0x557E JUMP JUMPDEST PUSH1 0x64 CALLDATALOAD PUSH2 0x1752 JUMPI JUMPDEST POP PUSH1 0x0 DUP1 MLOAD PUSH1 0x20 PUSH2 0x62BF DUP4 CODECOPY DUP2 MLOAD SWAP2 MSTORE SWAP4 SWAP5 POP PUSH2 0x172E PUSH1 0x40 MLOAD SWAP4 DUP5 SWAP4 CALLER DUP6 MSTORE PUSH1 0xC0 PUSH1 0x20 DUP7 ADD MSTORE PUSH1 0xC0 DUP6 ADD SWAP2 PUSH2 0x57C6 JUMP JUMPDEST SWAP1 CALLVALUE PUSH1 0x40 DUP5 ADD MSTORE PUSH1 0x24 CALLDATALOAD PUSH1 0x60 DUP5 ADD MSTORE CALLDATALOAD PUSH1 0x80 DUP4 ADD MSTORE PUSH1 0x64 CALLDATALOAD ISZERO ISZERO PUSH1 0xA0 DUP4 ADD MSTORE SUB SWAP1 LOG2 STOP JUMPDEST PUSH1 0x84 CALLDATALOAD PUSH1 0x24 ADD PUSH1 0x0 JUMPDEST PUSH1 0x84 CALLDATALOAD PUSH1 0x4 ADD CALLDATALOAD DUP2 LT PUSH2 0x17A6 JUMPI POP POP DUP5 PUSH1 0x0 DUP1 MLOAD PUSH1 0x20 PUSH2 0x62BF DUP4 CODECOPY DUP2 MLOAD SWAP2 MSTORE SWAP6 SWAP7 POP PUSH1 0x0 MSTORE PUSH1 0x12 PUSH1 0x20 MSTORE PUSH1 0x40 PUSH1 0x0 KECCAK256 CALLER PUSH1 0x0 MSTORE PUSH1 0x20 MSTORE PUSH1 0x1 PUSH1 0x40 PUSH1 0x0 KECCAK256 SWAP2 DUP3 SLOAD AND OR SWAP1 SSTORE DUP5 SWAP4 PUSH2 0x16FE JUMP JUMPDEST PUSH2 0x1817 SWAP1 DUP8 PUSH1 0x0 MSTORE PUSH1 0x12 PUSH1 0x20 MSTORE PUSH1 0x40 PUSH1 0x0 KECCAK256 DUP10 PUSH2 0x17D2 PUSH2 0x17CD DUP5 PUSH1 0x84 CALLDATALOAD PUSH1 0x4 ADD CALLDATALOAD DUP9 PUSH2 0x56BF JUMP JUMPDEST PUSH2 0x56CF JUMP JUMPDEST AND PUSH1 0x0 MSTORE PUSH1 0x20 MSTORE PUSH1 0x40 PUSH1 0x0 KECCAK256 PUSH1 0x1 DUP6 DUP3 SLOAD AND OR SWAP1 SSTORE DUP8 PUSH1 0x0 MSTORE PUSH1 0x13 PUSH1 0x20 MSTORE PUSH2 0x1812 PUSH1 0x40 PUSH1 0x0 KECCAK256 PUSH2 0x180C PUSH2 0x17CD DUP5 PUSH1 0x84 CALLDATALOAD PUSH1 0x4 ADD CALLDATALOAD DUP9 PUSH2 0x56BF JUMP JUMPDEST SWAP1 PUSH2 0x5784 JUMP JUMPDEST PUSH2 0x56B0 JUMP JUMPDEST PUSH2 0x175B JUMP JUMPDEST SWAP1 POP DUP5 ADD CALLDATALOAD DUP8 PUSH2 0x15D3 JUMP JUMPDEST POP PUSH1 0x1 DUP2 ADD PUSH1 0x0 MSTORE PUSH1 0x20 PUSH1 0x0 KECCAK256 PUSH1 0x0 SWAP3 JUMPDEST PUSH1 0x1F NOT DUP6 AND DUP5 LT PUSH2 0x1880 JUMPI PUSH2 0x163A SWAP4 POP DUP5 PUSH1 0x1F NOT DUP2 AND LT PUSH2 0x1866 JUMPI JUMPDEST POP POP PUSH1 0x1 DUP4 DUP2 SHL ADD PUSH1 0x1 DUP3 ADD SSTORE PUSH2 0x15EA JUMP JUMPDEST DUP6 ADD CALLDATALOAD PUSH1 0x0 NOT PUSH1 0x3 DUP7 SWAP1 SHL PUSH1 0xF8 AND SHR NOT AND SWAP1 SSTORE DUP7 DUP1 PUSH2 0x1854 JUMP JUMPDEST DUP6 DUP2 ADD CALLDATALOAD DUP3 SSTORE PUSH1 0x20 SWAP4 DUP5 ADD SWAP4 PUSH1 0x1 SWAP1 SWAP3 ADD SWAP2 ADD PUSH2 0x1838 JUMP JUMPDEST PUSH1 0x84 CALLDATALOAD PUSH1 0x4 ADD CALLDATALOAD ISZERO PUSH2 0x194C JUMPI PUSH1 0x84 CALLDATALOAD PUSH1 0x24 ADD PUSH1 0x0 JUMPDEST PUSH1 0x84 CALLDATALOAD PUSH1 0x4 ADD CALLDATALOAD DUP2 LT PUSH2 0x18C1 JUMPI POP POP PUSH2 0x1570 JUMP JUMPDEST PUSH1 0x1 PUSH1 0x1 PUSH1 0xA0 SHL SUB DUP1 PUSH2 0x18DE PUSH2 0x17CD DUP5 PUSH1 0x4 PUSH1 0x84 CALLDATALOAD ADD CALLDATALOAD DUP8 PUSH2 0x56BF JUMP JUMPDEST AND ISZERO PUSH2 0x190F JUMPI SWAP1 PUSH2 0x1812 PUSH2 0x190A SWAP3 CALLER SWAP1 PUSH2 0x1902 PUSH2 0x17CD DUP6 PUSH1 0x84 CALLDATALOAD PUSH1 0x4 ADD CALLDATALOAD DUP10 PUSH2 0x56BF JUMP JUMPDEST AND EQ ISZERO PUSH2 0x56E3 JUMP JUMPDEST PUSH2 0x18AD JUMP JUMPDEST PUSH1 0x40 MLOAD PUSH3 0x461BCD PUSH1 0xE5 SHL DUP2 MSTORE PUSH1 0x20 PUSH1 0x4 DUP3 ADD MSTORE PUSH1 0x16 PUSH1 0x24 DUP3 ADD MSTORE PUSH22 0x496E76616C696420696E766974652061646472657373 PUSH1 0x50 SHL DUP2 DUP9 ADD MSTORE PUSH1 0x64 SWAP1 REVERT JUMPDEST PUSH1 0x40 MLOAD PUSH3 0x461BCD PUSH1 0xE5 SHL DUP2 MSTORE PUSH1 0x20 PUSH1 0x4 DUP3 ADD MSTORE PUSH1 0x2C PUSH1 0x24 DUP3 ADD MSTORE PUSH32 0x507269766174652067726F757073206D7573742068617665206174206C656173 DUP2 DUP6 ADD MSTORE PUSH12 0x74206F6E6520696E76697465 PUSH1 0xA0 SHL PUSH1 0x64 DUP3 ADD MSTORE PUSH1 0x84 SWAP1 REVERT JUMPDEST PUSH1 0x40 MLOAD PUSH3 0x461BCD PUSH1 0xE5 SHL DUP2 MSTORE PUSH1 0x20 PUSH1 0x4 DUP3 ADD MSTORE PUSH1 0x18 PUSH1 0x24 DUP3 ADD MSTORE PUSH24 0x436F6E747269627574696F6E206D757374206265203E203 PUSH1 0x44 SHL DUP2 DUP6 ADD MSTORE PUSH1 0x64 SWAP1 REVERT JUMPDEST PUSH1 0x40 MLOAD PUSH3 0x461BCD PUSH1 0xE5 SHL DUP2 MSTORE PUSH1 0x20 PUSH1 0x4 DUP3 ADD MSTORE PUSH1 0x16 PUSH1 0x24 DUP3 ADD MSTORE PUSH22 0x54656E7572653A203120746F203234206D6F6E746873 PUSH1 0x50 SHL DUP2 DUP6 ADD MSTORE PUSH1 0x64 SWAP1 REVERT JUMPDEST POP PUSH1 0x18 DUP4 CALLDATALOAD GT ISZERO PUSH2 0x155D JUMP JUMPDEST PUSH1 0x40 MLOAD PUSH3 0x461BCD PUSH1 0xE5 SHL DUP2 MSTORE PUSH1 0x20 PUSH1 0x4 DUP3 ADD MSTORE PUSH1 0x12 PUSH1 0x24 DUP3 ADD MSTORE PUSH18 0x4D6178696D756D203430206D656D62657273 PUSH1 0x70 SHL PUSH1 0x44 DUP3 ADD MSTORE PUSH1 0x64 SWAP1 REVERT JUMPDEST PUSH1 0x40 MLOAD PUSH3 0x461BCD PUSH1 0xE5 SHL DUP2 MSTORE PUSH1 0x20 PUSH1 0x4 DUP3 ADD MSTORE PUSH1 0x11 PUSH1 0x24 DUP3 ADD MSTORE PUSH17 0x4D696E696D756D2032206D656D62657273 PUSH1 0x78 SHL PUSH1 0x44 DUP3 ADD MSTORE PUSH1 0x64 SWAP1 REVERT JUMPDEST PUSH1 0x40 MLOAD PUSH3 0x461BCD PUSH1 0xE5 SHL DUP2 MSTORE PUSH1 0x20 PUSH1 0x4 DUP3 ADD MSTORE PUSH1 0x14 PUSH1 0x24 DUP3 ADD MSTORE PUSH20 0x4E616D652063616E6E6F7420626520656D707479 PUSH1 0x60 SHL PUSH1 0x44 DUP3 ADD MSTORE PUSH1 0x64 SWAP1 REVERT JUMPDEST PUSH1 0x40 MLOAD PUSH3 0x461BCD PUSH1 0xE5 SHL DUP2 MSTORE PUSH1 0x20 PUSH1 0x4 DUP3 ADD MSTORE PUSH1 0x19 PUSH1 0x24 DUP3 ADD MSTORE PUSH25 0x1319585D994818DD5C9C995B9D0819DC9BDD5C08199A5C9CDD PUSH1 0x3A SHL PUSH1 0x44 DUP3 ADD MSTORE PUSH1 0x64 SWAP1 REVERT JUMPDEST CALLVALUE PUSH2 0x3E9 JUMPI PUSH1 0x20 CALLDATASIZE PUSH1 0x3 NOT ADD SLT PUSH2 0x3E9 JUMPI PUSH1 0x4 CALLDATALOAD PUSH1 0x0 MSTORE PUSH1 0x13 PUSH1 0x20 MSTORE PUSH2 0x13D8 PUSH2 0x13CC PUSH1 0x40 PUSH1 0x0 KECCAK256 PUSH2 0x5835 JUMP JUMPDEST CALLVALUE PUSH2 0x3E9 JUMPI PUSH2 0x1B57 CALLDATASIZE PUSH2 0x51B4 JUMP JUMPDEST SWAP2 PUSH1 0x0 MSTORE PUSH1 0xB PUSH1 0x20 MSTORE PUSH1 0x40 PUSH1 0x0 KECCAK256 SWAP1 PUSH1 0x0 MSTORE PUSH1 0x20 MSTORE PUSH1 0x40 PUSH1 0x0 KECCAK256 SWAP1 PUSH1 0x1 DUP1 PUSH1 0xA0 SHL SUB AND PUSH1 0x0 MSTORE PUSH1 0x20 MSTORE PUSH1 0x20 PUSH1 0xFF PUSH1 0x40 PUSH1 0x0 KECCAK256 SLOAD AND PUSH1 0x40 MLOAD SWAP1 ISZERO ISZERO DUP2 MSTORE RETURN JUMPDEST CALLVALUE PUSH2 0x3E9 JUMPI PUSH1 0x20 DUP1 PUSH1 0x3 NOT CALLDATASIZE ADD SLT PUSH2 0x3E9 JUMPI PUSH2 0x1BAF PUSH2 0x50D4 JUMP JUMPDEST PUSH1 0x40 MLOAD PUSH4 0x7728C709 PUSH1 0xE0 SHL DUP2 MSTORE PUSH1 0x1 PUSH1 0x1 PUSH1 0xA0 SHL SUB SWAP1 SWAP2 AND PUSH1 0x4 DUP3 ADD MSTORE PUSH1 0x0 DUP2 PUSH1 0x24 DUP2 ADDRESS GAS STATICCALL SWAP1 DUP2 ISZERO PUSH2 0x1C84 JUMPI PUSH1 0x0 SWAP2 PUSH2 0x1BF2 JUMPI JUMPDEST PUSH1 0x40 MLOAD DUP1 PUSH2 0x13D8 DUP5 DUP3 PUSH2 0x5156 JUMP JUMPDEST SWAP1 POP RETURNDATASIZE DUP1 PUSH1 0x0 DUP4 RETURNDATACOPY PUSH2 0x1C04 DUP2 DUP4 PUSH2 0x5282 JUMP JUMPDEST DUP2 ADD SWAP1 DUP3 DUP2 DUP4 SUB SLT PUSH2 0x3E9 JUMPI DUP1 MLOAD SWAP1 PUSH1 0x1 PUSH1 0x1 PUSH1 0x40 SHL SUB DUP3 GT PUSH2 0x3E9 JUMPI ADD SWAP1 DUP1 PUSH1 0x1F DUP4 ADD SLT ISZERO PUSH2 0x3E9 JUMPI DUP2 MLOAD PUSH2 0x1C39 DUP2 PUSH2 0x59C4 JUMP JUMPDEST SWAP3 PUSH2 0x1C47 PUSH1 0x40 MLOAD SWAP5 DUP6 PUSH2 0x5282 JUMP JUMPDEST DUP2 DUP5 MSTORE DUP5 DUP1 DUP6 ADD SWAP3 PUSH1 0x5 SHL DUP3 ADD ADD SWAP3 DUP4 GT PUSH2 0x3E9 JUMPI DUP5 ADD SWAP1 JUMPDEST DUP3 DUP3 LT PUSH2 0x1C75 JUMPI POP POP POP PUSH2 0x13D8 SWAP2 POP DUP3 PUSH2 0x1BE4 JUMP JUMPDEST DUP2 MLOAD DUP2 MSTORE SWAP1 DUP5 ADD SWAP1 DUP5 ADD PUSH2 0x1C60 JUMP JUMPDEST PUSH1 0x40 MLOAD RETURNDATASIZE PUSH1 0x0 DUP3 RETURNDATACOPY RETURNDATASIZE SWAP1 REVERT JUMPDEST CALLVALUE PUSH2 0x3E9 JUMPI PUSH1 0x40 CALLDATASIZE PUSH1 0x3 NOT ADD SLT PUSH2 0x3E9 JUMPI PUSH1 0x4 CALLDATALOAD PUSH2 0x1CAC PUSH2 0x50BE JUMP JUMPDEST SWAP1 PUSH2 0x1CB5 PUSH2 0x566C JUMP JUMPDEST DUP1 ISZERO ISZERO DUP1 PUSH2 0x1EE3 JUMPI JUMPDEST PUSH2 0x1CC7 SWAP1 PUSH2 0x54F4 JUMP JUMPDEST PUSH1 0x0 DUP2 DUP2 MSTORE PUSH1 0x3 PUSH1 0x20 SWAP1 DUP2 MSTORE PUSH1 0x40 SWAP1 SWAP2 KECCAK256 PUSH1 0x2 DUP2 ADD SLOAD PUSH1 0x1 PUSH1 0x1 PUSH1 0xA0 SHL SUB SWAP5 SWAP3 SWAP2 DUP6 DUP3 AND CALLER SUB PUSH2 0x1EA4 JUMPI PUSH1 0x18 ADD SLOAD PUSH1 0xFF AND ISZERO PUSH2 0x1E6D JUMPI DUP4 PUSH1 0x0 MSTORE PUSH1 0x12 DUP3 MSTORE PUSH1 0x40 PUSH1 0x0 KECCAK256 SWAP5 DUP4 AND SWAP5 DUP6 PUSH1 0x0 MSTORE DUP3 MSTORE PUSH1 0xFF PUSH1 0x40 PUSH1 0x0 KECCAK256 SLOAD AND PUSH2 0x1E36 JUMPI DUP5 ISZERO PUSH2 0x1DFF JUMPI PUSH1 0xFF SWAP1 PUSH2 0x1D36 CALLER DUP8 EQ ISZERO PUSH2 0x56E3 JUMP JUMPDEST PUSH1 0xA0 SHR AND PUSH1 0x4 DUP2 LT ISZERO PUSH2 0x7B4 JUMPI PUSH1 0x1 DUP2 EQ SWAP1 DUP2 ISZERO PUSH2 0x1DF6 JUMPI JUMPDEST POP ISZERO PUSH2 0x1DB5 JUMPI SWAP1 PUSH1 0x13 PUSH2 0x1D8E SWAP3 DUP5 PUSH1 0x0 MSTORE PUSH1 0x12 DUP2 MSTORE PUSH1 0x40 PUSH1 0x0 KECCAK256 DUP7 PUSH1 0x0 MSTORE DUP2 MSTORE PUSH1 0x40 PUSH1 0x0 KECCAK256 PUSH1 0x1 PUSH1 0xFF NOT DUP3 SLOAD AND OR SWAP1 SSTORE DUP5 PUSH1 0x0 MSTORE MSTORE PUSH1 0x40 PUSH1 0x0 KECCAK256 PUSH2 0x5784 JUMP JUMPDEST PUSH32 0x6E32DA99952E6892C42B54EEC8C835D9A2E0A6C879C0219CC693229E6894175A PUSH1 0x0 DUP1 LOG3 STOP JUMPDEST PUSH1 0x64 SWAP1 PUSH1 0x40 MLOAD SWAP1 PUSH3 0x461BCD PUSH1 0xE5 SHL DUP3 MSTORE PUSH1 0x4 DUP3 ADD MSTORE PUSH1 0x1A PUSH1 0x24 DUP3 ADD MSTORE PUSH26 0x47726F7570206E6F74206F70656E20666F7220696E7669746573 PUSH1 0x30 SHL PUSH1 0x44 DUP3 ADD MSTORE REVERT JUMPDEST SWAP1 POP ISZERO DUP6 PUSH2 0x1D4F JUMP JUMPDEST PUSH1 0x40 MLOAD PUSH3 0x461BCD PUSH1 0xE5 SHL DUP2 MSTORE PUSH1 0x4 DUP2 ADD DUP4 SWAP1 MSTORE PUSH1 0xF PUSH1 0x24 DUP3 ADD MSTORE PUSH15 0x496E76616C69642061646472657373 PUSH1 0x88 SHL PUSH1 0x44 DUP3 ADD MSTORE PUSH1 0x64 SWAP1 REVERT JUMPDEST PUSH1 0x40 MLOAD PUSH3 0x461BCD PUSH1 0xE5 SHL DUP2 MSTORE PUSH1 0x4 DUP2 ADD DUP4 SWAP1 MSTORE PUSH1 0xF PUSH1 0x24 DUP3 ADD MSTORE PUSH15 0x105B1C9958591E481A5B9D9A5D1959 PUSH1 0x8A SHL PUSH1 0x44 DUP3 ADD MSTORE PUSH1 0x64 SWAP1 REVERT JUMPDEST PUSH1 0x40 MLOAD PUSH3 0x461BCD PUSH1 0xE5 SHL DUP2 MSTORE PUSH1 0x4 DUP2 ADD DUP4 SWAP1 MSTORE PUSH1 0xF PUSH1 0x24 DUP3 ADD MSTORE PUSH15 0x47726F7570206973207075626C6963 PUSH1 0x88 SHL PUSH1 0x44 DUP3 ADD MSTORE PUSH1 0x64 SWAP1 REVERT JUMPDEST PUSH1 0x40 MLOAD PUSH3 0x461BCD PUSH1 0xE5 SHL DUP2 MSTORE PUSH1 0x4 DUP2 ADD DUP5 SWAP1 MSTORE PUSH1 0x17 PUSH1 0x24 DUP3 ADD MSTORE PUSH23 0x4F6E6C792063726561746F722063616E20696E76697465 PUSH1 0x48 SHL PUSH1 0x44 DUP3 ADD MSTORE PUSH1 0x64 SWAP1 REVERT JUMPDEST POP PUSH1 0x2 SLOAD DUP2 GT ISZERO PUSH2 0x1CBE JUMP JUMPDEST CALLVALUE PUSH2 0x3E9 JUMPI PUSH1 0x20 DUP1 PUSH1 0x3 NOT CALLDATASIZE ADD SLT PUSH2 0x3E9 JUMPI PUSH1 0x4 CALLDATALOAD SWAP1 DUP2 PUSH1 0x0 MSTORE PUSH1 0x3 DUP2 MSTORE PUSH1 0x40 PUSH1 0x0 KECCAK256 PUSH1 0x40 MLOAD SWAP2 PUSH2 0x1F1F DUP4 PUSH2 0x524B JUMP JUMPDEST DUP2 SLOAD DUP4 MSTORE PUSH2 0x1F2F PUSH1 0x1 DUP4 ADD PUSH2 0x52A5 JUMP JUMPDEST DUP4 DUP3 ADD MSTORE PUSH1 0x2 DUP3 DUP2 ADD SLOAD PUSH1 0x1 PUSH1 0x1 PUSH1 0xA0 SHL SUB DUP1 DUP3 AND PUSH1 0x40 DUP8 ADD MSTORE SWAP6 SWAP1 PUSH1 0xA0 SHR PUSH1 0xFF AND PUSH1 0x4 DUP2 LT ISZERO PUSH2 0x7B4 JUMPI PUSH1 0x60 DUP7 ADD MSTORE PUSH1 0x3 DUP5 ADD SLOAD PUSH1 0x80 DUP7 ADD MSTORE PUSH1 0x4 DUP5 ADD SLOAD PUSH1 0xA0 DUP7 ADD MSTORE PUSH1 0x5 SWAP2 DUP3 DUP6 ADD SLOAD PUSH1 0xC0 DUP8 ADD MSTORE PUSH1 0x6 DUP6 ADD SLOAD PUSH1 0xE0 DUP8 ADD MSTORE PUSH2 0x1F95 PUSH1 0x7 DUP7 ADD PUSH2 0x5835 JUMP JUMPDEST SWAP6 PUSH2 0x100 DUP2 ADD SWAP7 DUP8 MSTORE DUP8 PUSH1 0x8 DUP8 ADD SLOAD AND PUSH2 0x120 DUP3 ADD MSTORE PUSH2 0x220 PUSH1 0x19 PUSH2 0x1FBC PUSH1 0x9 DUP10 ADD PUSH2 0x538B JUMP JUMPDEST SWAP8 PUSH2 0x140 DUP5 ADD SWAP9 DUP10 MSTORE PUSH2 0x1FD1 PUSH1 0x10 DUP3 ADD PUSH2 0x53E0 JUMP JUMPDEST PUSH2 0x160 DUP6 ADD MSTORE PUSH1 0x14 DUP2 ADD SLOAD PUSH2 0x180 DUP6 ADD MSTORE PUSH1 0x15 DUP2 ADD SLOAD PUSH2 0x1A0 DUP6 ADD MSTORE PUSH1 0x16 DUP2 ADD SLOAD PUSH2 0x1C0 DUP6 ADD MSTORE PUSH1 0x17 DUP2 ADD SLOAD PUSH2 0x1E0 DUP6 ADD MSTORE PUSH1 0xFF PUSH1 0x18 DUP3 ADD SLOAD AND ISZERO ISZERO PUSH2 0x200 DUP6 ADD MSTORE ADD SLOAD SWAP2 ADD MSTORE DUP6 MLOAD MLOAD SWAP5 MLOAD SWAP6 DUP7 MLOAD SWAP5 PUSH2 0x2043 PUSH1 0x60 DUP10 ADD MLOAD SWAP9 PUSH2 0x203D DUP4 PUSH1 0x40 DUP4 ADD MLOAD SWAP3 ADD MLOAD SWAP2 DUP12 PUSH2 0x5918 JUMP JUMPDEST SWAP10 PUSH2 0x5918 JUMP JUMPDEST SWAP9 PUSH1 0x0 SWAP7 DUP1 PUSH2 0x20F8 JUMPI JUMPDEST POP PUSH1 0x0 SWAP6 PUSH1 0x0 JUMPDEST DUP10 DUP2 LT PUSH2 0x20A6 JUMPI POP POP DUP8 ISZERO SWAP5 POP PUSH2 0x2098 SWAP4 POP POP POP POP JUMPI PUSH1 0x64 DUP2 MUL SWAP1 DUP1 DUP3 DIV PUSH1 0x64 EQ SWAP1 ISZERO OR ISZERO PUSH2 0xF7F JUMPI PUSH2 0x13D8 SWAP3 PUSH2 0x208A SWAP2 PUSH2 0x5A0A JUMP JUMPDEST SWAP1 JUMPDEST PUSH1 0x40 MLOAD SWAP5 DUP6 SWAP5 DUP6 PUSH2 0x5100 JUMP JUMPDEST POP PUSH2 0x13D8 SWAP2 POP PUSH1 0x0 SWAP1 PUSH2 0x208C JUMP JUMPDEST DUP7 PUSH1 0x0 MSTORE DUP2 DUP5 MSTORE PUSH1 0x40 PUSH1 0x0 KECCAK256 DUP4 PUSH2 0x20BE DUP4 DUP9 MLOAD PUSH2 0x59DB JUMP JUMPDEST MLOAD AND PUSH1 0x0 MSTORE DUP5 MSTORE DUP6 DUP1 PUSH1 0x40 PUSH1 0x0 KECCAK256 ADD SLOAD LT ISZERO PUSH2 0x20E3 JUMPI JUMPDEST PUSH2 0x20DE SWAP1 PUSH2 0x56B0 JUMP JUMPDEST PUSH2 0x2054 JUMP JUMPDEST SWAP7 PUSH2 0x20F0 PUSH2 0x20DE SWAP2 PUSH2 0x56B0 JUMP JUMPDEST SWAP8 SWAP1 POP PUSH2 0x20D5 JUMP JUMPDEST SWAP1 SWAP7 POP PUSH1 0x64 DUP11 MUL SWAP1 DUP11 DUP3 DIV PUSH1 0x64 EQ DUP12 ISZERO OR ISZERO PUSH2 0xF7F JUMPI PUSH2 0x2117 SWAP2 PUSH2 0x5A0A JUMP JUMPDEST SWAP6 DUP11 PUSH2 0x204D JUMP JUMPDEST CALLVALUE PUSH2 0x3E9 JUMPI PUSH1 0x20 CALLDATASIZE PUSH1 0x3 NOT ADD SLT PUSH2 0x3E9 JUMPI PUSH1 0x4 CALLDATALOAD PUSH1 0x0 MSTORE PUSH1 0x3 PUSH1 0x20 MSTORE PUSH1 0x40 PUSH1 0x0 KECCAK256 DUP1 SLOAD PUSH1 0x1 DUP3 ADD PUSH2 0x214E SWAP1 PUSH2 0x52A5 JUMP JUMPDEST PUSH1 0x2 DUP4 ADD SLOAD PUSH1 0x3 DUP5 ADD SLOAD PUSH1 0x4 DUP6 ADD SLOAD PUSH1 0x5 DUP7 ADD SLOAD PUSH1 0x6 DUP8 ADD SLOAD PUSH1 0x8 DUP9 ADD SLOAD SWAP4 SWAP8 SWAP6 SWAP5 SWAP3 SWAP4 SWAP2 SWAP3 SWAP1 SWAP2 PUSH1 0x1 PUSH1 0x1 PUSH1 0xA0 SHL SUB AND SWAP1 PUSH2 0x218C PUSH1 0x9 DUP9 ADD PUSH2 0x538B JUMP JUMPDEST PUSH2 0x2198 PUSH1 0x10 DUP10 ADD PUSH2 0x53E0 JUMP JUMPDEST SWAP3 PUSH1 0x14 DUP10 ADD SLOAD SWAP5 PUSH1 0x15 DUP11 ADD SLOAD SWAP7 PUSH1 0x16 DUP12 ADD SLOAD SWAP9 PUSH1 0x17 DUP13 ADD SLOAD SWAP11 PUSH1 0x18 DUP14 ADD SLOAD PUSH1 0xFF AND SWAP13 PUSH1 0x19 ADD SLOAD SWAP14 PUSH1 0x40 MLOAD DUP1 PUSH1 0x80 MSTORE MSTORE PUSH2 0x360 DUP1 PUSH1 0x80 MLOAD PUSH1 0x20 ADD MSTORE PUSH1 0x80 MLOAD ADD PUSH2 0x21DF SWAP2 PUSH2 0x534B JUMP JUMPDEST PUSH1 0x80 MLOAD PUSH1 0x1 PUSH1 0x1 PUSH1 0xA0 SHL SUB DUP9 AND PUSH1 0x40 SWAP1 SWAP2 ADD MSTORE SWAP14 PUSH1 0xFF PUSH1 0xA0 DUP9 SWAP1 SHR AND PUSH1 0x4 GT ISZERO PUSH2 0x7B4 JUMPI PUSH1 0xFF PUSH1 0xC0 SWAP8 PUSH1 0xA0 SHR AND PUSH1 0x60 PUSH1 0x80 MLOAD ADD MSTORE PUSH1 0x80 DUP1 MLOAD ADD MSTORE PUSH1 0xA0 PUSH1 0x80 MLOAD ADD MSTORE DUP5 PUSH1 0x80 MLOAD ADD MSTORE PUSH1 0xE0 PUSH1 0x80 MLOAD ADD MSTORE PUSH2 0x100 PUSH1 0x80 MLOAD ADD MSTORE DUP1 MLOAD PUSH2 0x120 PUSH1 0x80 MLOAD ADD MSTORE PUSH1 0x20 DUP2 ADD MLOAD PUSH2 0x140 PUSH1 0x80 MLOAD ADD MSTORE PUSH1 0x40 DUP2 ADD MLOAD PUSH2 0x160 PUSH1 0x80 MLOAD ADD MSTORE PUSH1 0x60 DUP2 ADD MLOAD PUSH2 0x180 PUSH1 0x80 MLOAD ADD MSTORE PUSH1 0x80 DUP2 ADD MLOAD PUSH2 0x1A0 PUSH1 0x80 MLOAD ADD MSTORE PUSH1 0xA0 DUP2 ADD MLOAD PUSH2 0x1C0 PUSH1 0x80 MLOAD ADD MSTORE ADD MLOAD ISZERO ISZERO PUSH2 0x1E0 PUSH1 0x80 MLOAD ADD MSTORE DUP1 MLOAD SWAP1 PUSH1 0x3 DUP3 LT ISZERO PUSH2 0x7B4 JUMPI PUSH1 0x80 SWAP2 PUSH2 0x200 DUP4 MLOAD ADD MSTORE PUSH1 0x20 DUP2 ADD MLOAD PUSH2 0x220 DUP4 MLOAD ADD MSTORE PUSH1 0x40 DUP2 ADD MLOAD PUSH2 0x240 DUP4 MLOAD ADD MSTORE PUSH1 0x1 DUP1 PUSH1 0xA0 SHL SUB PUSH1 0x60 DUP3 ADD MLOAD AND PUSH2 0x260 DUP4 MLOAD ADD MSTORE ADD MLOAD ISZERO ISZERO PUSH2 0x280 PUSH1 0x80 MLOAD ADD MSTORE PUSH2 0x2A0 PUSH1 0x80 MLOAD ADD MSTORE PUSH2 0x2C0 PUSH1 0x80 MLOAD ADD MSTORE PUSH2 0x2E0 PUSH1 0x80 MLOAD ADD MSTORE PUSH2 0x300 PUSH1 0x80 MLOAD ADD MSTORE ISZERO ISZERO PUSH2 0x320 PUSH1 0x80 MLOAD ADD MSTORE PUSH2 0x340 PUSH1 0x80 MLOAD ADD MSTORE PUSH1 0x80 MLOAD DUP1 SWAP2 SUB SWAP1 RETURN JUMPDEST CALLVALUE PUSH2 0x3E9 JUMPI PUSH1 0x0 CALLDATASIZE PUSH1 0x3 NOT ADD SLT PUSH2 0x3E9 JUMPI PUSH1 0x2 DUP1 SLOAD PUSH1 0x0 PUSH1 0x1 JUMPDEST DUP3 DUP2 GT ISZERO PUSH2 0x23D8 JUMPI POP PUSH2 0x2341 SWAP1 PUSH2 0x5B80 JUMP JUMPDEST SWAP1 PUSH1 0x0 SWAP3 PUSH1 0x1 JUMPDEST DUP3 DUP2 GT ISZERO PUSH2 0x235E JUMPI PUSH1 0x40 MLOAD DUP1 PUSH2 0x13D8 DUP7 DUP3 PUSH2 0x5156 JUMP JUMPDEST DUP1 PUSH1 0x0 MSTORE PUSH1 0x3 SWAP1 PUSH1 0x20 DUP3 DUP2 MSTORE PUSH1 0xFF DUP1 DUP6 PUSH1 0x40 PUSH1 0x0 KECCAK256 ADD SLOAD PUSH1 0xA0 SHR AND SWAP4 PUSH1 0x4 DUP6 LT ISZERO PUSH2 0x7B4 JUMPI PUSH1 0x1 PUSH2 0x239D SWAP6 EQ SWAP3 DUP4 PUSH2 0x23BC JUMPI JUMPDEST POP POP POP PUSH2 0x23A2 JUMPI PUSH2 0x56B0 JUMP JUMPDEST PUSH2 0x2348 JUMP JUMPDEST DUP1 PUSH2 0x23B6 PUSH2 0x23AF DUP9 PUSH2 0x56B0 JUMP JUMPDEST SWAP8 DUP8 PUSH2 0x59DB JUMP JUMPDEST MSTORE PUSH2 0x56B0 JUMP JUMPDEST SWAP1 SWAP2 SWAP3 POP DUP4 PUSH1 0x0 MSTORE MSTORE PUSH1 0x18 PUSH1 0x40 PUSH1 0x0 KECCAK256 ADD SLOAD AND ISZERO DUP8 DUP1 DUP1 PUSH2 0x2391 JUMP JUMPDEST DUP1 PUSH1 0x0 MSTORE PUSH1 0x3 PUSH1 0x20 SWAP1 DUP1 DUP3 MSTORE PUSH1 0xFF SWAP1 DUP2 DUP8 PUSH1 0x40 PUSH1 0x0 KECCAK256 ADD SLOAD PUSH1 0xA0 SHR AND PUSH1 0x4 DUP2 LT ISZERO PUSH2 0x7B4 JUMPI PUSH1 0x1 EQ SWAP3 DUP4 PUSH2 0x2432 JUMPI JUMPDEST POP POP POP PUSH2 0x241D JUMPI JUMPDEST PUSH2 0x2418 SWAP1 PUSH2 0x56B0 JUMP JUMPDEST PUSH2 0x232F JUMP JUMPDEST SWAP1 PUSH2 0x242A PUSH2 0x2418 SWAP2 PUSH2 0x56B0 JUMP JUMPDEST SWAP2 SWAP1 POP PUSH2 0x240F JUMP JUMPDEST SWAP1 SWAP2 SWAP3 POP DUP4 PUSH1 0x0 MSTORE MSTORE PUSH1 0x18 PUSH1 0x40 PUSH1 0x0 KECCAK256 ADD SLOAD AND ISZERO DUP6 DUP1 DUP1 PUSH2 0x2407 JUMP JUMPDEST CALLVALUE PUSH2 0x3E9 JUMPI PUSH1 0x20 CALLDATASIZE PUSH1 0x3 NOT ADD SLT PUSH2 0x3E9 JUMPI PUSH1 0x20 PUSH2 0xB4D PUSH1 0x4 CALLDATALOAD PUSH2 0x5D6E JUMP JUMPDEST CALLVALUE PUSH2 0x3E9 JUMPI PUSH1 0x40 CALLDATASIZE PUSH1 0x3 NOT ADD SLT PUSH2 0x3E9 JUMPI PUSH2 0x2485 PUSH2 0x50BE JUMP JUMPDEST PUSH1 0x4 CALLDATALOAD PUSH1 0x0 MSTORE PUSH1 0x5 PUSH1 0x20 MSTORE PUSH1 0x40 PUSH1 0x0 KECCAK256 SWAP1 PUSH1 0x1 DUP1 PUSH1 0xA0 SHL SUB AND PUSH1 0x0 MSTORE PUSH1 0x20 MSTORE PUSH1 0x20 PUSH1 0x1 PUSH1 0x40 PUSH1 0x0 KECCAK256 ADD SLOAD PUSH1 0x40 MLOAD SWAP1 DUP2 MSTORE RETURN JUMPDEST CALLVALUE PUSH2 0x3E9 JUMPI PUSH1 0x0 CALLDATASIZE PUSH1 0x3 NOT ADD SLT PUSH2 0x3E9 JUMPI PUSH1 0x20 PUSH1 0x40 MLOAD PUSH3 0x7A120 DUP2 MSTORE RETURN JUMPDEST CALLVALUE PUSH2 0x3E9 JUMPI PUSH1 0x0 CALLDATASIZE PUSH1 0x3 NOT ADD SLT PUSH2 0x3E9 JUMPI PUSH1 0x20 PUSH1 0x2 SLOAD PUSH1 0x40 MLOAD SWAP1 DUP2 MSTORE RETURN JUMPDEST CALLVALUE PUSH2 0x3E9 JUMPI PUSH1 0x0 CALLDATASIZE PUSH1 0x3 NOT ADD SLT PUSH2 0x3E9 JUMPI PUSH1 0x20 PUSH1 0x40 MLOAD PUSH1 0x28 DUP2 MSTORE RETURN JUMPDEST CALLVALUE PUSH2 0x3E9 JUMPI PUSH1 0x40 CALLDATASIZE PUSH1 0x3 NOT ADD SLT PUSH2 0x3E9 JUMPI PUSH1 0x4 CALLDATALOAD PUSH2 0x252B PUSH2 0x50BE JUMP JUMPDEST SWAP1 PUSH2 0x2534 PUSH2 0x566C JUMP JUMPDEST DUP1 ISZERO ISZERO DUP1 PUSH2 0x2644 JUMPI JUMPDEST PUSH2 0x2546 SWAP1 PUSH2 0x54F4 JUMP JUMPDEST DUP1 PUSH1 0x0 MSTORE PUSH1 0x20 PUSH1 0x3 DUP2 MSTORE PUSH1 0x1 DUP1 PUSH1 0xA0 SHL SUB DUP1 PUSH1 0x2 PUSH1 0x40 PUSH1 0x0 KECCAK256 ADD SLOAD AND CALLER SUB PUSH2 0x2605 JUMPI DUP3 PUSH1 0x0 MSTORE PUSH1 0x12 DUP3 MSTORE PUSH1 0x40 PUSH1 0x0 KECCAK256 SWAP4 AND SWAP3 DUP4 PUSH1 0x0 MSTORE DUP2 MSTORE PUSH1 0xFF PUSH1 0x40 PUSH1 0x0 KECCAK256 SLOAD AND ISZERO PUSH2 0x25D3 JUMPI DUP2 PUSH1 0x0 MSTORE PUSH1 0x12 DUP2 MSTORE PUSH1 0x40 PUSH1 0x0 KECCAK256 SWAP1 DUP4 PUSH1 0x0 MSTORE MSTORE PUSH1 0x40 PUSH1 0x0 KECCAK256 PUSH1 0xFF NOT DUP2 SLOAD AND SWAP1 SSTORE PUSH32 0x8AEC0DB50E2FB503D8EF5D554809D700E2878A7431E522A5DA1D94BF356DC438 PUSH1 0x0 DUP1 LOG3 STOP JUMPDEST PUSH1 0x64 SWAP1 PUSH1 0x40 MLOAD SWAP1 PUSH3 0x461BCD PUSH1 0xE5 SHL DUP3 MSTORE PUSH1 0x4 DUP3 ADD MSTORE PUSH1 0xB PUSH1 0x24 DUP3 ADD MSTORE PUSH11 0x139BDD081A5B9D9A5D1959 PUSH1 0xAA SHL PUSH1 0x44 DUP3 ADD MSTORE REVERT JUMPDEST PUSH1 0x40 MLOAD PUSH3 0x461BCD PUSH1 0xE5 SHL DUP2 MSTORE PUSH1 0x4 DUP2 ADD DUP4 SWAP1 MSTORE PUSH1 0x17 PUSH1 0x24 DUP3 ADD MSTORE PUSH23 0x4F6E6C792063726561746F722063616E207265766F6B65 PUSH1 0x48 SHL PUSH1 0x44 DUP3 ADD MSTORE PUSH1 0x64 SWAP1 REVERT JUMPDEST POP PUSH1 0x2 SLOAD DUP2 GT ISZERO PUSH2 0x253D JUMP JUMPDEST CALLVALUE PUSH2 0x3E9 JUMPI PUSH1 0x20 CALLDATASIZE PUSH1 0x3 NOT ADD SLT PUSH2 0x3E9 JUMPI PUSH1 0x4 CALLDATALOAD PUSH1 0x0 MSTORE PUSH1 0x3 PUSH1 0x20 MSTORE PUSH1 0x20 PUSH2 0xB4D PUSH2 0x2693 PUSH2 0x2684 PUSH1 0x9 PUSH1 0x40 PUSH1 0x0 KECCAK256 ADD PUSH2 0x538B JUMP JUMPDEST DUP4 PUSH1 0x40 DUP3 ADD MLOAD SWAP2 ADD MLOAD SWAP1 PUSH2 0x5571 JUMP JUMPDEST PUSH2 0x5D6E JUMP JUMPDEST CALLVALUE PUSH2 0x3E9 JUMPI PUSH1 0x0 CALLDATASIZE PUSH1 0x3 NOT ADD SLT PUSH2 0x3E9 JUMPI PUSH1 0x1 DUP1 SLOAD PUSH2 0x26C5 CALLER PUSH1 0x8 DUP4 SWAP1 SHR PUSH1 0x1 PUSH1 0x1 PUSH1 0xA0 SHL SUB AND EQ PUSH2 0x54BC JUMP JUMPDEST PUSH2 0x26CD PUSH2 0x566C JUMP JUMPDEST PUSH1 0xFF NOT AND OR PUSH1 0x1 SSTORE PUSH32 0x62E78CEA01BEE320CD4E420270B5EA74000D11B0C9F74754EBDBFC544B05A258 PUSH1 0x20 PUSH1 0x40 MLOAD CALLER DUP2 MSTORE LOG1 STOP JUMPDEST CALLVALUE PUSH2 0x3E9 JUMPI PUSH1 0x40 CALLDATASIZE PUSH1 0x3 NOT ADD SLT PUSH2 0x3E9 JUMPI PUSH2 0x271A PUSH2 0x50BE JUMP JUMPDEST PUSH1 0x4 CALLDATALOAD PUSH1 0x0 MSTORE PUSH1 0x8 PUSH1 0x20 MSTORE PUSH1 0x40 PUSH1 0x0 KECCAK256 SWAP1 PUSH1 0x1 DUP1 PUSH1 0xA0 SHL SUB AND PUSH1 0x0 MSTORE PUSH1 0x20 MSTORE PUSH1 0x20 PUSH1 0x40 PUSH1 0x0 KECCAK256 SLOAD PUSH1 0x40 MLOAD SWAP1 DUP2 MSTORE RETURN JUMPDEST CALLVALUE PUSH2 0x3E9 JUMPI PUSH1 0x20 DUP1 PUSH1 0x3 NOT CALLDATASIZE ADD SLT PUSH2 0x3E9 JUMPI PUSH1 0x4 CALLDATALOAD SWAP1 PUSH2 0x2767 PUSH2 0x566C JUMP JUMPDEST DUP2 ISZERO ISZERO DUP1 PUSH2 0x2832 JUMPI JUMPDEST PUSH2 0x2779 SWAP1 PUSH2 0x54F4 JUMP JUMPDEST PUSH2 0x2786 PUSH2 0x874 CALLER DUP5 PUSH2 0x6116 JUMP JUMPDEST PUSH2 0x278E PUSH2 0x5616 JUMP JUMPDEST DUP2 PUSH1 0x0 MSTORE PUSH1 0x4 DUP2 MSTORE PUSH1 0x40 PUSH1 0x0 KECCAK256 CALLER PUSH1 0x0 MSTORE DUP2 MSTORE PUSH1 0x40 PUSH1 0x0 KECCAK256 SLOAD SWAP1 DUP2 ISZERO PUSH2 0x27F6 JUMPI PUSH1 0x0 DUP1 MLOAD PUSH1 0x20 PUSH2 0x62DF DUP4 CODECOPY DUP2 MLOAD SWAP2 MSTORE SWAP2 PUSH1 0x3 PUSH2 0x929 SWAP3 DUP6 PUSH1 0x0 MSTORE PUSH1 0x4 DUP2 MSTORE PUSH1 0x40 PUSH1 0x0 KECCAK256 CALLER PUSH1 0x0 MSTORE DUP2 MSTORE PUSH1 0x0 PUSH1 0x40 DUP2 KECCAK256 SSTORE DUP6 PUSH1 0x0 MSTORE MSTORE PUSH1 0x17 PUSH1 0x40 PUSH1 0x0 KECCAK256 ADD PUSH2 0x900 DUP3 DUP3 SLOAD PUSH2 0x5828 JUMP JUMPDEST PUSH1 0x64 SWAP1 PUSH1 0x40 MLOAD SWAP1 PUSH3 0x461BCD PUSH1 0xE5 SHL DUP3 MSTORE PUSH1 0x4 DUP3 ADD MSTORE PUSH1 0x15 PUSH1 0x24 DUP3 ADD MSTORE PUSH21 0x4E6F2070726F66697420746F207769746864726177 PUSH1 0x58 SHL PUSH1 0x44 DUP3 ADD MSTORE REVERT JUMPDEST POP PUSH1 0x2 SLOAD DUP3 GT ISZERO PUSH2 0x2770 JUMP JUMPDEST CALLVALUE PUSH2 0x3E9 JUMPI PUSH1 0x0 CALLDATASIZE PUSH1 0x3 NOT ADD SLT PUSH2 0x3E9 JUMPI PUSH1 0x20 PUSH1 0x40 MLOAD PUSH3 0x93A80 DUP2 MSTORE RETURN JUMPDEST CALLVALUE PUSH2 0x3E9 JUMPI PUSH2 0x286A CALLDATASIZE PUSH2 0x50EA JUMP JUMPDEST SWAP1 PUSH1 0x0 MSTORE PUSH1 0xA PUSH1 0x20 MSTORE PUSH1 0x40 PUSH1 0x0 KECCAK256 SWAP1 PUSH1 0x0 MSTORE PUSH1 0x20 MSTORE PUSH1 0x40 PUSH1 0x0 KECCAK256 DUP1 SLOAD PUSH1 0x1 DUP1 PUSH1 0xA0 SHL SUB PUSH1 0x1 DUP4 ADD SLOAD AND SWAP2 PUSH1 0x2 DUP2 ADD SLOAD PUSH1 0xFF PUSH2 0x28A7 PUSH1 0x3 DUP5 ADD PUSH2 0x52A5 JUMP JUMPDEST SWAP3 PUSH1 0x4 DUP2 ADD SLOAD SWAP4 PUSH1 0x5 DUP3 ADD SLOAD PUSH2 0x28EA PUSH1 0x6 DUP5 ADD SLOAD SWAP3 PUSH1 0x8 PUSH1 0x7 DUP7 ADD SLOAD SWAP6 ADD SLOAD SWAP7 PUSH1 0x40 MLOAD SWAP11 DUP12 SWAP11 DUP12 MSTORE PUSH1 0x20 DUP12 ADD MSTORE PUSH1 0x40 DUP11 ADD MSTORE PUSH2 0x160 DUP1 PUSH1 0x60 DUP12 ADD MSTORE DUP10 ADD SWAP1 PUSH2 0x534B JUMP JUMPDEST SWAP6 PUSH1 0x80 DUP9 ADD MSTORE PUSH1 0xA0 DUP8 ADD MSTORE PUSH1 0xC0 DUP7 ADD MSTORE DUP2 DUP2 AND ISZERO ISZERO PUSH1 0xE0 DUP7 ADD MSTORE DUP2 DUP2 PUSH1 0x8 SHR AND ISZERO ISZERO PUSH2 0x100 DUP7 ADD MSTORE PUSH1 0x10 SHR AND ISZERO ISZERO PUSH2 0x120 DUP5 ADD MSTORE PUSH2 0x140 DUP4 ADD MSTORE SUB SWAP1 RETURN JUMPDEST CALLVALUE PUSH2 0x3E9 JUMPI PUSH1 0x40 CALLDATASIZE PUSH1 0x3 NOT ADD SLT PUSH2 0x3E9 JUMPI PUSH1 0x4 CALLDATALOAD PUSH2 0x2944 PUSH2 0x50BE JUMP JUMPDEST PUSH2 0x294C PUSH2 0x566C JUMP JUMPDEST DUP2 ISZERO ISZERO DUP1 PUSH2 0x2B63 JUMPI JUMPDEST PUSH2 0x295E SWAP1 PUSH2 0x54F4 JUMP JUMPDEST PUSH2 0x296B PUSH2 0x874 CALLER DUP5 PUSH2 0x6116 JUMP JUMPDEST DUP2 PUSH1 0x0 MSTORE PUSH1 0x20 PUSH1 0x3 DUP2 MSTORE PUSH1 0x40 PUSH1 0x0 KECCAK256 SWAP1 PUSH1 0xFF PUSH1 0x10 DUP4 ADD SLOAD AND PUSH1 0x3 DUP2 LT ISZERO PUSH2 0x7B4 JUMPI PUSH1 0x1 SUB PUSH2 0x2B2E JUMPI PUSH2 0x29A3 PUSH1 0x11 DUP4 ADD SLOAD TIMESTAMP GT ISZERO PUSH2 0x592B JUMP JUMPDEST DUP4 PUSH1 0x0 MSTORE PUSH1 0x7 DUP2 MSTORE PUSH1 0x40 PUSH1 0x0 KECCAK256 CALLER PUSH1 0x0 MSTORE DUP2 MSTORE PUSH2 0x29C8 PUSH1 0xFF PUSH1 0x40 PUSH1 0x0 KECCAK256 SLOAD AND ISZERO PUSH2 0x596E JUMP JUMPDEST PUSH1 0x1 PUSH1 0x1 PUSH1 0xA0 SHL SUB DUP4 AND SWAP1 CALLER DUP3 EQ PUSH2 0x2AEF JUMPI PUSH2 0x29E4 DUP5 DUP7 PUSH2 0x6116 JUMP JUMPDEST ISZERO PUSH2 0x2AB2 JUMPI PUSH2 0x2A92 SWAP3 PUSH32 0xCFFF1651BCEA794952A516CE970AB17518A85210BD939AAEAAC670A8D3E65EC7 SWAP5 SWAP3 PUSH1 0x12 SWAP3 DUP8 PUSH1 0x0 MSTORE PUSH1 0x8 DUP2 MSTORE PUSH1 0x40 PUSH1 0x0 KECCAK256 DUP3 PUSH1 0x0 MSTORE DUP2 MSTORE PUSH1 0x40 PUSH1 0x0 KECCAK256 SLOAD ISZERO PUSH2 0x2A97 JUMPI JUMPDEST DUP8 PUSH1 0x0 MSTORE PUSH1 0x7 DUP2 MSTORE PUSH1 0x40 PUSH1 0x0 KECCAK256 CALLER PUSH1 0x0 MSTORE DUP2 MSTORE PUSH1 0x40 PUSH1 0x0 KECCAK256 PUSH1 0x1 PUSH1 0xFF NOT DUP3 SLOAD AND OR SWAP1 SSTORE DUP8 PUSH1 0x0 MSTORE PUSH1 0x8 DUP2 MSTORE PUSH1 0x40 PUSH1 0x0 KECCAK256 SWAP2 PUSH1 0x0 MSTORE MSTORE PUSH1 0x40 PUSH1 0x0 KECCAK256 PUSH2 0x2A76 DUP2 SLOAD PUSH2 0x56B0 JUMP JUMPDEST SWAP1 SSTORE ADD PUSH2 0x2A83 DUP2 SLOAD PUSH2 0x56B0 JUMP JUMPDEST SWAP1 SSTORE PUSH1 0x40 MLOAD SWAP2 DUP3 SWAP2 CALLER DUP4 PUSH2 0x59AA JUMP JUMPDEST SUB SWAP1 LOG2 STOP JUMPDEST DUP8 PUSH1 0x0 MSTORE PUSH1 0x9 DUP2 MSTORE PUSH2 0x2AAD DUP6 PUSH1 0x40 PUSH1 0x0 KECCAK256 PUSH2 0x5784 JUMP JUMPDEST PUSH2 0x2A32 JUMP JUMPDEST PUSH1 0x64 SWAP1 PUSH1 0x40 MLOAD SWAP1 PUSH3 0x461BCD PUSH1 0xE5 SHL DUP3 MSTORE PUSH1 0x4 DUP3 ADD MSTORE PUSH1 0x16 PUSH1 0x24 DUP3 ADD MSTORE PUSH22 0x43616E646964617465206E6F7420696E2067726F757 PUSH1 0x54 SHL PUSH1 0x44 DUP3 ADD MSTORE REVERT JUMPDEST PUSH1 0x64 SWAP1 PUSH1 0x40 MLOAD SWAP1 PUSH3 0x461BCD PUSH1 0xE5 SHL DUP3 MSTORE PUSH1 0x4 DUP3 ADD MSTORE PUSH1 0x18 PUSH1 0x24 DUP3 ADD MSTORE PUSH24 0x21B0B73737BA103B37BA32903337B9103CB7BAB939B2B633 PUSH1 0x41 SHL PUSH1 0x44 DUP3 ADD MSTORE REVERT JUMPDEST PUSH1 0x64 SWAP1 PUSH1 0x40 MLOAD SWAP1 PUSH3 0x461BCD PUSH1 0xE5 SHL DUP3 MSTORE PUSH1 0x4 DUP3 ADD MSTORE PUSH1 0xE PUSH1 0x24 DUP3 ADD MSTORE PUSH14 0x4E6F2061637469766520766F7465 PUSH1 0x90 SHL PUSH1 0x44 DUP3 ADD MSTORE REVERT JUMPDEST POP PUSH1 0x2 SLOAD DUP3 GT ISZERO PUSH2 0x2955 JUMP JUMPDEST CALLVALUE PUSH2 0x3E9 JUMPI PUSH1 0x20 DUP1 PUSH1 0x3 NOT CALLDATASIZE ADD SLT PUSH2 0x3E9 JUMPI PUSH2 0x2B89 PUSH2 0x50D4 JUMP JUMPDEST PUSH1 0x2 DUP1 SLOAD SWAP1 SWAP3 SWAP2 PUSH1 0x0 PUSH1 0x1 JUMPDEST DUP4 DUP2 GT ISZERO PUSH2 0x2C60 JUMPI POP PUSH2 0x2BA7 SWAP1 PUSH2 0x5B80 JUMP JUMPDEST SWAP3 PUSH1 0x0 SWAP5 PUSH1 0x1 JUMPDEST DUP5 DUP2 GT ISZERO PUSH2 0x2BC4 JUMPI PUSH1 0x40 MLOAD DUP1 PUSH2 0x13D8 DUP9 DUP3 PUSH2 0x5156 JUMP JUMPDEST DUP1 PUSH1 0x0 MSTORE PUSH1 0x3 DUP1 DUP5 MSTORE PUSH1 0xFF DUP1 PUSH1 0x18 PUSH1 0x40 PUSH1 0x0 KECCAK256 ADD SLOAD AND SWAP2 DUP3 PUSH2 0x2C3C JUMPI JUMPDEST DUP3 PUSH2 0x2C10 JUMPI JUMPDEST POP POP SWAP1 PUSH2 0x2BF7 SWAP2 PUSH2 0x2BFC JUMPI PUSH2 0x56B0 JUMP JUMPDEST PUSH2 0x2BAE JUMP JUMPDEST DUP1 PUSH2 0x23B6 PUSH2 0x2C09 DUP11 PUSH2 0x56B0 JUMP JUMPDEST SWAP10 DUP10 PUSH2 0x59DB JUMP JUMPDEST SWAP1 SWAP2 POP DUP3 PUSH1 0x0 MSTORE DUP5 MSTORE DUP3 PUSH1 0x40 PUSH1 0x0 KECCAK256 ADD SLOAD PUSH1 0xA0 SHR AND SWAP1 PUSH1 0x4 DUP3 LT ISZERO PUSH2 0x7B4 JUMPI SWAP1 PUSH1 0x1 EQ PUSH2 0x2BF7 DUP10 PUSH2 0x2BE7 JUMP JUMPDEST PUSH1 0x12 DUP7 MSTORE PUSH1 0x40 PUSH1 0x0 DUP2 DUP2 KECCAK256 PUSH1 0x1 PUSH1 0x1 PUSH1 0xA0 SHL SUB DUP11 AND DUP3 MSTORE DUP9 MSTORE KECCAK256 SLOAD DUP3 AND SWAP3 POP PUSH2 0x2BE1 JUMP JUMPDEST DUP1 PUSH1 0x0 MSTORE PUSH1 0x3 DUP1 DUP7 MSTORE PUSH1 0xFF DUP1 PUSH1 0x18 PUSH1 0x40 PUSH1 0x0 KECCAK256 ADD SLOAD AND SWAP2 DUP3 PUSH2 0x2CD5 JUMPI JUMPDEST DUP3 PUSH2 0x2CAD JUMPI JUMPDEST POP POP PUSH2 0x2C98 JUMPI JUMPDEST PUSH2 0x2C93 SWAP1 PUSH2 0x56B0 JUMP JUMPDEST PUSH2 0x2B95 JUMP JUMPDEST SWAP1 PUSH2 0x2CA5 PUSH2 0x2C93 SWAP2 PUSH2 0x56B0 JUMP JUMPDEST SWAP2 SWAP1 POP PUSH2 0x2C8A JUMP JUMPDEST SWAP1 SWAP2 POP DUP3 PUSH1 0x0 MSTORE DUP7 MSTORE DUP7 PUSH1 0x40 PUSH1 0x0 KECCAK256 ADD SLOAD PUSH1 0xA0 SHR AND PUSH1 0x4 DUP2 LT ISZERO PUSH2 0x7B4 JUMPI PUSH1 0x1 EQ DUP8 DUP1 PUSH2 0x2C83 JUMP JUMPDEST PUSH1 0x12 DUP9 MSTORE PUSH1 0x40 PUSH1 0x0 DUP2 DUP2 KECCAK256 PUSH1 0x1 PUSH1 0x1 PUSH1 0xA0 SHL SUB DUP10 AND DUP3 MSTORE DUP11 MSTORE KECCAK256 SLOAD DUP3 AND SWAP3 POP PUSH2 0x2C7D JUMP JUMPDEST CALLVALUE PUSH2 0x3E9 JUMPI PUSH2 0x2D07 CALLDATASIZE PUSH2 0x50EA JUMP JUMPDEST SWAP1 PUSH1 0x0 MSTORE PUSH1 0x13 PUSH1 0x20 MSTORE PUSH1 0x40 PUSH1 0x0 KECCAK256 DUP1 SLOAD DUP3 LT ISZERO PUSH2 0x3E9 JUMPI PUSH1 0x20 SWAP2 PUSH2 0x2D2A SWAP2 PUSH2 0x51DE JUMP JUMPDEST SWAP1 SLOAD PUSH1 0x40 MLOAD PUSH1 0x3 SWAP3 SWAP1 SWAP3 SHL SHR PUSH1 0x1 PUSH1 0x1 PUSH1 0xA0 SHL SUB AND DUP2 MSTORE RETURN JUMPDEST PUSH1 0x20 CALLDATASIZE PUSH1 0x3 NOT ADD SLT PUSH2 0x3E9 JUMPI PUSH2 0x2D57 PUSH2 0x566C JUMP JUMPDEST PUSH1 0x4 CALLDATALOAD ISZERO ISZERO DUP1 PUSH2 0x3131 JUMPI JUMPDEST PUSH2 0x2D6B SWAP1 PUSH2 0x54F4 JUMP JUMPDEST PUSH2 0x2D73 PUSH2 0x5616 JUMP JUMPDEST PUSH1 0x4 CALLDATALOAD PUSH1 0x0 SWAP1 DUP2 MSTORE PUSH1 0x3 PUSH1 0x20 MSTORE PUSH1 0x40 SWAP1 KECCAK256 PUSH1 0x8 DUP2 ADD SLOAD PUSH1 0x1 PUSH1 0x1 PUSH1 0xA0 SHL SUB AND CALLER SUB PUSH2 0x30F9 JUMPI PUSH2 0x2DA8 PUSH1 0xFF PUSH1 0xF DUP4 ADD SLOAD AND PUSH2 0x5A2F JUMP JUMPDEST PUSH1 0xC DUP2 ADD SLOAD PUSH1 0x5 DUP3 ADD SLOAD GT ISZERO PUSH2 0x30C0 JUMPI PUSH1 0xB DUP2 ADD SLOAD PUSH2 0x2DCC PUSH1 0xA DUP4 ADD SLOAD DUP1 SWAP3 PUSH2 0x5571 JUMP JUMPDEST PUSH1 0x0 SWAP2 PUSH1 0x1 SWAP1 PUSH1 0xE DUP6 ADD SLOAD DUP1 TIMESTAMP GT PUSH2 0x3086 JUMPI JUMPDEST POP PUSH2 0x2DEA DUP5 DUP5 PUSH2 0x5571 JUMP JUMPDEST CALLVALUE SUB PUSH2 0x304A JUMPI DUP4 PUSH2 0x2DFA SWAP2 PUSH2 0x5571 JUMP JUMPDEST SWAP3 PUSH2 0x2E09 PUSH1 0x7 DUP7 ADD SLOAD DUP6 PUSH2 0x5A0A JUMP JUMPDEST SWAP3 PUSH1 0x0 JUMPDEST PUSH1 0x7 DUP8 ADD SLOAD DUP2 LT ISZERO PUSH2 0x2E64 JUMPI PUSH2 0x2E5F SWAP1 PUSH1 0x4 CALLDATALOAD PUSH1 0x0 MSTORE PUSH1 0x4 PUSH1 0x20 MSTORE PUSH1 0x40 PUSH1 0x0 KECCAK256 PUSH2 0x2E3A DUP3 PUSH1 0x7 DUP12 ADD PUSH2 0x51DE JUMP JUMPDEST PUSH1 0x1 DUP1 PUSH1 0xA0 SHL SUB SWAP2 SLOAD SWAP1 PUSH1 0x3 SHL SHR AND PUSH1 0x0 MSTORE PUSH1 0x20 MSTORE PUSH1 0x40 PUSH1 0x0 KECCAK256 PUSH2 0x133E DUP8 DUP3 SLOAD PUSH2 0x5571 JUMP JUMPDEST PUSH2 0x2E0D JUMP JUMPDEST POP DUP6 SWAP4 POP DUP5 PUSH2 0x2E78 PUSH1 0x17 DUP7 ADD SWAP2 DUP3 SLOAD PUSH2 0x5571 JUMP JUMPDEST SWAP1 SSTORE PUSH2 0x2E87 PUSH1 0xC DUP6 ADD SLOAD PUSH2 0x56B0 JUMP JUMPDEST PUSH1 0xC DUP6 ADD SSTORE TIMESTAMP PUSH1 0xD DUP6 ADD SSTORE PUSH3 0x278D00 TIMESTAMP ADD DUP1 TIMESTAMP GT PUSH2 0xF7F JUMPI PUSH1 0xE DUP6 ADD SSTORE PUSH1 0x4 CALLDATALOAD PUSH1 0x0 MSTORE PUSH1 0x5 PUSH1 0x20 MSTORE PUSH1 0x40 PUSH1 0x0 KECCAK256 PUSH1 0x1 DUP1 PUSH1 0xA0 SHL SUB PUSH1 0x8 DUP7 ADD SLOAD AND PUSH1 0x0 MSTORE PUSH1 0x20 MSTORE PUSH1 0x40 PUSH1 0x0 KECCAK256 SWAP3 PUSH1 0x0 EQ PUSH2 0x300F JUMPI PUSH1 0x3 DUP4 ADD PUSH2 0x2EE2 DUP2 SLOAD PUSH2 0x56B0 JUMP JUMPDEST SWAP1 SSTORE PUSH1 0x1 DUP4 ADD DUP1 SLOAD SWAP1 PUSH1 0xA DUP3 ADD DUP1 SWAP3 GT PUSH2 0xF7F JUMPI SSTORE JUMPDEST PUSH1 0xC DUP5 ADD SLOAD SWAP2 PUSH1 0x40 MLOAD SWAP2 CALLER DUP4 MSTORE PUSH1 0x20 DUP4 ADD MSTORE DUP3 PUSH1 0x40 DUP4 ADD MSTORE PUSH1 0x60 DUP3 ADD MSTORE PUSH32 0xA311EF6156DB45BBE3CE4128BBE878541A06D895FF987C4316315B345AD499C0 PUSH1 0x80 PUSH1 0x4 CALLDATALOAD SWAP3 LOG2 PUSH1 0x1 PUSH1 0x8 DUP5 ADD SLOAD SWAP3 ADD SLOAD PUSH1 0x0 DUP1 MLOAD PUSH1 0x20 PUSH2 0x625F DUP4 CODECOPY DUP2 MLOAD SWAP2 MSTORE PUSH1 0x40 MLOAD DUP1 PUSH2 0x2F70 PUSH1 0x4 CALLDATALOAD SWAP5 PUSH1 0x1 DUP1 PUSH1 0xA0 SHL SUB DUP9 AND DUP4 PUSH2 0x5A14 JUMP JUMPDEST SUB SWAP1 LOG2 PUSH1 0x5 DUP4 ADD SLOAD EQ PUSH2 0x2F85 JUMPI JUMPDEST PUSH1 0x1 PUSH1 0x0 SSTORE STOP JUMPDEST PUSH1 0x0 SWAP2 PUSH1 0x12 SWAP2 PUSH1 0xFF NOT SWAP1 DUP2 PUSH1 0xF DUP5 ADD SLOAD AND PUSH1 0xF DUP5 ADD SSTORE PUSH1 0x19 DUP4 ADD PUSH2 0x2FA9 DUP2 SLOAD PUSH2 0x56B0 JUMP JUMPDEST DUP1 SWAP2 SSTORE PUSH1 0x40 MLOAD SWAP1 DUP2 MSTORE PUSH32 0x3D7F456A773B484D2552719BD744B62049588737D6A02948EBA3DCAE1B0D77F PUSH1 0x20 PUSH1 0x4 CALLDATALOAD SWAP3 LOG2 PUSH1 0x1 PUSH1 0x1 PUSH1 0xA0 SHL SUB NOT AND PUSH1 0x8 DUP4 ADD SSTORE PUSH1 0x10 DUP3 ADD DUP1 SLOAD SWAP1 SWAP2 AND SWAP1 SSTORE PUSH1 0x13 DUP2 ADD DUP1 SLOAD PUSH1 0x1 PUSH1 0x1 PUSH1 0xA8 SHL SUB NOT AND SWAP1 SSTORE ADD SSTORE DUP1 DUP1 PUSH2 0x2F7E JUMP JUMPDEST PUSH1 0x4 DUP4 ADD PUSH2 0x301D DUP2 SLOAD PUSH2 0x56B0 JUMP JUMPDEST SWAP1 SSTORE PUSH1 0x1 DUP4 ADD DUP1 SLOAD PUSH1 0x5 GT PUSH2 0x3041 JUMPI DUP1 SLOAD PUSH1 0x4 NOT DUP2 ADD SWAP2 SWAP1 DUP3 GT PUSH2 0xF7F JUMPI SSTORE PUSH2 0x2EF8 JUMP JUMPDEST PUSH1 0x0 SWAP1 SSTORE PUSH2 0x2EF8 JUMP JUMPDEST PUSH1 0x40 MLOAD PUSH3 0x461BCD PUSH1 0xE5 SHL DUP2 MSTORE PUSH1 0x20 PUSH1 0x4 DUP3 ADD MSTORE PUSH1 0x14 PUSH1 0x24 DUP3 ADD MSTORE PUSH20 0x125B98DBDC9C9958DD0811535248185B5BDD5B9D PUSH1 0x62 SHL PUSH1 0x44 DUP3 ADD MSTORE PUSH1 0x64 SWAP1 REVERT JUMPDEST DUP4 SWAP2 SWAP5 POP PUSH2 0x3098 PUSH3 0x15180 SWAP2 TIMESTAMP PUSH2 0x5828 JUMP JUMPDEST DIV SWAP2 SHL DUP3 DUP2 DIV PUSH1 0x2 EQ DUP4 ISZERO OR ISZERO PUSH2 0xF7F JUMPI PUSH1 0x64 SWAP2 PUSH2 0x30B5 SWAP2 PUSH2 0x5918 JUMP JUMPDEST DIV SWAP2 PUSH1 0x0 SWAP1 DUP6 PUSH2 0x2DDF JUMP JUMPDEST PUSH1 0x40 MLOAD PUSH3 0x461BCD PUSH1 0xE5 SHL DUP2 MSTORE PUSH1 0x20 PUSH1 0x4 DUP3 ADD MSTORE PUSH1 0x11 PUSH1 0x24 DUP3 ADD MSTORE PUSH17 0x131BD85B88199D5B1B1E481C995C185A59 PUSH1 0x7A SHL PUSH1 0x44 DUP3 ADD MSTORE PUSH1 0x64 SWAP1 REVERT JUMPDEST PUSH1 0x40 MLOAD PUSH3 0x461BCD PUSH1 0xE5 SHL DUP2 MSTORE PUSH1 0x20 PUSH1 0x4 DUP3 ADD MSTORE PUSH1 0x10 PUSH1 0x24 DUP3 ADD MSTORE PUSH16 0x2737BA103A3432903137B93937BBB2B9 PUSH1 0x81 SHL PUSH1 0x44 DUP3 ADD MSTORE PUSH1 0x64 SWAP1 REVERT JUMPDEST POP PUSH1 0x2 SLOAD PUSH1 0x4 CALLDATALOAD GT ISZERO PUSH2 0x2D62 JUMP JUMPDEST CALLVALUE PUSH2 0x3E9 JUMPI PUSH2 0x314D CALLDATASIZE PUSH2 0x51B4 JUMP JUMPDEST SWAP2 PUSH1 0x0 MSTORE PUSH1 0x6 PUSH1 0x20 MSTORE PUSH1 0x40 PUSH1 0x0 KECCAK256 SWAP1 PUSH1 0x0 MSTORE PUSH1 0x20 MSTORE PUSH1 0x40 PUSH1 0x0 KECCAK256 SWAP1 PUSH1 0x1 DUP1 PUSH1 0xA0 SHL SUB AND PUSH1 0x0 MSTORE PUSH1 0x20 MSTORE PUSH1 0x20 PUSH1 0xFF PUSH1 0x40 PUSH1 0x0 KECCAK256 SLOAD AND PUSH1 0x40 MLOAD SWAP1 ISZERO ISZERO DUP2 MSTORE RETURN JUMPDEST CALLVALUE PUSH2 0x3E9 JUMPI PUSH1 0x20 CALLDATASIZE PUSH1 0x3 NOT ADD SLT PUSH2 0x3E9 JUMPI PUSH1 0x4 CALLDATALOAD PUSH1 0x0 MSTORE PUSH1 0x3 PUSH1 0x20 MSTORE PUSH1 0x20 PUSH2 0xB4D PUSH1 0x16 PUSH1 0x40 PUSH1 0x0 KECCAK256 ADD SLOAD PUSH2 0x5D6E JUMP JUMPDEST PUSH2 0x31C3 CALLDATASIZE PUSH2 0x50EA JUMP JUMPDEST PUSH2 0x31CB PUSH2 0x566C JUMP JUMPDEST DUP2 ISZERO ISZERO DUP1 PUSH2 0x3415 JUMPI JUMPDEST PUSH2 0x31DD SWAP1 PUSH2 0x54F4 JUMP JUMPDEST PUSH2 0x31E5 PUSH2 0x5616 JUMP JUMPDEST DUP2 PUSH1 0x0 MSTORE PUSH1 0x20 SWAP2 PUSH1 0xA DUP4 MSTORE PUSH1 0x40 PUSH1 0x0 KECCAK256 DUP3 PUSH1 0x0 MSTORE DUP4 MSTORE PUSH1 0x40 PUSH1 0x0 KECCAK256 DUP2 PUSH1 0x0 MSTORE PUSH1 0x3 SWAP4 DUP5 DUP2 MSTORE PUSH1 0x40 PUSH1 0x0 KECCAK256 PUSH1 0x1 DUP1 PUSH1 0xA0 SHL SUB SWAP6 PUSH1 0x1 SWAP7 DUP1 DUP9 DUP7 ADD SLOAD AND CALLER SUB PUSH2 0x33DC JUMPI PUSH1 0x7 DUP6 ADD SWAP4 DUP5 SLOAD SWAP6 PUSH1 0xFF DUP8 PUSH1 0x8 SHR AND ISZERO PUSH2 0x339C JUMPI PUSH1 0xFF DUP8 PUSH1 0x10 SHR AND PUSH2 0x3366 JUMPI PUSH1 0x2 ADD SLOAD SWAP5 DUP4 DUP7 MUL DUP7 DUP2 DIV DUP6 EQ DUP8 ISZERO OR ISZERO PUSH2 0xF7F JUMPI PUSH1 0x64 PUSH2 0x3268 SWAP2 DIV DUP1 SWAP8 PUSH2 0x5571 JUMP JUMPDEST SWAP7 DUP8 CALLVALUE SUB PUSH2 0x3324 JUMPI SWAP1 PUSH3 0x10000 DUP12 SWAP6 SWAP5 SWAP4 SWAP3 PUSH3 0xFF0000 NOT AND OR SWAP1 SSTORE CALLER PUSH1 0x0 MSTORE PUSH1 0xC DUP2 MSTORE PUSH1 0x0 PUSH1 0x40 DUP2 KECCAK256 SSTORE PUSH1 0x7 DUP6 ADD SWAP2 PUSH2 0x32A2 DUP4 SLOAD DUP9 PUSH2 0x5A0A JUMP JUMPDEST SWAP4 PUSH1 0x0 DUP7 JUMPDEST PUSH2 0x32F4 JUMPI JUMPDEST POP DUP6 DUP12 DUP12 PUSH32 0x5B32583CA9F1A2A6AC67B63A9553E4AE06ED06E8DEE3AD359E71E202DD84D5CD PUSH2 0x12DE DUP14 DUP14 PUSH2 0x32E5 PUSH1 0x17 DUP16 ADD SWAP2 DUP3 SLOAD PUSH2 0x5571 JUMP JUMPDEST SWAP1 SSTORE PUSH1 0x40 MLOAD SWAP2 DUP3 SWAP2 CALLER DUP4 PUSH2 0x5A14 JUMP JUMPDEST DUP5 SLOAD DUP2 LT ISZERO PUSH2 0x331F JUMPI PUSH2 0x3319 SWAP1 DUP12 PUSH1 0x0 MSTORE PUSH1 0x4 DUP6 MSTORE PUSH1 0x40 PUSH1 0x0 KECCAK256 DUP5 PUSH2 0x1322 DUP4 DUP10 PUSH2 0x51DE JUMP JUMPDEST DUP7 PUSH2 0x32A7 JUMP JUMPDEST PUSH2 0x32AC JUMP JUMPDEST PUSH1 0x40 MLOAD PUSH3 0x461BCD PUSH1 0xE5 SHL DUP2 MSTORE PUSH1 0x4 DUP2 ADD DUP5 SWAP1 MSTORE PUSH1 0x1A PUSH1 0x24 DUP3 ADD MSTORE PUSH26 0x125B98DBDC9C9958DD081C995C185E5B595B9D08185B5BDD5B9D PUSH1 0x32 SHL PUSH1 0x44 DUP3 ADD MSTORE PUSH1 0x64 SWAP1 REVERT JUMPDEST PUSH1 0x40 MLOAD PUSH3 0x461BCD PUSH1 0xE5 SHL DUP2 MSTORE PUSH1 0x4 DUP2 ADD DUP4 SWAP1 MSTORE PUSH1 0xE PUSH1 0x24 DUP3 ADD MSTORE PUSH14 0x105B1C9958591E481C995C185A59 PUSH1 0x92 SHL PUSH1 0x44 DUP3 ADD MSTORE PUSH1 0x64 SWAP1 REVERT JUMPDEST PUSH1 0x40 MLOAD PUSH3 0x461BCD PUSH1 0xE5 SHL DUP2 MSTORE PUSH1 0x4 DUP2 ADD DUP4 SWAP1 MSTORE PUSH1 0x18 PUSH1 0x24 DUP3 ADD MSTORE PUSH24 0x14995C5D595CDD081DD85CC81B9BDD08185C1C1C9BDD9959 PUSH1 0x42 SHL PUSH1 0x44 DUP3 ADD MSTORE PUSH1 0x64 SWAP1 REVERT JUMPDEST PUSH1 0x40 MLOAD PUSH3 0x461BCD PUSH1 0xE5 SHL DUP2 MSTORE PUSH1 0x4 DUP2 ADD DUP6 SWAP1 MSTORE PUSH1 0x11 PUSH1 0x24 DUP3 ADD MSTORE PUSH17 0x2737BA103A3432903932B8BAB2B9BA32B9 PUSH1 0x79 SHL PUSH1 0x44 DUP3 ADD MSTORE PUSH1 0x64 SWAP1 REVERT JUMPDEST POP PUSH1 0x2 SLOAD DUP3 GT ISZERO PUSH2 0x31D4 JUMP JUMPDEST CALLVALUE PUSH2 0x3E9 JUMPI PUSH2 0x342F CALLDATASIZE PUSH2 0x5191 JUMP JUMPDEST PUSH2 0x343A SWAP3 SWAP2 SWAP3 PUSH2 0x566C JUMP JUMPDEST DUP2 ISZERO ISZERO DUP1 PUSH2 0x3583 JUMPI JUMPDEST PUSH2 0x344C SWAP1 PUSH2 0x54F4 JUMP JUMPDEST PUSH2 0x3459 PUSH2 0x874 CALLER DUP5 PUSH2 0x6116 JUMP JUMPDEST DUP2 PUSH1 0x0 MSTORE PUSH1 0x20 PUSH1 0xA DUP2 MSTORE PUSH1 0x40 PUSH1 0x0 KECCAK256 DUP5 PUSH1 0x0 MSTORE DUP2 MSTORE PUSH1 0x40 PUSH1 0x0 KECCAK256 SWAP1 PUSH2 0x3485 PUSH1 0xFF PUSH1 0x7 DUP5 ADD SLOAD AND ISZERO PUSH2 0x5B03 JUMP JUMPDEST PUSH2 0x3495 PUSH1 0x4 DUP4 ADD SLOAD TIMESTAMP GT ISZERO PUSH2 0x592B JUMP JUMPDEST DUP4 PUSH1 0x0 MSTORE PUSH1 0xB DUP2 MSTORE PUSH1 0x40 PUSH1 0x0 KECCAK256 DUP6 PUSH1 0x0 MSTORE DUP2 MSTORE PUSH1 0x40 PUSH1 0x0 KECCAK256 CALLER PUSH1 0x0 MSTORE DUP2 MSTORE PUSH2 0x34C5 PUSH1 0xFF PUSH1 0x40 PUSH1 0x0 KECCAK256 SLOAD AND ISZERO PUSH2 0x596E JUMP JUMPDEST PUSH1 0x1 DUP3 ADD SLOAD PUSH1 0x1 PUSH1 0x1 PUSH1 0xA0 SHL SUB AND CALLER EQ PUSH2 0x3547 JUMPI PUSH1 0x0 DUP5 DUP2 MSTORE PUSH1 0xB DUP3 MSTORE PUSH1 0x40 DUP1 DUP3 KECCAK256 DUP8 DUP4 MSTORE DUP4 MSTORE DUP1 DUP3 KECCAK256 CALLER DUP4 MSTORE SWAP1 SWAP3 MSTORE KECCAK256 DUP1 SLOAD PUSH1 0xFF NOT AND PUSH1 0x1 OR SWAP1 SSTORE PUSH32 0x6F6E44E06B7560D636D01FA051314D5D0169C306BB1AD5914156CB73D1663737 SWAP2 PUSH2 0xA9D SWAP2 DUP2 ISZERO PUSH2 0x353A JUMPI PUSH1 0x5 ADD PUSH2 0xA8D DUP2 SLOAD PUSH2 0x56B0 JUMP JUMPDEST PUSH1 0x6 ADD PUSH2 0xAAF DUP2 SLOAD PUSH2 0x56B0 JUMP JUMPDEST PUSH1 0x64 SWAP1 PUSH1 0x40 MLOAD SWAP1 PUSH3 0x461BCD PUSH1 0xE5 SHL DUP3 MSTORE PUSH1 0x4 DUP3 ADD MSTORE PUSH1 0x15 PUSH1 0x24 DUP3 ADD MSTORE PUSH21 0x5265717565737465722063616E6E6F7420766F7465 PUSH1 0x58 SHL PUSH1 0x44 DUP3 ADD MSTORE REVERT JUMPDEST POP PUSH1 0x2 SLOAD DUP3 GT ISZERO PUSH2 0x3443 JUMP JUMPDEST CALLVALUE PUSH2 0x3E9 JUMPI PUSH1 0x0 CALLDATASIZE PUSH1 0x3 NOT ADD SLT PUSH2 0x3E9 JUMPI PUSH1 0x2 DUP1 SLOAD PUSH1 0x0 PUSH1 0x1 JUMPDEST DUP3 DUP2 GT ISZERO PUSH2 0x360C JUMPI POP PUSH2 0x35BB SWAP1 PUSH2 0x5B80 JUMP JUMPDEST SWAP1 PUSH1 0x0 SWAP3 PUSH1 0x1 JUMPDEST DUP3 DUP2 GT ISZERO PUSH2 0x35D8 JUMPI PUSH1 0x40 MLOAD DUP1 PUSH2 0x13D8 DUP7 DUP3 PUSH2 0x5156 JUMP JUMPDEST DUP1 PUSH1 0x0 MSTORE PUSH1 0x3 PUSH1 0x20 MSTORE PUSH1 0xFF DUP3 PUSH1 0x40 PUSH1 0x0 KECCAK256 ADD SLOAD PUSH1 0xA0 SHR AND SWAP1 PUSH1 0x4 DUP3 LT ISZERO PUSH2 0x7B4 JUMPI PUSH2 0x3607 SWAP2 ISZERO PUSH2 0x23A2 JUMPI PUSH2 0x56B0 JUMP JUMPDEST PUSH2 0x35C2 JUMP JUMPDEST DUP1 PUSH1 0x0 MSTORE PUSH1 0x3 PUSH1 0x20 MSTORE PUSH1 0xFF DUP5 PUSH1 0x40 PUSH1 0x0 KECCAK256 ADD SLOAD PUSH1 0xA0 SHR AND PUSH1 0x4 DUP2 LT ISZERO PUSH2 0x7B4 JUMPI ISZERO PUSH2 0x3640 JUMPI JUMPDEST PUSH2 0x363B SWAP1 PUSH2 0x56B0 JUMP JUMPDEST PUSH2 0x35A9 JUMP JUMPDEST SWAP1 PUSH2 0x364D PUSH2 0x363B SWAP2 PUSH2 0x56B0 JUMP JUMPDEST SWAP2 SWAP1 POP PUSH2 0x3632 JUMP JUMPDEST CALLVALUE PUSH2 0x3E9 JUMPI PUSH1 0x0 CALLDATASIZE PUSH1 0x3 NOT ADD SLT PUSH2 0x3E9 JUMPI PUSH1 0x20 PUSH1 0x40 MLOAD PUSH1 0x32 DUP2 MSTORE RETURN JUMPDEST CALLVALUE PUSH2 0x3E9 JUMPI PUSH1 0x0 CALLDATASIZE PUSH1 0x3 NOT ADD SLT PUSH2 0x3E9 JUMPI PUSH1 0x20 PUSH1 0xFF PUSH1 0x1 SLOAD AND PUSH1 0x40 MLOAD SWAP1 ISZERO ISZERO DUP2 MSTORE RETURN JUMPDEST PUSH2 0x50A2 JUMP JUMPDEST PUSH2 0x511C JUMP JUMPDEST CALLVALUE PUSH2 0x3E9 JUMPI PUSH1 0x20 CALLDATASIZE PUSH1 0x3 NOT ADD SLT PUSH2 0x3E9 JUMPI PUSH1 0x20 PUSH2 0xB4D PUSH1 0x4 CALLDATALOAD PUSH2 0x5BB2 JUMP JUMPDEST CALLVALUE PUSH2 0x3E9 JUMPI PUSH1 0x20 CALLDATASIZE PUSH1 0x3 NOT ADD SLT PUSH2 0x3E9 JUMPI PUSH1 0x4 CALLDATALOAD PUSH2 0x36D8 PUSH2 0x566C JUMP JUMPDEST DUP1 ISZERO ISZERO DUP1 PUSH2 0x389F JUMPI JUMPDEST PUSH2 0x36EA SWAP1 PUSH2 0x54F4 JUMP JUMPDEST PUSH2 0x36F7 PUSH2 0x874 CALLER DUP4 PUSH2 0x6116 JUMP JUMPDEST PUSH2 0x36FF PUSH2 0x5616 JUMP JUMPDEST DUP1 PUSH1 0x0 MSTORE PUSH1 0x3 PUSH1 0x20 MSTORE PUSH1 0x40 PUSH1 0x0 KECCAK256 PUSH1 0xF DUP2 ADD SWAP1 DUP2 SLOAD SWAP1 PUSH2 0x3722 PUSH1 0xFF DUP4 AND ISZERO PUSH2 0x58D6 JUMP JUMPDEST PUSH1 0x8 DUP2 ADD SWAP3 PUSH1 0x1 DUP1 PUSH1 0xA0 SHL SUB SWAP2 DUP3 DUP6 SLOAD AND SWAP4 DUP5 ISZERO PUSH2 0x3862 JUMPI PUSH1 0x16 DUP3 ADD DUP1 SLOAD SWAP6 PUSH1 0x5 DUP8 MUL DUP8 DUP2 DIV PUSH1 0x5 EQ DUP9 ISZERO OR ISZERO PUSH2 0xF7F JUMPI PUSH1 0x64 SWAP1 DIV SWAP1 PUSH2 0x3766 PUSH1 0x5 DUP7 ADD SLOAD DUP10 PUSH2 0x5A0A JUMP JUMPDEST SWAP5 PUSH3 0x278D00 TIMESTAMP ADD SWAP4 DUP5 TIMESTAMP GT PUSH2 0xF7F JUMPI PUSH1 0x0 SWAP8 PUSH1 0x1 DUP10 SWAP9 SWAP8 DUP10 SWAP9 SWAP8 PUSH1 0xE DUP11 SWAP10 SWAP7 DUP16 SWAP10 SWAP8 DUP12 SWAP9 DUP7 PUSH1 0xC0 DUP14 PUSH1 0x40 MLOAD SWAP1 PUSH2 0x379B DUP3 PUSH2 0x5267 JUMP JUMPDEST DUP2 MSTORE DUP4 PUSH1 0x20 DUP3 ADD MSTORE DUP5 PUSH1 0x40 DUP3 ADD MSTORE DUP13 PUSH1 0x60 DUP3 ADD MSTORE TIMESTAMP PUSH1 0x80 DUP3 ADD MSTORE DUP8 PUSH1 0xA0 DUP3 ADD MSTORE ADD MSTORE DUP12 PUSH1 0x9 DUP5 ADD SSTORE PUSH1 0xA DUP4 ADD SSTORE PUSH1 0xB DUP3 ADD SSTORE DUP8 PUSH1 0xC DUP3 ADD SSTORE TIMESTAMP PUSH1 0xD DUP3 ADD SSTORE ADD SSTORE PUSH1 0xFF NOT AND OR SWAP1 SSTORE SSTORE GAS CALL PUSH2 0x37ED PUSH2 0x55AA JUMP JUMPDEST POP ISZERO PUSH2 0x3826 JUMPI PUSH32 0x895130D6EC3D51C762D94617E61152B1BE8447DB99E1EFE41D743CBDE09B39D7 SWAP3 SLOAD AND PUSH2 0x929 PUSH1 0x40 MLOAD SWAP3 DUP4 SWAP3 DUP4 PUSH2 0x5A14 JUMP JUMPDEST PUSH1 0x40 MLOAD PUSH3 0x461BCD PUSH1 0xE5 SHL DUP2 MSTORE PUSH1 0x20 PUSH1 0x4 DUP3 ADD MSTORE PUSH1 0x14 PUSH1 0x24 DUP3 ADD MSTORE PUSH20 0x119D5B99081D1C985B9CD9995C8819985A5B1959 PUSH1 0x62 SHL PUSH1 0x44 DUP3 ADD MSTORE PUSH1 0x64 SWAP1 REVERT JUMPDEST PUSH1 0x40 MLOAD PUSH3 0x461BCD PUSH1 0xE5 SHL DUP2 MSTORE PUSH1 0x20 PUSH1 0x4 DUP3 ADD MSTORE PUSH1 0x15 PUSH1 0x24 DUP3 ADD MSTORE PUSH21 0x109BDC9C9BDDD95C881B9BDD081CD95B1958DD1959 PUSH1 0x5A SHL PUSH1 0x44 DUP3 ADD MSTORE PUSH1 0x64 SWAP1 REVERT JUMPDEST POP PUSH1 0x2 SLOAD DUP2 GT ISZERO PUSH2 0x36E1 JUMP JUMPDEST CALLVALUE PUSH2 0x3E9 JUMPI PUSH1 0x20 DUP1 PUSH1 0x3 NOT CALLDATASIZE ADD SLT PUSH2 0x3E9 JUMPI PUSH1 0x4 CALLDATALOAD SWAP1 PUSH2 0x38C9 PUSH2 0x566C JUMP JUMPDEST DUP2 ISZERO ISZERO DUP1 PUSH2 0x3A65 JUMPI JUMPDEST PUSH2 0x38DB SWAP1 PUSH2 0x54F4 JUMP JUMPDEST DUP2 PUSH1 0x0 MSTORE PUSH1 0x3 DUP2 MSTORE PUSH1 0x40 PUSH1 0x0 KECCAK256 SWAP1 PUSH2 0x38F9 PUSH1 0xFF PUSH1 0xF DUP5 ADD SLOAD AND PUSH2 0x5A2F JUMP JUMPDEST PUSH1 0x8 DUP3 ADD DUP1 SLOAD PUSH1 0x1 PUSH1 0x1 PUSH1 0xA0 SHL SUB SWAP4 SWAP1 DUP5 AND SWAP2 SWAP1 DUP3 ISZERO PUSH2 0x3A32 JUMPI PUSH1 0xE ADD SWAP2 DUP3 SLOAD SWAP4 PUSH3 0x278D00 SWAP5 DUP6 DUP2 ADD DUP1 SWAP2 GT PUSH2 0xF7F JUMPI TIMESTAMP GT ISZERO PUSH2 0x39EE JUMPI DUP7 PUSH1 0x0 MSTORE PUSH1 0x5 DUP2 MSTORE PUSH1 0x40 PUSH1 0x0 KECCAK256 SWAP2 PUSH1 0x0 MSTORE MSTORE PUSH1 0x40 PUSH1 0x0 KECCAK256 SWAP3 PUSH1 0x1 PUSH1 0x2 DUP6 ADD SWAP5 PUSH2 0x3959 DUP7 SLOAD PUSH2 0x56B0 JUMP JUMPDEST DUP7 SSTORE ADD SWAP3 PUSH1 0x14 DUP5 SLOAD LT ISZERO PUSH1 0x0 EQ PUSH2 0x39E5 JUMPI DUP4 SLOAD PUSH1 0x13 NOT DUP2 ADD SWAP1 DUP2 GT PUSH2 0xF7F JUMPI DUP5 SSTORE JUMPDEST DUP1 SLOAD SWAP2 DUP3 ADD DUP1 SWAP3 GT PUSH2 0xF7F JUMPI PUSH1 0x0 DUP1 MLOAD PUSH1 0x20 PUSH2 0x625F DUP4 CODECOPY DUP2 MLOAD SWAP2 MSTORE SWAP6 DUP8 SWAP4 PUSH32 0xA90557DBA179566735BE5E2A7C9E8B16E2242037372B763E05C77590BCD2992 SWAP4 PUSH2 0x39D1 SWAP4 SSTORE SLOAD AND SWAP5 SLOAD PUSH1 0x40 MLOAD SWAP2 DUP3 SWAP2 DUP8 DUP4 PUSH2 0x5A14 JUMP JUMPDEST SUB SWAP1 LOG2 SLOAD SWAP1 PUSH2 0x2A92 PUSH1 0x40 MLOAD SWAP3 DUP4 SWAP3 DUP4 PUSH2 0x5A14 JUMP JUMPDEST PUSH1 0x0 DUP5 SSTORE PUSH2 0x397B JUMP JUMPDEST PUSH1 0x64 SWAP1 PUSH1 0x40 MLOAD SWAP1 PUSH3 0x461BCD PUSH1 0xE5 SHL DUP3 MSTORE PUSH1 0x4 DUP3 ADD MSTORE PUSH1 0x1F PUSH1 0x24 DUP3 ADD MSTORE PUSH32 0x4E6F7420796574206F76657264756520627920612066756C6C206D6F6E746800 PUSH1 0x44 DUP3 ADD MSTORE REVERT JUMPDEST PUSH1 0x40 MLOAD PUSH3 0x461BCD PUSH1 0xE5 SHL DUP2 MSTORE PUSH1 0x4 DUP2 ADD DUP6 SWAP1 MSTORE PUSH1 0xB PUSH1 0x24 DUP3 ADD MSTORE PUSH11 0x2737903137B93937BBB2B9 PUSH1 0xA9 SHL PUSH1 0x44 DUP3 ADD MSTORE PUSH1 0x64 SWAP1 REVERT JUMPDEST POP PUSH1 0x2 SLOAD DUP3 GT ISZERO PUSH2 0x38D2 JUMP JUMPDEST CALLVALUE PUSH2 0x3E9 JUMPI PUSH1 0x0 CALLDATASIZE PUSH1 0x3 NOT ADD SLT PUSH2 0x3E9 JUMPI PUSH1 0x20 PUSH1 0x40 MLOAD PUSH1 0x14 DUP2 MSTORE RETURN JUMPDEST CALLVALUE PUSH2 0x3E9 JUMPI PUSH1 0x0 CALLDATASIZE PUSH1 0x3 NOT ADD SLT PUSH2 0x3E9 JUMPI PUSH1 0x20 PUSH1 0x40 MLOAD PUSH3 0x2A300 DUP2 MSTORE RETURN JUMPDEST PUSH2 0x5138 JUMP JUMPDEST CALLVALUE PUSH2 0x3E9 JUMPI PUSH1 0x40 CALLDATASIZE PUSH1 0x3 NOT ADD SLT PUSH2 0x3E9 JUMPI PUSH2 0x3AC9 PUSH2 0x50BE JUMP JUMPDEST PUSH1 0x4 CALLDATALOAD PUSH1 0x0 MSTORE PUSH1 0x7 PUSH1 0x20 MSTORE PUSH1 0x40 PUSH1 0x0 KECCAK256 SWAP1 PUSH1 0x1 DUP1 PUSH1 0xA0 SHL SUB AND PUSH1 0x0 MSTORE PUSH1 0x20 MSTORE PUSH1 0x20 PUSH1 0xFF PUSH1 0x40 PUSH1 0x0 KECCAK256 SLOAD AND PUSH1 0x40 MLOAD SWAP1 ISZERO ISZERO DUP2 MSTORE RETURN JUMPDEST CALLVALUE PUSH2 0x3E9 JUMPI PUSH1 0x40 CALLDATASIZE PUSH1 0x3 NOT ADD SLT PUSH2 0x3E9 JUMPI PUSH2 0x3B16 PUSH2 0x50BE JUMP JUMPDEST PUSH1 0x4 CALLDATALOAD PUSH1 0x0 MSTORE PUSH1 0xF PUSH1 0x20 MSTORE PUSH1 0x40 PUSH1 0x0 KECCAK256 SWAP1 PUSH1 0x1 DUP1 PUSH1 0xA0 SHL SUB AND PUSH1 0x0 MSTORE PUSH1 0x20 MSTORE PUSH1 0x20 PUSH1 0x40 PUSH1 0x0 KECCAK256 SLOAD PUSH1 0x40 MLOAD SWAP1 DUP2 MSTORE RETURN JUMPDEST CALLVALUE PUSH2 0x3E9 JUMPI PUSH1 0x0 CALLDATASIZE PUSH1 0x3 NOT ADD SLT PUSH2 0x3E9 JUMPI PUSH1 0x1 SLOAD PUSH2 0x3B71 CALLER PUSH1 0x8 DUP4 SWAP1 SHR PUSH1 0x1 PUSH1 0x1 PUSH1 0xA0 SHL SUB AND EQ PUSH2 0x54BC JUMP JUMPDEST PUSH1 0xFF DUP2 AND ISZERO PUSH2 0x3BAD JUMPI PUSH1 0xFF NOT AND PUSH1 0x1 SSTORE PUSH32 0x5DB9EE0A495BF2E6FF9C91A7834C1BA4FDD244A5E8AA4E537BD38AEAE4B073AA PUSH1 0x20 PUSH1 0x40 MLOAD CALLER DUP2 MSTORE LOG1 STOP JUMPDEST PUSH1 0x40 MLOAD PUSH3 0x461BCD PUSH1 0xE5 SHL DUP2 MSTORE PUSH1 0x20 PUSH1 0x4 DUP3 ADD MSTORE PUSH1 0x14 PUSH1 0x24 DUP3 ADD MSTORE PUSH20 0x14185D5CD8589B194E881B9BDD081C185D5CD959 PUSH1 0x62 SHL PUSH1 0x44 DUP3 ADD MSTORE PUSH1 0x64 SWAP1 REVERT JUMPDEST CALLVALUE PUSH2 0x3E9 JUMPI PUSH1 0x20 CALLDATASIZE PUSH1 0x3 NOT ADD SLT PUSH2 0x3E9 JUMPI PUSH1 0x4 CALLDATALOAD PUSH1 0x0 MSTORE PUSH1 0x3 PUSH1 0x20 MSTORE PUSH1 0x40 PUSH1 0x0 KECCAK256 PUSH1 0x40 MLOAD PUSH2 0x3C16 DUP2 PUSH2 0x524B JUMP JUMPDEST DUP2 SLOAD DUP2 MSTORE PUSH2 0x3C26 PUSH1 0x1 DUP4 ADD PUSH2 0x52A5 JUMP JUMPDEST PUSH1 0x20 DUP3 ADD MSTORE PUSH1 0x2 DUP3 ADD SLOAD PUSH1 0x1 PUSH1 0x1 PUSH1 0xA0 SHL SUB DUP1 DUP3 AND PUSH1 0x40 DUP5 ADD MSTORE PUSH1 0xA0 SWAP2 SWAP1 SWAP2 SHR PUSH1 0xFF AND SWAP3 PUSH1 0x4 DUP5 LT ISZERO PUSH2 0x7B4 JUMPI PUSH1 0xC0 PUSH2 0x220 SWAP3 PUSH1 0x80 SWAP6 PUSH1 0x60 DUP7 ADD MSTORE PUSH1 0x3 DUP4 ADD SLOAD DUP7 DUP7 ADD MSTORE PUSH1 0x4 DUP4 ADD SLOAD PUSH1 0xA0 DUP7 ADD MSTORE PUSH1 0x5 DUP4 ADD SLOAD DUP3 DUP7 ADD MSTORE PUSH1 0x6 DUP4 ADD SLOAD PUSH1 0xE0 DUP7 ADD MSTORE PUSH2 0x3C93 PUSH1 0x7 DUP5 ADD PUSH2 0x5835 JUMP JUMPDEST SWAP1 PUSH2 0x100 DUP7 ADD SWAP2 DUP3 MSTORE PUSH1 0x8 DUP5 ADD SLOAD AND PUSH2 0x120 DUP7 ADD MSTORE PUSH2 0x3CB4 PUSH1 0x9 DUP5 ADD PUSH2 0x538B JUMP JUMPDEST SWAP5 PUSH2 0x140 DUP2 ADD SWAP6 DUP7 MSTORE PUSH2 0x3CC9 PUSH1 0x10 DUP6 ADD PUSH2 0x53E0 JUMP JUMPDEST PUSH2 0x160 DUP3 ADD MSTORE PUSH1 0x14 DUP5 ADD SLOAD PUSH2 0x180 DUP3 ADD MSTORE PUSH1 0x15 DUP5 ADD SLOAD PUSH2 0x1A0 DUP3 ADD MSTORE PUSH1 0x19 PUSH1 0x16 DUP6 ADD SLOAD SWAP5 DUP6 PUSH2 0x1C0 DUP5 ADD MSTORE PUSH1 0x17 DUP2 ADD SLOAD PUSH2 0x1E0 DUP5 ADD MSTORE PUSH1 0xFF PUSH1 0x18 DUP3 ADD SLOAD AND ISZERO ISZERO PUSH2 0x200 DUP5 ADD MSTORE ADD SLOAD SWAP5 DUP6 SWAP2 ADD MSTORE MLOAD MLOAD SWAP4 MLOAD ADD MLOAD ISZERO ISZERO PUSH1 0x40 MLOAD SWAP4 DUP5 MSTORE PUSH1 0x20 DUP5 ADD MSTORE PUSH1 0x40 DUP4 ADD MSTORE PUSH1 0x60 DUP3 ADD MSTORE RETURN JUMPDEST CALLVALUE PUSH2 0x3E9 JUMPI PUSH1 0x20 DUP1 PUSH1 0x3 NOT CALLDATASIZE ADD SLT PUSH2 0x3E9 JUMPI PUSH1 0x4 CALLDATALOAD SWAP1 PUSH2 0x3D53 PUSH2 0x566C JUMP JUMPDEST DUP2 ISZERO ISZERO DUP1 PUSH2 0x4012 JUMPI JUMPDEST PUSH2 0x3D65 SWAP1 PUSH2 0x54F4 JUMP JUMPDEST PUSH2 0x3D72 PUSH2 0x874 CALLER DUP5 PUSH2 0x6116 JUMP JUMPDEST DUP2 PUSH1 0x0 MSTORE PUSH1 0x3 DUP1 DUP3 MSTORE PUSH1 0x40 PUSH1 0x0 KECCAK256 SWAP2 PUSH1 0x7 DUP1 DUP5 ADD SWAP3 DUP4 SLOAD PUSH1 0x4 DUP7 ADD SLOAD SUB PUSH2 0x3FD8 JUMPI PUSH1 0x8 DUP6 DUP2 ADD SLOAD PUSH1 0x1 PUSH1 0x1 PUSH1 0xA0 SHL SUB SWAP4 SWAP1 DUP5 AND PUSH2 0x3F99 JUMPI PUSH1 0x10 DUP8 ADD SWAP7 PUSH1 0xFF DUP9 SLOAD AND DUP5 DUP2 LT ISZERO PUSH2 0x7B4 JUMPI PUSH2 0x3F5D JUMPI PUSH2 0x3DD0 PUSH1 0xFF PUSH1 0xF DUP4 ADD SLOAD AND ISZERO PUSH2 0x58D6 JUMP JUMPDEST PUSH1 0x2 DUP2 ADD PUSH1 0xFF DUP2 SLOAD PUSH1 0xA0 SHR AND PUSH1 0x4 DUP2 LT ISZERO PUSH2 0x7B4 JUMPI PUSH1 0x2 DUP2 EQ SWAP1 DUP2 ISZERO PUSH2 0x3F52 JUMPI JUMPDEST POP ISZERO PUSH2 0x3F1E JUMPI PUSH1 0x0 JUMPDEST DUP9 SLOAD DUP2 LT ISZERO PUSH2 0x3E6B JUMPI PUSH2 0x3E66 SWAP1 DUP12 PUSH1 0x0 MSTORE DUP5 DUP10 MSTORE PUSH1 0x40 PUSH1 0x0 KECCAK256 DUP9 PUSH2 0x3E1E DUP4 DUP14 PUSH2 0x51DE JUMP JUMPDEST SWAP1 SLOAD SWAP1 DUP11 SHL SHR AND PUSH1 0x0 MSTORE DUP10 MSTORE PUSH1 0x40 PUSH1 0x0 KECCAK256 PUSH1 0xFF NOT DUP2 SLOAD AND SWAP1 SSTORE DUP12 PUSH1 0x0 MSTORE DUP6 DUP10 MSTORE PUSH1 0x40 PUSH1 0x0 KECCAK256 DUP9 PUSH2 0x3E4E DUP4 DUP14 PUSH2 0x51DE JUMP JUMPDEST SWAP1 SLOAD SWAP1 DUP11 SHL SHR AND PUSH1 0x0 MSTORE DUP10 MSTORE PUSH1 0x0 PUSH1 0x40 DUP2 KECCAK256 SSTORE PUSH2 0x56B0 JUMP JUMPDEST PUSH2 0x3DFA JUMP JUMPDEST DUP11 DUP4 DUP10 DUP5 DUP14 DUP5 PUSH1 0x0 MSTORE PUSH1 0x9 DUP4 MSTORE PUSH1 0x40 PUSH1 0x0 KECCAK256 DUP1 SLOAD PUSH1 0x0 DUP3 SSTORE DUP1 PUSH2 0x3F03 JUMPI JUMPDEST POP POP PUSH1 0x1 PUSH1 0xFF NOT DUP3 SLOAD AND OR SWAP1 SSTORE PUSH3 0x2A300 TIMESTAMP ADD SWAP1 DUP2 TIMESTAMP GT PUSH2 0xF7F JUMPI PUSH1 0x11 DUP5 ADD DUP3 SWAP1 SSTORE PUSH1 0x0 PUSH1 0x12 DUP6 ADD SSTORE PUSH1 0x13 SWAP4 SWAP1 SWAP4 ADD DUP1 SLOAD PUSH1 0x1 PUSH1 0x1 PUSH1 0xA0 SHL SUB NOT AND SWAP1 SSTORE DUP3 SLOAD PUSH1 0xFF PUSH1 0xA0 SHL NOT AND PUSH1 0x1 PUSH1 0xA1 SHL OR SWAP1 SWAP3 SSTORE PUSH1 0x40 MLOAD SWAP2 DUP3 MSTORE PUSH32 0xF8C022056754DBACCA05AFF710DC315A2FA7699AE9309FDA403CD1E55C11D40F SWAP2 LOG2 STOP JUMPDEST PUSH2 0x3F17 SWAP2 PUSH1 0x0 MSTORE DUP5 PUSH1 0x0 KECCAK256 SWAP1 DUP2 ADD SWAP1 PUSH2 0x5728 JUMP JUMPDEST DUP6 DUP1 PUSH2 0x3E89 JUMP JUMPDEST PUSH1 0x40 MLOAD PUSH3 0x461BCD PUSH1 0xE5 SHL DUP2 MSTORE PUSH1 0x4 DUP2 ADD DUP9 SWAP1 MSTORE PUSH1 0xC PUSH1 0x24 DUP3 ADD MSTORE PUSH12 0x57726F6E6720737461747573 PUSH1 0xA0 SHL PUSH1 0x44 DUP3 ADD MSTORE PUSH1 0x64 SWAP1 REVERT JUMPDEST PUSH1 0x1 SWAP2 POP EQ DUP12 PUSH2 0x3DF1 JUMP JUMPDEST PUSH1 0x40 MLOAD PUSH3 0x461BCD PUSH1 0xE5 SHL DUP2 MSTORE PUSH1 0x4 DUP2 ADD DUP8 SWAP1 MSTORE PUSH1 0x14 PUSH1 0x24 DUP3 ADD MSTORE PUSH20 0x159BDD1948185B1C9958591E481CDD185C9D1959 PUSH1 0x62 SHL PUSH1 0x44 DUP3 ADD MSTORE PUSH1 0x64 SWAP1 REVERT JUMPDEST PUSH1 0x40 MLOAD PUSH3 0x461BCD PUSH1 0xE5 SHL DUP2 MSTORE PUSH1 0x4 DUP2 ADD DUP7 SWAP1 MSTORE PUSH1 0x17 PUSH1 0x24 DUP3 ADD MSTORE PUSH23 0x2137B93937BBB2B91030B63932B0B23C9031B437B9B2B7 PUSH1 0x49 SHL PUSH1 0x44 DUP3 ADD MSTORE PUSH1 0x64 SWAP1 REVERT JUMPDEST PUSH1 0x40 MLOAD PUSH3 0x461BCD PUSH1 0xE5 SHL DUP2 MSTORE PUSH1 0x4 DUP2 ADD DUP5 SWAP1 MSTORE PUSH1 0x12 PUSH1 0x24 DUP3 ADD MSTORE PUSH18 0x11DC9BDD5C081B9BDD08199D5B1B081E595D PUSH1 0x72 SHL PUSH1 0x44 DUP3 ADD MSTORE PUSH1 0x64 SWAP1 REVERT JUMPDEST POP PUSH1 0x2 SLOAD DUP3 GT ISZERO PUSH2 0x3D5C JUMP JUMPDEST CALLVALUE PUSH2 0x3E9 JUMPI PUSH1 0x20 CALLDATASIZE PUSH1 0x3 NOT ADD SLT PUSH2 0x3E9 JUMPI PUSH1 0x4 CALLDATALOAD PUSH1 0x0 MSTORE PUSH1 0x3 PUSH1 0x20 MSTORE PUSH1 0x20 PUSH2 0xB4D PUSH2 0x404F PUSH1 0x9 PUSH1 0x40 PUSH1 0x0 KECCAK256 ADD PUSH2 0x538B JUMP JUMPDEST DUP3 PUSH1 0x40 DUP3 ADD MLOAD SWAP2 ADD MLOAD SWAP1 PUSH2 0x5571 JUMP JUMPDEST CALLVALUE PUSH2 0x3E9 JUMPI PUSH1 0x20 DUP1 PUSH1 0x3 NOT CALLDATASIZE ADD SLT PUSH2 0x3E9 JUMPI PUSH1 0x4 CALLDATALOAD SWAP1 PUSH2 0x407C PUSH2 0x566C JUMP JUMPDEST DUP2 ISZERO ISZERO DUP1 PUSH2 0x4210 JUMPI JUMPDEST PUSH2 0x408E SWAP1 PUSH2 0x54F4 JUMP JUMPDEST DUP2 PUSH1 0x0 MSTORE PUSH1 0x3 DUP2 MSTORE PUSH1 0xFF PUSH1 0x2 PUSH1 0x40 PUSH1 0x0 KECCAK256 ADD SLOAD PUSH1 0xA0 SHR AND PUSH1 0x4 DUP2 LT ISZERO PUSH2 0x7B4 JUMPI PUSH1 0x1 PUSH2 0x40BA SWAP2 EQ PUSH2 0x57E7 JUMP JUMPDEST PUSH2 0x40C2 PUSH2 0x5616 JUMP JUMPDEST DUP2 PUSH1 0x0 MSTORE PUSH1 0x3 DUP2 MSTORE PUSH1 0x40 PUSH1 0x0 KECCAK256 PUSH2 0x40D9 CALLER DUP5 PUSH2 0x6116 JUMP JUMPDEST ISZERO PUSH2 0x41DC JUMPI PUSH1 0x2 DUP2 ADD SLOAD PUSH1 0x1 PUSH1 0x1 PUSH1 0xA0 SHL SUB AND CALLER EQ PUSH2 0x4187 JUMPI SWAP1 PUSH2 0x62B PUSH1 0x0 DUP1 DUP1 DUP1 PUSH32 0xA8DCD974806422D974A6135DD981896F1694065789986F7BA7947FBB4759E899 SWAP7 PUSH2 0x4127 CALLER DUP11 PUSH2 0x6176 JUMP JUMPDEST PUSH1 0x3 DUP2 ADD SWAP1 PUSH2 0x413D PUSH1 0x16 DUP4 SLOAD SWAP3 ADD SWAP2 DUP3 SLOAD PUSH2 0x5828 JUMP JUMPDEST SWAP1 SSTORE CALLER DUP3 MSTORE PUSH1 0x11 DUP8 MSTORE PUSH1 0x40 DUP3 KECCAK256 PUSH1 0xFF NOT SWAP1 DUP2 DUP2 SLOAD AND SWAP1 SSTORE PUSH1 0x10 DUP9 MSTORE DUP3 PUSH1 0x40 DUP2 KECCAK256 SSTORE DUP10 DUP4 MSTORE PUSH1 0x5 DUP9 MSTORE PUSH1 0x40 DUP4 KECCAK256 CALLER DUP5 MSTORE DUP9 MSTORE PUSH1 0x5 PUSH1 0x40 DUP5 KECCAK256 ADD SWAP1 DUP2 SLOAD AND SWAP1 SSTORE SLOAD CALLER GAS CALL PUSH2 0x112B PUSH2 0x55AA JUMP JUMPDEST PUSH1 0x40 MLOAD PUSH3 0x461BCD PUSH1 0xE5 SHL DUP2 MSTORE PUSH1 0x4 DUP2 ADD DUP4 SWAP1 MSTORE PUSH1 0x27 PUSH1 0x24 DUP3 ADD MSTORE PUSH32 0x43726561746F722063616E6E6F74206C65617665202D2072656A656374207669 PUSH1 0x44 DUP3 ADD MSTORE PUSH7 0x309030B236B4B7 PUSH1 0xC9 SHL PUSH1 0x64 DUP3 ADD MSTORE PUSH1 0x84 SWAP1 REVERT JUMPDEST PUSH1 0x40 MLOAD PUSH3 0x461BCD PUSH1 0xE5 SHL DUP2 MSTORE PUSH1 0x4 DUP2 ADD DUP4 SWAP1 MSTORE PUSH1 0xC PUSH1 0x24 DUP3 ADD MSTORE PUSH12 0x2737BA10309036B2B6B132B9 PUSH1 0xA1 SHL PUSH1 0x44 DUP3 ADD MSTORE PUSH1 0x64 SWAP1 REVERT JUMPDEST POP PUSH1 0x2 SLOAD DUP3 GT ISZERO PUSH2 0x4085 JUMP JUMPDEST CALLVALUE PUSH2 0x3E9 JUMPI PUSH1 0x20 CALLDATASIZE PUSH1 0x3 NOT ADD SLT PUSH2 0x3E9 JUMPI PUSH2 0x4235 PUSH2 0x566C JUMP JUMPDEST PUSH1 0x4 CALLDATALOAD ISZERO ISZERO DUP1 PUSH2 0x4662 JUMPI JUMPDEST PUSH2 0x4249 SWAP1 PUSH2 0x54F4 JUMP JUMPDEST PUSH2 0x4258 PUSH2 0x874 CALLER PUSH1 0x4 CALLDATALOAD PUSH2 0x6116 JUMP JUMPDEST PUSH1 0x4 CALLDATALOAD PUSH1 0x0 MSTORE PUSH1 0x3 PUSH1 0x20 MSTORE PUSH1 0x40 PUSH1 0x0 KECCAK256 PUSH1 0x10 DUP2 ADD SLOAD PUSH1 0xFF DUP2 AND PUSH1 0x3 DUP2 LT ISZERO PUSH2 0x7B4 JUMPI PUSH1 0x1 SUB PUSH2 0x462E JUMPI PUSH1 0x11 DUP3 ADD SLOAD TIMESTAMP GT DUP1 ISZERO PUSH2 0x461D JUMPI JUMPDEST ISZERO PUSH2 0x45DF JUMPI PUSH1 0x0 PUSH1 0x12 DUP4 ADD SLOAD DUP1 ISZERO PUSH1 0x0 EQ PUSH2 0x4350 JUMPI POP PUSH1 0x7 DUP4 ADD SWAP1 DUP2 SLOAD ISZERO PUSH2 0x433A JUMPI PUSH1 0x0 DUP1 MLOAD PUSH1 0x20 PUSH2 0x629F DUP4 CODECOPY DUP2 MLOAD SWAP2 MSTORE SWAP3 PUSH2 0x2A92 SWAP3 PUSH1 0x0 MSTORE PUSH1 0x13 PUSH1 0x1 DUP1 PUSH1 0xA0 SHL SUB PUSH1 0x20 PUSH1 0x0 KECCAK256 SLOAD AND SWAP6 JUMPDEST PUSH1 0x8 DUP2 ADD DUP1 SLOAD PUSH1 0x1 PUSH1 0x1 PUSH1 0xA0 SHL SUB NOT AND PUSH1 0x1 PUSH1 0x1 PUSH1 0xA0 SHL SUB DUP10 AND SWAP1 DUP2 OR SWAP1 SWAP2 SSTORE PUSH1 0xFF NOT SWAP1 SWAP4 AND PUSH1 0x2 OR PUSH1 0x10 DUP3 ADD SSTORE ADD DUP1 SLOAD PUSH1 0x1 PUSH1 0x1 PUSH1 0xA8 SHL SUB NOT AND SWAP1 SWAP2 OR DUP3 ISZERO ISZERO PUSH1 0xA0 SHL PUSH1 0xFF PUSH1 0xA0 SHL AND OR SWAP1 SSTORE PUSH1 0x40 MLOAD PUSH1 0x4 CALLDATALOAD SWAP5 SWAP1 SWAP3 DUP4 SWAP3 SWAP1 SWAP2 DUP4 PUSH2 0x59EF JUMP JUMPDEST PUSH4 0x4E487B71 PUSH1 0xE0 SHL PUSH1 0x0 MSTORE PUSH1 0x32 PUSH1 0x4 MSTORE PUSH1 0x24 PUSH1 0x0 REVERT JUMPDEST PUSH1 0x0 SWAP1 PUSH1 0x0 JUMPDEST PUSH1 0x4 CALLDATALOAD PUSH1 0x0 MSTORE PUSH1 0x9 DUP1 PUSH1 0x20 MSTORE PUSH1 0x40 PUSH1 0x0 KECCAK256 SLOAD DUP3 LT ISZERO PUSH2 0x4409 JUMPI PUSH1 0x8 DUP1 PUSH1 0x20 MSTORE PUSH1 0x40 PUSH1 0x0 KECCAK256 SWAP1 DUP3 PUSH1 0x20 MSTORE PUSH2 0x438D DUP5 PUSH1 0x40 PUSH1 0x0 KECCAK256 PUSH2 0x51DE JUMP JUMPDEST SWAP3 SWAP1 PUSH1 0x1 DUP1 PUSH1 0xA0 SHL SUB SWAP4 DUP5 SWAP2 SLOAD SWAP1 PUSH1 0x3 SHL SHR AND PUSH1 0x0 MSTORE PUSH1 0x20 MSTORE DUP6 PUSH1 0x40 PUSH1 0x0 KECCAK256 SLOAD GT PUSH2 0x43C4 JUMPI JUMPDEST POP POP POP PUSH2 0x43BF SWAP1 PUSH2 0x56B0 JUMP JUMPDEST PUSH2 0x4356 JUMP JUMPDEST SWAP1 SWAP2 SWAP3 SWAP5 POP PUSH1 0x4 CALLDATALOAD PUSH1 0x0 MSTORE PUSH1 0x20 MSTORE PUSH1 0x40 PUSH1 0x0 KECCAK256 SWAP2 PUSH1 0x20 MSTORE PUSH2 0x43E9 DUP5 PUSH1 0x40 PUSH1 0x0 KECCAK256 PUSH2 0x51DE JUMP JUMPDEST SWAP1 SLOAD SWAP1 PUSH1 0x3 SHL SHR AND PUSH1 0x0 MSTORE PUSH1 0x20 MSTORE PUSH2 0x43BF PUSH1 0x40 PUSH1 0x0 KECCAK256 SLOAD SWAP3 SWAP1 DUP8 DUP1 PUSH2 0x43B3 JUMP JUMPDEST POP POP SWAP3 SWAP2 PUSH1 0x4 CALLDATALOAD PUSH1 0x0 MSTORE PUSH1 0x9 PUSH1 0x20 MSTORE PUSH1 0x40 PUSH1 0x0 KECCAK256 SLOAD SWAP3 PUSH2 0x4428 DUP5 PUSH2 0x59C4 JUMP JUMPDEST SWAP4 PUSH2 0x4436 PUSH1 0x40 MLOAD SWAP6 DUP7 PUSH2 0x5282 JUMP JUMPDEST DUP1 DUP6 MSTORE PUSH2 0x4445 PUSH1 0x1F NOT SWAP2 PUSH2 0x59C4 JUMP JUMPDEST ADD CALLDATASIZE PUSH1 0x20 DUP7 ADD CALLDATACOPY PUSH1 0x0 SWAP2 PUSH1 0x0 JUMPDEST PUSH1 0x4 CALLDATALOAD PUSH1 0x0 MSTORE PUSH1 0x9 PUSH1 0x20 MSTORE PUSH1 0x40 PUSH1 0x0 KECCAK256 SLOAD DUP2 LT ISZERO PUSH2 0x44F7 JUMPI PUSH2 0x44B7 SWAP1 PUSH1 0x8 PUSH1 0x20 MSTORE PUSH1 0x40 PUSH1 0x0 KECCAK256 PUSH1 0x9 PUSH1 0x20 MSTORE PUSH2 0x448B DUP3 PUSH1 0x40 PUSH1 0x0 KECCAK256 PUSH2 0x51DE JUMP JUMPDEST SWAP2 SWAP1 PUSH1 0x1 DUP1 PUSH1 0xA0 SHL SUB SWAP3 DUP4 SWAP2 SLOAD SWAP1 PUSH1 0x3 SHL SHR AND PUSH1 0x0 MSTORE PUSH1 0x20 MSTORE DUP7 PUSH1 0x40 PUSH1 0x0 KECCAK256 SLOAD EQ PUSH2 0x44BC JUMPI JUMPDEST POP PUSH2 0x56B0 JUMP JUMPDEST PUSH2 0x4452 JUMP JUMPDEST PUSH1 0x4 CALLDATALOAD PUSH1 0x0 MSTORE PUSH1 0x9 PUSH1 0x20 MSTORE PUSH2 0x44D5 DUP3 PUSH1 0x40 PUSH1 0x0 KECCAK256 PUSH2 0x51DE JUMP JUMPDEST SWAP1 SLOAD SWAP1 PUSH1 0x3 SHL SHR AND PUSH2 0x44F0 PUSH2 0x44E9 DUP8 PUSH2 0x56B0 JUMP JUMPDEST SWAP7 DUP10 PUSH2 0x59DB JUMP JUMPDEST MSTORE DUP10 PUSH2 0x44B1 JUMP JUMPDEST POP SWAP3 POP SWAP4 PUSH1 0x1 DUP3 EQ PUSH1 0x0 EQ PUSH2 0x453C JUMPI POP POP DUP2 MLOAD ISZERO PUSH2 0x433A JUMPI PUSH1 0x20 SWAP1 SWAP2 ADD MLOAD PUSH1 0x1 PUSH1 0x1 PUSH1 0xA0 SHL SUB AND SWAP3 PUSH1 0x0 DUP1 MLOAD PUSH1 0x20 PUSH2 0x629F DUP4 CODECOPY DUP2 MLOAD SWAP2 MSTORE SWAP3 PUSH2 0x2A92 SWAP3 SWAP2 PUSH1 0x13 SWAP1 PUSH2 0x42DA JUMP JUMPDEST SWAP2 POP SWAP2 SWAP3 PUSH1 0x1 SWAP2 PUSH1 0x0 NOT NUMBER ADD SWAP1 NUMBER DUP3 GT PUSH2 0xF7F JUMPI PUSH1 0x40 MLOAD SWAP1 PUSH1 0x20 DUP3 ADD SWAP3 BLOCKHASH DUP4 MSTORE TIMESTAMP PUSH1 0x40 DUP4 ADD MSTORE PUSH1 0x60 DUP3 ADD MSTORE PUSH1 0x4 CALLDATALOAD PUSH1 0x80 DUP3 ADD MSTORE PUSH1 0x80 DUP2 MSTORE PUSH1 0xA0 DUP2 ADD DUP2 DUP2 LT PUSH1 0x1 DUP1 PUSH1 0x40 SHL SUB DUP3 GT OR PUSH2 0xF69 JUMPI PUSH1 0x40 MSTORE MLOAD SWAP1 KECCAK256 SWAP4 DUP4 ISZERO PUSH2 0x45C9 JUMPI PUSH1 0x0 DUP1 MLOAD PUSH1 0x20 PUSH2 0x629F DUP4 CODECOPY DUP2 MLOAD SWAP2 MSTORE SWAP5 PUSH2 0x2A92 SWAP5 PUSH1 0x13 SWAP3 PUSH1 0x1 PUSH1 0x1 PUSH1 0xA0 SHL SUB SWAP3 PUSH2 0x45C1 SWAP3 SWAP1 MOD SWAP1 PUSH2 0x59DB JUMP JUMPDEST MLOAD AND SWAP6 PUSH2 0x42DA JUMP JUMPDEST PUSH4 0x4E487B71 PUSH1 0xE0 SHL PUSH1 0x0 MSTORE PUSH1 0x12 PUSH1 0x4 MSTORE PUSH1 0x24 PUSH1 0x0 REVERT JUMPDEST PUSH1 0x40 MLOAD PUSH3 0x461BCD PUSH1 0xE5 SHL DUP2 MSTORE PUSH1 0x20 PUSH1 0x4 DUP3 ADD MSTORE PUSH1 0x16 PUSH1 0x24 DUP3 ADD MSTORE PUSH22 0x566F7465207374696C6C20696E2070726F6772657373 PUSH1 0x50 SHL PUSH1 0x44 DUP3 ADD MSTORE PUSH1 0x64 SWAP1 REVERT JUMPDEST POP PUSH1 0x12 DUP3 ADD SLOAD PUSH1 0x7 DUP4 ADD SLOAD EQ PUSH2 0x428F JUMP JUMPDEST PUSH1 0x40 MLOAD PUSH3 0x461BCD PUSH1 0xE5 SHL DUP2 MSTORE PUSH1 0x20 PUSH1 0x4 DUP3 ADD MSTORE PUSH1 0xC PUSH1 0x24 DUP3 ADD MSTORE PUSH12 0x4E6F206F70656E20766F7465 PUSH1 0xA0 SHL PUSH1 0x44 DUP3 ADD MSTORE PUSH1 0x64 SWAP1 REVERT JUMPDEST POP PUSH1 0x2 SLOAD PUSH1 0x4 CALLDATALOAD GT ISZERO PUSH2 0x4240 JUMP JUMPDEST CALLVALUE PUSH2 0x3E9 JUMPI PUSH2 0x467E CALLDATASIZE PUSH2 0x50EA JUMP JUMPDEST PUSH2 0x4686 PUSH2 0x566C JUMP JUMPDEST DUP2 ISZERO ISZERO DUP1 PUSH2 0x48AF JUMPI JUMPDEST PUSH2 0x4698 SWAP1 PUSH2 0x54F4 JUMP JUMPDEST PUSH2 0x46A5 PUSH2 0x874 CALLER DUP5 PUSH2 0x6116 JUMP JUMPDEST PUSH2 0x46AD PUSH2 0x5616 JUMP JUMPDEST DUP2 PUSH1 0x0 MSTORE PUSH1 0x20 SWAP2 PUSH1 0x3 DUP4 MSTORE PUSH1 0x40 PUSH1 0x0 KECCAK256 PUSH1 0xA DUP5 MSTORE PUSH1 0x40 PUSH1 0x0 KECCAK256 DUP4 PUSH1 0x0 MSTORE DUP5 MSTORE PUSH1 0x40 PUSH1 0x0 KECCAK256 PUSH1 0x7 DUP2 ADD SWAP5 DUP6 SLOAD SWAP6 PUSH2 0x46E6 PUSH1 0xFF DUP9 AND ISZERO PUSH2 0x5B03 JUMP JUMPDEST PUSH2 0x46F5 PUSH1 0x4 DUP5 ADD SLOAD TIMESTAMP GT PUSH2 0x5B42 JUMP JUMPDEST PUSH1 0x7 DUP5 ADD SLOAD SWAP7 PUSH1 0x1 SWAP8 DUP9 SHR DUP9 DUP2 ADD DUP1 SWAP2 GT PUSH2 0xF7F JUMPI PUSH32 0xB910E2AC7B2959D46DE10C641870EB1CA8BEF723E4F53E0E026DD2EF9C6D04AB PUSH1 0x60 DUP9 SWAP3 PUSH2 0x474E DUP12 SWAP6 DUP14 SWAP8 PUSH1 0x5 DUP12 ADD SWAP4 DUP5 SLOAD LT ISZERO SWAP9 DUP10 SWAP3 PUSH1 0xFF NOT AND OR DUP2 SSTORE PUSH2 0x5AEB JUMP JUMPDEST SLOAD PUSH1 0x6 DUP9 ADD SLOAD PUSH1 0x40 MLOAD SWAP2 DUP8 DUP4 MSTORE DUP9 DUP4 ADD MSTORE PUSH1 0x40 DUP3 ADD MSTORE LOG3 ISZERO PUSH2 0x488A JUMPI SELFBALANCE SWAP2 PUSH1 0x2 DUP2 ADD SWAP4 DUP5 SLOAD DUP1 SWAP5 LT PUSH2 0x4845 JUMPI PUSH1 0x5 ADD SLOAD SWAP1 PUSH3 0x278D00 SWAP2 DUP3 DUP2 MUL SWAP3 DUP2 DUP5 DIV EQ SWAP1 ISZERO OR ISZERO PUSH2 0xF7F JUMPI PUSH2 0x479F DUP9 SWAP3 TIMESTAMP PUSH2 0x5571 JUMP JUMPDEST PUSH1 0x8 DUP3 ADD SSTORE ADD SWAP1 PUSH1 0x0 DUP1 DUP1 DUP1 PUSH1 0x1 DUP1 PUSH1 0xA0 SHL SUB SWAP7 DUP8 DUP8 SLOAD AND GAS CALL PUSH2 0x47C1 PUSH2 0x55AA JUMP JUMPDEST POP ISZERO PUSH2 0x4805 JUMPI POP SWAP1 PUSH32 0xACA58D80F1AD9E62DAC1912D6C507CD35FE5410DF8D1D09D6BA4487241D1DB6E SWAP3 SWAP2 SLOAD AND SWAP1 SLOAD SWAP1 PUSH2 0x12DE PUSH1 0x40 MLOAD SWAP3 DUP4 SWAP3 DUP4 PUSH2 0x5A14 JUMP JUMPDEST PUSH1 0x0 SSTORE STOP JUMPDEST PUSH1 0x64 SWAP1 PUSH1 0x40 MLOAD SWAP1 PUSH3 0x461BCD PUSH1 0xE5 SHL DUP3 MSTORE PUSH1 0x4 DUP3 ADD MSTORE PUSH1 0x19 PUSH1 0x24 DUP3 ADD MSTORE PUSH25 0x115B595C99D95B98DE481D1C985B9CD9995C8819985A5B1959 PUSH1 0x3A SHL PUSH1 0x44 DUP3 ADD MSTORE REVERT JUMPDEST PUSH1 0x40 MLOAD PUSH3 0x461BCD PUSH1 0xE5 SHL DUP2 MSTORE PUSH1 0x4 DUP2 ADD DUP5 SWAP1 MSTORE PUSH1 0x1D PUSH1 0x24 DUP3 ADD MSTORE PUSH32 0x496E73756666696369656E7420636F6E74726163742062616C616E6365000000 PUSH1 0x44 DUP3 ADD MSTORE PUSH1 0x64 SWAP1 REVERT JUMPDEST SWAP1 DUP6 ADD SLOAD PUSH1 0x1 PUSH1 0x1 PUSH1 0xA0 SHL SUB AND PUSH1 0x0 SWAP1 DUP2 MSTORE PUSH1 0xC SWAP1 SWAP2 MSTORE PUSH1 0x40 DUP2 KECCAK256 SSTORE POP PUSH2 0x4800 SWAP2 POP POP JUMP JUMPDEST POP PUSH1 0x2 SLOAD DUP3 GT ISZERO PUSH2 0x468F JUMP JUMPDEST CALLVALUE PUSH2 0x3E9 JUMPI PUSH1 0x20 CALLDATASIZE PUSH1 0x3 NOT ADD SLT PUSH2 0x3E9 JUMPI PUSH1 0x1 PUSH1 0x1 PUSH1 0xA0 SHL SUB PUSH2 0x48DC PUSH2 0x50D4 JUMP JUMPDEST AND PUSH1 0x0 MSTORE PUSH1 0x11 PUSH1 0x20 MSTORE PUSH1 0x20 PUSH1 0xFF PUSH1 0x40 PUSH1 0x0 KECCAK256 SLOAD AND PUSH1 0x40 MLOAD SWAP1 ISZERO ISZERO DUP2 MSTORE RETURN JUMPDEST CALLVALUE PUSH2 0x3E9 JUMPI PUSH1 0x20 CALLDATASIZE PUSH1 0x3 NOT ADD SLT PUSH2 0x3E9 JUMPI PUSH1 0x4 CALLDATALOAD PUSH2 0x4926 PUSH1 0x1 DUP1 PUSH1 0xA0 SHL SUB PUSH1 0x1 SLOAD PUSH1 0x8 SHR AND CALLER EQ PUSH2 0x54BC JUMP JUMPDEST DUP1 ISZERO ISZERO DUP1 PUSH2 0x49CC JUMPI JUMPDEST PUSH2 0x4938 SWAP1 PUSH2 0x54F4 JUMP JUMPDEST DUP1 PUSH1 0x0 MSTORE PUSH1 0x3 PUSH1 0x20 MSTORE PUSH1 0xFF PUSH1 0x2 PUSH1 0x40 PUSH1 0x0 KECCAK256 ADD SLOAD PUSH1 0xA0 SHR AND PUSH1 0x4 DUP2 LT ISZERO PUSH2 0x7B4 JUMPI PUSH2 0x4963 SWAP1 ISZERO PUSH2 0x5537 JUMP JUMPDEST PUSH1 0x0 DUP2 DUP2 MSTORE PUSH1 0x3 PUSH1 0x20 MSTORE PUSH1 0x40 SWAP1 KECCAK256 PUSH1 0x2 ADD DUP1 SLOAD PUSH1 0xFF PUSH1 0xA0 SHL NOT AND PUSH1 0x1 PUSH1 0xA0 SHL OR SWAP1 SSTORE TIMESTAMP PUSH3 0x93A80 DUP2 ADD SWAP1 DUP2 LT PUSH2 0xF7F JUMPI DUP2 PUSH1 0x0 MSTORE PUSH1 0x3 PUSH1 0x20 MSTORE PUSH1 0x6 PUSH1 0x40 PUSH1 0x0 KECCAK256 ADD SSTORE PUSH32 0x6AFB1F32C9B62907732C7131785B4227D9840AFC33D8762875F6DADA618D620A PUSH1 0x0 DUP1 LOG2 STOP JUMPDEST POP PUSH1 0x2 SLOAD DUP2 GT ISZERO PUSH2 0x492F JUMP JUMPDEST CALLVALUE PUSH2 0x3E9 JUMPI PUSH1 0x40 CALLDATASIZE PUSH1 0x3 NOT ADD SLT PUSH2 0x3E9 JUMPI PUSH2 0x49F1 PUSH2 0x50BE JUMP JUMPDEST PUSH1 0x4 CALLDATALOAD PUSH1 0x0 MSTORE PUSH1 0x5 PUSH1 0x20 MSTORE PUSH1 0x40 PUSH1 0x0 KECCAK256 PUSH1 0x1 DUP1 PUSH1 0xA0 SHL SUB DUP1 SWAP3 AND PUSH1 0x0 MSTORE PUSH1 0x20 MSTORE PUSH1 0x40 PUSH1 0x0 KECCAK256 PUSH1 0x40 MLOAD SWAP2 PUSH2 0x4A23 DUP4 PUSH2 0x5230 JUMP JUMPDEST DUP2 SLOAD AND DUP3 MSTORE PUSH2 0x13D8 PUSH1 0x1 DUP3 ADD SLOAD SWAP2 DUP3 PUSH1 0x20 DUP6 ADD MSTORE PUSH1 0x2 DUP2 ADD SLOAD SWAP4 DUP5 PUSH1 0x40 DUP3 ADD MSTORE PUSH1 0x3 DUP3 ADD SLOAD SWAP1 DUP2 PUSH1 0x60 DUP3 ADD MSTORE PUSH1 0xA0 PUSH1 0xFF PUSH1 0x5 PUSH1 0x4 DUP7 ADD SLOAD SWAP6 DUP7 PUSH1 0x80 DUP7 ADD MSTORE ADD SLOAD AND ISZERO ISZERO SWAP2 ADD MSTORE PUSH1 0x40 MLOAD SWAP5 DUP6 SWAP5 DUP6 PUSH2 0x5100 JUMP JUMPDEST CALLVALUE PUSH2 0x3E9 JUMPI PUSH2 0x4A83 CALLDATASIZE PUSH2 0x50EA JUMP JUMPDEST SWAP1 PUSH1 0x0 MSTORE PUSH1 0xD PUSH1 0x20 MSTORE PUSH1 0x40 PUSH1 0x0 KECCAK256 SWAP1 PUSH1 0x0 MSTORE PUSH1 0x20 MSTORE PUSH2 0x100 PUSH1 0x40 PUSH1 0x0 KECCAK256 PUSH1 0xFF DUP2 SLOAD SWAP2 PUSH1 0x1 DUP1 PUSH1 0xA0 SHL SUB SWAP1 DUP2 PUSH1 0x1 DUP3 ADD SLOAD AND SWAP2 PUSH1 0x2 DUP3 ADD SLOAD AND PUSH1 0x3 DUP3 ADD SLOAD PUSH1 0x4 DUP4 ADD SLOAD SWAP2 PUSH1 0x6 PUSH1 0x5 DUP6 ADD SLOAD SWAP5 ADD SLOAD SWAP5 PUSH1 0x40 MLOAD SWAP8 DUP9 MSTORE PUSH1 0x20 DUP9 ADD MSTORE PUSH1 0x40 DUP8 ADD MSTORE PUSH1 0x60 DUP7 ADD MSTORE PUSH1 0x80 DUP6 ADD MSTORE PUSH1 0xA0 DUP5 ADD MSTORE DUP2 DUP2 AND ISZERO ISZERO PUSH1 0xC0 DUP5 ADD MSTORE PUSH1 0x8 SHR AND ISZERO ISZERO PUSH1 0xE0 DUP3 ADD MSTORE RETURN JUMPDEST CALLVALUE PUSH2 0x3E9 JUMPI PUSH1 0x40 CALLDATASIZE PUSH1 0x3 NOT ADD SLT PUSH2 0x3E9 JUMPI PUSH2 0x4B20 PUSH2 0x50BE JUMP JUMPDEST PUSH2 0x4B28 PUSH2 0x566C JUMP JUMPDEST PUSH1 0x4 CALLDATALOAD ISZERO ISZERO DUP1 PUSH2 0x4E0D JUMPI JUMPDEST PUSH2 0x4B3C SWAP1 PUSH2 0x54F4 JUMP JUMPDEST PUSH2 0x4B4B PUSH2 0x874 CALLER PUSH1 0x4 CALLDATALOAD PUSH2 0x6116 JUMP JUMPDEST PUSH1 0x4 CALLDATALOAD PUSH1 0x0 SWAP1 DUP2 MSTORE PUSH1 0x3 PUSH1 0x20 MSTORE PUSH1 0x40 SWAP1 KECCAK256 PUSH1 0x1 PUSH1 0x1 PUSH1 0xA0 SHL SUB DUP3 AND SWAP2 SWAP1 CALLER DUP4 EQ PUSH2 0x4DD1 JUMPI PUSH2 0x4B7B DUP3 PUSH1 0x4 CALLDATALOAD PUSH2 0x6116 JUMP JUMPDEST ISZERO PUSH2 0x4D96 JUMPI PUSH1 0x4 CALLDATALOAD PUSH1 0x0 MSTORE PUSH1 0x5 PUSH1 0x20 MSTORE PUSH1 0x40 PUSH1 0x0 KECCAK256 DUP4 PUSH1 0x0 MSTORE PUSH1 0x20 MSTORE PUSH1 0x2 DUP1 PUSH1 0x40 PUSH1 0x0 KECCAK256 ADD SLOAD LT PUSH2 0x4D58 JUMPI PUSH1 0x4 CALLDATALOAD PUSH1 0x0 MSTORE PUSH1 0xF PUSH1 0x20 MSTORE PUSH1 0x40 PUSH1 0x0 KECCAK256 DUP4 PUSH1 0x0 MSTORE PUSH1 0x20 MSTORE PUSH1 0x40 PUSH1 0x0 KECCAK256 SLOAD PUSH2 0x4D18 JUMPI PUSH1 0x15 ADD SWAP2 PUSH2 0x4BD5 DUP4 SLOAD PUSH2 0x56B0 JUMP JUMPDEST DUP1 SWAP4 SSTORE PUSH3 0x3F480 TIMESTAMP ADD DUP1 TIMESTAMP GT PUSH2 0xF7F JUMPI PUSH1 0x40 MLOAD PUSH2 0x100 DUP2 ADD SWAP2 PUSH1 0x1 PUSH1 0x1 PUSH1 0x40 SHL SUB DUP4 GT DUP3 DUP5 LT OR PUSH2 0xF69 JUMPI PUSH2 0x4CC6 SWAP3 PUSH1 0x40 MSTORE DUP6 DUP3 MSTORE PUSH2 0x4CBD PUSH1 0xC0 PUSH1 0x6 PUSH1 0x20 DUP6 ADD DUP8 DUP2 MSTORE PUSH1 0x40 DUP7 ADD SWAP5 CALLER DUP7 MSTORE PUSH1 0x60 DUP8 ADD SWAP1 DUP2 MSTORE PUSH1 0x80 DUP8 ADD PUSH1 0x0 DUP2 MSTORE PUSH1 0xA0 DUP9 ADD SWAP2 PUSH1 0x0 DUP4 MSTORE PUSH1 0x0 DUP7 DUP11 ADD MSTORE PUSH1 0xE0 DUP10 ADD SWAP8 PUSH1 0x0 DUP10 MSTORE PUSH1 0x4 CALLDATALOAD PUSH1 0x0 MSTORE PUSH1 0xD PUSH1 0x20 MSTORE DUP14 PUSH1 0x40 PUSH1 0x0 KECCAK256 SWAP1 PUSH1 0x0 MSTORE PUSH1 0x20 MSTORE PUSH1 0x40 PUSH1 0x0 KECCAK256 SWAP5 DUP11 MLOAD DUP7 SSTORE PUSH1 0x1 DUP7 ADD SWAP1 PUSH1 0x1 DUP1 PUSH1 0xA0 SHL SUB SWAP1 MLOAD AND SWAP1 PUSH1 0x1 DUP1 PUSH1 0xA0 SHL SUB NOT SWAP2 DUP3 DUP3 SLOAD AND OR SWAP1 SSTORE PUSH1 0x2 DUP7 ADD SWAP2 PUSH1 0x1 DUP1 PUSH1 0xA0 SHL SUB SWAP1 MLOAD AND SWAP1 DUP3 SLOAD AND OR SWAP1 SSTORE MLOAD PUSH1 0x3 DUP5 ADD SSTORE MLOAD PUSH1 0x4 DUP4 ADD SSTORE MLOAD PUSH1 0x5 DUP3 ADD SSTORE ADD SWAP4 ADD MLOAD ISZERO ISZERO DUP4 PUSH2 0x557E JUMP JUMPDEST MLOAD ISZERO ISZERO SWAP1 PUSH2 0x5AEB JUMP JUMPDEST PUSH1 0x4 CALLDATALOAD PUSH1 0x0 MSTORE PUSH1 0xF PUSH1 0x20 MSTORE PUSH1 0x40 PUSH1 0x0 KECCAK256 SWAP1 PUSH1 0x0 MSTORE PUSH1 0x20 MSTORE DUP2 PUSH1 0x40 PUSH1 0x0 KECCAK256 SSTORE PUSH32 0x79AADE8012992F30385B9C91C5BDCA9B4DFFDB497B853421E7833B758617B44 PUSH1 0x40 MLOAD DUP1 PUSH2 0xA9D PUSH1 0x4 CALLDATALOAD SWAP5 CALLER SWAP1 DUP4 PUSH2 0x59AA JUMP JUMPDEST PUSH1 0x40 MLOAD PUSH3 0x461BCD PUSH1 0xE5 SHL DUP2 MSTORE PUSH1 0x20 PUSH1 0x4 DUP3 ADD MSTORE PUSH1 0x18 PUSH1 0x24 DUP3 ADD MSTORE PUSH24 0x4B69636B20616C726561647920696E2070726F6772657373 PUSH1 0x40 SHL PUSH1 0x44 DUP3 ADD MSTORE PUSH1 0x64 SWAP1 REVERT JUMPDEST PUSH1 0x40 MLOAD PUSH3 0x461BCD PUSH1 0xE5 SHL DUP2 MSTORE PUSH1 0x20 PUSH1 0x4 DUP3 ADD MSTORE PUSH1 0x16 PUSH1 0x24 DUP3 ADD MSTORE PUSH22 0x4E6F7420656E6F756768206D697373656420454D4973 PUSH1 0x50 SHL PUSH1 0x44 DUP3 ADD MSTORE PUSH1 0x64 SWAP1 REVERT JUMPDEST PUSH1 0x40 MLOAD PUSH3 0x461BCD PUSH1 0xE5 SHL DUP2 MSTORE PUSH1 0x20 PUSH1 0x4 DUP3 ADD MSTORE PUSH1 0x13 PUSH1 0x24 DUP3 ADD MSTORE PUSH19 0x546172676574206E6F7420696E2067726F757 PUSH1 0x6C SHL PUSH1 0x44 DUP3 ADD MSTORE PUSH1 0x64 SWAP1 REVERT JUMPDEST PUSH1 0x40 MLOAD PUSH3 0x461BCD PUSH1 0xE5 SHL DUP2 MSTORE PUSH1 0x20 PUSH1 0x4 DUP3 ADD MSTORE PUSH1 0x14 PUSH1 0x24 DUP3 ADD MSTORE PUSH20 0x21B0B73737BA1035B4B1B5903CB7BAB939B2B633 PUSH1 0x61 SHL PUSH1 0x44 DUP3 ADD MSTORE PUSH1 0x64 SWAP1 REVERT JUMPDEST POP PUSH1 0x2 SLOAD PUSH1 0x4 CALLDATALOAD GT ISZERO PUSH2 0x4B33 JUMP JUMPDEST CALLVALUE PUSH2 0x3E9 JUMPI PUSH1 0x40 CALLDATASIZE PUSH1 0x3 NOT ADD SLT PUSH2 0x3E9 JUMPI PUSH1 0xC0 PUSH2 0x4E36 PUSH2 0x50BE JUMP JUMPDEST PUSH1 0x4 CALLDATALOAD PUSH1 0x0 MSTORE PUSH1 0x5 PUSH1 0x20 MSTORE PUSH1 0x40 PUSH1 0x0 KECCAK256 PUSH1 0x1 DUP1 PUSH1 0xA0 SHL SUB DUP1 SWAP3 AND PUSH1 0x0 MSTORE PUSH1 0x20 MSTORE PUSH1 0x40 PUSH1 0x0 KECCAK256 SWAP1 DUP2 SLOAD AND SWAP1 PUSH1 0x1 DUP2 ADD SLOAD SWAP1 PUSH1 0x2 DUP2 ADD SLOAD PUSH1 0x3 DUP3 ADD SLOAD SWAP1 PUSH1 0xFF PUSH1 0x5 PUSH1 0x4 DUP6 ADD SLOAD SWAP5 ADD SLOAD AND SWAP4 PUSH1 0x40 MLOAD SWAP6 DUP7 MSTORE PUSH1 0x20 DUP7 ADD MSTORE PUSH1 0x40 DUP6 ADD MSTORE PUSH1 0x60 DUP5 ADD MSTORE PUSH1 0x80 DUP4 ADD MSTORE ISZERO ISZERO PUSH1 0xA0 DUP3 ADD MSTORE RETURN JUMPDEST CALLVALUE PUSH2 0x3E9 JUMPI PUSH1 0x20 DUP1 PUSH1 0x3 NOT CALLDATASIZE ADD SLT PUSH2 0x3E9 JUMPI PUSH1 0x4 CALLDATALOAD PUSH2 0x4EBF PUSH2 0x566C JUMP JUMPDEST DUP1 ISZERO ISZERO DUP1 PUSH2 0x5096 JUMPI JUMPDEST PUSH2 0x4ED1 SWAP1 PUSH2 0x54F4 JUMP JUMPDEST DUP1 PUSH1 0x0 MSTORE PUSH1 0x3 SWAP2 DUP3 DUP2 MSTORE PUSH1 0xFF PUSH1 0x2 PUSH1 0x40 PUSH1 0x0 KECCAK256 ADD SLOAD PUSH1 0xA0 SHR AND SWAP3 PUSH1 0x4 DUP5 LT ISZERO PUSH2 0x7B4 JUMPI PUSH2 0x4F01 PUSH1 0x1 DUP1 SWAP6 EQ PUSH2 0x57E7 JUMP JUMPDEST PUSH2 0x4F09 PUSH2 0x5616 JUMP JUMPDEST DUP3 PUSH1 0x0 MSTORE DUP1 DUP3 MSTORE PUSH1 0x40 PUSH1 0x0 KECCAK256 SWAP1 PUSH1 0x6 DUP3 ADD SLOAD TIMESTAMP GT ISZERO PUSH2 0x505B JUMPI PUSH1 0x7 DUP3 ADD DUP1 SLOAD PUSH1 0x4 DUP5 ADD SLOAD GT ISZERO PUSH2 0x5017 JUMPI PUSH1 0x2 DUP4 ADD DUP1 SLOAD PUSH1 0xFF PUSH1 0xA0 SHL NOT AND PUSH1 0x3 PUSH1 0xA0 SHL OR SWAP1 SSTORE SWAP2 DUP2 ADD SWAP2 DUP6 SWAP2 SWAP1 PUSH1 0x0 DUP4 JUMPDEST PUSH2 0x4FB4 JUMPI JUMPDEST DUP4 DUP8 PUSH32 0x7AAC2E1F5D480DD5EE714064322C3F2B41AF09E78BCF63417F5C981C424C6A30 PUSH1 0x60 DUP10 PUSH1 0x1B PUSH1 0x40 MLOAD SWAP2 DUP1 DUP4 MSTORE DUP3 ADD MSTORE PUSH27 0x457870697265643A206E6F742066696C6C656420696E2074696D65 PUSH1 0x28 SHL PUSH1 0x40 DUP3 ADD MSTORE LOG2 PUSH1 0x0 SSTORE STOP JUMPDEST DUP2 SLOAD DUP2 LT ISZERO PUSH2 0x5012 JUMPI DUP1 PUSH2 0x1812 PUSH1 0x0 DUP1 DUP1 DUP1 PUSH2 0x4FD3 PUSH2 0x500C SWAP8 DUP10 PUSH2 0x51DE JUMP JUMPDEST SWAP1 SLOAD SWAP1 DUP11 SHL SHR PUSH1 0x1 PUSH1 0x1 PUSH1 0xA0 SHL SUB AND DUP1 DUP3 MSTORE PUSH1 0x11 DUP14 MSTORE PUSH1 0x40 DUP1 DUP4 KECCAK256 DUP1 SLOAD PUSH1 0xFF NOT AND SWAP1 SSTORE PUSH1 0x10 DUP15 MSTORE DUP3 KECCAK256 DUP3 SWAP1 SSTORE DUP12 SLOAD SWAP1 GAS CALL PUSH2 0x112B PUSH2 0x55AA JUMP JUMPDEST DUP4 PUSH2 0x4F53 JUMP JUMPDEST PUSH2 0x4F58 JUMP JUMPDEST PUSH1 0x40 MLOAD PUSH3 0x461BCD PUSH1 0xE5 SHL DUP2 MSTORE PUSH1 0x4 DUP2 ADD DUP6 SWAP1 MSTORE PUSH1 0x1C PUSH1 0x24 DUP3 ADD MSTORE PUSH28 0x47726F75702069732066756C6C2C2063616E6E6F7420657870697265 PUSH1 0x20 SHL PUSH1 0x44 DUP3 ADD MSTORE PUSH1 0x64 SWAP1 REVERT JUMPDEST PUSH1 0x40 MLOAD PUSH3 0x461BCD PUSH1 0xE5 SHL DUP2 MSTORE PUSH1 0x4 DUP2 ADD DUP5 SWAP1 MSTORE PUSH1 0x13 PUSH1 0x24 DUP3 ADD MSTORE PUSH19 0x111958591B1A5B99481B9BDD081C185CDCD959 PUSH1 0x6A SHL PUSH1 0x44 DUP3 ADD MSTORE PUSH1 0x64 SWAP1 REVERT JUMPDEST POP PUSH1 0x2 SLOAD DUP2 GT ISZERO PUSH2 0x4EC8 JUMP JUMPDEST CALLVALUE PUSH2 0x3E9 JUMPI PUSH1 0x0 CALLDATASIZE PUSH1 0x3 NOT ADD SLT PUSH2 0x3E9 JUMPI PUSH1 0x20 PUSH1 0x40 MLOAD PUSH1 0x5 DUP2 MSTORE RETURN JUMPDEST PUSH1 0x24 CALLDATALOAD SWAP1 PUSH1 0x1 PUSH1 0x1 PUSH1 0xA0 SHL SUB DUP3 AND DUP3 SUB PUSH2 0x3E9 JUMPI JUMP JUMPDEST PUSH1 0x4 CALLDATALOAD SWAP1 PUSH1 0x1 PUSH1 0x1 PUSH1 0xA0 SHL SUB DUP3 AND DUP3 SUB PUSH2 0x3E9 JUMPI JUMP JUMPDEST PUSH1 0x40 SWAP1 PUSH1 0x3 NOT ADD SLT PUSH2 0x3E9 JUMPI PUSH1 0x4 CALLDATALOAD SWAP1 PUSH1 0x24 CALLDATALOAD SWAP1 JUMP JUMPDEST SWAP1 SWAP5 SWAP4 SWAP3 PUSH1 0x60 SWAP3 PUSH1 0x80 DUP4 ADD SWAP7 DUP4 MSTORE PUSH1 0x20 DUP4 ADD MSTORE PUSH1 0x40 DUP3 ADD MSTORE ADD MSTORE JUMP JUMPDEST CALLVALUE PUSH2 0x3E9 JUMPI PUSH1 0x0 CALLDATASIZE PUSH1 0x3 NOT ADD SLT PUSH2 0x3E9 JUMPI PUSH1 0x20 PUSH1 0x40 MLOAD PUSH1 0x2 DUP2 MSTORE RETURN JUMPDEST CALLVALUE PUSH2 0x3E9 JUMPI PUSH1 0x0 CALLDATASIZE PUSH1 0x3 NOT ADD SLT PUSH2 0x3E9 JUMPI PUSH1 0x20 PUSH1 0x40 MLOAD PUSH3 0x3F480 DUP2 MSTORE RETURN JUMPDEST PUSH1 0x20 SWAP1 DUP2 PUSH1 0x40 DUP2 DUP4 ADD SWAP3 DUP3 DUP2 MSTORE DUP6 MLOAD DUP1 SWAP5 MSTORE ADD SWAP4 ADD SWAP2 PUSH1 0x0 JUMPDEST DUP3 DUP2 LT PUSH2 0x517D JUMPI POP POP POP POP SWAP1 JUMP JUMPDEST DUP4 MLOAD DUP6 MSTORE SWAP4 DUP2 ADD SWAP4 SWAP3 DUP2 ADD SWAP3 PUSH1 0x1 ADD PUSH2 0x516F JUMP JUMPDEST PUSH1 0x60 SWAP1 PUSH1 0x3 NOT ADD SLT PUSH2 0x3E9 JUMPI PUSH1 0x4 CALLDATALOAD SWAP1 PUSH1 0x24 CALLDATALOAD SWAP1 PUSH1 0x44 CALLDATALOAD DUP1 ISZERO ISZERO DUP2 SUB PUSH2 0x3E9 JUMPI SWAP1 JUMP JUMPDEST PUSH1 0x60 SWAP1 PUSH1 0x3 NOT ADD SLT PUSH2 0x3E9 JUMPI PUSH1 0x4 CALLDATALOAD SWAP1 PUSH1 0x24 CALLDATALOAD SWAP1 PUSH1 0x44 CALLDATALOAD PUSH1 0x1 PUSH1 0x1 PUSH1 0xA0 SHL SUB DUP2 AND DUP2 SUB PUSH2 0x3E9 JUMPI SWAP1 JUMP JUMPDEST DUP1 SLOAD DUP3 LT ISZERO PUSH2 0x433A JUMPI PUSH1 0x0 MSTORE PUSH1 0x20 PUSH1 0x0 KECCAK256 ADD SWAP1 PUSH1 0x0 SWAP1 JUMP JUMPDEST SWAP1 PUSH1 0x1 DUP3 DUP2 SHR SWAP3 AND DUP1 ISZERO PUSH2 0x5226 JUMPI JUMPDEST PUSH1 0x20 DUP4 LT EQ PUSH2 0x5210 JUMPI JUMP JUMPDEST PUSH4 0x4E487B71 PUSH1 0xE0 SHL PUSH1 0x0 MSTORE PUSH1 0x22 PUSH1 0x4 MSTORE PUSH1 0x24 PUSH1 0x0 REVERT JUMPDEST SWAP2 PUSH1 0x7F AND SWAP2 PUSH2 0x5205 JUMP JUMPDEST PUSH1 0xC0 DUP2 ADD SWAP1 DUP2 LT PUSH1 0x1 PUSH1 0x1 PUSH1 0x40 SHL SUB DUP3 GT OR PUSH2 0xF69 JUMPI PUSH1 0x40 MSTORE JUMP JUMPDEST PUSH2 0x240 DUP2 ADD SWAP1 DUP2 LT PUSH1 0x1 PUSH1 0x1 PUSH1 0x40 SHL SUB DUP3 GT OR PUSH2 0xF69 JUMPI PUSH1 0x40 MSTORE JUMP JUMPDEST PUSH1 0xE0 DUP2 ADD SWAP1 DUP2 LT PUSH1 0x1 PUSH1 0x1 PUSH1 0x40 SHL SUB DUP3 GT OR PUSH2 0xF69 JUMPI PUSH1 0x40 MSTORE JUMP JUMPDEST PUSH1 0x1F SWAP1 SWAP2 ADD PUSH1 0x1F NOT AND DUP2 ADD SWAP1 PUSH1 0x1 PUSH1 0x1 PUSH1 0x40 SHL SUB DUP3 GT SWAP1 DUP3 LT OR PUSH2 0xF69 JUMPI PUSH1 0x40 MSTORE JUMP JUMPDEST SWAP1 PUSH1 0x40 MLOAD SWAP2 DUP3 PUSH1 0x0 DUP3 SLOAD SWAP3 PUSH2 0x52B9 DUP5 PUSH2 0x51F6 JUMP JUMPDEST SWAP1 DUP2 DUP5 MSTORE PUSH1 0x1 SWAP5 DUP6 DUP2 AND SWAP1 DUP2 PUSH1 0x0 EQ PUSH2 0x5328 JUMPI POP PUSH1 0x1 EQ PUSH2 0x52E5 JUMPI JUMPDEST POP POP PUSH2 0x52E3 SWAP3 POP SUB DUP4 PUSH2 0x5282 JUMP JUMPDEST JUMP JUMPDEST SWAP1 SWAP4 SWAP2 POP PUSH1 0x0 MSTORE PUSH1 0x20 SWAP1 DUP2 PUSH1 0x0 KECCAK256 SWAP4 PUSH1 0x0 SWAP2 JUMPDEST DUP2 DUP4 LT PUSH2 0x5310 JUMPI POP POP PUSH2 0x52E3 SWAP4 POP DUP3 ADD ADD CODESIZE DUP1 PUSH2 0x52D5 JUMP JUMPDEST DUP6 SLOAD DUP9 DUP5 ADD DUP6 ADD MSTORE SWAP5 DUP6 ADD SWAP5 DUP8 SWAP5 POP SWAP2 DUP4 ADD SWAP2 PUSH2 0x52F8 JUMP JUMPDEST SWAP2 POP POP PUSH2 0x52E3 SWAP5 POP PUSH1 0x20 SWAP3 POP PUSH1 0xFF NOT AND DUP3 DUP5 ADD MSTORE ISZERO ISZERO PUSH1 0x5 SHL DUP3 ADD ADD CODESIZE DUP1 PUSH2 0x52D5 JUMP JUMPDEST SWAP2 SWAP1 DUP3 MLOAD SWAP3 DUP4 DUP3 MSTORE PUSH1 0x0 JUMPDEST DUP5 DUP2 LT PUSH2 0x5377 JUMPI POP POP DUP3 PUSH1 0x0 PUSH1 0x20 DUP1 SWAP5 SWAP6 DUP5 ADD ADD MSTORE PUSH1 0x1F DUP1 NOT SWAP2 ADD AND ADD ADD SWAP1 JUMP JUMPDEST PUSH1 0x20 DUP2 DUP4 ADD DUP2 ADD MLOAD DUP5 DUP4 ADD DUP3 ADD MSTORE ADD PUSH2 0x5356 JUMP JUMPDEST SWAP1 PUSH1 0x40 MLOAD PUSH2 0x5398 DUP2 PUSH2 0x5267 JUMP JUMPDEST PUSH1 0xC0 PUSH1 0xFF PUSH1 0x6 DUP4 SWAP6 DUP1 SLOAD DUP6 MSTORE PUSH1 0x1 DUP2 ADD SLOAD PUSH1 0x20 DUP7 ADD MSTORE PUSH1 0x2 DUP2 ADD SLOAD PUSH1 0x40 DUP7 ADD MSTORE PUSH1 0x3 DUP2 ADD SLOAD PUSH1 0x60 DUP7 ADD MSTORE PUSH1 0x4 DUP2 ADD SLOAD PUSH1 0x80 DUP7 ADD MSTORE PUSH1 0x5 DUP2 ADD SLOAD PUSH1 0xA0 DUP7 ADD MSTORE ADD SLOAD AND ISZERO ISZERO SWAP2 ADD MSTORE JUMP JUMPDEST PUSH1 0x40 MLOAD SWAP1 SWAP2 SWAP1 PUSH1 0xA0 DUP2 ADD PUSH1 0x1 PUSH1 0x1 PUSH1 0x40 SHL SUB DUP2 GT DUP3 DUP3 LT OR PUSH2 0xF69 JUMPI PUSH1 0x40 MSTORE DUP1 SWAP3 PUSH1 0xFF DUP2 SLOAD AND SWAP1 PUSH1 0x3 DUP3 LT ISZERO PUSH2 0x7B4 JUMPI SWAP1 DUP3 MSTORE PUSH1 0x1 DUP2 ADD SLOAD PUSH1 0x20 DUP4 ADD MSTORE PUSH1 0x2 DUP2 ADD SLOAD PUSH1 0x40 DUP4 ADD MSTORE PUSH1 0x3 ADD SLOAD PUSH1 0x1 PUSH1 0x1 PUSH1 0xA0 SHL SUB DUP2 AND PUSH1 0x60 DUP4 ADD MSTORE PUSH1 0xA0 SHR PUSH1 0xFF AND ISZERO ISZERO PUSH1 0x80 SWAP2 SWAP1 SWAP2 ADD MSTORE JUMP JUMPDEST PUSH1 0x20 SWAP1 DUP2 PUSH1 0x40 DUP2 DUP4 ADD SWAP3 DUP3 DUP2 MSTORE DUP6 MLOAD DUP1 SWAP5 MSTORE ADD SWAP4 ADD SWAP2 PUSH1 0x0 JUMPDEST DUP3 DUP2 LT PUSH2 0x5472 JUMPI POP POP POP POP SWAP1 JUMP JUMPDEST DUP4 MLOAD PUSH1 0x1 PUSH1 0x1 PUSH1 0xA0 SHL SUB AND DUP6 MSTORE SWAP4 DUP2 ADD SWAP4 SWAP3 DUP2 ADD SWAP3 PUSH1 0x1 ADD PUSH2 0x5464 JUMP JUMPDEST SWAP2 DUP2 PUSH1 0x1F DUP5 ADD SLT ISZERO PUSH2 0x3E9 JUMPI DUP3 CALLDATALOAD SWAP2 PUSH1 0x1 PUSH1 0x1 PUSH1 0x40 SHL SUB DUP4 GT PUSH2 0x3E9 JUMPI PUSH1 0x20 DUP4 DUP2 DUP7 ADD SWAP6 ADD ADD GT PUSH2 0x3E9 JUMPI JUMP JUMPDEST ISZERO PUSH2 0x54C3 JUMPI JUMP JUMPDEST PUSH1 0x40 MLOAD PUSH3 0x461BCD PUSH1 0xE5 SHL DUP2 MSTORE PUSH1 0x20 PUSH1 0x4 DUP3 ADD MSTORE PUSH1 0x9 PUSH1 0x24 DUP3 ADD MSTORE PUSH9 0x2737BA1030B236B4B7 PUSH1 0xB9 SHL PUSH1 0x44 DUP3 ADD MSTORE PUSH1 0x64 SWAP1 REVERT JUMPDEST ISZERO PUSH2 0x54FB JUMPI JUMP JUMPDEST PUSH1 0x40 MLOAD PUSH3 0x461BCD PUSH1 0xE5 SHL DUP2 MSTORE PUSH1 0x20 PUSH1 0x4 DUP3 ADD MSTORE PUSH1 0x14 PUSH1 0x24 DUP3 ADD MSTORE PUSH20 0x11DC9BDD5C08191BD95CC81B9BDD08195E1A5CDD PUSH1 0x62 SHL PUSH1 0x44 DUP3 ADD MSTORE PUSH1 0x64 SWAP1 REVERT JUMPDEST ISZERO PUSH2 0x553E JUMPI JUMP JUMPDEST PUSH1 0x40 MLOAD PUSH3 0x461BCD PUSH1 0xE5 SHL DUP2 MSTORE PUSH1 0x20 PUSH1 0x4 DUP3 ADD MSTORE PUSH1 0xB PUSH1 0x24 DUP3 ADD MSTORE PUSH11 0x4E6F742070656E64696E67 PUSH1 0xA8 SHL PUSH1 0x44 DUP3 ADD MSTORE PUSH1 0x64 SWAP1 REVERT JUMPDEST SWAP2 SWAP1 DUP3 ADD DUP1 SWAP3 GT PUSH2 0xF7F JUMPI JUMP JUMPDEST SWAP1 PUSH1 0xFF DUP1 NOT DUP4 SLOAD AND SWAP2 ISZERO ISZERO AND OR SWAP1 SSTORE JUMP JUMPDEST PUSH1 0x1 PUSH1 0x1 PUSH1 0x40 SHL SUB DUP2 GT PUSH2 0xF69 JUMPI PUSH1 0x1F ADD PUSH1 0x1F NOT AND PUSH1 0x20 ADD SWAP1 JUMP JUMPDEST RETURNDATASIZE ISZERO PUSH2 0x55D5 JUMPI RETURNDATASIZE SWAP1 PUSH2 0x55BB DUP3 PUSH2 0x558F JUMP JUMPDEST SWAP2 PUSH2 0x55C9 PUSH1 0x40 MLOAD SWAP4 DUP5 PUSH2 0x5282 JUMP JUMPDEST DUP3 MSTORE RETURNDATASIZE PUSH1 0x0 PUSH1 0x20 DUP5 ADD RETURNDATACOPY JUMP JUMPDEST PUSH1 0x60 SWAP1 JUMP JUMPDEST ISZERO PUSH2 0x55E1 JUMPI JUMP JUMPDEST PUSH1 0x40 MLOAD PUSH3 0x461BCD PUSH1 0xE5 SHL DUP2 MSTORE PUSH1 0x20 PUSH1 0x4 DUP3 ADD MSTORE PUSH1 0xD PUSH1 0x24 DUP3 ADD MSTORE PUSH13 0x1499599D5B990819985A5B1959 PUSH1 0x9A SHL PUSH1 0x44 DUP3 ADD MSTORE PUSH1 0x64 SWAP1 REVERT JUMPDEST PUSH1 0x2 PUSH1 0x0 SLOAD EQ PUSH2 0x5627 JUMPI PUSH1 0x2 PUSH1 0x0 SSTORE JUMP JUMPDEST PUSH1 0x40 MLOAD PUSH3 0x461BCD PUSH1 0xE5 SHL DUP2 MSTORE PUSH1 0x20 PUSH1 0x4 DUP3 ADD MSTORE PUSH1 0x1F PUSH1 0x24 DUP3 ADD MSTORE PUSH32 0x5265656E7472616E637947756172643A207265656E7472616E742063616C6C00 PUSH1 0x44 DUP3 ADD MSTORE PUSH1 0x64 SWAP1 REVERT JUMPDEST PUSH1 0xFF PUSH1 0x1 SLOAD AND PUSH2 0x5678 JUMPI JUMP JUMPDEST PUSH1 0x40 MLOAD PUSH3 0x461BCD PUSH1 0xE5 SHL DUP2 MSTORE PUSH1 0x20 PUSH1 0x4 DUP3 ADD MSTORE PUSH1 0x10 PUSH1 0x24 DUP3 ADD MSTORE PUSH16 0x14185D5CD8589B194E881C185D5CD959 PUSH1 0x82 SHL PUSH1 0x44 DUP3 ADD MSTORE PUSH1 0x64 SWAP1 REVERT JUMPDEST PUSH1 0x0 NOT DUP2 EQ PUSH2 0xF7F JUMPI PUSH1 0x1 ADD SWAP1 JUMP JUMPDEST SWAP2 SWAP1 DUP2 LT ISZERO PUSH2 0x433A JUMPI PUSH1 0x5 SHL ADD SWAP1 JUMP JUMPDEST CALLDATALOAD PUSH1 0x1 PUSH1 0x1 PUSH1 0xA0 SHL SUB DUP2 AND DUP2 SUB PUSH2 0x3E9 JUMPI SWAP1 JUMP JUMPDEST ISZERO PUSH2 0x56EA JUMPI JUMP JUMPDEST PUSH1 0x40 MLOAD PUSH3 0x461BCD PUSH1 0xE5 SHL DUP2 MSTORE PUSH1 0x20 PUSH1 0x4 DUP3 ADD MSTORE PUSH1 0x16 PUSH1 0x24 DUP3 ADD MSTORE PUSH22 0x21B0B73737BA1034B73B34BA32903CB7BAB939B2B633 PUSH1 0x51 SHL PUSH1 0x44 DUP3 ADD MSTORE PUSH1 0x64 SWAP1 REVERT JUMPDEST DUP2 DUP2 LT PUSH2 0x5733 JUMPI POP POP JUMP JUMPDEST PUSH1 0x0 DUP2 SSTORE PUSH1 0x1 ADD PUSH2 0x5728 JUMP JUMPDEST SWAP2 SWAP1 PUSH1 0x1F DUP2 GT PUSH2 0x574E JUMPI POP POP POP JUMP JUMPDEST PUSH2 0x52E3 SWAP3 PUSH1 0x0 MSTORE PUSH1 0x20 PUSH1 0x0 KECCAK256 SWAP1 PUSH1 0x20 PUSH1 0x1F DUP5 ADD PUSH1 0x5 SHR DUP4 ADD SWAP4 LT PUSH2 0x577A JUMPI JUMPDEST PUSH1 0x1F ADD PUSH1 0x5 SHR ADD SWAP1 PUSH2 0x5728 JUMP JUMPDEST SWAP1 SWAP2 POP DUP2 SWAP1 PUSH2 0x576D JUMP JUMPDEST DUP1 SLOAD SWAP2 SWAP1 PUSH1 0x1 PUSH1 0x40 SHL DUP4 LT ISZERO PUSH2 0xF69 JUMPI DUP3 PUSH2 0x57A7 SWAP2 PUSH1 0x1 PUSH2 0x52E3 SWAP6 ADD DUP2 SSTORE PUSH2 0x51DE JUMP JUMPDEST SWAP1 SWAP2 SWAP1 DUP3 SLOAD SWAP1 PUSH1 0x3 SHL SWAP2 PUSH1 0x1 DUP1 PUSH1 0xA0 SHL SUB DUP1 SWAP2 AND DUP4 SHL SWAP3 SHL NOT AND OR SWAP1 SSTORE JUMP JUMPDEST SWAP1 DUP1 PUSH1 0x20 SWAP4 SWAP3 DUP2 DUP5 MSTORE DUP5 DUP5 ADD CALLDATACOPY PUSH1 0x0 DUP3 DUP3 ADD DUP5 ADD MSTORE PUSH1 0x1F ADD PUSH1 0x1F NOT AND ADD ADD SWAP1 JUMP JUMPDEST ISZERO PUSH2 0x57EE JUMPI JUMP JUMPDEST PUSH1 0x40 MLOAD PUSH3 0x461BCD PUSH1 0xE5 SHL DUP2 MSTORE PUSH1 0x20 PUSH1 0x4 DUP3 ADD MSTORE PUSH1 0x12 PUSH1 0x24 DUP3 ADD MSTORE PUSH18 0x57726F6E672067726F757020737461747573 PUSH1 0x70 SHL PUSH1 0x44 DUP3 ADD MSTORE PUSH1 0x64 SWAP1 REVERT JUMPDEST SWAP2 SWAP1 DUP3 SUB SWAP2 DUP3 GT PUSH2 0xF7F JUMPI JUMP JUMPDEST SWAP1 PUSH1 0x40 MLOAD SWAP2 DUP3 DUP2 SLOAD SWAP2 DUP3 DUP3 MSTORE PUSH1 0x20 SWAP3 DUP4 DUP4 ADD SWAP2 PUSH1 0x0 MSTORE DUP4 PUSH1 0x0 KECCAK256 SWAP4 PUSH1 0x0 SWAP1 JUMPDEST DUP3 DUP3 LT PUSH2 0x586A JUMPI POP POP POP PUSH2 0x52E3 SWAP3 POP SUB DUP4 PUSH2 0x5282 JUMP JUMPDEST DUP6 SLOAD PUSH1 0x1 PUSH1 0x1 PUSH1 0xA0 SHL SUB AND DUP5 MSTORE PUSH1 0x1 SWAP6 DUP7 ADD SWAP6 DUP9 SWAP6 POP SWAP4 DUP2 ADD SWAP4 SWAP1 SWAP2 ADD SWAP1 PUSH2 0x5854 JUMP JUMPDEST ISZERO PUSH2 0x5894 JUMPI JUMP JUMPDEST PUSH1 0x40 MLOAD PUSH3 0x461BCD PUSH1 0xE5 SHL DUP2 MSTORE PUSH1 0x20 PUSH1 0x4 DUP3 ADD MSTORE PUSH1 0x1A PUSH1 0x24 DUP3 ADD MSTORE PUSH26 0x4E6F742061206D656D626572206F6620746869732067726F757 PUSH1 0x34 SHL PUSH1 0x44 DUP3 ADD MSTORE PUSH1 0x64 SWAP1 REVERT JUMPDEST ISZERO PUSH2 0x58DD JUMPI JUMP JUMPDEST PUSH1 0x40 MLOAD PUSH3 0x461BCD PUSH1 0xE5 SHL DUP2 MSTORE PUSH1 0x20 PUSH1 0x4 DUP3 ADD MSTORE PUSH1 0x13 PUSH1 0x24 DUP3 ADD MSTORE PUSH19 0x4C6F616E20616C726561647920616374697665 PUSH1 0x68 SHL PUSH1 0x44 DUP3 ADD MSTORE PUSH1 0x64 SWAP1 REVERT JUMPDEST DUP2 DUP2 MUL SWAP3 SWAP2 DUP2 ISZERO SWAP2 DUP5 DIV EQ OR ISZERO PUSH2 0xF7F JUMPI JUMP JUMPDEST ISZERO PUSH2 0x5932 JUMPI JUMP JUMPDEST PUSH1 0x40 MLOAD PUSH3 0x461BCD PUSH1 0xE5 SHL DUP2 MSTORE PUSH1 0x20 PUSH1 0x4 DUP3 ADD MSTORE PUSH1 0x14 PUSH1 0x24 DUP3 ADD MSTORE PUSH20 0x159BDD1A5B99C81DDA5B991BDDC818DB1BDCD959 PUSH1 0x62 SHL PUSH1 0x44 DUP3 ADD MSTORE PUSH1 0x64 SWAP1 REVERT JUMPDEST ISZERO PUSH2 0x5975 JUMPI JUMP JUMPDEST PUSH1 0x40 MLOAD PUSH3 0x461BCD PUSH1 0xE5 SHL DUP2 MSTORE PUSH1 0x20 PUSH1 0x4 DUP3 ADD MSTORE PUSH1 0xD PUSH1 0x24 DUP3 ADD MSTORE PUSH13 0x105B1C9958591E481D9BDD1959 PUSH1 0x9A SHL PUSH1 0x44 DUP3 ADD MSTORE PUSH1 0x64 SWAP1 REVERT JUMPDEST PUSH1 0x1 PUSH1 0x1 PUSH1 0xA0 SHL SUB SWAP2 DUP3 AND DUP2 MSTORE SWAP2 AND PUSH1 0x20 DUP3 ADD MSTORE PUSH1 0x40 ADD SWAP1 JUMP JUMPDEST PUSH1 0x1 PUSH1 0x1 PUSH1 0x40 SHL SUB DUP2 GT PUSH2 0xF69 JUMPI PUSH1 0x5 SHL PUSH1 0x20 ADD SWAP1 JUMP JUMPDEST DUP1 MLOAD DUP3 LT ISZERO PUSH2 0x433A JUMPI PUSH1 0x20 SWAP2 PUSH1 0x5 SHL ADD ADD SWAP1 JUMP JUMPDEST PUSH1 0x1 PUSH1 0x1 PUSH1 0xA0 SHL SUB SWAP1 SWAP2 AND DUP2 MSTORE SWAP1 ISZERO ISZERO PUSH1 0x20 DUP3 ADD MSTORE PUSH1 0x40 ADD SWAP1 JUMP JUMPDEST DUP2 ISZERO PUSH2 0x45C9 JUMPI DIV SWAP1 JUMP JUMPDEST PUSH1 0x1 PUSH1 0x1 PUSH1 0xA0 SHL SUB SWAP1 SWAP2 AND DUP2 MSTORE PUSH1 0x20 DUP2 ADD SWAP2 SWAP1 SWAP2 MSTORE PUSH1 0x40 ADD SWAP1 JUMP JUMPDEST ISZERO PUSH2 0x5A36 JUMPI JUMP JUMPDEST PUSH1 0x40 MLOAD PUSH3 0x461BCD PUSH1 0xE5 SHL DUP2 MSTORE PUSH1 0x20 PUSH1 0x4 DUP3 ADD MSTORE PUSH1 0xE PUSH1 0x24 DUP3 ADD MSTORE PUSH14 0x27379030B1BA34BB32903637B0B7 PUSH1 0x91 SHL PUSH1 0x44 DUP3 ADD MSTORE PUSH1 0x64 SWAP1 REVERT JUMPDEST ISZERO PUSH2 0x5A73 JUMPI JUMP JUMPDEST PUSH1 0x40 MLOAD PUSH3 0x461BCD PUSH1 0xE5 SHL DUP2 MSTORE PUSH1 0x20 PUSH1 0x4 DUP3 ADD MSTORE PUSH1 0xF PUSH1 0x24 DUP3 ADD MSTORE PUSH15 0x151C985B9CD9995C8819985A5B1959 PUSH1 0x8A SHL PUSH1 0x44 DUP3 ADD MSTORE PUSH1 0x64 SWAP1 REVERT JUMPDEST ISZERO PUSH2 0x5AB1 JUMPI JUMP JUMPDEST PUSH1 0x40 MLOAD PUSH3 0x461BCD PUSH1 0xE5 SHL DUP2 MSTORE PUSH1 0x20 PUSH1 0x4 DUP3 ADD MSTORE PUSH1 0x12 PUSH1 0x24 DUP3 ADD MSTORE PUSH18 0x416D6F756E74206D757374206265203E203 PUSH1 0x74 SHL PUSH1 0x44 DUP3 ADD MSTORE PUSH1 0x64 SWAP1 REVERT JUMPDEST SWAP1 PUSH2 0xFF00 DUP3 SLOAD SWAP2 ISZERO ISZERO PUSH1 0x8 SHL AND SWAP1 PUSH2 0xFF00 NOT AND OR SWAP1 SSTORE JUMP JUMPDEST ISZERO PUSH2 0x5B0A JUMPI JUMP JUMPDEST PUSH1 0x40 MLOAD PUSH3 0x461BCD PUSH1 0xE5 SHL DUP2 MSTORE PUSH1 0x20 PUSH1 0x4 DUP3 ADD MSTORE PUSH1 0x10 PUSH1 0x24 DUP3 ADD MSTORE PUSH16 0x105B1C9958591E481C995CDBDB1D9959 PUSH1 0x82 SHL PUSH1 0x44 DUP3 ADD MSTORE PUSH1 0x64 SWAP1 REVERT JUMPDEST ISZERO PUSH2 0x5B49 JUMPI JUMP JUMPDEST PUSH1 0x40 MLOAD PUSH3 0x461BCD PUSH1 0xE5 SHL DUP2 MSTORE PUSH1 0x20 PUSH1 0x4 DUP3 ADD MSTORE PUSH1 0xF PUSH1 0x24 DUP3 ADD MSTORE PUSH15 0x2B37BA329039BA34B6361037B832B7 PUSH1 0x89 SHL PUSH1 0x44 DUP3 ADD MSTORE PUSH1 0x64 SWAP1 REVERT JUMPDEST SWAP1 PUSH2 0x5B8A DUP3 PUSH2 0x59C4 JUMP JUMPDEST PUSH2 0x5B97 PUSH1 0x40 MLOAD SWAP2 DUP3 PUSH2 0x5282 JUMP JUMPDEST DUP3 DUP2 MSTORE DUP1 SWAP3 PUSH2 0x5BA8 PUSH1 0x1F NOT SWAP2 PUSH2 0x59C4 JUMP JUMPDEST ADD SWAP1 PUSH1 0x20 CALLDATASIZE SWAP2 ADD CALLDATACOPY JUMP JUMPDEST PUSH1 0x0 MSTORE PUSH1 0x3 PUSH1 0x20 MSTORE PUSH2 0x5BCA PUSH1 0x9 PUSH1 0x40 PUSH1 0x0 KECCAK256 ADD PUSH2 0x538B JUMP JUMPDEST PUSH1 0xC0 DUP2 ADD MLOAD ISZERO DUP1 ISZERO PUSH2 0x5C2B JUMPI JUMPDEST PUSH2 0x5C25 JUMPI PUSH2 0x5C02 PUSH3 0x15180 PUSH2 0x5BF0 PUSH1 0xA0 DUP5 ADD MLOAD TIMESTAMP PUSH2 0x5828 JUMP JUMPDEST DIV SWAP2 PUSH1 0x20 PUSH1 0x40 DUP3 ADD MLOAD SWAP2 ADD MLOAD SWAP1 PUSH2 0x5571 JUMP JUMPDEST DUP1 PUSH1 0x1 SHL SWAP1 DUP1 DUP3 DIV PUSH1 0x2 EQ SWAP1 ISZERO OR ISZERO PUSH2 0xF7F JUMPI PUSH1 0x64 SWAP2 PUSH2 0x5C21 SWAP2 PUSH2 0x5918 JUMP JUMPDEST DIV SWAP1 JUMP JUMPDEST POP PUSH1 0x0 SWAP1 JUMP JUMPDEST POP PUSH1 0xA0 DUP2 ADD MLOAD TIMESTAMP GT ISZERO PUSH2 0x5BD7 JUMP JUMPDEST PUSH1 0x0 MSTORE PUSH1 0x3 PUSH1 0x20 MSTORE PUSH1 0x40 PUSH1 0x0 KECCAK256 PUSH1 0x40 MLOAD PUSH2 0x5C52 DUP2 PUSH2 0x524B JUMP JUMPDEST DUP2 SLOAD DUP2 MSTORE PUSH2 0x5C62 PUSH1 0x1 DUP4 ADD PUSH2 0x52A5 JUMP JUMPDEST PUSH1 0x20 DUP3 ADD MSTORE PUSH1 0x2 DUP3 ADD SLOAD PUSH1 0x1 PUSH1 0x1 PUSH1 0xA0 SHL SUB DUP1 DUP3 AND PUSH1 0x40 DUP5 ADD MSTORE SWAP3 PUSH1 0xA0 SWAP2 SWAP1 SWAP2 SHR PUSH1 0xFF AND SWAP2 PUSH1 0x4 DUP4 LT ISZERO PUSH2 0x7B4 JUMPI PUSH1 0x60 SWAP3 DUP4 DUP3 ADD MSTORE PUSH1 0x3 DUP3 ADD SLOAD PUSH1 0x80 DUP3 ADD MSTORE PUSH1 0x4 DUP3 ADD SLOAD PUSH1 0xA0 DUP3 ADD MSTORE PUSH1 0x5 DUP3 ADD SLOAD SWAP4 PUSH1 0xC0 DUP3 ADD SWAP5 DUP6 MSTORE PUSH1 0x6 DUP4 ADD SLOAD PUSH1 0xE0 DUP4 ADD MSTORE PUSH2 0x5CCE PUSH1 0x7 DUP5 ADD PUSH2 0x5835 JUMP JUMPDEST PUSH2 0x100 DUP4 ADD MSTORE PUSH1 0x8 DUP4 ADD SLOAD AND PUSH2 0x120 DUP3 ADD MSTORE PUSH2 0x220 PUSH1 0x19 PUSH2 0x5CF1 PUSH1 0x9 DUP6 ADD PUSH2 0x538B JUMP JUMPDEST SWAP4 PUSH2 0x140 DUP5 ADD SWAP5 DUP6 MSTORE PUSH2 0x5D06 PUSH1 0x10 DUP3 ADD PUSH2 0x53E0 JUMP JUMPDEST PUSH2 0x160 DUP6 ADD MSTORE PUSH1 0x14 DUP2 ADD SLOAD PUSH2 0x180 DUP6 ADD MSTORE PUSH1 0x15 DUP2 ADD SLOAD PUSH2 0x1A0 DUP6 ADD MSTORE PUSH1 0x16 DUP2 ADD SLOAD PUSH2 0x1C0 DUP6 ADD MSTORE PUSH1 0x17 DUP2 ADD SLOAD PUSH2 0x1E0 DUP6 ADD MSTORE PUSH1 0xFF PUSH1 0x18 DUP3 ADD SLOAD AND ISZERO ISZERO PUSH2 0x200 DUP6 ADD MSTORE ADD SLOAD SWAP2 ADD MSTORE MLOAD ADD MLOAD SWAP1 MLOAD SWAP1 DUP2 DUP2 LT ISZERO PUSH2 0x5D67 JUMPI PUSH2 0x5D64 SWAP2 PUSH2 0x5828 JUMP JUMPDEST SWAP1 JUMP JUMPDEST POP POP PUSH1 0x0 SWAP1 JUMP JUMPDEST PUSH3 0x7A120 SWAP1 DUP2 DUP2 MUL SWAP2 DUP2 DUP4 DIV EQ SWAP1 ISZERO OR ISZERO PUSH2 0xF7F JUMPI PUSH8 0xDE0B6B3A7640000 SWAP1 DIV SWAP1 JUMP JUMPDEST SWAP1 PUSH1 0x0 SWAP2 DUP3 MSTORE PUSH1 0x5 PUSH1 0x20 MSTORE PUSH1 0x40 DUP3 KECCAK256 PUSH1 0x1 DUP1 PUSH1 0xA0 SHL SUB DUP1 SWAP3 AND DUP4 MSTORE PUSH1 0x20 MSTORE PUSH1 0x40 DUP3 KECCAK256 PUSH1 0x40 MLOAD SWAP2 PUSH2 0x5DC0 DUP4 PUSH2 0x5230 JUMP JUMPDEST DUP2 SLOAD AND DUP3 MSTORE PUSH1 0x1 DUP2 ADD SLOAD DUP1 PUSH1 0x20 DUP5 ADD MSTORE PUSH1 0x2 DUP3 ADD SLOAD SWAP3 PUSH1 0x40 DUP2 ADD SWAP4 DUP5 MSTORE PUSH1 0xA0 PUSH1 0xFF PUSH1 0x5 PUSH1 0x3 DUP7 ADD SLOAD SWAP6 DUP7 PUSH1 0x60 DUP7 ADD MSTORE PUSH1 0x4 DUP2 ADD SLOAD PUSH1 0x80 DUP7 ADD MSTORE ADD SLOAD AND ISZERO ISZERO SWAP2 ADD MSTORE PUSH1 0x5 DUP3 MUL SWAP2 DUP1 DUP4 DIV PUSH1 0x5 EQ SWAP1 ISZERO OR ISZERO PUSH2 0x5E80 JUMPI SWAP1 PUSH2 0x5E26 SWAP2 PUSH1 0x32 DUP3 GT PUSH2 0x5E77 JUMPI PUSH2 0x5571 JUMP JUMPDEST SWAP1 MLOAD SWAP1 PUSH1 0xF DUP3 MUL SWAP2 DUP1 DUP4 DIV PUSH1 0xF EQ SWAP1 ISZERO OR ISZERO PUSH2 0x5E63 JUMPI DUP1 DUP3 GT PUSH2 0x5E5E JUMPI PUSH2 0x5E4D SWAP3 POP PUSH2 0x5828 JUMP JUMPDEST PUSH1 0xC8 DUP2 GT PUSH2 0x5E58 JUMPI SWAP1 JUMP JUMPDEST POP PUSH1 0xC8 SWAP1 JUMP JUMPDEST POP POP SWAP1 JUMP JUMPDEST PUSH4 0x4E487B71 PUSH1 0xE0 SHL DUP4 MSTORE PUSH1 0x11 PUSH1 0x4 MSTORE PUSH1 0x24 DUP4 REVERT JUMPDEST PUSH1 0x32 SWAP2 POP PUSH2 0x5571 JUMP JUMPDEST PUSH4 0x4E487B71 PUSH1 0xE0 SHL DUP5 MSTORE PUSH1 0x11 PUSH1 0x4 MSTORE PUSH1 0x24 DUP5 REVERT JUMPDEST SWAP1 DUP2 PUSH1 0x0 MSTORE PUSH1 0x3 PUSH1 0x20 MSTORE PUSH1 0x40 PUSH1 0x0 KECCAK256 SWAP2 PUSH1 0x40 MLOAD SWAP3 PUSH2 0x5EB1 DUP5 PUSH2 0x524B JUMP JUMPDEST DUP1 SLOAD DUP5 MSTORE PUSH2 0x5EC1 PUSH1 0x1 DUP3 ADD PUSH2 0x52A5 JUMP JUMPDEST PUSH1 0x20 DUP6 ADD MSTORE PUSH1 0x2 DUP2 ADD SLOAD PUSH1 0x1 PUSH1 0x1 PUSH1 0xA0 SHL SUB DUP2 AND PUSH1 0x40 DUP7 ADD MSTORE PUSH1 0xA0 SHR PUSH1 0xFF AND SWAP1 PUSH1 0x4 DUP3 LT ISZERO PUSH2 0x7B4 JUMPI PUSH1 0x19 SWAP2 PUSH1 0x60 DUP7 ADD MSTORE PUSH1 0x3 DUP2 ADD SLOAD PUSH1 0x80 DUP7 ADD MSTORE PUSH1 0x4 DUP2 ADD SLOAD PUSH1 0xA0 DUP7 ADD MSTORE PUSH1 0x5 DUP2 ADD SLOAD PUSH1 0xC0 DUP7 ADD MSTORE PUSH1 0x6 DUP2 ADD SLOAD PUSH1 0xE0 DUP7 ADD MSTORE PUSH2 0x5F26 PUSH1 0x7 DUP3 ADD PUSH2 0x5835 JUMP JUMPDEST PUSH2 0x100 DUP7 ADD MSTORE PUSH1 0x8 DUP2 ADD SLOAD PUSH1 0x1 PUSH1 0x1 PUSH1 0xA0 SHL SUB AND PUSH2 0x120 DUP7 ADD MSTORE PUSH2 0x5F4C PUSH1 0x9 DUP3 ADD PUSH2 0x538B JUMP JUMPDEST PUSH2 0x140 DUP7 ADD MSTORE PUSH2 0x5F5E PUSH1 0x10 DUP3 ADD PUSH2 0x53E0 JUMP JUMPDEST PUSH2 0x160 DUP7 ADD MSTORE PUSH1 0x14 DUP2 ADD SLOAD PUSH2 0x180 DUP7 ADD MSTORE PUSH1 0x15 DUP2 ADD SLOAD PUSH2 0x1A0 DUP7 ADD MSTORE PUSH1 0x16 DUP2 ADD SLOAD PUSH2 0x1C0 DUP7 ADD MSTORE PUSH1 0x17 DUP2 ADD SLOAD PUSH2 0x1E0 DUP7 ADD MSTORE PUSH1 0xFF PUSH1 0x18 DUP3 ADD SLOAD AND ISZERO ISZERO PUSH2 0x200 DUP7 ADD MSTORE ADD SLOAD PUSH2 0x220 DUP5 ADD MSTORE PUSH2 0x100 DUP4 ADD MLOAD MLOAD SWAP2 DUP3 ISZERO PUSH2 0x6106 JUMPI PUSH1 0x0 SWAP1 PUSH1 0x0 SWAP4 PUSH1 0x0 SWAP4 PUSH1 0x0 JUMPDEST DUP3 DUP2 LT PUSH2 0x6000 JUMPI POP POP PUSH1 0x64 DUP2 MUL DUP2 DUP2 DIV PUSH1 0x64 SUB PUSH2 0xF7F JUMPI PUSH2 0x1E0 SWAP2 PUSH2 0x5FEF PUSH2 0x5FF5 SWAP3 PUSH1 0xA0 DUP11 ADD MLOAD SWAP1 PUSH2 0x5A0A JUMP JUMPDEST SWAP5 PUSH2 0x5A0A JUMP JUMPDEST SWAP6 ADD MLOAD SWAP2 SWAP5 SWAP4 SWAP3 SWAP2 SWAP1 JUMP JUMPDEST DUP2 PUSH1 0x0 MSTORE PUSH1 0x5 PUSH1 0x20 MSTORE PUSH1 0x40 PUSH1 0x0 KECCAK256 PUSH1 0x1 DUP1 PUSH1 0xA0 SHL SUB PUSH2 0x6024 DUP4 PUSH2 0x100 DUP13 ADD MLOAD PUSH2 0x59DB JUMP JUMPDEST MLOAD AND PUSH1 0x0 MSTORE PUSH1 0x20 MSTORE PUSH2 0x608D PUSH1 0x40 PUSH1 0x0 KECCAK256 PUSH1 0x40 MLOAD SWAP7 PUSH2 0x6041 DUP9 PUSH2 0x5230 JUMP JUMPDEST DUP2 SLOAD PUSH1 0x1 PUSH1 0x1 PUSH1 0xA0 SHL SUB AND DUP9 MSTORE PUSH1 0x1 DUP3 ADD SLOAD PUSH1 0x20 DUP10 ADD DUP2 SWAP1 MSTORE PUSH1 0x2 DUP4 ADD SLOAD PUSH1 0x40 DUP11 ADD MSTORE PUSH1 0x3 DUP4 ADD SLOAD PUSH1 0x60 DUP11 ADD MSTORE PUSH1 0x4 DUP4 ADD SLOAD PUSH1 0x80 DUP11 ADD MSTORE PUSH1 0x5 SWAP1 SWAP3 ADD SLOAD PUSH1 0xFF AND ISZERO ISZERO PUSH1 0xA0 DUP10 ADD MSTORE PUSH2 0x5571 JUMP JUMPDEST SWAP5 PUSH1 0x60 DUP2 ADD MLOAD ISZERO ISZERO DUP1 PUSH2 0x60FA JUMPI JUMPDEST DUP1 PUSH2 0x60EE JUMPI JUMPDEST PUSH2 0x60D7 JUMPI JUMPDEST PUSH1 0x40 PUSH1 0x2 SWAP2 ADD MLOAD LT ISZERO PUSH2 0x60C2 JUMPI JUMPDEST PUSH2 0x60BD SWAP1 PUSH2 0x56B0 JUMP JUMPDEST PUSH2 0x5FC2 JUMP JUMPDEST SWAP5 PUSH2 0x60CF PUSH2 0x60BD SWAP2 PUSH2 0x56B0 JUMP JUMPDEST SWAP6 SWAP1 POP PUSH2 0x60B4 JUMP JUMPDEST SWAP7 PUSH1 0x40 PUSH2 0x60E5 PUSH1 0x2 SWAP3 PUSH2 0x56B0 JUMP JUMPDEST SWAP9 SWAP2 POP POP PUSH2 0x60A6 JUMP JUMPDEST POP PUSH1 0x40 DUP2 ADD MLOAD ISZERO PUSH2 0x60A1 JUMP JUMPDEST POP PUSH1 0x80 DUP2 ADD MLOAD ISZERO PUSH2 0x609B JUMP JUMPDEST PUSH1 0x0 SWAP4 POP DUP4 SWAP3 POP DUP3 SWAP2 POP DUP2 SWAP1 DUP2 SWAP1 JUMP JUMPDEST PUSH1 0x0 MSTORE PUSH1 0x3 PUSH1 0x20 MSTORE PUSH2 0x612E PUSH1 0x7 PUSH1 0x40 PUSH1 0x0 KECCAK256 ADD PUSH2 0x5835 JUMP JUMPDEST SWAP1 PUSH1 0x0 JUMPDEST DUP3 MLOAD DUP2 LT ISZERO PUSH2 0x616E JUMPI PUSH1 0x1 PUSH1 0x1 PUSH1 0xA0 SHL SUB DUP1 PUSH2 0x614E DUP4 DUP7 PUSH2 0x59DB JUMP JUMPDEST MLOAD AND SWAP1 DUP4 AND EQ PUSH2 0x6166 JUMPI PUSH2 0x6161 SWAP1 PUSH2 0x56B0 JUMP JUMPDEST PUSH2 0x6132 JUMP JUMPDEST POP POP POP PUSH1 0x1 SWAP1 JUMP JUMPDEST POP POP POP PUSH1 0x0 SWAP1 JUMP JUMPDEST SWAP1 PUSH1 0x0 SWAP2 DUP3 MSTORE PUSH1 0x3 SWAP1 DUP2 PUSH1 0x20 MSTORE PUSH1 0x7 PUSH1 0x40 DUP5 KECCAK256 ADD SWAP1 DUP4 JUMPDEST DUP3 SLOAD DUP1 DUP3 LT ISZERO PUSH2 0x6236 JUMPI PUSH2 0x61A1 DUP3 DUP6 PUSH2 0x51DE JUMP JUMPDEST SWAP1 SLOAD PUSH1 0x1 PUSH1 0x1 PUSH1 0xA0 SHL SUB SWAP3 SWAP2 DUP8 SHL SHR DUP3 AND DUP5 DUP4 AND EQ PUSH2 0x61CA JUMPI POP POP PUSH2 0x61C5 SWAP1 PUSH2 0x56B0 JUMP JUMPDEST PUSH2 0x618D JUMP JUMPDEST SWAP3 POP SWAP3 SWAP4 SWAP5 SWAP1 PUSH1 0x0 NOT SWAP3 DUP4 DUP2 ADD SWAP1 DUP2 GT PUSH2 0x5E63 JUMPI SWAP1 PUSH2 0x57A7 DUP6 PUSH2 0x61F0 PUSH2 0x61FE SWAP5 DUP10 PUSH2 0x51DE JUMP JUMPDEST SWAP1 SLOAD SWAP1 DUP11 SHL SHR AND SWAP2 DUP8 PUSH2 0x51DE JUMP JUMPDEST DUP4 SLOAD SWAP1 DUP2 ISZERO PUSH2 0x6222 JUMPI POP ADD SWAP3 PUSH2 0x6214 DUP5 DUP5 PUSH2 0x51DE JUMP JUMPDEST DUP2 SWAP4 SWAP2 SLOAD SWAP3 SHL SHL NOT AND SWAP1 SSTORE SSTORE JUMP JUMPDEST PUSH4 0x4E487B71 PUSH1 0xE0 SHL DUP2 MSTORE PUSH1 0x31 PUSH1 0x4 MSTORE PUSH1 0x24 SWAP1 REVERT JUMPDEST POP POP POP POP POP POP JUMP INVALID 0xDF 0xB0 EXTCODESIZE EXTCODESIZE 0xEE 0xE0 0x4D 0xE7 0xB1 0x4A 0xBD RETURNDATACOPY 0x28 DUP12 0xA8 STOP 0xB7 0xAA 0xA6 SWAP16 JUMPDEST SWAP16 DUP15 0xE9 INVALID CALLDATASIZE SAR 0xD2 0x4D 0x4C MULMOD DUP14 MSTORE 0xB0 CALLDATASIZE PUSH1 0xDF SWAP15 PC 0xE6 0xA5 MLOAD SWAP16 MOD PUSH10 0x33B571653CE7309B41E9 0xE1 PUSH19 0xA00A429D5F11AE51E7B7715627110F62280AC0 RETURNDATASIZE PUSH6 0x6C8DBD6ADB8F 0xC 0x4A 0xCB 0xBF 0xB4 0xB9 0xED MULMOD 0x4E RETURNDATASIZE SIGNEXTEND 0xE2 LOG4 0xDE PUSH5 0xF8ECE5E3D0 0xE0 SMOD SWAP5 DUP6 PUSH28 0xF4663D0774D75EFC197695FA248F3F3E0B43E97A227E0E50D43CCBA3 GASPRICE 0xE2 0xDA DUP1 SSTORE EXTCODEHASH 0xEE 0xCF 0xE2 POP 0xCB GASLIMIT COINBASE JUMP 0xC8 0xD1 0xD7 REVERT MSTORE8 0xE8 EXP PUSH14 0x169DADF9E0A46D44D7F45907190D 0xC 0xF 0xDB 0xF8 CALLER 0xF9 SAR SWAP12 0x4B PUSH21 0x78BAD96964BB98372CA2646970667358221220502B SAR PUSH17 0xD0634182BB259D54CF0393823044219ADE MULMOD CALLDATALOAD 0xD6 DUP4 PREVRANDAO 0x49 0x1E 0xDC PUSH16 0x5EC364736F6C63430008140033000000 "},"methodIdentifiers":{"CREDIT_DEFAULT()":"49c7032d","CREDIT_LATE()":"05bcca8c","CREDIT_ON_TIME()":"f3d25fc5","EMERGENCY_CAP_PCT()":"5def8d83","EMERGENCY_EXTRA()":"d3f514ca","EMERGENCY_WINDOW()":"31c19d50","ETH_TO_INR()":"90657587","FILL_DEADLINE()":"7f08ee7c","INTEREST_RATE()":"5b72a33a","KICK_WINDOW()":"46013b73","LATE_FEE_PER_DAY()":"5a45d69b","MAX_SIZE()":"8d67799e","MIN_SIZE()":"45dcd02c","MISS_LIMIT()":"23e955d8","MONTH()":"d5999a5c","VOTE_WINDOW()":"469a78d2","activeEmergencyGroup(address)":"ddf1a681","activeKick(uint256,address)":"42d3d77f","admin()":"f851a440","approveGroup(uint256)":"1faba943","castVote(uint256,address)":"77df41b7","checkAndMarkMissed(uint256)":"4aa5f1e2","createGroup(string,uint256,uint256,bool,address[])":"b5555a3d","emergencyRequests(uint256,uint256)":"7d888499","emergencyVoted(uint256,uint256,address)":"a5d03381","emiPaid(uint256,uint256,address)":"6cacddb6","ethToINR(uint256)":"938ce87e","expireGroup(uint256)":"06911660","getCreditScore(uint256,address)":"935d2ed0","getEMI(uint256)":"36b8c126","getEMIinINR(uint256)":"8746a4be","getGroupCount()":"06545a93","getGroupHealth(uint256)":"de21901a","getGroupMetrics(uint256)":"3e737a72","getGroupROI(uint256)":"99c49938","getInvitedList(uint256)":"a673cee6","getLateFee(uint256)":"53b7e0e5","getMemberInfo(uint256,address)":"1e67939e","getMembers(uint256)":"c477ecab","getMyInvites(address)":"7728c709","getMyPrivateInvites(address)":"a4db91b9","getNextDueTime(uint256)":"f62da739","getOpenGroups()":"95ad7d2e","getPendingGroups()":"612e6754","getPoolBalance(uint256)":"ed1375d5","getPoolInINR(uint256)":"6a47f8e8","getProfitBalance(uint256,address)":"a415d2f4","getRemainingMonths(uint256)":"dfd99358","getTrustScore(uint256,address)":"c046cd38","getVoteCount(uint256,address)":"8169bb73","groupCount()":"8f23b326","groupInvites(uint256,address)":"f5b02926","groups(uint256)":"96324bd4","hasVoted(uint256,address)":"43859632","inGroup(address)":"2048cba4","inviteMember(uint256,address)":"9e6d6830","invitedList(uint256,uint256)":"74bf5392","isInvited(uint256,address)":"12e81b80","joinGroup(uint256)":"eed02e4b","kickRequests(uint256,uint256)":"15a9313e","kickVoted(uint256,uint256,address)":"c04977d3","leaveGroup(uint256)":"33471df5","memberGroup(address)":"ebe59152","memberInfo(uint256,address)":"07e079d3","pause()":"8456cb59","paused()":"5c975abb","payEMI(uint256)":"73370600","profitBalance(uint256,address)":"b6eb3afc","raiseEmergency(uint256,uint256,string)":"cf6a77d5","raiseKick(uint256,address)":"0eb8d824","rejectGroup(uint256)":"ca61b301","releaseFunds(uint256)":"4d68282f","repayEmergency(uint256,uint256)":"6433b9b3","resolveEmergency(uint256,uint256)":"29fe0bda","resolveKick(uint256,uint256)":"c648fe8e","resolveVote(uint256)":"30f4ccac","revokeInvite(uint256,address)":"87b67393","startVoting(uint256)":"3d2f5bda","unpause()":"3f4ba83a","voteEmergency(uint256,uint256,bool)":"63c1f262","voteKick(uint256,uint256,bool)":"e517dd1a","votesReceived(uint256,address)":"33dd6bed","withdrawAllProfit(uint256)":"8115f4ff","withdrawPartialProfit(uint256,uint256)":"e7aae115"}}}}}