{"contracts/CommunityFinance.sol":{"CommunityFinance":{"abi":[{"inputs":[],"stateMutability":"nonpayable","type":"constructor"},{"anonymous":false,"inputs":[{"indexed":true,"internalType":"uint256","name":"gid","type":"uint256"},{"indexed":false,"internalType":"address","name":"borrower","type":"address"},{"indexed":false,"internalType":"bool","name":"wasTie","type":"bool"}],"name":"BorrowerSelected","type":"event"},{"anonymous":false,"inputs":[{"indexed":true,"internalType":"uint256","name":"gid","type":"uint256"},{"indexed":false,"internalType":"address","name":"member","type":"address"},{"indexed":false,"internalType":"uint256","name":"newScore","type":"uint256"}],"name":"CreditUpdated","type":"event"},{"anonymous":false,"inputs":[{"indexed":true,"internalType":"uint256","name":"gid","type":"uint256"},{"indexed":false,"internalType":"address","name":"borrower","type":"address"},{"indexed":false,"internalType":"uint256","name":"amount","type":"uint256"},{"indexed":false,"internalType":"uint256","name":"month","type":"uint256"},{"indexed":false,"internalType":"uint256","name":"lateFee","type":"uint256"}],"name":"EMIPaid","type":"event"},{"anonymous":false,"inputs":[{"indexed":true,"internalType":"uint256","name":"gid","type":"uint256"},{"indexed":true,"internalType":"uint256","name":"rid","type":"uint256"},{"indexed":false,"internalType":"address","name":"requester","type":"address"},{"indexed":false,"internalType":"uint256","name":"amount","type":"uint256"}],"name":"EmergencyReleased","type":"event"},{"anonymous":false,"inputs":[{"indexed":true,"internalType":"uint256","name":"gid","type":"uint256"},{"indexed":true,"internalType":"uint256","name":"rid","type":"uint256"},{"indexed":false,"internalType":"address","name":"requester","type":"address"},{"indexed":false,"internalType":"uint256","name":"amount","type":"uint256"}],"name":"EmergencyRepaid","type":"event"},{"anonymous":false,"inputs":[{"indexed":true,"internalType":"uint256","name":"gid","type":"uint256"},{"indexed":true,"internalType":"uint256","name":"rid","type":"uint256"},{"indexed":false,"internalType":"address","name":"requester","type":"address"},{"indexed":false,"internalType":"uint256","name":"amount","type":"uint256"},{"indexed":false,"internalType":"string","name":"reason","type":"string"}],"name":"EmergencyRequested","type":"event"},{"anonymous":false,"inputs":[{"indexed":true,"internalType":"uint256","name":"gid","type":"uint256"},{"indexed":true,"internalType":"uint256","name":"rid","type":"uint256"},{"indexed":false,"internalType":"bool","name":"approved","type":"bool"},{"indexed":false,"internalType":"uint256","name":"yes","type":"uint256"},{"indexed":false,"internalType":"uint256","name":"no","type":"uint256"}],"name":"EmergencyResolved","type":"event"},{"anonymous":false,"inputs":[{"indexed":true,"internalType":"uint256","name":"gid","type":"uint256"},{"indexed":true,"internalType":"uint256","name":"rid","type":"uint256"},{"indexed":false,"internalType":"address","name":"voter","type":"address"},{"indexed":false,"internalType":"bool","name":"support","type":"bool"}],"name":"EmergencyVoteCast","type":"event"},{"anonymous":false,"inputs":[{"indexed":true,"internalType":"uint256","name":"gid","type":"uint256"}],"name":"GroupApproved","type":"event"},{"anonymous":false,"inputs":[{"indexed":true,"internalType":"uint256","name":"gid","type":"uint256"},{"indexed":false,"internalType":"string","name":"reason","type":"string"}],"name":"GroupClosed","type":"event"},{"anonymous":false,"inputs":[{"indexed":true,"internalType":"uint256","name":"gid","type":"uint256"},{"indexed":false,"internalType":"address","name":"creator","type":"address"},{"indexed":false,"internalType":"string","name":"name","type":"string"},{"indexed":false,"internalType":"uint256","name":"contribution","type":"uint256"},{"indexed":false,"internalType":"uint256","name":"maxSize","type":"uint256"},{"indexed":false,"internalType":"uint256","name":"tenure","type":"uint256"},{"indexed":false,"internalType":"bool","name":"isPrivate","type":"bool"}],"name":"GroupCreated","type":"event"},{"anonymous":false,"inputs":[{"indexed":true,"internalType":"uint256","name":"gid","type":"uint256"}],"name":"GroupRejected","type":"event"},{"anonymous":false,"inputs":[{"indexed":true,"internalType":"uint256","name":"gid","type":"uint256"},{"indexed":true,"internalType":"address","name":"invitee","type":"address"}],"name":"InviteRevoked","type":"event"},{"anonymous":false,"inputs":[{"indexed":true,"internalType":"uint256","name":"gid","type":"uint256"},{"indexed":true,"internalType":"uint256","name":"kid","type":"uint256"},{"indexed":false,"internalType":"address","name":"target","type":"address"},{"indexed":false,"internalType":"address","name":"raisedBy","type":"address"}],"name":"KickRaised","type":"event"},{"anonymous":false,"inputs":[{"indexed":true,"internalType":"uint256","name":"gid","type":"uint256"},{"indexed":true,"internalType":"uint256","name":"kid","type":"uint256"},{"indexed":false,"internalType":"address","name":"target","type":"address"},{"indexed":false,"internalType":"bool","name":"kicked","type":"bool"}],"name":"KickResolved","type":"event"},{"anonymous":false,"inputs":[{"indexed":true,"internalType":"uint256","name":"gid","type":"uint256"},{"indexed":true,"internalType":"uint256","name":"kid","type":"uint256"},{"indexed":false,"internalType":"address","name":"voter","type":"address"},{"indexed":false,"internalType":"bool","name":"support","type":"bool"}],"name":"KickVoteCast","type":"event"},{"anonymous":false,"inputs":[{"indexed":true,"internalType":"uint256","name":"gid","type":"uint256"},{"indexed":false,"internalType":"address","name":"borrower","type":"address"},{"indexed":false,"internalType":"uint256","name":"amount","type":"uint256"}],"name":"LoanReleased","type":"event"},{"anonymous":false,"inputs":[{"indexed":true,"internalType":"uint256","name":"gid","type":"uint256"},{"indexed":true,"internalType":"address","name":"invitee","type":"address"}],"name":"MemberInvited","type":"event"},{"anonymous":false,"inputs":[{"indexed":true,"internalType":"uint256","name":"gid","type":"uint256"},{"indexed":false,"internalType":"address","name":"member","type":"address"}],"name":"MemberJoined","type":"event"},{"anonymous":false,"inputs":[{"indexed":false,"internalType":"address","name":"account","type":"address"}],"name":"Paused","type":"event"},{"anonymous":false,"inputs":[{"indexed":true,"internalType":"uint256","name":"gid","type":"uint256"},{"indexed":false,"internalType":"address","name":"member","type":"address"},{"indexed":false,"internalType":"uint256","name":"amount","type":"uint256"}],"name":"ProfitWithdrawn","type":"event"},{"anonymous":false,"inputs":[{"indexed":false,"internalType":"address","name":"account","type":"address"}],"name":"Unpaused","type":"event"},{"anonymous":false,"inputs":[{"indexed":true,"internalType":"uint256","name":"gid","type":"uint256"},{"indexed":false,"internalType":"address","name":"voter","type":"address"},{"indexed":false,"internalType":"address","name":"candidate","type":"address"}],"name":"VoteCast","type":"event"},{"anonymous":false,"inputs":[{"indexed":true,"internalType":"uint256","name":"gid","type":"uint256"},{"indexed":false,"internalType":"uint256","name":"endTime","type":"uint256"}],"name":"VotingStarted","type":"event"},{"inputs":[],"name":"CREDIT_DEFAULT","outputs":[{"internalType":"uint256","name":"","type":"uint256"}],"stateMutability":"view","type":"function"},{"inputs":[],"name":"CREDIT_LATE","outputs":[{"internalType":"uint256","name":"","type":"uint256"}],"stateMutability":"view","type":"function"},{"inputs":[],"name":"CREDIT_ON_TIME","outputs":[{"internalType":"uint256","name":"","type":"uint256"}],"stateMutability":"view","type":"function"},{"inputs":[],"name":"EMERGENCY_CAP_PCT","outputs":[{"internalType":"uint256","name":"","type":"uint256"}],"stateMutability":"view","type":"function"},{"inputs":[],"name":"EMERGENCY_EXTRA","outputs":[{"internalType":"uint256","name":"","type":"uint256"}],"stateMutability":"view","type":"function"},{"inputs":[],"name":"EMERGENCY_WINDOW","outputs":[{"internalType":"uint256","name":"","type":"uint256"}],"stateMutability":"view","type":"function"},{"inputs":[],"name":"ETH_TO_INR","outputs":[{"internalType":"uint256","name":"","type":"uint256"}],"stateMutability":"view","type":"function"},{"inputs":[],"name":"FILL_DEADLINE","outputs":[{"internalType":"uint256","name":"","type":"uint256"}],"stateMutability":"view","type":"function"},{"inputs":[],"name":"INTEREST_RATE","outputs":[{"internalType":"uint256","name":"","type":"uint256"}],"stateMutability":"view","type":"function"},{"inputs":[],"name":"KICK_WINDOW","outputs":[{"internalType":"uint256","name":"","type":"uint256"}],"stateMutability":"view","type":"function"},{"inputs":[],"name":"LATE_FEE_PER_DAY","outputs":[{"internalType":"uint256","name":"","type":"uint256"}],"stateMutability":"view","type":"function"},{"inputs":[],"name":"MAX_SIZE","outputs":[{"internalType":"uint256","name":"","type":"uint256"}],"stateMutability":"view","type":"function"},{"inputs":[],"name":"MIN_SIZE","outputs":[{"internalType":"uint256","name":"","type":"uint256"}],"stateMutability":"view","type":"function"},{"inputs":[],"name":"MISS_LIMIT","outputs":[{"internalType":"uint256","name":"","type":"uint256"}],"stateMutability":"view","type":"function"},{"inputs":[],"name":"MONTH","outputs":[{"internalType":"uint256","name":"","type":"uint256"}],"stateMutability":"view","type":"function"},{"inputs":[],"name":"VOTE_WINDOW","outputs":[{"internalType":"uint256","name":"","type":"uint256"}],"stateMutability":"view","type":"function"},{"inputs":[{"internalType":"address","name":"","type":"address"}],"name":"activeEmergencyGroup","outputs":[{"internalType":"uint256","name":"","type":"uint256"}],"stateMutability":"view","type":"function"},{"inputs":[{"internalType":"uint256","name":"","type":"uint256"},{"internalType":"address","name":"","type":"address"}],"name":"activeKick","outputs":[{"internalType":"uint256","name":"","type":"uint256"}],"stateMutability":"view","type":"function"},{"inputs":[],"name":"admin","outputs":[{"internalType":"address","name":"","type":"address"}],"stateMutability":"view","type":"function"},{"inputs":[{"internalType":"uint256","name":"gid","type":"uint256"}],"name":"approveGroup","outputs":[],"stateMutability":"nonpayable","type":"function"},{"inputs":[{"internalType":"uint256","name":"gid","type":"uint256"},{"internalType":"address","name":"candidate","type":"address"}],"name":"castVote","outputs":[],"stateMutability":"nonpayable","type":"function"},{"inputs":[{"internalType":"string","name":"name","type":"string"},{"internalType":"uint256","name":"maxSize","type":"uint256"},{"internalType":"uint256","name":"tenure","type":"uint256"},{"internalType":"bool","name":"isPrivate","type":"bool"},{"internalType":"address[]","name":"invites","type":"address[]"}],"name":"createGroup","outputs":[],"stateMutability":"payable","type":"function"},{"inputs":[{"internalType":"uint256","name":"","type":"uint256"},{"internalType":"uint256","name":"","type":"uint256"}],"name":"emergencyRequests","outputs":[{"internalType":"uint256","name":"id","type":"uint256"},{"internalType":"address","name":"requester","type":"address"},{"internalType":"uint256","name":"amount","type":"uint256"},{"internalType":"string","name":"reason","type":"string"},{"internalType":"uint256","name":"endTime","type":"uint256"},{"internalType":"uint256","name":"yesVotes","type":"uint256"},{"internalType":"uint256","name":"noVotes","type":"uint256"},{"internalType":"bool","name":"resolved","type":"bool"},{"internalType":"bool","name":"approved","type":"bool"},{"internalType":"bool","name":"repaid","type":"bool"},{"internalType":"uint256","name":"repayBy","type":"uint256"}],"stateMutability":"view","type":"function"},{"inputs":[{"internalType":"uint256","name":"","type":"uint256"},{"internalType":"uint256","name":"","type":"uint256"},{"internalType":"address","name":"","type":"address"}],"name":"emergencyVoted","outputs":[{"internalType":"bool","name":"","type":"bool"}],"stateMutability":"view","type":"function"},{"inputs":[{"internalType":"uint256","name":"","type":"uint256"},{"internalType":"uint256","name":"","type":"uint256"},{"internalType":"address","name":"","type":"address"}],"name":"emiPaid","outputs":[{"internalType":"bool","name":"","type":"bool"}],"stateMutability":"view","type":"function"},{"inputs":[{"internalType":"uint256","name":"ethAmount","type":"uint256"}],"name":"ethToINR","outputs":[{"internalType":"uint256","name":"","type":"uint256"}],"stateMutability":"pure","type":"function"},{"inputs":[{"internalType":"uint256","name":"gid","type":"uint256"}],"name":"expireGroup","outputs":[],"stateMutability":"nonpayable","type":"function"},{"inputs":[{"internalType":"uint256","name":"gid","type":"uint256"},{"internalType":"address","name":"member","type":"address"}],"name":"getCreditScore","outputs":[{"internalType":"uint256","name":"","type":"uint256"}],"stateMutability":"view","type":"function"},{"inputs":[{"internalType":"uint256","name":"gid","type":"uint256"}],"name":"getEMI","outputs":[{"internalType":"uint256","name":"","type":"uint256"}],"stateMutability":"view","type":"function"},{"inputs":[{"internalType":"uint256","name":"gid","type":"uint256"}],"name":"getEMIinINR","outputs":[{"internalType":"uint256","name":"","type":"uint256"}],"stateMutability":"view","type":"function"},{"inputs":[],"name":"getGroupCount","outputs":[{"internalType":"uint256","name":"","type":"uint256"}],"stateMutability":"view","type":"function"},{"inputs":[{"internalType":"uint256","name":"gid","type":"uint256"}],"name":"getInvitedList","outputs":[{"internalType":"address[]","name":"","type":"address[]"}],"stateMutability":"view","type":"function"},{"inputs":[{"internalType":"uint256","name":"gid","type":"uint256"}],"name":"getLateFee","outputs":[{"internalType":"uint256","name":"","type":"uint256"}],"stateMutability":"view","type":"function"},{"inputs":[{"internalType":"uint256","name":"gid","type":"uint256"},{"internalType":"address","name":"member","type":"address"}],"name":"getMemberInfo","outputs":[{"internalType":"uint256","name":"creditScore","type":"uint256"},{"internalType":"uint256","name":"missed","type":"uint256"},{"internalType":"uint256","name":"onTime","type":"uint256"},{"internalType":"uint256","name":"late","type":"uint256"}],"stateMutability":"view","type":"function"},{"inputs":[{"internalType":"uint256","name":"gid","type":"uint256"}],"name":"getMembers","outputs":[{"internalType":"address[]","name":"","type":"address[]"}],"stateMutability":"view","type":"function"},{"inputs":[{"internalType":"address","name":"user","type":"address"}],"name":"getMyInvites","outputs":[{"internalType":"uint256[]","name":"","type":"uint256[]"}],"stateMutability":"view","type":"function"},{"inputs":[{"internalType":"uint256","name":"gid","type":"uint256"}],"name":"getNextDueTime","outputs":[{"internalType":"uint256","name":"","type":"uint256"}],"stateMutability":"view","type":"function"},{"inputs":[],"name":"getOpenGroups","outputs":[{"internalType":"uint256[]","name":"","type":"uint256[]"}],"stateMutability":"view","type":"function"},{"inputs":[],"name":"getPendingGroups","outputs":[{"internalType":"uint256[]","name":"","type":"uint256[]"}],"stateMutability":"view","type":"function"},{"inputs":[{"internalType":"uint256","name":"gid","type":"uint256"}],"name":"getPoolBalance","outputs":[{"internalType":"uint256","name":"","type":"uint256"}],"stateMutability":"view","type":"function"},{"inputs":[{"internalType":"uint256","name":"gid","type":"uint256"}],"name":"getPoolInINR","outputs":[{"internalType":"uint256","name":"","type":"uint256"}],"stateMutability":"view","type":"function"},{"inputs":[{"internalType":"uint256","name":"gid","type":"uint256"},{"internalType":"address","name":"member","type":"address"}],"name":"getProfitBalance","outputs":[{"internalType":"uint256","name":"","type":"uint256"}],"stateMutability":"view","type":"function"},{"inputs":[{"internalType":"uint256","name":"gid","type":"uint256"}],"name":"getRemainingMonths","outputs":[{"internalType":"uint256","name":"","type":"uint256"}],"stateMutability":"view","type":"function"},{"inputs":[{"internalType":"uint256","name":"gid","type":"uint256"},{"internalType":"address","name":"candidate","type":"address"}],"name":"getVoteCount","outputs":[{"internalType":"uint256","name":"","type":"uint256"}],"stateMutability":"view","type":"function"},{"inputs":[],"name":"groupCount","outputs":[{"internalType":"uint256","name":"","type":"uint256"}],"stateMutability":"view","type":"function"},{"inputs":[{"internalType":"uint256","name":"","type":"uint256"},{"internalType":"address","name":"","type":"address"}],"name":"groupInvites","outputs":[{"internalType":"bool","name":"","type":"bool"}],"stateMutability":"view","type":"function"},{"inputs":[{"internalType":"uint256","name":"","type":"uint256"}],"name":"groups","outputs":[{"internalType":"uint256","name":"id","type":"uint256"},{"internalType":"string","name":"name","type":"string"},{"internalType":"address","name":"creator","type":"address"},{"internalType":"enum CommunityFinance.GroupStatus","name":"status","type":"uint8"},{"internalType":"uint256","name":"contribution","type":"uint256"},{"internalType":"uint256","name":"maxSize","type":"uint256"},{"internalType":"uint256","name":"tenure","type":"uint256"},{"internalType":"uint256","name":"fillDeadline","type":"uint256"},{"internalType":"address","name":"borrower","type":"address"},{"components":[{"internalType":"uint256","name":"principal","type":"uint256"},{"internalType":"uint256","name":"monthlyInterest","type":"uint256"},{"internalType":"uint256","name":"monthlyPrincipal","type":"uint256"},{"internalType":"uint256","name":"monthsPaid","type":"uint256"},{"internalType":"uint256","name":"lastPaymentTime","type":"uint256"},{"internalType":"uint256","name":"nextDueTime","type":"uint256"},{"internalType":"bool","name":"active","type":"bool"}],"internalType":"struct CommunityFinance.Loan","name":"loan","type":"tuple"},{"components":[{"internalType":"enum CommunityFinance.VoteState","name":"state","type":"uint8"},{"internalType":"uint256","name":"endTime","type":"uint256"},{"internalType":"uint256","name":"totalCast","type":"uint256"},{"internalType":"address","name":"winner","type":"address"},{"internalType":"bool","name":"wasTie","type":"bool"}],"internalType":"struct CommunityFinance.VoteRound","name":"voteRound","type":"tuple"},{"internalType":"uint256","name":"emergencyCount","type":"uint256"},{"internalType":"uint256","name":"kickCount","type":"uint256"},{"internalType":"uint256","name":"totalPool","type":"uint256"},{"internalType":"uint256","name":"profitPool","type":"uint256"},{"internalType":"bool","name":"isPrivate","type":"bool"}],"stateMutability":"view","type":"function"},{"inputs":[{"internalType":"uint256","name":"","type":"uint256"},{"internalType":"address","name":"","type":"address"}],"name":"hasVoted","outputs":[{"internalType":"bool","name":"","type":"bool"}],"stateMutability":"view","type":"function"},{"inputs":[{"internalType":"address","name":"","type":"address"}],"name":"inGroup","outputs":[{"internalType":"bool","name":"","type":"bool"}],"stateMutability":"view","type":"function"},{"inputs":[{"internalType":"uint256","name":"gid","type":"uint256"},{"internalType":"address","name":"invitee","type":"address"}],"name":"inviteMember","outputs":[],"stateMutability":"nonpayable","type":"function"},{"inputs":[{"internalType":"uint256","name":"","type":"uint256"},{"internalType":"uint256","name":"","type":"uint256"}],"name":"invitedList","outputs":[{"internalType":"address","name":"","type":"address"}],"stateMutability":"view","type":"function"},{"inputs":[{"internalType":"uint256","name":"gid","type":"uint256"}],"name":"joinGroup","outputs":[],"stateMutability":"payable","type":"function"},{"inputs":[{"internalType":"uint256","name":"","type":"uint256"},{"internalType":"uint256","name":"","type":"uint256"}],"name":"kickRequests","outputs":[{"internalType":"uint256","name":"id","type":"uint256"},{"internalType":"address","name":"target","type":"address"},{"internalType":"address","name":"raisedBy","type":"address"},{"internalType":"uint256","name":"endTime","type":"uint256"},{"internalType":"uint256","name":"yesVotes","type":"uint256"},{"internalType":"uint256","name":"noVotes","type":"uint256"},{"internalType":"bool","name":"resolved","type":"bool"},{"internalType":"bool","name":"approved","type":"bool"}],"stateMutability":"view","type":"function"},{"inputs":[{"internalType":"uint256","name":"","type":"uint256"},{"internalType":"uint256","name":"","type":"uint256"},{"internalType":"address","name":"","type":"address"}],"name":"kickVoted","outputs":[{"internalType":"bool","name":"","type":"bool"}],"stateMutability":"view","type":"function"},{"inputs":[{"internalType":"address","name":"","type":"address"}],"name":"memberGroup","outputs":[{"internalType":"uint256","name":"","type":"uint256"}],"stateMutability":"view","type":"function"},{"inputs":[{"internalType":"uint256","name":"","type":"uint256"},{"internalType":"address","name":"","type":"address"}],"name":"memberInfo","outputs":[{"internalType":"address","name":"wallet","type":"address"},{"internalType":"uint256","name":"creditScore","type":"uint256"},{"internalType":"uint256","name":"missedEMIs","type":"uint256"},{"internalType":"uint256","name":"onTimeEMIs","type":"uint256"},{"internalType":"uint256","name":"lateEMIs","type":"uint256"},{"internalType":"bool","name":"active","type":"bool"}],"stateMutability":"view","type":"function"},{"inputs":[],"name":"pause","outputs":[],"stateMutability":"nonpayable","type":"function"},{"inputs":[],"name":"paused","outputs":[{"internalType":"bool","name":"","type":"bool"}],"stateMutability":"view","type":"function"},{"inputs":[{"internalType":"uint256","name":"gid","type":"uint256"}],"name":"payEMI","outputs":[],"stateMutability":"payable","type":"function"},{"inputs":[{"internalType":"uint256","name":"","type":"uint256"},{"internalType":"address","name":"","type":"address"}],"name":"profitBalance","outputs":[{"internalType":"uint256","name":"","type":"uint256"}],"stateMutability":"view","type":"function"},{"inputs":[{"internalType":"uint256","name":"gid","type":"uint256"},{"internalType":"uint256","name":"amount","type":"uint256"},{"internalType":"string","name":"reason","type":"string"}],"name":"raiseEmergency","outputs":[],"stateMutability":"nonpayable","type":"function"},{"inputs":[{"internalType":"uint256","name":"gid","type":"uint256"},{"internalType":"address","name":"target","type":"address"}],"name":"raiseKick","outputs":[],"stateMutability":"nonpayable","type":"function"},{"inputs":[{"internalType":"uint256","name":"gid","type":"uint256"}],"name":"rejectGroup","outputs":[],"stateMutability":"nonpayable","type":"function"},{"inputs":[{"internalType":"uint256","name":"gid","type":"uint256"}],"name":"releaseFunds","outputs":[],"stateMutability":"nonpayable","type":"function"},{"inputs":[{"internalType":"uint256","name":"gid","type":"uint256"},{"internalType":"uint256","name":"rid","type":"uint256"}],"name":"repayEmergency","outputs":[],"stateMutability":"payable","type":"function"},{"inputs":[{"internalType":"uint256","name":"gid","type":"uint256"},{"internalType":"uint256","name":"rid","type":"uint256"}],"name":"resolveEmergency","outputs":[],"stateMutability":"nonpayable","type":"function"},{"inputs":[{"internalType":"uint256","name":"gid","type":"uint256"},{"internalType":"uint256","name":"kid","type":"uint256"}],"name":"resolveKick","outputs":[],"stateMutability":"nonpayable","type":"function"},{"inputs":[{"internalType":"uint256","name":"gid","type":"uint256"}],"name":"resolveVote","outputs":[],"stateMutability":"nonpayable","type":"function"},{"inputs":[{"internalType":"uint256","name":"gid","type":"uint256"},{"internalType":"address","name":"invitee","type":"address"}],"name":"revokeInvite","outputs":[],"stateMutability":"nonpayable","type":"function"},{"inputs":[{"internalType":"uint256","name":"gid","type":"uint256"}],"name":"startVoting","outputs":[],"stateMutability":"nonpayable","type":"function"},{"inputs":[],"name":"unpause","outputs":[],"stateMutability":"nonpayable","type":"function"},{"inputs":[{"internalType":"uint256","name":"gid","type":"uint256"},{"internalType":"uint256","name":"rid","type":"uint256"},{"internalType":"bool","name":"support","type":"bool"}],"name":"voteEmergency","outputs":[],"stateMutability":"nonpayable","type":"function"},{"inputs":[{"internalType":"uint256","name":"gid","type":"uint256"},{"internalType":"uint256","name":"kid","type":"uint256"},{"internalType":"bool","name":"support","type":"bool"}],"name":"voteKick","outputs":[],"stateMutability":"nonpayable","type":"function"},{"inputs":[{"internalType":"uint256","name":"","type":"uint256"},{"internalType":"address","name":"","type":"address"}],"name":"votesReceived","outputs":[{"internalType":"uint256","name":"","type":"uint256"}],"stateMutability":"view","type":"function"},{"inputs":[{"internalType":"uint256","name":"gid","type":"uint256"}],"name":"withdrawAllProfit","outputs":[],"stateMutability":"nonpayable","type":"function"},{"inputs":[{"internalType":"uint256","name":"gid","type":"uint256"},{"internalType":"uint256","name":"amount","type":"uint256"}],"name":"withdrawPartialProfit","outputs":[],"stateMutability":"nonpayable","type":"function"},{"stateMutability":"payable","type":"receive"}],"evm":{"bytecode":{"linkReferences":{},"object":"6080806040523461003b576001600081905580546001600160a81b0319163360081b610100600160a81b03161790556156659081620000418239f35b600080fdfe6080604052600436101561001b575b361561001957600080fd5b005b60003560e01c806305bcca8c146149bf57806306545a931461228757806306911660146147bc57806307e079d3146147355780630eb8d8241461440f57806315a9313e1461437d5780631e67939e146142d85780631faba943146141fa5780632048cba4146141bb57806323e955d81461347f57806329fe0bda14613f4d57806330f4ccac14613ab557806331c19d50146136c057806333dd6bed146124b957806336b8c12614613a755780633d2f5bda146137fe5780633f4ba83a1461375a57806342d3d77f1461371257806343859632146136c557806345dcd02c1461347f57806346013b73146136c0578063469a78d2146136c057806349c7032d146136a45780634d68282f146134a257806353b7e0e5146134845780635a45d69b1461347f5780635b72a33a1461347a5780635c975abb146134575780635def8d831461343b578063612e67541461337557806363c1f262146132075780636433b9b314612f695780636a47f8e814612f3a5780636cacddb614612eee5780637337060014612b2557806374bf539214612adb5780637728c7091461295157806377df41b7146126f25780637d888499146126265780637f08ee7c146126085780638115f4ff146125015780638169bb73146124b95780638456cb59146124505780638746a4be1461240857806387b67393146122c15780638d67799e146122a55780638f23b326146122875780639065758714612269578063935d2ed01461221e578063938ce87e1461220057806395ad7d2e146120c757806396324bd414611f125780639e6d683014611caa578063a415d2f41461151e578063a5d0338114611c5e578063a673cee614611c32578063b5555a3d14611566578063b6eb3afc1461151e578063c04977d3146114d2578063c477ecab14611493578063c648fe8e1461114a578063ca61b30114611041578063cf6a77d514610ba9578063d3f514ca14610b8d578063d5999a5c14610b71578063ddf1a68114610b37578063dfd9935814610b11578063e517dd1a14610950578063e7aae115146107f9578063ebe59152146107bf578063ed1375d514610790578063eed02e4b1461042e578063f3d25fc514610412578063f5b02926146103c5578063f62da739146103965763f851a4400361000e57346103915760003660031901126103915760015460405160089190911c6001600160a01b03168152602090f35b600080fd5b346103915760203660031901126103915760043560005260036020526020600e60406000200154604051908152f35b34610391576040366003190112610391576103de6149db565b600435600052601260205260406000209060018060a01b0316600052602052602060ff604060002054166040519015158152f35b34610391576000366003190112610391576020604051600a8152f35b6020806003193601126103915760043590610447614f3b565b81151580610784575b61045990614dd4565b816000526003815260ff60026040600020015460a01c16600481101561076e576001610485911461509c565b61048d614ee5565b81600052600381526040600020336000526011825260ff6040600020541661073457600781018054600483015411156106ff57600382015434036106c757600682015442116106825760ff6018830154166105f0575b7f78da64a590c3052953ad9e0a5546bbf12bb68ae7634e3fb2a774e22a8c6557c192916105136016923390615053565b0161051f348254614e51565b9055336000526010815282604060002055601181526040600020600160ff198254161790556105e260405161055381614b30565b3381526005838201606481526040830160008152606084016000815260808501916000835260a0860193600185528a600052858952604060002033600052895260406000209660018060a01b039051166001600160601b0360a01b88541617875551600187015551600286015551600385015551600484015551151591019060ff801983541691151516179055565b604051338152a26001600055005b8360005260128352604060002033600052835260ff604060002054161561063357600084815260128452604080822033835285529020805460ff191690556104e3565b60405162461bcd60e51b815260048101849052602160248201527f4e6f7420696e766974656420746f207468697320707269766174652067726f756044820152600760fc1b6064820152608490fd5b60405162461bcd60e51b815260048101849052601a60248201527f47726f75702066696c6c20646561646c696e65207061737365640000000000006044820152606490fd5b60405162461bcd60e51b815260048101849052601060248201526f15dc9bdb99c811551208185b5bdd5b9d60821b6044820152606490fd5b60405162461bcd60e51b815260048101849052600d60248201526c11dc9bdd5c081a5cc8199d5b1b609a1b6044820152606490fd5b60405162461bcd60e51b81526004810183905260126024820152710416c726561647920696e20612067726f75760741b6044820152606490fd5b634e487b7160e01b600052602160045260246000fd5b50600254821115610450565b346103915760203660031901126103915760043560005260036020526020601660406000200154604051908152f35b34610391576020366003190112610391576001600160a01b036107e06149f1565b1660005260106020526020604060002054604051908152f35b346103915761080736614a07565b61080f614f3b565b81151580610944575b61082190614dd4565b61083361082e33846155cf565b615135565b61083b614ee5565b6108468115156152d5565b816000526020600481526040600020336000528152816040600020541061090a577f9dadf9e0a46d44d7f45907190d0c0fdbf833f91d9b4b7478bad96964bb98372c916003610900928560005260048152604060002033600052815260406000206108b2848254615280565b9055856000525260176040600020016108cc828254615280565b90556108e8600080808085335af16108e2614e79565b50615297565b60408051338152602081019290925290918291820190565b0390a26001600055005b6064906040519062461bcd60e51b825260048201526013602482015272125b9cdd59999a58da595b9d081c1c9bd99a5d606a1b6044820152fd5b50600254821115610818565b346103915761095e36614a91565b610969929192614f3b565b81151580610b05575b61097b90614dd4565b61098861082e33846155cf565b816000526020600d815260406000208460005281526040600020906109b460ff60068401541615615316565b60038201544211610ad15783600052600e8152604060002085600052815260406000203360005281526109ef60ff6040600020541615615219565b60018201546001600160a01b03163314610a98576000848152600e82526040808220878352835280822033835290925220805460ff191660011790557fe53131b3767d3218d9029021e0da07299664eb92b41dc80ab1f2be0f41ce47b991610a7f918115610a8457600401610a648154614f7f565b90555b60408051338152911515602083015290918291820190565b0390a3005b600501610a918154614f7f565b9055610a67565b6064906040519062461bcd60e51b8252600482015260126024820152715461726765742063616e6e6f7420766f746560701b6044820152fd5b6064906040519062461bcd60e51b82526004820152600d60248201526c15da5b991bddc818db1bdcd959609a1b6044820152fd5b50600254821115610972565b34610391576020366003190112610391576020610b2f60043561544a565b604051908152f35b34610391576020366003190112610391576001600160a01b03610b586149f1565b16600052600c6020526020604060002054604051908152f35b34610391576000366003190112610391576020604051603c8152f35b3461039157600036600319011261039157602060405160038152f35b34610391576060366003190112610391576044356001600160401b03811161039157610bd9903690600401614d6f565b610be1614f3b565b600435151580611033575b610bf590614dd4565b610c0461082e336004356155cf565b6004356000526003602052604060002033600052600c602052604060002054610fee578115610fb757610c3a60243515156152d5565b47603281029080820460321490151715610f5c576064900460243511610f725760140191610c688354614f7f565b80935561012c42014211610f5c5760405161016081018181106001600160401b03821117610f46576040528381523360208201526024356040820152610cad83614e5e565b610cba6040519182614b66565b83815236848401116103915783836020830137600060208583010152606082015261012c42016080820152600060a0820152600060c0820152600060e0820152600061010082015260006101208201526000610140820152600435600052600a602052604060002084600052602052604060002090805182556001820160018060a01b036020830151166001600160601b0360a01b8254161790556040810151600283015560608101518051906001600160401b038211610f4657610d8f82610d866003870154614af6565b6003870161500e565b602090601f8311600114610eaa577f51e7b7715627110f62280ac03d656c8dbd6adb8f0c4acbbfb4b9ed094e3d0be2959383610a7f969460089461014094600092610e9f575b50508160011b916000199060031b1c19161760038501555b6080810151600485015560a0810151600585015560c0810151600685015560078401610e2b60e08301511515829060ff801983541691151516179055565b610100820151815461ff00191690151560081b61ff0016178155610120820151151562ff000082549160101b169062ff00001916179055015191015533600052600c60205260043560406000205560405191829133835260243560208401526060604084015260043595606084019161507b565b015190508b80610dd5565b906003850160005260206000209160005b601f1985168110610f2e575093600184600894610140947f51e7b7715627110f62280ac03d656c8dbd6adb8f0c4acbbfb4b9ed094e3d0be29a98610a7f9a98601f19811610610f15575b505050811b016003850155610ded565b015160001960f88460031b161c191690558b8080610f05565b91926020600181928685015181550194019201610ebb565b634e487b7160e01b600052604160045260246000fd5b634e487b7160e01b600052601160045260246000fd5b60405162461bcd60e51b815260206004820152601b60248201527f4578636565647320353025206f6620706f6f6c2062616c616e636500000000006044820152606490fd5b60405162461bcd60e51b815260206004820152600f60248201526e1499585cdbdb881c995c5d5a5c9959608a1b6044820152606490fd5b60405162461bcd60e51b815260206004820152601b60248201527f416c7265616479206861766520616374697665207265717565737400000000006044820152606490fd5b506002546004351115610bec565b346103915760203660031901126103915760043560018060a01b0361106e8160015460081c163314614d9c565b8115158061113e575b61108090614dd4565b611088614ee5565b816000526003602052604060002090600282019182549060ff8260a01c16600481101561076e576000808686600383968b99611112996110c9879915614e17565b8360a01b60ff60a01b19821617865516855260116020526040852060ff198154169055828454168552601060205284604081205501549154165af161110c614e79565b50614ea9565b7f6e5041900d295bfa61f87310386b97d863882ff214021a45b4e5da847849f10f600080a26001600055005b50600254821115611077565b346103915761115836614a07565b90611161614f3b565b80151580611487575b61117390614dd4565b61118061082e33836155cf565b611188614ee5565b8060005260036020526040600020600d602052604060002083600052602052604060002090600682019081546111c160ff821615615316565b6111d060038501544211615355565b600782015460011c9060018201809211610f5c57600485015461ffff19909116911115600881901b61ff0016919091176001179092558115611438576001830154600085815260036020526040812060070195916001600160a01b0316905b86548082101561142b5782611244838a614ade565b905460039190911b1c6001600160a01b03161461126a575061126590614f7f565b61122f565b90600097929394959697198201918211610f5c576112a761128e6112c69385614ade565b905460039190911b1c6001600160a01b03169184614ade565b90919082549060031b9160018060a01b03809116831b921b1916179055565b805480156114155760001901906112dd8282614ade565b81549060018060a01b039060031b1b19169055555b806000526011602052604060002060ff198154169055601060205260006040812055816000526005602052604060002081600052602052600560406000200160ff19815416905581600052600f60205260406000209060005260205260006040812055611368600383015460078401549061528d565b9260005b60078401548110156113c8576113c39083600052600460205260406000206113978260078801614ade565b60018060a01b0391549060031b1c1660005260205260406000206113bc878254614e51565b9055614f7f565b61136c565b509150927fdfb03b3beee04de7b14abd3e288ba800b7aaa69f5b9f8ee9fe361dd24d4c098d92505b60010154604080516001600160a01b0390921682529115156020820152a36001600055005b634e487b7160e01b600052603160045260246000fd5b50509091929394506112f2565b506000838152600f6020908152604080832060018601546001600160a01b031684529091528120557fdfb03b3beee04de7b14abd3e288ba800b7aaa69f5b9f8ee9fe361dd24d4c098d916113f0565b5060025481111561116a565b346103915760203660031901126103915760043560005260036020526114ce6114c260076040600020016150dd565b60405191829182614d2b565b0390f35b34610391576114e036614ab4565b91600052600e60205260406000209060005260205260406000209060018060a01b0316600052602052602060ff604060002054166040519015158152f35b34610391576040366003190112610391576115376149db565b600435600052600460205260406000209060018060a01b03166000526020526020604060002054604051908152f35b60a0366003190112610391576004356001600160401b03811161039157611591903690600401614d6f565b606435151560643503610391576001600160401b036084351161039157366023608435011215610391576001600160401b036084356004013511610391573660246084356004013560051b608435010111610391576115ee614f3b565b33600052601160205260ff60406000205416611bed578015611bb157600260243510611b7857602860243511611b3e5760449160018335101580611b32575b15611af5573415611ab1576064356119a4575b61164b600254614f7f565b918260025582600052600360205260406000208381556001600160401b038211610f4657611689826116806001840154614af6565b6001840161500e565b60009082601f81116001146119335761171392600091611928575b508360011b906000198560031b1c19161760018201555b60028101805460ff60a01b1933166001600160a81b03199091161790553460038201819055602435600483015586356005830155601682015560188101805460ff191660ff6064351515161790556007339101615053565b33600052601060205282604060002055601160205260406000209360ff19946001868254161790556040519461174886614b30565b3386526117de60208701606481526005604089016000815260608a016000815260808b01906000825260a08c0192600184528b6000528460205260406000203360005260205260406000209560018060a01b03809e51166001600160601b0360a01b88541617875551600187015551600286015551600385015551600484015551151591019060ff801983541691151516179055565b60643561184c575b507f7a227e0e50d43ccba33ae2da80553feecfe250cb454156c8d1d7fd53e80a6d1693945061182860405193849333855260c0602086015260c085019161507b565b903460408401526024356060840152356080830152606435151560a08301520390a2005b60843560240160005b6084356004013581106118b2575050847f7a227e0e50d43ccba33ae2da80553feecfe250cb454156c8d1d7fd53e80a6d169596506000526012602052604060002033600052602052600160406000209182541617905584936117e6565b611923908760005260126020526040600020896118de6118d9846084356004013588614f8e565b614f9e565b16600052602052604060002060018582541617905587600052601360205261191e60406000206119186118d9846084356004013588614f8e565b90615053565b614f7f565b611855565b9050840135876116a4565b506001810160005260206000206000925b601f198516841061198c57611713935084601f19811610611972575b5050600183811b0160018201556116bb565b850135600019600386901b60f8161c191690558680611960565b85810135825560209384019360019092019101611944565b6084356004013515611a585760843560240160005b6084356004013581106119cd575050611640565b6001600160a01b03806119ea6118d9846004608435013587614f8e565b1615611a1b579061191e611a16923390611a0e6118d9856084356004013589614f8e565b161415614fb2565b6119b9565b60405162461bcd60e51b8152602060048201526016602482015275496e76616c696420696e76697465206164647265737360501b81880152606490fd5b60405162461bcd60e51b815260206004820152602c60248201527f507269766174652067726f757073206d7573742068617665206174206c656173818501526b74206f6e6520696e7669746560a01b6064820152608490fd5b60405162461bcd60e51b815260206004820152601860248201527f436f6e747269627574696f6e206d757374206265203e2030000000000000000081850152606490fd5b60405162461bcd60e51b815260206004820152601660248201527554656e7572653a203120746f203234206d6f6e74687360501b81850152606490fd5b5060188335111561162d565b60405162461bcd60e51b81526020600482015260126024820152714d6178696d756d203430206d656d6265727360701b6044820152606490fd5b60405162461bcd60e51b81526020600482015260116024820152704d696e696d756d2032206d656d6265727360781b6044820152606490fd5b60405162461bcd60e51b81526020600482015260146024820152734e616d652063616e6e6f7420626520656d70747960601b6044820152606490fd5b60405162461bcd60e51b815260206004820152601960248201527f4c656176652063757272656e742067726f7570206669727374000000000000006044820152606490fd5b346103915760203660031901126103915760043560005260136020526114ce6114c260406000206150dd565b3461039157611c6c36614ab4565b91600052600b60205260406000209060005260205260406000209060018060a01b0316600052602052602060ff604060002054166040519015158152f35b3461039157604036600319011261039157600435611cc66149db565b90611ccf614f3b565b80151580611f06575b611ce190614dd4565b600081815260036020908152604090912060028101546001600160a01b039492918582163303611ec1576018015460ff1615611e8a57836000526012825260406000209483169485600052825260ff60406000205416611e53578415611e1c5760ff90611d5033871415614fb2565b60a01c16600481101561076e5760018114908115611e13575b5015611dcf57906013611da892846000526012815260406000208660005281526040600020600160ff1982541617905584600052526040600020615053565b7f6e32da99952e6892c42b54eec8c835d9a2e0a6c879c0219cc693229e6894175a600080a3005b6064906040519062461bcd60e51b82526004820152601a60248201527f47726f7570206e6f74206f70656e20666f7220696e76697465730000000000006044820152fd5b90501585611d69565b60405162461bcd60e51b815260048101839052600f60248201526e496e76616c6964206164647265737360881b6044820152606490fd5b60405162461bcd60e51b815260048101839052600f60248201526e105b1c9958591e481a5b9d9a5d1959608a1b6044820152606490fd5b60405162461bcd60e51b815260048101839052600f60248201526e47726f7570206973207075626c696360881b6044820152606490fd5b60405162461bcd60e51b815260048101849052601760248201527f4f6e6c792063726561746f722063616e20696e766974650000000000000000006044820152606490fd5b50600254811115611cd8565b34610391576020366003190112610391576004356000526003602052604060002080549060018101611f4390614b87565b60028201546003830154600484015460058501546006860154600887015495976001600160a01b03909616969394611f7d60098601614c6d565b611f8960108701614cc2565b9860148701549360158801549560168901549760178a0154996018015460ff169a6040519e8f9d8e528d6103409081602082015201611fc791614c2d565b6001600160a01b0388166040909e019d909d5260ff60a088901c166004111561076e578e60a09160ff60c099841c16606083015260808201520152848d015260e08c01526101008b015280516101208b015260208101516101408b015260408101516101608b015260608101516101808b015260808101516101a08b015260a08101516101c08b0152015115156101e08901528651600381101561076e5788976080916102008a015260208101516102208a015260408101516102408a015260018060a01b036060820151166102608a0152015115156102808801526102a08701526102c08601526102e085015261030084015215156103208301520390f35b346103915760003660031901126103915760028054600060015b8281111561218a57506120f390615393565b9060009260015b8281111561211057604051806114ce8682614a56565b80600052600390602082815260ff80856040600020015460a01c1693600485101561076e57600161214f9514928361216e575b50505061215457614f7f565b6120fa565b8061216861216188614f7f565b978761526c565b52614f7f565b9091925083600052526018604060002001541615878080612143565b80600052600360209080825260ff9081876040600020015460a01c16600481101561076e5760011492836121e4575b5050506121cf575b6121ca90614f7f565b6120e1565b906121dc6121ca91614f7f565b9190506121c1565b90919250836000525260186040600020015416158580806121b9565b34610391576020366003190112610391576020610b2f6004356155ac565b34610391576040366003190112610391576122376149db565b600435600052600560205260406000209060018060a01b03166000526020526020600160406000200154604051908152f35b346103915760003660031901126103915760206040516207a1208152f35b34610391576000366003190112610391576020600254604051908152f35b3461039157600036600319011261039157602060405160288152f35b34610391576040366003190112610391576004356122dd6149db565b906122e6614f3b565b801515806123fc575b6122f890614dd4565b8060005260206003815260018060a01b03806002604060002001541633036123b7578260005260128252604060002093169283600052815260ff60406000205416156123855781600052601281526040600020908360005252604060002060ff1981541690557f8aec0db50e2fb503d8ef5d554809d700e2878a7431e522a5da1d94bf356dc438600080a3005b6064906040519062461bcd60e51b82526004820152600b60248201526a139bdd081a5b9d9a5d195960aa1b6044820152fd5b60405162461bcd60e51b815260048101839052601760248201527f4f6e6c792063726561746f722063616e207265766f6b650000000000000000006044820152606490fd5b506002548111156122ef565b346103915760203660031901126103915760043560005260036020526020610b2f61244b61243c6009604060002001614c6d565b83604082015191015190614e51565b6155ac565b34610391576000366003190112610391576001805461247d33600883901c6001600160a01b031614614d9c565b612485614f3b565b60ff1916176001557f62e78cea01bee320cd4e420270b5ea74000d11b0c9f74754ebdbfc544b05a2586020604051338152a1005b34610391576040366003190112610391576124d26149db565b600435600052600860205260406000209060018060a01b03166000526020526020604060002054604051908152f35b3461039157602080600319360112610391576004359061251f614f3b565b811515806125fc575b61253190614dd4565b61253e61082e33846155cf565b612546614ee5565b816000526004815260406000203360005281526040600020549081156125c0577f9dadf9e0a46d44d7f45907190d0c0fdbf833f91d9b4b7478bad96964bb98372c916003610900928560005260048152604060002033600052815260006040812055856000525260176040600020016108cc828254615280565b6064906040519062461bcd60e51b8252600482015260156024820152744e6f2070726f66697420746f20776974686472617760581b6044820152fd5b50600254821115612528565b3461039157600036600319011261039157602060405162093a808152f35b346103915761263436614a07565b90600052600a6020526040600020906000526020526040600020805460018060a01b0360018301541691600281015460ff61267160038401614b87565b9260048101549360058201546126b460068401549260086007860154950154966040519a8b9a8b5260208b015260408a01526101608060608b0152890190614c2d565b95608088015260a087015260c0860152818116151560e0860152818160081c16151561010086015260101c1615156101208401526101408301520390f35b346103915760403660031901126103915760043561270e6149db565b612716614f3b565b81151580612945575b61272890614dd4565b61273561082e33846155cf565b8160005260206003815260406000209060ff601083015416600381101561076e576001036129105761276d60118301544211156151d6565b8360005260078152604060002033600052815261279260ff6040600020541615615219565b6001600160a01b038316903382146128cc576127ae84866155cf565b1561288f5761286f927fcfff1651bcea794952a516ce970ab17518a85210bd939aaeaac670a8d3e65ec794926012928760005260088152604060002082600052815260406000205415612874575b876000526007815260406000203360005281526040600020600160ff1982541617905587600052600881526040600020916000525260406000206128408154614f7f565b90550161284d8154614f7f565b9055604080513381526001600160a01b03909216602083015290918291820190565b0390a2005b876000526009815261288a856040600020615053565b6127fc565b6064906040519062461bcd60e51b825260048201526016602482015275043616e646964617465206e6f7420696e2067726f75760541b6044820152fd5b6064906040519062461bcd60e51b82526004820152601860248201527f43616e6e6f7420766f746520666f7220796f757273656c6600000000000000006044820152fd5b6064906040519062461bcd60e51b82526004820152600e60248201526d4e6f2061637469766520766f746560901b6044820152fd5b5060025482111561271f565b34610391576020806003193601126103915761296b6149f1565b60028054909291600060015b83811115612a42575061298990615393565b9260009460015b848111156129a657604051806114ce8882614a56565b80600052600380845260ff80601860406000200154169182612a1e575b826129f2575b5050906129d9916129de57614f7f565b612990565b806121686129eb8a614f7f565b998961526c565b909150826000528452826040600020015460a01c1690600482101561076e57906001146129d9896129c9565b60128652604060008181206001600160a01b038a16825288522054821692506129c3565b80600052600380865260ff80601860406000200154169182612ab7575b82612a8f575b5050612a7a575b612a7590614f7f565b612977565b90612a87612a7591614f7f565b919050612a6c565b909150826000528652866040600020015460a01c16600481101561076e576001148780612a65565b60128852604060008181206001600160a01b03891682528a52205482169250612a5f565b3461039157612ae936614a07565b9060005260136020526040600020805482101561039157602091612b0c91614ade565b905460405160039290921b1c6001600160a01b03168152f35b602036600319011261039157612b39614f3b565b600435151580612ee0575b612b4d90614dd4565b612b55614ee5565b600435600090815260036020526040902060088101546001600160a01b03163303612ea85760ff600f8201541615612e7257600c81015460058201541115612e3957600b81015490612bac600a8201548093614e51565b600091600193600e820154804211612dff575b50612bca8484614e51565b3403612dc35783612bda91614e51565b92612be960078301548561528d565b9260005b6007840154811015612c1f57612c1a90600435600052600460205260406000206113978260078801614ade565b612bed565b5085935084612c3360178501918254614e51565b9055612c42600c840154614f7f565b600c84015542600d840155603c42014211610f5c57603c4201600e8401556004356000526005602052604060002060018060a01b03600885015416600052602052604060002093600014612d885760038401612c9e8154614f7f565b905560018401805490600a8201809211610f5c57555b600c8301549160405191338352602083015282604083015260608201527fa311ef6156db45bbe3ce4128bbe878541a06d895ff987c4316315b345ad499c0608060043592a2600882015460019390930154604080516001600160a01b03861681526020810192909252600435917f52b03660df9e58e6a5519f066933b571653ce7309b41e9e172a00a429d5f11ae9190a2600582015414612d57575b6001600055005b600f8101805460ff199081169091556001600160a01b03199092166008820155601001805490911690558080612d50565b60048401612d968154614f7f565b9055600184018054600511612dba578054600419810191908211610f5c5755612cb4565b60009055612cb4565b60405162461bcd60e51b8152602060048201526014602482015273125b98dbdc9c9958dd0811535248185b5bdd5b9d60621b6044820152606490fd5b839195929450612e11603c9142615280565b04911b82810460021483151715610f5c57606491612e2e916151c3565b049160009385612bbf565b60405162461bcd60e51b8152602060048201526011602482015270131bd85b88199d5b1b1e481c995c185a59607a1b6044820152606490fd5b60405162461bcd60e51b815260206004820152600e60248201526d27379030b1ba34bb32903637b0b760911b6044820152606490fd5b60405162461bcd60e51b815260206004820152601060248201526f2737ba103a3432903137b93937bbb2b960811b6044820152606490fd5b506002546004351115612b44565b3461039157612efc36614ab4565b91600052600660205260406000209060005260205260406000209060018060a01b0316600052602052602060ff604060002054166040519015158152f35b346103915760203660031901126103915760043560005260036020526020610b2f6016604060002001546155ac565b612f7236614a07565b612f7a614f3b565b811515806131fb575b612f8c90614dd4565b612f94614ee5565b81600052602091600a83526040600020826000528352604060002081600052600393848152604060002060018060a01b039560019680888601541633036131c257600785019384549560ff8760081c161561317d5760ff8760101c16613147576002015494838602868104851487151715610f5c57606461301791048097614e51565b968734036131025790620100008b9594939262ff0000191617905533600052600c815260006040812055600785019161305183548861528d565b936000865b6130b6575b50858b8b7f5b32583ca9f1a2a6ac67b63a9553e4ae06ed06e8dee3ad359e71e202dd84d5cd6130ae8d8d61309460178f01918254614e51565b905560408051338152602081019290925290918291820190565b0390a3600055005b84548110156130fd576130f7908b600052600485526040600020846130db8389614ade565b905490861b1c16600052855260406000206113bc888254614e51565b86613056565b61305b565b60405162461bcd60e51b815260048101849052601a60248201527f496e636f72726563742072657061796d656e7420616d6f756e740000000000006044820152606490fd5b60405162461bcd60e51b815260048101839052600e60248201526d105b1c9958591e481c995c185a5960921b6044820152606490fd5b60405162461bcd60e51b815260048101839052601860248201527f5265717565737420776173206e6f7420617070726f76656400000000000000006044820152606490fd5b60405162461bcd60e51b81526004810185905260116024820152702737ba103a3432903932b8bab2b9ba32b960791b6044820152606490fd5b50600254821115612f83565b346103915761321536614a91565b613220929192614f3b565b81151580613369575b61323290614dd4565b61323f61082e33846155cf565b816000526020600a8152604060002084600052815260406000209061326b60ff60078401541615615316565b61327b60048301544211156151d6565b83600052600b8152604060002085600052815260406000203360005281526132ab60ff6040600020541615615219565b60018201546001600160a01b0316331461332d576000848152600b82526040808220878352835280822033835290925220805460ff191660011790557f6f6e44e06b7560d636d01fa051314d5d0169c306bb1ad5914156cb73d166373791610a7f91811561332057600501610a648154614f7f565b600601610a918154614f7f565b6064906040519062461bcd60e51b8252600482015260156024820152745265717565737465722063616e6e6f7420766f746560581b6044820152fd5b50600254821115613229565b346103915760003660031901126103915760028054600060015b828111156133f257506133a190615393565b9060009260015b828111156133be57604051806114ce8682614a56565b80600052600360205260ff826040600020015460a01c1690600482101561076e576133ed911561215457614f7f565b6133a8565b80600052600360205260ff846040600020015460a01c16600481101561076e5715613426575b61342190614f7f565b61338f565b9061343361342191614f7f565b919050613418565b3461039157600036600319011261039157602060405160328152f35b3461039157600036600319011261039157602060ff600154166040519015158152f35b6149bf565b614a1d565b34610391576020366003190112610391576020610b2f6004356153c5565b34610391576020366003190112610391576004356134be614f3b565b80151580613698575b6134d090614dd4565b6134dd61082e33836155cf565b6134e5614ee5565b8060005260036020526040600020600f81019081549061350860ff831615615181565b600881019260018060a01b03918285541693841561365b57601682018054956005870287810460051488151715610f5c57606490049061354c60058601548961528d565b94603c420193844211610f5c576000976001899897899897600e8a99968f99978b988660c08d6040519061357f82614b4b565b81528360208201528460408201528c60608201524260808201528760a082015201528b6009840155600a830155600b82015587600c82015542600d820155015560ff1916179055555af16135d1614e79565b501561361f57915460408051919093166001600160a01b0316815260208101919091527f895130d6ec3d51c762d94617e61152b1be8447db99e1efe41d743cbde09b39d79181908101610900565b60405162461bcd60e51b8152602060048201526014602482015273119d5b99081d1c985b9cd9995c8819985a5b195960621b6044820152606490fd5b60405162461bcd60e51b8152602060048201526015602482015274109bdc9c9bddd95c881b9bdd081cd95b1958dd1959605a1b6044820152606490fd5b506002548111156134c7565b3461039157600036600319011261039157602060405160148152f35b614a39565b34610391576040366003190112610391576136de6149db565b600435600052600760205260406000209060018060a01b0316600052602052602060ff604060002054166040519015158152f35b346103915760403660031901126103915761372b6149db565b600435600052600f60205260406000209060018060a01b03166000526020526020604060002054604051908152f35b346103915760003660031901126103915760015461378633600883901c6001600160a01b031614614d9c565b60ff8116156137c25760ff19166001557f5db9ee0a495bf2e6ff9c91a7834c1ba4fdd244a5e8aa4e537bd38aeae4b073aa6020604051338152a1005b60405162461bcd60e51b815260206004820152601460248201527314185d5cd8589b194e881b9bdd081c185d5cd95960621b6044820152606490fd5b3461039157602080600319360112610391576004359061381c614f3b565b81151580613a69575b61382e90614dd4565b61383b61082e33846155cf565b8160005260038082526040600020916007808401928354600486015403613a2f576008858101546001600160a01b03939084166139ea57601087019660ff8854168481101561076e576139ae5761389960ff600f8301541615615181565b60005b875481101561390d57613908908a6000528388526040600020876138c0838c614ade565b905490891b1c166000528852604060002060ff1981541690558a6000528488526040600020876138f0838c614ade565b905490891b1c16600052885260006040812055614f7f565b61389c565b8982888b8360005260098252604060002080546000825580613993575b5050600160ff1982541617905561012c4201804211610f5c576011830181905560006012840155600292909201805460ff60a01b1916600160a11b1790556040519182527ff8c022056754dbacca05aff710dc315a2fa7699ae9309fda403cd1e55c11d40f91a2005b6139a7916000528360002090810190614ff7565b848061392a565b60405162461bcd60e51b8152600481018790526014602482015273159bdd1948185b1c9958591e481cdd185c9d195960621b6044820152606490fd5b60405162461bcd60e51b815260048101869052601760248201527f426f72726f77657220616c72656164792063686f73656e0000000000000000006044820152606490fd5b60405162461bcd60e51b815260048101849052601260248201527111dc9bdd5c081b9bdd08199d5b1b081e595d60721b6044820152606490fd5b50600254821115613825565b346103915760203660031901126103915760043560005260036020526020610b2f613aa66009604060002001614c6d565b82604082015191015190614e51565b3461039157602036600319011261039157613ace614f3b565b600435151580613f3f575b613ae290614dd4565b613af161082e336004356155cf565b60043560005260036020526040600020601081015460ff8116600381101561076e57600103613f0b57601182015442118015613efa575b15613ebc57600060128301548015600014613c0857506007830190815415613bf2577fa4de64f8ece5e3d0e00794857bf4663d0774d75efc197695fa248f3f3e0b43e99261286f92600052601360018060a01b0360206000205416955b6008810180546001600160a01b0319166001600160a01b0398909816978817905560ff1990921660021760108301550180546001600160a81b031916851791151560a081901b60ff60a01b1692909217905560408051948552602085019190915260043593918291820190565b634e487b7160e01b600052603260045260246000fd5b60009060005b600435600052600980602052604060002054821015613cc15760088060205260406000209082602052613c45846040600020614ade565b929060018060a01b03938491549060031b1c166000526020528560406000205411613c7c575b505050613c7790614f7f565b613c0e565b9091929450600435600052602052604060002091602052613ca1846040600020614ade565b90549060031b1c16600052602052613c7760406000205492908780613c6b565b50509291600435600052600960205260406000205492613ce084615255565b93613cee6040519586614b66565b808552613cfd601f1991615255565b0136602086013760009160005b6004356000526009602052604060002054811015613daf57613d6f90600860205260406000206009602052613d43826040600020614ade565b919060018060a01b03928391549060031b1c166000526020528660406000205414613d74575b50614f7f565b613d0a565b6004356000526009602052613d8d826040600020614ade565b90549060031b1c16613da8613da187614f7f565b968961526c565b5289613d69565b5092509360018214600014613e06575050815115613bf2576020909101516001600160a01b0316927fa4de64f8ece5e3d0e00794857bf4663d0774d75efc197695fa248f3f3e0b43e99261286f9291601390613b85565b91509192600191600019430190438211610f5c57604051906020820192408352426040830152606082015260043560808201526080815260a081018181106001600160401b03821117610f4657604052519020938315613ea6577fa4de64f8ece5e3d0e00794857bf4663d0774d75efc197695fa248f3f3e0b43e99461286f946013926001600160a01b0392613e9e9290069061526c565b511695613b85565b634e487b7160e01b600052601260045260246000fd5b60405162461bcd60e51b8152602060048201526016602482015275566f7465207374696c6c20696e2070726f677265737360501b6044820152606490fd5b506012820154600783015414613b28565b60405162461bcd60e51b815260206004820152600c60248201526b4e6f206f70656e20766f746560a01b6044820152606490fd5b506002546004351115613ad9565b3461039157613f5b36614a07565b613f63614f3b565b811515806141af575b613f7590614dd4565b613f8261082e33846155cf565b613f8a614ee5565b81600052602091600383526040600020600a8452604060002083600052845260406000206007810194855495613fc360ff881615615316565b613fd260048401544211615355565b600784015496600197881c888101809111610f5c577fb910e2ac7b2959d46de10c641870eb1ca8bef723e4f53e0e026dd2ef9c6d04ab6060889261403e8b958d9760058b01938454101598899260ff19161781559061ff00825491151560081b169061ff001916179055565b54600688015460405191878352888301526040820152a31561418a57479160028101938454809410614145576005015490603c820291808304603c1490151715610f5c5761408d889242614e51565b60088201550190600080808060018060a01b0396878754165af16140af614e79565b5015614101575054915460408051929093166001600160a01b0316825260208201527faca58d80f1ad9e62dac1912d6c507cd35fe5410df8d1d09d6ba4487241d1db6e91819081016130ae565b600055005b6064906040519062461bcd60e51b82526004820152601960248201527f456d657267656e6379207472616e73666572206661696c6564000000000000006044820152fd5b60405162461bcd60e51b815260048101849052601d60248201527f496e73756666696369656e7420636f6e74726163742062616c616e63650000006044820152606490fd5b908501546001600160a01b03166000908152600c9091526040812055506140fc915050565b50600254821115613f6c565b34610391576020366003190112610391576001600160a01b036141dc6149f1565b166000526011602052602060ff604060002054166040519015158152f35b346103915760203660031901126103915760043561422660018060a01b0360015460081c163314614d9c565b801515806142cc575b61423890614dd4565b80600052600360205260ff60026040600020015460a01c16600481101561076e576142639015614e17565b6000818152600360205260409020600201805460ff60a01b1916600160a01b1790554262093a808101908110610f5c578160005260036020526006604060002001557f6afb1f32c9b62907732c7131785b4227d9840afc33d8762875f6dada618d620a600080a2005b5060025481111561422f565b346103915760403660031901126103915760806142f36149db565b6004356000526005602052604060002060018060a01b0380921660005260205260406000206040519161432583614b30565b8154168252600181015491826020820152600282015480604083015260038301549182606082015260a060ff6005600487015496878a8601520154161515910152604051938452602084015260408301526060820152f35b346103915761438b36614a07565b90600052600d602052604060002090600052602052610100604060002060ff81549160018060a01b0390816001820154169160028201541660038201546004830154916006600585015494015494604051978852602088015260408701526060860152608085015260a0840152818116151560c084015260081c16151560e0820152f35b346103915760403660031901126103915760043561442b6149db565b90614434614f3b565b80151580614729575b61444690614dd4565b61445361082e33836155cf565b60008181526003602090815260409091206001600160a01b03808516949092913386146146ed5761448482866155cf565b156146b2578460005260058352604060002086600052835260028060406000200154106146745784600052600f8352604060002086600052835260406000205461462f57601501946144d68654614f7f565b80965561012c420192834211610f5c57604051936101008501948086106001600160401b03871117610f465760006145df600682938b876145f6978f7f079aade8012992f30385b9c91c5bdca9b4dffdb497b853421e7833b758617b449e610a7f9e604052818652838601908d8252604087019233845260608801948552600d60808901968c885260a08a01988d8a5260c08b019e8f5260e08b019d8e52600052526040600020906000528d526040600020965187558060018801925116916001600160601b0360a01b928382541617905560028701925116908254161790555160038401555160048301555160058201550192511515839060ff801983541691151516179055565b51815461ff00191690151560081b61ff0016179055565b6000868152600f825260408082209382529290915281902086905580516001600160a01b03909216825233602083015290918291820190565b60405162461bcd60e51b815260048101849052601860248201527f4b69636b20616c726561647920696e2070726f677265737300000000000000006044820152606490fd5b60405162461bcd60e51b81526004810184905260166024820152754e6f7420656e6f756768206d697373656420454d497360501b6044820152606490fd5b60405162461bcd60e51b81526004810184905260136024820152720546172676574206e6f7420696e2067726f757606c1b6044820152606490fd5b60405162461bcd60e51b815260048101849052601460248201527321b0b73737ba1035b4b1b5903cb7bab939b2b63360611b6044820152606490fd5b5060025481111561443d565b346103915760403660031901126103915760c06147506149db565b6004356000526005602052604060002060018060a01b0380921660005260205260406000209081541690600181015490600281015460038201549060ff6005600485015494015416936040519586526020860152604085015260608401526080830152151560a0820152f35b3461039157602080600319360112610391576004356147d9614f3b565b801515806149b3575b6147eb90614dd4565b8060005260039182815260ff60026040600020015460a01c1692600484101561076e5761481b600180951461509c565b614823614ee5565b82600052808252604060002090600682015442111561497857600782018054600484015411156149335760028301805460ff60a01b1916600360a01b179055918101918591906000835b6148d0575b83877f7aac2e1f5d480dd5ee714064322c3f2b41af09e78bcf63417f5c981c424c6a30606089601b604051918083528201527f457870697265643a206e6f742066696c6c656420696e2074696d6500000000006040820152a2600055005b815481101561492e578061191e60008080806148ef6149289789614ade565b9054908a1b1c6001600160a01b031680825260118d526040808320805460ff1916905560108e5282208290558b54905af161110c614e79565b8361486d565b614872565b60405162461bcd60e51b815260048101859052601c60248201527f47726f75702069732066756c6c2c2063616e6e6f7420657870697265000000006044820152606490fd5b60405162461bcd60e51b8152600481018490526013602482015272111958591b1a5b99481b9bdd081c185cdcd959606a1b6044820152606490fd5b506002548111156147e2565b3461039157600036600319011261039157602060405160058152f35b602435906001600160a01b038216820361039157565b600435906001600160a01b038216820361039157565b6040906003190112610391576004359060243590565b3461039157600036600319011261039157602060405160028152f35b3461039157600036600319011261039157602060405161012c8152f35b6020908160408183019282815285518094520193019160005b828110614a7d575050505090565b835185529381019392810192600101614a6f565b606090600319011261039157600435906024359060443580151581036103915790565b60609060031901126103915760043590602435906044356001600160a01b03811681036103915790565b8054821015613bf25760005260206000200190600090565b90600182811c92168015614b26575b6020831014614b1057565b634e487b7160e01b600052602260045260246000fd5b91607f1691614b05565b60c081019081106001600160401b03821117610f4657604052565b60e081019081106001600160401b03821117610f4657604052565b90601f801991011681019081106001600160401b03821117610f4657604052565b9060405191826000825492614b9b84614af6565b908184526001948581169081600014614c0a5750600114614bc7575b5050614bc592500383614b66565b565b9093915060005260209081600020936000915b818310614bf2575050614bc593508201013880614bb7565b85548884018501529485019487945091830191614bda565b915050614bc594506020925060ff191682840152151560051b8201013880614bb7565b919082519283825260005b848110614c59575050826000602080949584010152601f8019910116010190565b602081830181015184830182015201614c38565b90604051614c7a81614b4b565b60c060ff600683958054855260018101546020860152600281015460408601526003810154606086015260048101546080860152600581015460a08601520154161515910152565b9060405160a081018181106001600160401b03821117610f4657604052809260ff81541690600382101561076e579082526001810154602083015260028101546040830152600301546001600160a01b038116606083015260a01c60ff16151560809190910152565b6020908160408183019282815285518094520193019160005b828110614d52575050505090565b83516001600160a01b031685529381019392810192600101614d44565b9181601f84011215610391578235916001600160401b038311610391576020838186019501011161039157565b15614da357565b60405162461bcd60e51b81526020600482015260096024820152682737ba1030b236b4b760b91b6044820152606490fd5b15614ddb57565b60405162461bcd60e51b815260206004820152601460248201527311dc9bdd5c08191bd95cc81b9bdd08195e1a5cdd60621b6044820152606490fd5b15614e1e57565b60405162461bcd60e51b815260206004820152600b60248201526a4e6f742070656e64696e6760a81b6044820152606490fd5b91908201809211610f5c57565b6001600160401b038111610f4657601f01601f191660200190565b3d15614ea4573d90614e8a82614e5e565b91614e986040519384614b66565b82523d6000602084013e565b606090565b15614eb057565b60405162461bcd60e51b815260206004820152600d60248201526c1499599d5b990819985a5b1959609a1b6044820152606490fd5b600260005414614ef6576002600055565b60405162461bcd60e51b815260206004820152601f60248201527f5265656e7472616e637947756172643a207265656e7472616e742063616c6c006044820152606490fd5b60ff60015416614f4757565b60405162461bcd60e51b815260206004820152601060248201526f14185d5cd8589b194e881c185d5cd95960821b6044820152606490fd5b6000198114610f5c5760010190565b9190811015613bf25760051b0190565b356001600160a01b03811681036103915790565b15614fb957565b60405162461bcd60e51b815260206004820152601660248201527521b0b73737ba1034b73b34ba32903cb7bab939b2b63360511b6044820152606490fd5b818110615002575050565b60008155600101614ff7565b9190601f811161501d57505050565b614bc5926000526020600020906020601f840160051c83019310615049575b601f0160051c0190614ff7565b909150819061503c565b9081549168010000000000000000831015610f4657826112a7916001614bc595018155614ade565b908060209392818452848401376000828201840152601f01601f1916010190565b156150a357565b60405162461bcd60e51b815260206004820152601260248201527157726f6e672067726f75702073746174757360701b6044820152606490fd5b9060405191828154918282526020928383019160005283600020936000905b82821061511257505050614bc592500383614b66565b85546001600160a01b0316845260019586019588955093810193909101906150fc565b1561513c57565b60405162461bcd60e51b815260206004820152601a60248201527f4e6f742061206d656d626572206f6620746869732067726f75700000000000006044820152606490fd5b1561518857565b60405162461bcd60e51b81526020600482015260136024820152724c6f616e20616c72656164792061637469766560681b6044820152606490fd5b81810292918115918404141715610f5c57565b156151dd57565b60405162461bcd60e51b8152602060048201526014602482015273159bdd1a5b99c81dda5b991bddc818db1bdcd95960621b6044820152606490fd5b1561522057565b60405162461bcd60e51b815260206004820152600d60248201526c105b1c9958591e481d9bdd1959609a1b6044820152606490fd5b6001600160401b038111610f465760051b60200190565b8051821015613bf25760209160051b010190565b91908203918211610f5c57565b8115613ea6570490565b1561529e57565b60405162461bcd60e51b815260206004820152600f60248201526e151c985b9cd9995c8819985a5b1959608a1b6044820152606490fd5b156152dc57565b60405162461bcd60e51b81526020600482015260126024820152710416d6f756e74206d757374206265203e20360741b6044820152606490fd5b1561531d57565b60405162461bcd60e51b815260206004820152601060248201526f105b1c9958591e481c995cdbdb1d995960821b6044820152606490fd5b1561535c57565b60405162461bcd60e51b815260206004820152600f60248201526e2b37ba329039ba34b6361037b832b760891b6044820152606490fd5b9061539d82615255565b6153aa6040519182614b66565b82815280926153bb601f1991615255565b0190602036910137565b60005260036020526153dd6009604060002001614c6d565b60c081015115801561543c575b61543657615413603c61540160a084015142615280565b04916020604082015191015190614e51565b8060011b9080820460021490151715610f5c57606491615432916151c3565b0490565b50600090565b5060a08101514211156153ea565b60009081526003602052604081206040519061022082018281106001600160401b03821117615598576040528054825261548660018201614b87565b602083015260028101546001600160a01b038082166040850152929060a01c60ff1660048110156155845790606092918382015260038201546080820152600482015460a082015260058201549360c08201948552600683015460e08301526154f1600784016150dd565b61010083015260088301541661012082015261020060ff601861551660098601614c6d565b94610140850195865261552b60108201614cc2565b610160860152601481015461018086015260158101546101a086015260168101546101c086015260178101546101e0860152015416151591015251015190518082101561557f5761557c9250615280565b90565b505090565b634e487b7160e01b85526021600452602485fd5b634e487b7160e01b84526041600452602484fd5b6207a12090818102918183041490151715610f5c57670de0b6b3a7640000900490565b60005260036020526155e760076040600020016150dd565b9060005b8251811015615627576001600160a01b0380615607838661526c565b51169083161461561f5761561a90614f7f565b6155eb565b505050600190565b50505060009056fea2646970667358221220c0f509ca0dfd786c29f92f64211f46611ee3df9d7bbea69369a8dcc50cfcda3264736f6c63430008140033","opcodes":"PUSH1 0x80 DUP1 PUSH1 0x40 MSTORE CALLVALUE PUSH2 0x3B JUMPI PUSH1 0x1 PUSH1 0x0 DUP2 SWAP1 SSTORE DUP1 SLOAD PUSH1 0x1 PUSH1 0x1 PUSH1 0xA8 SHL SUB NOT AND CALLER PUSH1 0x8 SHL PUSH2 0x100 PUSH1 0x1 PUSH1 0xA8 SHL SUB AND OR SWAP1 SSTORE PUSH2 0x5665 SWAP1 DUP2 PUSH3 0x41 DUP3 CODECOPY RETURN JUMPDEST PUSH1 0x0 DUP1 REVERT INVALID PUSH1 0x80 PUSH1 0x40 MSTORE PUSH1 0x4 CALLDATASIZE LT ISZERO PUSH2 0x1B JUMPI JUMPDEST CALLDATASIZE ISZERO PUSH2 0x19 JUMPI PUSH1 0x0 DUP1 REVERT JUMPDEST STOP JUMPDEST PUSH1 0x0 CALLDATALOAD PUSH1 0xE0 SHR DUP1 PUSH4 0x5BCCA8C EQ PUSH2 0x49BF JUMPI DUP1 PUSH4 0x6545A93 EQ PUSH2 0x2287 JUMPI DUP1 PUSH4 0x6911660 EQ PUSH2 0x47BC JUMPI DUP1 PUSH4 0x7E079D3 EQ PUSH2 0x4735 JUMPI DUP1 PUSH4 0xEB8D824 EQ PUSH2 0x440F JUMPI DUP1 PUSH4 0x15A9313E EQ PUSH2 0x437D JUMPI DUP1 PUSH4 0x1E67939E EQ PUSH2 0x42D8 JUMPI DUP1 PUSH4 0x1FABA943 EQ PUSH2 0x41FA JUMPI DUP1 PUSH4 0x2048CBA4 EQ PUSH2 0x41BB JUMPI DUP1 PUSH4 0x23E955D8 EQ PUSH2 0x347F JUMPI DUP1 PUSH4 0x29FE0BDA EQ PUSH2 0x3F4D JUMPI DUP1 PUSH4 0x30F4CCAC EQ PUSH2 0x3AB5 JUMPI DUP1 PUSH4 0x31C19D50 EQ PUSH2 0x36C0 JUMPI DUP1 PUSH4 0x33DD6BED EQ PUSH2 0x24B9 JUMPI DUP1 PUSH4 0x36B8C126 EQ PUSH2 0x3A75 JUMPI DUP1 PUSH4 0x3D2F5BDA EQ PUSH2 0x37FE JUMPI DUP1 PUSH4 0x3F4BA83A EQ PUSH2 0x375A JUMPI DUP1 PUSH4 0x42D3D77F EQ PUSH2 0x3712 JUMPI DUP1 PUSH4 0x43859632 EQ PUSH2 0x36C5 JUMPI DUP1 PUSH4 0x45DCD02C EQ PUSH2 0x347F JUMPI DUP1 PUSH4 0x46013B73 EQ PUSH2 0x36C0 JUMPI DUP1 PUSH4 0x469A78D2 EQ PUSH2 0x36C0 JUMPI DUP1 PUSH4 0x49C7032D EQ PUSH2 0x36A4 JUMPI DUP1 PUSH4 0x4D68282F EQ PUSH2 0x34A2 JUMPI DUP1 PUSH4 0x53B7E0E5 EQ PUSH2 0x3484 JUMPI DUP1 PUSH4 0x5A45D69B EQ PUSH2 0x347F JUMPI DUP1 PUSH4 0x5B72A33A EQ PUSH2 0x347A JUMPI DUP1 PUSH4 0x5C975ABB EQ PUSH2 0x3457 JUMPI DUP1 PUSH4 0x5DEF8D83 EQ PUSH2 0x343B JUMPI DUP1 PUSH4 0x612E6754 EQ PUSH2 0x3375 JUMPI DUP1 PUSH4 0x63C1F262 EQ PUSH2 0x3207 JUMPI DUP1 PUSH4 0x6433B9B3 EQ PUSH2 0x2F69 JUMPI DUP1 PUSH4 0x6A47F8E8 EQ PUSH2 0x2F3A JUMPI DUP1 PUSH4 0x6CACDDB6 EQ PUSH2 0x2EEE JUMPI DUP1 PUSH4 0x73370600 EQ PUSH2 0x2B25 JUMPI DUP1 PUSH4 0x74BF5392 EQ PUSH2 0x2ADB JUMPI DUP1 PUSH4 0x7728C709 EQ PUSH2 0x2951 JUMPI DUP1 PUSH4 0x77DF41B7 EQ PUSH2 0x26F2 JUMPI DUP1 PUSH4 0x7D888499 EQ PUSH2 0x2626 JUMPI DUP1 PUSH4 0x7F08EE7C EQ PUSH2 0x2608 JUMPI DUP1 PUSH4 0x8115F4FF EQ PUSH2 0x2501 JUMPI DUP1 PUSH4 0x8169BB73 EQ PUSH2 0x24B9 JUMPI DUP1 PUSH4 0x8456CB59 EQ PUSH2 0x2450 JUMPI DUP1 PUSH4 0x8746A4BE EQ PUSH2 0x2408 JUMPI DUP1 PUSH4 0x87B67393 EQ PUSH2 0x22C1 JUMPI DUP1 PUSH4 0x8D67799E EQ PUSH2 0x22A5 JUMPI DUP1 PUSH4 0x8F23B326 EQ PUSH2 0x2287 JUMPI DUP1 PUSH4 0x90657587 EQ PUSH2 0x2269 JUMPI DUP1 PUSH4 0x935D2ED0 EQ PUSH2 0x221E JUMPI DUP1 PUSH4 0x938CE87E EQ PUSH2 0x2200 JUMPI DUP1 PUSH4 0x95AD7D2E EQ PUSH2 0x20C7 JUMPI DUP1 PUSH4 0x96324BD4 EQ PUSH2 0x1F12 JUMPI DUP1 PUSH4 0x9E6D6830 EQ PUSH2 0x1CAA JUMPI DUP1 PUSH4 0xA415D2F4 EQ PUSH2 0x151E JUMPI DUP1 PUSH4 0xA5D03381 EQ PUSH2 0x1C5E JUMPI DUP1 PUSH4 0xA673CEE6 EQ PUSH2 0x1C32 JUMPI DUP1 PUSH4 0xB5555A3D EQ PUSH2 0x1566 JUMPI DUP1 PUSH4 0xB6EB3AFC EQ PUSH2 0x151E JUMPI DUP1 PUSH4 0xC04977D3 EQ PUSH2 0x14D2 JUMPI DUP1 PUSH4 0xC477ECAB EQ PUSH2 0x1493 JUMPI DUP1 PUSH4 0xC648FE8E EQ PUSH2 0x114A JUMPI DUP1 PUSH4 0xCA61B301 EQ PUSH2 0x1041 JUMPI DUP1 PUSH4 0xCF6A77D5 EQ PUSH2 0xBA9 JUMPI DUP1 PUSH4 0xD3F514CA EQ PUSH2 0xB8D JUMPI DUP1 PUSH4 0xD5999A5C EQ PUSH2 0xB71 JUMPI DUP1 PUSH4 0xDDF1A681 EQ PUSH2 0xB37 JUMPI DUP1 PUSH4 0xDFD99358 EQ PUSH2 0xB11 JUMPI DUP1 PUSH4 0xE517DD1A EQ PUSH2 0x950 JUMPI DUP1 PUSH4 0xE7AAE115 EQ PUSH2 0x7F9 JUMPI DUP1 PUSH4 0xEBE59152 EQ PUSH2 0x7BF JUMPI DUP1 PUSH4 0xED1375D5 EQ PUSH2 0x790 JUMPI DUP1 PUSH4 0xEED02E4B EQ PUSH2 0x42E JUMPI DUP1 PUSH4 0xF3D25FC5 EQ PUSH2 0x412 JUMPI DUP1 PUSH4 0xF5B02926 EQ PUSH2 0x3C5 JUMPI DUP1 PUSH4 0xF62DA739 EQ PUSH2 0x396 JUMPI PUSH4 0xF851A440 SUB PUSH2 0xE JUMPI CALLVALUE PUSH2 0x391 JUMPI PUSH1 0x0 CALLDATASIZE PUSH1 0x3 NOT ADD SLT PUSH2 0x391 JUMPI PUSH1 0x1 SLOAD PUSH1 0x40 MLOAD PUSH1 0x8 SWAP2 SWAP1 SWAP2 SHR PUSH1 0x1 PUSH1 0x1 PUSH1 0xA0 SHL SUB AND DUP2 MSTORE PUSH1 0x20 SWAP1 RETURN JUMPDEST PUSH1 0x0 DUP1 REVERT JUMPDEST CALLVALUE PUSH2 0x391 JUMPI PUSH1 0x20 CALLDATASIZE PUSH1 0x3 NOT ADD SLT PUSH2 0x391 JUMPI PUSH1 0x4 CALLDATALOAD PUSH1 0x0 MSTORE PUSH1 0x3 PUSH1 0x20 MSTORE PUSH1 0x20 PUSH1 0xE PUSH1 0x40 PUSH1 0x0 KECCAK256 ADD SLOAD PUSH1 0x40 MLOAD SWAP1 DUP2 MSTORE RETURN JUMPDEST CALLVALUE PUSH2 0x391 JUMPI PUSH1 0x40 CALLDATASIZE PUSH1 0x3 NOT ADD SLT PUSH2 0x391 JUMPI PUSH2 0x3DE PUSH2 0x49DB JUMP JUMPDEST PUSH1 0x4 CALLDATALOAD PUSH1 0x0 MSTORE PUSH1 0x12 PUSH1 0x20 MSTORE PUSH1 0x40 PUSH1 0x0 KECCAK256 SWAP1 PUSH1 0x1 DUP1 PUSH1 0xA0 SHL SUB AND PUSH1 0x0 MSTORE PUSH1 0x20 MSTORE PUSH1 0x20 PUSH1 0xFF PUSH1 0x40 PUSH1 0x0 KECCAK256 SLOAD AND PUSH1 0x40 MLOAD SWAP1 ISZERO ISZERO DUP2 MSTORE RETURN JUMPDEST CALLVALUE PUSH2 0x391 JUMPI PUSH1 0x0 CALLDATASIZE PUSH1 0x3 NOT ADD SLT PUSH2 0x391 JUMPI PUSH1 0x20 PUSH1 0x40 MLOAD PUSH1 0xA DUP2 MSTORE RETURN JUMPDEST PUSH1 0x20 DUP1 PUSH1 0x3 NOT CALLDATASIZE ADD SLT PUSH2 0x391 JUMPI PUSH1 0x4 CALLDATALOAD SWAP1 PUSH2 0x447 PUSH2 0x4F3B JUMP JUMPDEST DUP2 ISZERO ISZERO DUP1 PUSH2 0x784 JUMPI JUMPDEST PUSH2 0x459 SWAP1 PUSH2 0x4DD4 JUMP JUMPDEST DUP2 PUSH1 0x0 MSTORE PUSH1 0x3 DUP2 MSTORE PUSH1 0xFF PUSH1 0x2 PUSH1 0x40 PUSH1 0x0 KECCAK256 ADD SLOAD PUSH1 0xA0 SHR AND PUSH1 0x4 DUP2 LT ISZERO PUSH2 0x76E JUMPI PUSH1 0x1 PUSH2 0x485 SWAP2 EQ PUSH2 0x509C JUMP JUMPDEST PUSH2 0x48D PUSH2 0x4EE5 JUMP JUMPDEST DUP2 PUSH1 0x0 MSTORE PUSH1 0x3 DUP2 MSTORE PUSH1 0x40 PUSH1 0x0 KECCAK256 CALLER PUSH1 0x0 MSTORE PUSH1 0x11 DUP3 MSTORE PUSH1 0xFF PUSH1 0x40 PUSH1 0x0 KECCAK256 SLOAD AND PUSH2 0x734 JUMPI PUSH1 0x7 DUP2 ADD DUP1 SLOAD PUSH1 0x4 DUP4 ADD SLOAD GT ISZERO PUSH2 0x6FF JUMPI PUSH1 0x3 DUP3 ADD SLOAD CALLVALUE SUB PUSH2 0x6C7 JUMPI PUSH1 0x6 DUP3 ADD SLOAD TIMESTAMP GT PUSH2 0x682 JUMPI PUSH1 0xFF PUSH1 0x18 DUP4 ADD SLOAD AND PUSH2 0x5F0 JUMPI JUMPDEST PUSH32 0x78DA64A590C3052953AD9E0A5546BBF12BB68AE7634E3FB2A774E22A8C6557C1 SWAP3 SWAP2 PUSH2 0x513 PUSH1 0x16 SWAP3 CALLER SWAP1 PUSH2 0x5053 JUMP JUMPDEST ADD PUSH2 0x51F CALLVALUE DUP3 SLOAD PUSH2 0x4E51 JUMP JUMPDEST SWAP1 SSTORE CALLER PUSH1 0x0 MSTORE PUSH1 0x10 DUP2 MSTORE DUP3 PUSH1 0x40 PUSH1 0x0 KECCAK256 SSTORE PUSH1 0x11 DUP2 MSTORE PUSH1 0x40 PUSH1 0x0 KECCAK256 PUSH1 0x1 PUSH1 0xFF NOT DUP3 SLOAD AND OR SWAP1 SSTORE PUSH2 0x5E2 PUSH1 0x40 MLOAD PUSH2 0x553 DUP2 PUSH2 0x4B30 JUMP JUMPDEST CALLER DUP2 MSTORE PUSH1 0x5 DUP4 DUP3 ADD PUSH1 0x64 DUP2 MSTORE PUSH1 0x40 DUP4 ADD PUSH1 0x0 DUP2 MSTORE PUSH1 0x60 DUP5 ADD PUSH1 0x0 DUP2 MSTORE PUSH1 0x80 DUP6 ADD SWAP2 PUSH1 0x0 DUP4 MSTORE PUSH1 0xA0 DUP7 ADD SWAP4 PUSH1 0x1 DUP6 MSTORE DUP11 PUSH1 0x0 MSTORE DUP6 DUP10 MSTORE PUSH1 0x40 PUSH1 0x0 KECCAK256 CALLER PUSH1 0x0 MSTORE DUP10 MSTORE PUSH1 0x40 PUSH1 0x0 KECCAK256 SWAP7 PUSH1 0x1 DUP1 PUSH1 0xA0 SHL SUB SWAP1 MLOAD AND PUSH1 0x1 PUSH1 0x1 PUSH1 0x60 SHL SUB PUSH1 0xA0 SHL DUP9 SLOAD AND OR DUP8 SSTORE MLOAD PUSH1 0x1 DUP8 ADD SSTORE MLOAD PUSH1 0x2 DUP7 ADD SSTORE MLOAD PUSH1 0x3 DUP6 ADD SSTORE MLOAD PUSH1 0x4 DUP5 ADD SSTORE MLOAD ISZERO ISZERO SWAP2 ADD SWAP1 PUSH1 0xFF DUP1 NOT DUP4 SLOAD AND SWAP2 ISZERO ISZERO AND OR SWAP1 SSTORE JUMP JUMPDEST PUSH1 0x40 MLOAD CALLER DUP2 MSTORE LOG2 PUSH1 0x1 PUSH1 0x0 SSTORE STOP JUMPDEST DUP4 PUSH1 0x0 MSTORE PUSH1 0x12 DUP4 MSTORE PUSH1 0x40 PUSH1 0x0 KECCAK256 CALLER PUSH1 0x0 MSTORE DUP4 MSTORE PUSH1 0xFF PUSH1 0x40 PUSH1 0x0 KECCAK256 SLOAD AND ISZERO PUSH2 0x633 JUMPI PUSH1 0x0 DUP5 DUP2 MSTORE PUSH1 0x12 DUP5 MSTORE PUSH1 0x40 DUP1 DUP3 KECCAK256 CALLER DUP4 MSTORE DUP6 MSTORE SWAP1 KECCAK256 DUP1 SLOAD PUSH1 0xFF NOT AND SWAP1 SSTORE PUSH2 0x4E3 JUMP JUMPDEST PUSH1 0x40 MLOAD PUSH3 0x461BCD PUSH1 0xE5 SHL DUP2 MSTORE PUSH1 0x4 DUP2 ADD DUP5 SWAP1 MSTORE PUSH1 0x21 PUSH1 0x24 DUP3 ADD MSTORE PUSH32 0x4E6F7420696E766974656420746F207468697320707269766174652067726F75 PUSH1 0x44 DUP3 ADD MSTORE PUSH1 0x7 PUSH1 0xFC SHL PUSH1 0x64 DUP3 ADD MSTORE PUSH1 0x84 SWAP1 REVERT JUMPDEST PUSH1 0x40 MLOAD PUSH3 0x461BCD PUSH1 0xE5 SHL DUP2 MSTORE PUSH1 0x4 DUP2 ADD DUP5 SWAP1 MSTORE PUSH1 0x1A PUSH1 0x24 DUP3 ADD MSTORE PUSH32 0x47726F75702066696C6C20646561646C696E6520706173736564000000000000 PUSH1 0x44 DUP3 ADD MSTORE PUSH1 0x64 SWAP1 REVERT JUMPDEST PUSH1 0x40 MLOAD PUSH3 0x461BCD PUSH1 0xE5 SHL DUP2 MSTORE PUSH1 0x4 DUP2 ADD DUP5 SWAP1 MSTORE PUSH1 0x10 PUSH1 0x24 DUP3 ADD MSTORE PUSH16 0x15DC9BDB99C811551208185B5BDD5B9D PUSH1 0x82 SHL PUSH1 0x44 DUP3 ADD MSTORE PUSH1 0x64 SWAP1 REVERT JUMPDEST PUSH1 0x40 MLOAD PUSH3 0x461BCD PUSH1 0xE5 SHL DUP2 MSTORE PUSH1 0x4 DUP2 ADD DUP5 SWAP1 MSTORE PUSH1 0xD PUSH1 0x24 DUP3 ADD MSTORE PUSH13 0x11DC9BDD5C081A5CC8199D5B1B PUSH1 0x9A SHL PUSH1 0x44 DUP3 ADD MSTORE PUSH1 0x64 SWAP1 REVERT JUMPDEST PUSH1 0x40 MLOAD PUSH3 0x461BCD PUSH1 0xE5 SHL DUP2 MSTORE PUSH1 0x4 DUP2 ADD DUP4 SWAP1 MSTORE PUSH1 0x12 PUSH1 0x24 DUP3 ADD MSTORE PUSH18 0x416C726561647920696E20612067726F757 PUSH1 0x74 SHL PUSH1 0x44 DUP3 ADD MSTORE PUSH1 0x64 SWAP1 REVERT JUMPDEST PUSH4 0x4E487B71 PUSH1 0xE0 SHL PUSH1 0x0 MSTORE PUSH1 0x21 PUSH1 0x4 MSTORE PUSH1 0x24 PUSH1 0x0 REVERT JUMPDEST POP PUSH1 0x2 SLOAD DUP3 GT ISZERO PUSH2 0x450 JUMP JUMPDEST CALLVALUE PUSH2 0x391 JUMPI PUSH1 0x20 CALLDATASIZE PUSH1 0x3 NOT ADD SLT PUSH2 0x391 JUMPI PUSH1 0x4 CALLDATALOAD PUSH1 0x0 MSTORE PUSH1 0x3 PUSH1 0x20 MSTORE PUSH1 0x20 PUSH1 0x16 PUSH1 0x40 PUSH1 0x0 KECCAK256 ADD SLOAD PUSH1 0x40 MLOAD SWAP1 DUP2 MSTORE RETURN JUMPDEST CALLVALUE PUSH2 0x391 JUMPI PUSH1 0x20 CALLDATASIZE PUSH1 0x3 NOT ADD SLT PUSH2 0x391 JUMPI PUSH1 0x1 PUSH1 0x1 PUSH1 0xA0 SHL SUB PUSH2 0x7E0 PUSH2 0x49F1 JUMP JUMPDEST AND PUSH1 0x0 MSTORE PUSH1 0x10 PUSH1 0x20 MSTORE PUSH1 0x20 PUSH1 0x40 PUSH1 0x0 KECCAK256 SLOAD PUSH1 0x40 MLOAD SWAP1 DUP2 MSTORE RETURN JUMPDEST CALLVALUE PUSH2 0x391 JUMPI PUSH2 0x807 CALLDATASIZE PUSH2 0x4A07 JUMP JUMPDEST PUSH2 0x80F PUSH2 0x4F3B JUMP JUMPDEST DUP2 ISZERO ISZERO DUP1 PUSH2 0x944 JUMPI JUMPDEST PUSH2 0x821 SWAP1 PUSH2 0x4DD4 JUMP JUMPDEST PUSH2 0x833 PUSH2 0x82E CALLER DUP5 PUSH2 0x55CF JUMP JUMPDEST PUSH2 0x5135 JUMP JUMPDEST PUSH2 0x83B PUSH2 0x4EE5 JUMP JUMPDEST PUSH2 0x846 DUP2 ISZERO ISZERO PUSH2 0x52D5 JUMP JUMPDEST DUP2 PUSH1 0x0 MSTORE PUSH1 0x20 PUSH1 0x4 DUP2 MSTORE PUSH1 0x40 PUSH1 0x0 KECCAK256 CALLER PUSH1 0x0 MSTORE DUP2 MSTORE DUP2 PUSH1 0x40 PUSH1 0x0 KECCAK256 SLOAD LT PUSH2 0x90A JUMPI PUSH32 0x9DADF9E0A46D44D7F45907190D0C0FDBF833F91D9B4B7478BAD96964BB98372C SWAP2 PUSH1 0x3 PUSH2 0x900 SWAP3 DUP6 PUSH1 0x0 MSTORE PUSH1 0x4 DUP2 MSTORE PUSH1 0x40 PUSH1 0x0 KECCAK256 CALLER PUSH1 0x0 MSTORE DUP2 MSTORE PUSH1 0x40 PUSH1 0x0 KECCAK256 PUSH2 0x8B2 DUP5 DUP3 SLOAD PUSH2 0x5280 JUMP JUMPDEST SWAP1 SSTORE DUP6 PUSH1 0x0 MSTORE MSTORE PUSH1 0x17 PUSH1 0x40 PUSH1 0x0 KECCAK256 ADD PUSH2 0x8CC DUP3 DUP3 SLOAD PUSH2 0x5280 JUMP JUMPDEST SWAP1 SSTORE PUSH2 0x8E8 PUSH1 0x0 DUP1 DUP1 DUP1 DUP6 CALLER GAS CALL PUSH2 0x8E2 PUSH2 0x4E79 JUMP JUMPDEST POP PUSH2 0x5297 JUMP JUMPDEST PUSH1 0x40 DUP1 MLOAD CALLER DUP2 MSTORE PUSH1 0x20 DUP2 ADD SWAP3 SWAP1 SWAP3 MSTORE SWAP1 SWAP2 DUP3 SWAP2 DUP3 ADD SWAP1 JUMP JUMPDEST SUB SWAP1 LOG2 PUSH1 0x1 PUSH1 0x0 SSTORE STOP JUMPDEST PUSH1 0x64 SWAP1 PUSH1 0x40 MLOAD SWAP1 PUSH3 0x461BCD PUSH1 0xE5 SHL DUP3 MSTORE PUSH1 0x4 DUP3 ADD MSTORE PUSH1 0x13 PUSH1 0x24 DUP3 ADD MSTORE PUSH19 0x125B9CDD59999A58DA595B9D081C1C9BD99A5D PUSH1 0x6A SHL PUSH1 0x44 DUP3 ADD MSTORE REVERT JUMPDEST POP PUSH1 0x2 SLOAD DUP3 GT ISZERO PUSH2 0x818 JUMP JUMPDEST CALLVALUE PUSH2 0x391 JUMPI PUSH2 0x95E CALLDATASIZE PUSH2 0x4A91 JUMP JUMPDEST PUSH2 0x969 SWAP3 SWAP2 SWAP3 PUSH2 0x4F3B JUMP JUMPDEST DUP2 ISZERO ISZERO DUP1 PUSH2 0xB05 JUMPI JUMPDEST PUSH2 0x97B SWAP1 PUSH2 0x4DD4 JUMP JUMPDEST PUSH2 0x988 PUSH2 0x82E CALLER DUP5 PUSH2 0x55CF JUMP JUMPDEST DUP2 PUSH1 0x0 MSTORE PUSH1 0x20 PUSH1 0xD DUP2 MSTORE PUSH1 0x40 PUSH1 0x0 KECCAK256 DUP5 PUSH1 0x0 MSTORE DUP2 MSTORE PUSH1 0x40 PUSH1 0x0 KECCAK256 SWAP1 PUSH2 0x9B4 PUSH1 0xFF PUSH1 0x6 DUP5 ADD SLOAD AND ISZERO PUSH2 0x5316 JUMP JUMPDEST PUSH1 0x3 DUP3 ADD SLOAD TIMESTAMP GT PUSH2 0xAD1 JUMPI DUP4 PUSH1 0x0 MSTORE PUSH1 0xE DUP2 MSTORE PUSH1 0x40 PUSH1 0x0 KECCAK256 DUP6 PUSH1 0x0 MSTORE DUP2 MSTORE PUSH1 0x40 PUSH1 0x0 KECCAK256 CALLER PUSH1 0x0 MSTORE DUP2 MSTORE PUSH2 0x9EF PUSH1 0xFF PUSH1 0x40 PUSH1 0x0 KECCAK256 SLOAD AND ISZERO PUSH2 0x5219 JUMP JUMPDEST PUSH1 0x1 DUP3 ADD SLOAD PUSH1 0x1 PUSH1 0x1 PUSH1 0xA0 SHL SUB AND CALLER EQ PUSH2 0xA98 JUMPI PUSH1 0x0 DUP5 DUP2 MSTORE PUSH1 0xE DUP3 MSTORE PUSH1 0x40 DUP1 DUP3 KECCAK256 DUP8 DUP4 MSTORE DUP4 MSTORE DUP1 DUP3 KECCAK256 CALLER DUP4 MSTORE SWAP1 SWAP3 MSTORE KECCAK256 DUP1 SLOAD PUSH1 0xFF NOT AND PUSH1 0x1 OR SWAP1 SSTORE PUSH32 0xE53131B3767D3218D9029021E0DA07299664EB92B41DC80AB1F2BE0F41CE47B9 SWAP2 PUSH2 0xA7F SWAP2 DUP2 ISZERO PUSH2 0xA84 JUMPI PUSH1 0x4 ADD PUSH2 0xA64 DUP2 SLOAD PUSH2 0x4F7F JUMP JUMPDEST SWAP1 SSTORE JUMPDEST PUSH1 0x40 DUP1 MLOAD CALLER DUP2 MSTORE SWAP2 ISZERO ISZERO PUSH1 0x20 DUP4 ADD MSTORE SWAP1 SWAP2 DUP3 SWAP2 DUP3 ADD SWAP1 JUMP JUMPDEST SUB SWAP1 LOG3 STOP JUMPDEST PUSH1 0x5 ADD PUSH2 0xA91 DUP2 SLOAD PUSH2 0x4F7F JUMP JUMPDEST SWAP1 SSTORE PUSH2 0xA67 JUMP JUMPDEST PUSH1 0x64 SWAP1 PUSH1 0x40 MLOAD SWAP1 PUSH3 0x461BCD PUSH1 0xE5 SHL DUP3 MSTORE PUSH1 0x4 DUP3 ADD MSTORE PUSH1 0x12 PUSH1 0x24 DUP3 ADD MSTORE PUSH18 0x5461726765742063616E6E6F7420766F7465 PUSH1 0x70 SHL PUSH1 0x44 DUP3 ADD MSTORE REVERT JUMPDEST PUSH1 0x64 SWAP1 PUSH1 0x40 MLOAD SWAP1 PUSH3 0x461BCD PUSH1 0xE5 SHL DUP3 MSTORE PUSH1 0x4 DUP3 ADD MSTORE PUSH1 0xD PUSH1 0x24 DUP3 ADD MSTORE PUSH13 0x15DA5B991BDDC818DB1BDCD959 PUSH1 0x9A SHL PUSH1 0x44 DUP3 ADD MSTORE REVERT JUMPDEST POP PUSH1 0x2 SLOAD DUP3 GT ISZERO PUSH2 0x972 JUMP JUMPDEST CALLVALUE PUSH2 0x391 JUMPI PUSH1 0x20 CALLDATASIZE PUSH1 0x3 NOT ADD SLT PUSH2 0x391 JUMPI PUSH1 0x20 PUSH2 0xB2F PUSH1 0x4 CALLDATALOAD PUSH2 0x544A JUMP JUMPDEST PUSH1 0x40 MLOAD SWAP1 DUP2 MSTORE RETURN JUMPDEST CALLVALUE PUSH2 0x391 JUMPI PUSH1 0x20 CALLDATASIZE PUSH1 0x3 NOT ADD SLT PUSH2 0x391 JUMPI PUSH1 0x1 PUSH1 0x1 PUSH1 0xA0 SHL SUB PUSH2 0xB58 PUSH2 0x49F1 JUMP JUMPDEST AND PUSH1 0x0 MSTORE PUSH1 0xC PUSH1 0x20 MSTORE PUSH1 0x20 PUSH1 0x40 PUSH1 0x0 KECCAK256 SLOAD PUSH1 0x40 MLOAD SWAP1 DUP2 MSTORE RETURN JUMPDEST CALLVALUE PUSH2 0x391 JUMPI PUSH1 0x0 CALLDATASIZE PUSH1 0x3 NOT ADD SLT PUSH2 0x391 JUMPI PUSH1 0x20 PUSH1 0x40 MLOAD PUSH1 0x3C DUP2 MSTORE RETURN JUMPDEST CALLVALUE PUSH2 0x391 JUMPI PUSH1 0x0 CALLDATASIZE PUSH1 0x3 NOT ADD SLT PUSH2 0x391 JUMPI PUSH1 0x20 PUSH1 0x40 MLOAD PUSH1 0x3 DUP2 MSTORE RETURN JUMPDEST CALLVALUE PUSH2 0x391 JUMPI PUSH1 0x60 CALLDATASIZE PUSH1 0x3 NOT ADD SLT PUSH2 0x391 JUMPI PUSH1 0x44 CALLDATALOAD PUSH1 0x1 PUSH1 0x1 PUSH1 0x40 SHL SUB DUP2 GT PUSH2 0x391 JUMPI PUSH2 0xBD9 SWAP1 CALLDATASIZE SWAP1 PUSH1 0x4 ADD PUSH2 0x4D6F JUMP JUMPDEST PUSH2 0xBE1 PUSH2 0x4F3B JUMP JUMPDEST PUSH1 0x4 CALLDATALOAD ISZERO ISZERO DUP1 PUSH2 0x1033 JUMPI JUMPDEST PUSH2 0xBF5 SWAP1 PUSH2 0x4DD4 JUMP JUMPDEST PUSH2 0xC04 PUSH2 0x82E CALLER PUSH1 0x4 CALLDATALOAD PUSH2 0x55CF JUMP JUMPDEST PUSH1 0x4 CALLDATALOAD PUSH1 0x0 MSTORE PUSH1 0x3 PUSH1 0x20 MSTORE PUSH1 0x40 PUSH1 0x0 KECCAK256 CALLER PUSH1 0x0 MSTORE PUSH1 0xC PUSH1 0x20 MSTORE PUSH1 0x40 PUSH1 0x0 KECCAK256 SLOAD PUSH2 0xFEE JUMPI DUP2 ISZERO PUSH2 0xFB7 JUMPI PUSH2 0xC3A PUSH1 0x24 CALLDATALOAD ISZERO ISZERO PUSH2 0x52D5 JUMP JUMPDEST SELFBALANCE PUSH1 0x32 DUP2 MUL SWAP1 DUP1 DUP3 DIV PUSH1 0x32 EQ SWAP1 ISZERO OR ISZERO PUSH2 0xF5C JUMPI PUSH1 0x64 SWAP1 DIV PUSH1 0x24 CALLDATALOAD GT PUSH2 0xF72 JUMPI PUSH1 0x14 ADD SWAP2 PUSH2 0xC68 DUP4 SLOAD PUSH2 0x4F7F JUMP JUMPDEST DUP1 SWAP4 SSTORE PUSH2 0x12C TIMESTAMP ADD TIMESTAMP GT PUSH2 0xF5C JUMPI PUSH1 0x40 MLOAD PUSH2 0x160 DUP2 ADD DUP2 DUP2 LT PUSH1 0x1 PUSH1 0x1 PUSH1 0x40 SHL SUB DUP3 GT OR PUSH2 0xF46 JUMPI PUSH1 0x40 MSTORE DUP4 DUP2 MSTORE CALLER PUSH1 0x20 DUP3 ADD MSTORE PUSH1 0x24 CALLDATALOAD PUSH1 0x40 DUP3 ADD MSTORE PUSH2 0xCAD DUP4 PUSH2 0x4E5E JUMP JUMPDEST PUSH2 0xCBA PUSH1 0x40 MLOAD SWAP2 DUP3 PUSH2 0x4B66 JUMP JUMPDEST DUP4 DUP2 MSTORE CALLDATASIZE DUP5 DUP5 ADD GT PUSH2 0x391 JUMPI DUP4 DUP4 PUSH1 0x20 DUP4 ADD CALLDATACOPY PUSH1 0x0 PUSH1 0x20 DUP6 DUP4 ADD ADD MSTORE PUSH1 0x60 DUP3 ADD MSTORE PUSH2 0x12C TIMESTAMP ADD PUSH1 0x80 DUP3 ADD MSTORE PUSH1 0x0 PUSH1 0xA0 DUP3 ADD MSTORE PUSH1 0x0 PUSH1 0xC0 DUP3 ADD MSTORE PUSH1 0x0 PUSH1 0xE0 DUP3 ADD MSTORE PUSH1 0x0 PUSH2 0x100 DUP3 ADD MSTORE PUSH1 0x0 PUSH2 0x120 DUP3 ADD MSTORE PUSH1 0x0 PUSH2 0x140 DUP3 ADD MSTORE PUSH1 0x4 CALLDATALOAD PUSH1 0x0 MSTORE PUSH1 0xA PUSH1 0x20 MSTORE PUSH1 0x40 PUSH1 0x0 KECCAK256 DUP5 PUSH1 0x0 MSTORE PUSH1 0x20 MSTORE PUSH1 0x40 PUSH1 0x0 KECCAK256 SWAP1 DUP1 MLOAD DUP3 SSTORE PUSH1 0x1 DUP3 ADD PUSH1 0x1 DUP1 PUSH1 0xA0 SHL SUB PUSH1 0x20 DUP4 ADD MLOAD AND PUSH1 0x1 PUSH1 0x1 PUSH1 0x60 SHL SUB PUSH1 0xA0 SHL DUP3 SLOAD AND OR SWAP1 SSTORE PUSH1 0x40 DUP2 ADD MLOAD PUSH1 0x2 DUP4 ADD SSTORE PUSH1 0x60 DUP2 ADD MLOAD DUP1 MLOAD SWAP1 PUSH1 0x1 PUSH1 0x1 PUSH1 0x40 SHL SUB DUP3 GT PUSH2 0xF46 JUMPI PUSH2 0xD8F DUP3 PUSH2 0xD86 PUSH1 0x3 DUP8 ADD SLOAD PUSH2 0x4AF6 JUMP JUMPDEST PUSH1 0x3 DUP8 ADD PUSH2 0x500E JUMP JUMPDEST PUSH1 0x20 SWAP1 PUSH1 0x1F DUP4 GT PUSH1 0x1 EQ PUSH2 0xEAA JUMPI PUSH32 0x51E7B7715627110F62280AC03D656C8DBD6ADB8F0C4ACBBFB4B9ED094E3D0BE2 SWAP6 SWAP4 DUP4 PUSH2 0xA7F SWAP7 SWAP5 PUSH1 0x8 SWAP5 PUSH2 0x140 SWAP5 PUSH1 0x0 SWAP3 PUSH2 0xE9F JUMPI JUMPDEST POP POP DUP2 PUSH1 0x1 SHL SWAP2 PUSH1 0x0 NOT SWAP1 PUSH1 0x3 SHL SHR NOT AND OR PUSH1 0x3 DUP6 ADD SSTORE JUMPDEST PUSH1 0x80 DUP2 ADD MLOAD PUSH1 0x4 DUP6 ADD SSTORE PUSH1 0xA0 DUP2 ADD MLOAD PUSH1 0x5 DUP6 ADD SSTORE PUSH1 0xC0 DUP2 ADD MLOAD PUSH1 0x6 DUP6 ADD SSTORE PUSH1 0x7 DUP5 ADD PUSH2 0xE2B PUSH1 0xE0 DUP4 ADD MLOAD ISZERO ISZERO DUP3 SWAP1 PUSH1 0xFF DUP1 NOT DUP4 SLOAD AND SWAP2 ISZERO ISZERO AND OR SWAP1 SSTORE JUMP JUMPDEST PUSH2 0x100 DUP3 ADD MLOAD DUP2 SLOAD PUSH2 0xFF00 NOT AND SWAP1 ISZERO ISZERO PUSH1 0x8 SHL PUSH2 0xFF00 AND OR DUP2 SSTORE PUSH2 0x120 DUP3 ADD MLOAD ISZERO ISZERO PUSH3 0xFF0000 DUP3 SLOAD SWAP2 PUSH1 0x10 SHL AND SWAP1 PUSH3 0xFF0000 NOT AND OR SWAP1 SSTORE ADD MLOAD SWAP2 ADD SSTORE CALLER PUSH1 0x0 MSTORE PUSH1 0xC PUSH1 0x20 MSTORE PUSH1 0x4 CALLDATALOAD PUSH1 0x40 PUSH1 0x0 KECCAK256 SSTORE PUSH1 0x40 MLOAD SWAP2 DUP3 SWAP2 CALLER DUP4 MSTORE PUSH1 0x24 CALLDATALOAD PUSH1 0x20 DUP5 ADD MSTORE PUSH1 0x60 PUSH1 0x40 DUP5 ADD MSTORE PUSH1 0x4 CALLDATALOAD SWAP6 PUSH1 0x60 DUP5 ADD SWAP2 PUSH2 0x507B JUMP JUMPDEST ADD MLOAD SWAP1 POP DUP12 DUP1 PUSH2 0xDD5 JUMP JUMPDEST SWAP1 PUSH1 0x3 DUP6 ADD PUSH1 0x0 MSTORE PUSH1 0x20 PUSH1 0x0 KECCAK256 SWAP2 PUSH1 0x0 JUMPDEST PUSH1 0x1F NOT DUP6 AND DUP2 LT PUSH2 0xF2E JUMPI POP SWAP4 PUSH1 0x1 DUP5 PUSH1 0x8 SWAP5 PUSH2 0x140 SWAP5 PUSH32 0x51E7B7715627110F62280AC03D656C8DBD6ADB8F0C4ACBBFB4B9ED094E3D0BE2 SWAP11 SWAP9 PUSH2 0xA7F SWAP11 SWAP9 PUSH1 0x1F NOT DUP2 AND LT PUSH2 0xF15 JUMPI JUMPDEST POP POP POP DUP2 SHL ADD PUSH1 0x3 DUP6 ADD SSTORE PUSH2 0xDED JUMP JUMPDEST ADD MLOAD PUSH1 0x0 NOT PUSH1 0xF8 DUP5 PUSH1 0x3 SHL AND SHR NOT AND SWAP1 SSTORE DUP12 DUP1 DUP1 PUSH2 0xF05 JUMP JUMPDEST SWAP2 SWAP3 PUSH1 0x20 PUSH1 0x1 DUP2 SWAP3 DUP7 DUP6 ADD MLOAD DUP2 SSTORE ADD SWAP5 ADD SWAP3 ADD PUSH2 0xEBB JUMP JUMPDEST PUSH4 0x4E487B71 PUSH1 0xE0 SHL PUSH1 0x0 MSTORE PUSH1 0x41 PUSH1 0x4 MSTORE PUSH1 0x24 PUSH1 0x0 REVERT JUMPDEST PUSH4 0x4E487B71 PUSH1 0xE0 SHL PUSH1 0x0 MSTORE PUSH1 0x11 PUSH1 0x4 MSTORE PUSH1 0x24 PUSH1 0x0 REVERT JUMPDEST PUSH1 0x40 MLOAD PUSH3 0x461BCD PUSH1 0xE5 SHL DUP2 MSTORE PUSH1 0x20 PUSH1 0x4 DUP3 ADD MSTORE PUSH1 0x1B PUSH1 0x24 DUP3 ADD MSTORE PUSH32 0x4578636565647320353025206F6620706F6F6C2062616C616E63650000000000 PUSH1 0x44 DUP3 ADD MSTORE PUSH1 0x64 SWAP1 REVERT JUMPDEST PUSH1 0x40 MLOAD PUSH3 0x461BCD PUSH1 0xE5 SHL DUP2 MSTORE PUSH1 0x20 PUSH1 0x4 DUP3 ADD MSTORE PUSH1 0xF PUSH1 0x24 DUP3 ADD MSTORE PUSH15 0x1499585CDBDB881C995C5D5A5C9959 PUSH1 0x8A SHL PUSH1 0x44 DUP3 ADD MSTORE PUSH1 0x64 SWAP1 REVERT JUMPDEST PUSH1 0x40 MLOAD PUSH3 0x461BCD PUSH1 0xE5 SHL DUP2 MSTORE PUSH1 0x20 PUSH1 0x4 DUP3 ADD MSTORE PUSH1 0x1B PUSH1 0x24 DUP3 ADD MSTORE PUSH32 0x416C726561647920686176652061637469766520726571756573740000000000 PUSH1 0x44 DUP3 ADD MSTORE PUSH1 0x64 SWAP1 REVERT JUMPDEST POP PUSH1 0x2 SLOAD PUSH1 0x4 CALLDATALOAD GT ISZERO PUSH2 0xBEC JUMP JUMPDEST CALLVALUE PUSH2 0x391 JUMPI PUSH1 0x20 CALLDATASIZE PUSH1 0x3 NOT ADD SLT PUSH2 0x391 JUMPI PUSH1 0x4 CALLDATALOAD PUSH1 0x1 DUP1 PUSH1 0xA0 SHL SUB PUSH2 0x106E DUP2 PUSH1 0x1 SLOAD PUSH1 0x8 SHR AND CALLER EQ PUSH2 0x4D9C JUMP JUMPDEST DUP2 ISZERO ISZERO DUP1 PUSH2 0x113E JUMPI JUMPDEST PUSH2 0x1080 SWAP1 PUSH2 0x4DD4 JUMP JUMPDEST PUSH2 0x1088 PUSH2 0x4EE5 JUMP JUMPDEST DUP2 PUSH1 0x0 MSTORE PUSH1 0x3 PUSH1 0x20 MSTORE PUSH1 0x40 PUSH1 0x0 KECCAK256 SWAP1 PUSH1 0x2 DUP3 ADD SWAP2 DUP3 SLOAD SWAP1 PUSH1 0xFF DUP3 PUSH1 0xA0 SHR AND PUSH1 0x4 DUP2 LT ISZERO PUSH2 0x76E JUMPI PUSH1 0x0 DUP1 DUP7 DUP7 PUSH1 0x3 DUP4 SWAP7 DUP12 SWAP10 PUSH2 0x1112 SWAP10 PUSH2 0x10C9 DUP8 SWAP10 ISZERO PUSH2 0x4E17 JUMP JUMPDEST DUP4 PUSH1 0xA0 SHL PUSH1 0xFF PUSH1 0xA0 SHL NOT DUP3 AND OR DUP7 SSTORE AND DUP6 MSTORE PUSH1 0x11 PUSH1 0x20 MSTORE PUSH1 0x40 DUP6 KECCAK256 PUSH1 0xFF NOT DUP2 SLOAD AND SWAP1 SSTORE DUP3 DUP5 SLOAD AND DUP6 MSTORE PUSH1 0x10 PUSH1 0x20 MSTORE DUP5 PUSH1 0x40 DUP2 KECCAK256 SSTORE ADD SLOAD SWAP2 SLOAD AND GAS CALL PUSH2 0x110C PUSH2 0x4E79 JUMP JUMPDEST POP PUSH2 0x4EA9 JUMP JUMPDEST PUSH32 0x6E5041900D295BFA61F87310386B97D863882FF214021A45B4E5DA847849F10F PUSH1 0x0 DUP1 LOG2 PUSH1 0x1 PUSH1 0x0 SSTORE STOP JUMPDEST POP PUSH1 0x2 SLOAD DUP3 GT ISZERO PUSH2 0x1077 JUMP JUMPDEST CALLVALUE PUSH2 0x391 JUMPI PUSH2 0x1158 CALLDATASIZE PUSH2 0x4A07 JUMP JUMPDEST SWAP1 PUSH2 0x1161 PUSH2 0x4F3B JUMP JUMPDEST DUP1 ISZERO ISZERO DUP1 PUSH2 0x1487 JUMPI JUMPDEST PUSH2 0x1173 SWAP1 PUSH2 0x4DD4 JUMP JUMPDEST PUSH2 0x1180 PUSH2 0x82E CALLER DUP4 PUSH2 0x55CF JUMP JUMPDEST PUSH2 0x1188 PUSH2 0x4EE5 JUMP JUMPDEST DUP1 PUSH1 0x0 MSTORE PUSH1 0x3 PUSH1 0x20 MSTORE PUSH1 0x40 PUSH1 0x0 KECCAK256 PUSH1 0xD PUSH1 0x20 MSTORE PUSH1 0x40 PUSH1 0x0 KECCAK256 DUP4 PUSH1 0x0 MSTORE PUSH1 0x20 MSTORE PUSH1 0x40 PUSH1 0x0 KECCAK256 SWAP1 PUSH1 0x6 DUP3 ADD SWAP1 DUP2 SLOAD PUSH2 0x11C1 PUSH1 0xFF DUP3 AND ISZERO PUSH2 0x5316 JUMP JUMPDEST PUSH2 0x11D0 PUSH1 0x3 DUP6 ADD SLOAD TIMESTAMP GT PUSH2 0x5355 JUMP JUMPDEST PUSH1 0x7 DUP3 ADD SLOAD PUSH1 0x1 SHR SWAP1 PUSH1 0x1 DUP3 ADD DUP1 SWAP3 GT PUSH2 0xF5C JUMPI PUSH1 0x4 DUP6 ADD SLOAD PUSH2 0xFFFF NOT SWAP1 SWAP2 AND SWAP2 GT ISZERO PUSH1 0x8 DUP2 SWAP1 SHL PUSH2 0xFF00 AND SWAP2 SWAP1 SWAP2 OR PUSH1 0x1 OR SWAP1 SWAP3 SSTORE DUP2 ISZERO PUSH2 0x1438 JUMPI PUSH1 0x1 DUP4 ADD SLOAD PUSH1 0x0 DUP6 DUP2 MSTORE PUSH1 0x3 PUSH1 0x20 MSTORE PUSH1 0x40 DUP2 KECCAK256 PUSH1 0x7 ADD SWAP6 SWAP2 PUSH1 0x1 PUSH1 0x1 PUSH1 0xA0 SHL SUB AND SWAP1 JUMPDEST DUP7 SLOAD DUP1 DUP3 LT ISZERO PUSH2 0x142B JUMPI DUP3 PUSH2 0x1244 DUP4 DUP11 PUSH2 0x4ADE JUMP JUMPDEST SWAP1 SLOAD PUSH1 0x3 SWAP2 SWAP1 SWAP2 SHL SHR PUSH1 0x1 PUSH1 0x1 PUSH1 0xA0 SHL SUB AND EQ PUSH2 0x126A JUMPI POP PUSH2 0x1265 SWAP1 PUSH2 0x4F7F JUMP JUMPDEST PUSH2 0x122F JUMP JUMPDEST SWAP1 PUSH1 0x0 SWAP8 SWAP3 SWAP4 SWAP5 SWAP6 SWAP7 SWAP8 NOT DUP3 ADD SWAP2 DUP3 GT PUSH2 0xF5C JUMPI PUSH2 0x12A7 PUSH2 0x128E PUSH2 0x12C6 SWAP4 DUP6 PUSH2 0x4ADE JUMP JUMPDEST SWAP1 SLOAD PUSH1 0x3 SWAP2 SWAP1 SWAP2 SHL SHR PUSH1 0x1 PUSH1 0x1 PUSH1 0xA0 SHL SUB AND SWAP2 DUP5 PUSH2 0x4ADE JUMP JUMPDEST SWAP1 SWAP2 SWAP1 DUP3 SLOAD SWAP1 PUSH1 0x3 SHL SWAP2 PUSH1 0x1 DUP1 PUSH1 0xA0 SHL SUB DUP1 SWAP2 AND DUP4 SHL SWAP3 SHL NOT AND OR SWAP1 SSTORE JUMP JUMPDEST DUP1 SLOAD DUP1 ISZERO PUSH2 0x1415 JUMPI PUSH1 0x0 NOT ADD SWAP1 PUSH2 0x12DD DUP3 DUP3 PUSH2 0x4ADE JUMP JUMPDEST DUP2 SLOAD SWAP1 PUSH1 0x1 DUP1 PUSH1 0xA0 SHL SUB SWAP1 PUSH1 0x3 SHL SHL NOT AND SWAP1 SSTORE SSTORE JUMPDEST DUP1 PUSH1 0x0 MSTORE PUSH1 0x11 PUSH1 0x20 MSTORE PUSH1 0x40 PUSH1 0x0 KECCAK256 PUSH1 0xFF NOT DUP2 SLOAD AND SWAP1 SSTORE PUSH1 0x10 PUSH1 0x20 MSTORE PUSH1 0x0 PUSH1 0x40 DUP2 KECCAK256 SSTORE DUP2 PUSH1 0x0 MSTORE PUSH1 0x5 PUSH1 0x20 MSTORE PUSH1 0x40 PUSH1 0x0 KECCAK256 DUP2 PUSH1 0x0 MSTORE PUSH1 0x20 MSTORE PUSH1 0x5 PUSH1 0x40 PUSH1 0x0 KECCAK256 ADD PUSH1 0xFF NOT DUP2 SLOAD AND SWAP1 SSTORE DUP2 PUSH1 0x0 MSTORE PUSH1 0xF PUSH1 0x20 MSTORE PUSH1 0x40 PUSH1 0x0 KECCAK256 SWAP1 PUSH1 0x0 MSTORE PUSH1 0x20 MSTORE PUSH1 0x0 PUSH1 0x40 DUP2 KECCAK256 SSTORE PUSH2 0x1368 PUSH1 0x3 DUP4 ADD SLOAD PUSH1 0x7 DUP5 ADD SLOAD SWAP1 PUSH2 0x528D JUMP JUMPDEST SWAP3 PUSH1 0x0 JUMPDEST PUSH1 0x7 DUP5 ADD SLOAD DUP2 LT ISZERO PUSH2 0x13C8 JUMPI PUSH2 0x13C3 SWAP1 DUP4 PUSH1 0x0 MSTORE PUSH1 0x4 PUSH1 0x20 MSTORE PUSH1 0x40 PUSH1 0x0 KECCAK256 PUSH2 0x1397 DUP3 PUSH1 0x7 DUP9 ADD PUSH2 0x4ADE JUMP JUMPDEST PUSH1 0x1 DUP1 PUSH1 0xA0 SHL SUB SWAP2 SLOAD SWAP1 PUSH1 0x3 SHL SHR AND PUSH1 0x0 MSTORE PUSH1 0x20 MSTORE PUSH1 0x40 PUSH1 0x0 KECCAK256 PUSH2 0x13BC DUP8 DUP3 SLOAD PUSH2 0x4E51 JUMP JUMPDEST SWAP1 SSTORE PUSH2 0x4F7F JUMP JUMPDEST PUSH2 0x136C JUMP JUMPDEST POP SWAP2 POP SWAP3 PUSH32 0xDFB03B3BEEE04DE7B14ABD3E288BA800B7AAA69F5B9F8EE9FE361DD24D4C098D SWAP3 POP JUMPDEST PUSH1 0x1 ADD SLOAD PUSH1 0x40 DUP1 MLOAD PUSH1 0x1 PUSH1 0x1 PUSH1 0xA0 SHL SUB SWAP1 SWAP3 AND DUP3 MSTORE SWAP2 ISZERO ISZERO PUSH1 0x20 DUP3 ADD MSTORE LOG3 PUSH1 0x1 PUSH1 0x0 SSTORE STOP JUMPDEST PUSH4 0x4E487B71 PUSH1 0xE0 SHL PUSH1 0x0 MSTORE PUSH1 0x31 PUSH1 0x4 MSTORE PUSH1 0x24 PUSH1 0x0 REVERT JUMPDEST POP POP SWAP1 SWAP2 SWAP3 SWAP4 SWAP5 POP PUSH2 0x12F2 JUMP JUMPDEST POP PUSH1 0x0 DUP4 DUP2 MSTORE PUSH1 0xF PUSH1 0x20 SWAP1 DUP2 MSTORE PUSH1 0x40 DUP1 DUP4 KECCAK256 PUSH1 0x1 DUP7 ADD SLOAD PUSH1 0x1 PUSH1 0x1 PUSH1 0xA0 SHL SUB AND DUP5 MSTORE SWAP1 SWAP2 MSTORE DUP2 KECCAK256 SSTORE PUSH32 0xDFB03B3BEEE04DE7B14ABD3E288BA800B7AAA69F5B9F8EE9FE361DD24D4C098D SWAP2 PUSH2 0x13F0 JUMP JUMPDEST POP PUSH1 0x2 SLOAD DUP2 GT ISZERO PUSH2 0x116A JUMP JUMPDEST CALLVALUE PUSH2 0x391 JUMPI PUSH1 0x20 CALLDATASIZE PUSH1 0x3 NOT ADD SLT PUSH2 0x391 JUMPI PUSH1 0x4 CALLDATALOAD PUSH1 0x0 MSTORE PUSH1 0x3 PUSH1 0x20 MSTORE PUSH2 0x14CE PUSH2 0x14C2 PUSH1 0x7 PUSH1 0x40 PUSH1 0x0 KECCAK256 ADD PUSH2 0x50DD JUMP JUMPDEST PUSH1 0x40 MLOAD SWAP2 DUP3 SWAP2 DUP3 PUSH2 0x4D2B JUMP JUMPDEST SUB SWAP1 RETURN JUMPDEST CALLVALUE PUSH2 0x391 JUMPI PUSH2 0x14E0 CALLDATASIZE PUSH2 0x4AB4 JUMP JUMPDEST SWAP2 PUSH1 0x0 MSTORE PUSH1 0xE PUSH1 0x20 MSTORE PUSH1 0x40 PUSH1 0x0 KECCAK256 SWAP1 PUSH1 0x0 MSTORE PUSH1 0x20 MSTORE PUSH1 0x40 PUSH1 0x0 KECCAK256 SWAP1 PUSH1 0x1 DUP1 PUSH1 0xA0 SHL SUB AND PUSH1 0x0 MSTORE PUSH1 0x20 MSTORE PUSH1 0x20 PUSH1 0xFF PUSH1 0x40 PUSH1 0x0 KECCAK256 SLOAD AND PUSH1 0x40 MLOAD SWAP1 ISZERO ISZERO DUP2 MSTORE RETURN JUMPDEST CALLVALUE PUSH2 0x391 JUMPI PUSH1 0x40 CALLDATASIZE PUSH1 0x3 NOT ADD SLT PUSH2 0x391 JUMPI PUSH2 0x1537 PUSH2 0x49DB JUMP JUMPDEST PUSH1 0x4 CALLDATALOAD PUSH1 0x0 MSTORE PUSH1 0x4 PUSH1 0x20 MSTORE PUSH1 0x40 PUSH1 0x0 KECCAK256 SWAP1 PUSH1 0x1 DUP1 PUSH1 0xA0 SHL SUB AND PUSH1 0x0 MSTORE PUSH1 0x20 MSTORE PUSH1 0x20 PUSH1 0x40 PUSH1 0x0 KECCAK256 SLOAD PUSH1 0x40 MLOAD SWAP1 DUP2 MSTORE RETURN JUMPDEST PUSH1 0xA0 CALLDATASIZE PUSH1 0x3 NOT ADD SLT PUSH2 0x391 JUMPI PUSH1 0x4 CALLDATALOAD PUSH1 0x1 PUSH1 0x1 PUSH1 0x40 SHL SUB DUP2 GT PUSH2 0x391 JUMPI PUSH2 0x1591 SWAP1 CALLDATASIZE SWAP1 PUSH1 0x4 ADD PUSH2 0x4D6F JUMP JUMPDEST PUSH1 0x64 CALLDATALOAD ISZERO ISZERO PUSH1 0x64 CALLDATALOAD SUB PUSH2 0x391 JUMPI PUSH1 0x1 PUSH1 0x1 PUSH1 0x40 SHL SUB PUSH1 0x84 CALLDATALOAD GT PUSH2 0x391 JUMPI CALLDATASIZE PUSH1 0x23 PUSH1 0x84 CALLDATALOAD ADD SLT ISZERO PUSH2 0x391 JUMPI PUSH1 0x1 PUSH1 0x1 PUSH1 0x40 SHL SUB PUSH1 0x84 CALLDATALOAD PUSH1 0x4 ADD CALLDATALOAD GT PUSH2 0x391 JUMPI CALLDATASIZE PUSH1 0x24 PUSH1 0x84 CALLDATALOAD PUSH1 0x4 ADD CALLDATALOAD PUSH1 0x5 SHL PUSH1 0x84 CALLDATALOAD ADD ADD GT PUSH2 0x391 JUMPI PUSH2 0x15EE PUSH2 0x4F3B JUMP JUMPDEST CALLER PUSH1 0x0 MSTORE PUSH1 0x11 PUSH1 0x20 MSTORE PUSH1 0xFF PUSH1 0x40 PUSH1 0x0 KECCAK256 SLOAD AND PUSH2 0x1BED JUMPI DUP1 ISZERO PUSH2 0x1BB1 JUMPI PUSH1 0x2 PUSH1 0x24 CALLDATALOAD LT PUSH2 0x1B78 JUMPI PUSH1 0x28 PUSH1 0x24 CALLDATALOAD GT PUSH2 0x1B3E JUMPI PUSH1 0x44 SWAP2 PUSH1 0x1 DUP4 CALLDATALOAD LT ISZERO DUP1 PUSH2 0x1B32 JUMPI JUMPDEST ISZERO PUSH2 0x1AF5 JUMPI CALLVALUE ISZERO PUSH2 0x1AB1 JUMPI PUSH1 0x64 CALLDATALOAD PUSH2 0x19A4 JUMPI JUMPDEST PUSH2 0x164B PUSH1 0x2 SLOAD PUSH2 0x4F7F JUMP JUMPDEST SWAP2 DUP3 PUSH1 0x2 SSTORE DUP3 PUSH1 0x0 MSTORE PUSH1 0x3 PUSH1 0x20 MSTORE PUSH1 0x40 PUSH1 0x0 KECCAK256 DUP4 DUP2 SSTORE PUSH1 0x1 PUSH1 0x1 PUSH1 0x40 SHL SUB DUP3 GT PUSH2 0xF46 JUMPI PUSH2 0x1689 DUP3 PUSH2 0x1680 PUSH1 0x1 DUP5 ADD SLOAD PUSH2 0x4AF6 JUMP JUMPDEST PUSH1 0x1 DUP5 ADD PUSH2 0x500E JUMP JUMPDEST PUSH1 0x0 SWAP1 DUP3 PUSH1 0x1F DUP2 GT PUSH1 0x1 EQ PUSH2 0x1933 JUMPI PUSH2 0x1713 SWAP3 PUSH1 0x0 SWAP2 PUSH2 0x1928 JUMPI JUMPDEST POP DUP4 PUSH1 0x1 SHL SWAP1 PUSH1 0x0 NOT DUP6 PUSH1 0x3 SHL SHR NOT AND OR PUSH1 0x1 DUP3 ADD SSTORE JUMPDEST PUSH1 0x2 DUP2 ADD DUP1 SLOAD PUSH1 0xFF PUSH1 0xA0 SHL NOT CALLER AND PUSH1 0x1 PUSH1 0x1 PUSH1 0xA8 SHL SUB NOT SWAP1 SWAP2 AND OR SWAP1 SSTORE CALLVALUE PUSH1 0x3 DUP3 ADD DUP2 SWAP1 SSTORE PUSH1 0x24 CALLDATALOAD PUSH1 0x4 DUP4 ADD SSTORE DUP7 CALLDATALOAD PUSH1 0x5 DUP4 ADD SSTORE PUSH1 0x16 DUP3 ADD SSTORE PUSH1 0x18 DUP2 ADD DUP1 SLOAD PUSH1 0xFF NOT AND PUSH1 0xFF PUSH1 0x64 CALLDATALOAD ISZERO ISZERO AND OR SWAP1 SSTORE PUSH1 0x7 CALLER SWAP2 ADD PUSH2 0x5053 JUMP JUMPDEST CALLER PUSH1 0x0 MSTORE PUSH1 0x10 PUSH1 0x20 MSTORE DUP3 PUSH1 0x40 PUSH1 0x0 KECCAK256 SSTORE PUSH1 0x11 PUSH1 0x20 MSTORE PUSH1 0x40 PUSH1 0x0 KECCAK256 SWAP4 PUSH1 0xFF NOT SWAP5 PUSH1 0x1 DUP7 DUP3 SLOAD AND OR SWAP1 SSTORE PUSH1 0x40 MLOAD SWAP5 PUSH2 0x1748 DUP7 PUSH2 0x4B30 JUMP JUMPDEST CALLER DUP7 MSTORE PUSH2 0x17DE PUSH1 0x20 DUP8 ADD PUSH1 0x64 DUP2 MSTORE PUSH1 0x5 PUSH1 0x40 DUP10 ADD PUSH1 0x0 DUP2 MSTORE PUSH1 0x60 DUP11 ADD PUSH1 0x0 DUP2 MSTORE PUSH1 0x80 DUP12 ADD SWAP1 PUSH1 0x0 DUP3 MSTORE PUSH1 0xA0 DUP13 ADD SWAP3 PUSH1 0x1 DUP5 MSTORE DUP12 PUSH1 0x0 MSTORE DUP5 PUSH1 0x20 MSTORE PUSH1 0x40 PUSH1 0x0 KECCAK256 CALLER PUSH1 0x0 MSTORE PUSH1 0x20 MSTORE PUSH1 0x40 PUSH1 0x0 KECCAK256 SWAP6 PUSH1 0x1 DUP1 PUSH1 0xA0 SHL SUB DUP1 SWAP15 MLOAD AND PUSH1 0x1 PUSH1 0x1 PUSH1 0x60 SHL SUB PUSH1 0xA0 SHL DUP9 SLOAD AND OR DUP8 SSTORE MLOAD PUSH1 0x1 DUP8 ADD SSTORE MLOAD PUSH1 0x2 DUP7 ADD SSTORE MLOAD PUSH1 0x3 DUP6 ADD SSTORE MLOAD PUSH1 0x4 DUP5 ADD SSTORE MLOAD ISZERO ISZERO SWAP2 ADD SWAP1 PUSH1 0xFF DUP1 NOT DUP4 SLOAD AND SWAP2 ISZERO ISZERO AND OR SWAP1 SSTORE JUMP JUMPDEST PUSH1 0x64 CALLDATALOAD PUSH2 0x184C JUMPI JUMPDEST POP PUSH32 0x7A227E0E50D43CCBA33AE2DA80553FEECFE250CB454156C8D1D7FD53E80A6D16 SWAP4 SWAP5 POP PUSH2 0x1828 PUSH1 0x40 MLOAD SWAP4 DUP5 SWAP4 CALLER DUP6 MSTORE PUSH1 0xC0 PUSH1 0x20 DUP7 ADD MSTORE PUSH1 0xC0 DUP6 ADD SWAP2 PUSH2 0x507B JUMP JUMPDEST SWAP1 CALLVALUE PUSH1 0x40 DUP5 ADD MSTORE PUSH1 0x24 CALLDATALOAD PUSH1 0x60 DUP5 ADD MSTORE CALLDATALOAD PUSH1 0x80 DUP4 ADD MSTORE PUSH1 0x64 CALLDATALOAD ISZERO ISZERO PUSH1 0xA0 DUP4 ADD MSTORE SUB SWAP1 LOG2 STOP JUMPDEST PUSH1 0x84 CALLDATALOAD PUSH1 0x24 ADD PUSH1 0x0 JUMPDEST PUSH1 0x84 CALLDATALOAD PUSH1 0x4 ADD CALLDATALOAD DUP2 LT PUSH2 0x18B2 JUMPI POP POP DUP5 PUSH32 0x7A227E0E50D43CCBA33AE2DA80553FEECFE250CB454156C8D1D7FD53E80A6D16 SWAP6 SWAP7 POP PUSH1 0x0 MSTORE PUSH1 0x12 PUSH1 0x20 MSTORE PUSH1 0x40 PUSH1 0x0 KECCAK256 CALLER PUSH1 0x0 MSTORE PUSH1 0x20 MSTORE PUSH1 0x1 PUSH1 0x40 PUSH1 0x0 KECCAK256 SWAP2 DUP3 SLOAD AND OR SWAP1 SSTORE DUP5 SWAP4 PUSH2 0x17E6 JUMP JUMPDEST PUSH2 0x1923 SWAP1 DUP8 PUSH1 0x0 MSTORE PUSH1 0x12 PUSH1 0x20 MSTORE PUSH1 0x40 PUSH1 0x0 KECCAK256 DUP10 PUSH2 0x18DE PUSH2 0x18D9 DUP5 PUSH1 0x84 CALLDATALOAD PUSH1 0x4 ADD CALLDATALOAD DUP9 PUSH2 0x4F8E JUMP JUMPDEST PUSH2 0x4F9E JUMP JUMPDEST AND PUSH1 0x0 MSTORE PUSH1 0x20 MSTORE PUSH1 0x40 PUSH1 0x0 KECCAK256 PUSH1 0x1 DUP6 DUP3 SLOAD AND OR SWAP1 SSTORE DUP8 PUSH1 0x0 MSTORE PUSH1 0x13 PUSH1 0x20 MSTORE PUSH2 0x191E PUSH1 0x40 PUSH1 0x0 KECCAK256 PUSH2 0x1918 PUSH2 0x18D9 DUP5 PUSH1 0x84 CALLDATALOAD PUSH1 0x4 ADD CALLDATALOAD DUP9 PUSH2 0x4F8E JUMP JUMPDEST SWAP1 PUSH2 0x5053 JUMP JUMPDEST PUSH2 0x4F7F JUMP JUMPDEST PUSH2 0x1855 JUMP JUMPDEST SWAP1 POP DUP5 ADD CALLDATALOAD DUP8 PUSH2 0x16A4 JUMP JUMPDEST POP PUSH1 0x1 DUP2 ADD PUSH1 0x0 MSTORE PUSH1 0x20 PUSH1 0x0 KECCAK256 PUSH1 0x0 SWAP3 JUMPDEST PUSH1 0x1F NOT DUP6 AND DUP5 LT PUSH2 0x198C JUMPI PUSH2 0x1713 SWAP4 POP DUP5 PUSH1 0x1F NOT DUP2 AND LT PUSH2 0x1972 JUMPI JUMPDEST POP POP PUSH1 0x1 DUP4 DUP2 SHL ADD PUSH1 0x1 DUP3 ADD SSTORE PUSH2 0x16BB JUMP JUMPDEST DUP6 ADD CALLDATALOAD PUSH1 0x0 NOT PUSH1 0x3 DUP7 SWAP1 SHL PUSH1 0xF8 AND SHR NOT AND SWAP1 SSTORE DUP7 DUP1 PUSH2 0x1960 JUMP JUMPDEST DUP6 DUP2 ADD CALLDATALOAD DUP3 SSTORE PUSH1 0x20 SWAP4 DUP5 ADD SWAP4 PUSH1 0x1 SWAP1 SWAP3 ADD SWAP2 ADD PUSH2 0x1944 JUMP JUMPDEST PUSH1 0x84 CALLDATALOAD PUSH1 0x4 ADD CALLDATALOAD ISZERO PUSH2 0x1A58 JUMPI PUSH1 0x84 CALLDATALOAD PUSH1 0x24 ADD PUSH1 0x0 JUMPDEST PUSH1 0x84 CALLDATALOAD PUSH1 0x4 ADD CALLDATALOAD DUP2 LT PUSH2 0x19CD JUMPI POP POP PUSH2 0x1640 JUMP JUMPDEST PUSH1 0x1 PUSH1 0x1 PUSH1 0xA0 SHL SUB DUP1 PUSH2 0x19EA PUSH2 0x18D9 DUP5 PUSH1 0x4 PUSH1 0x84 CALLDATALOAD ADD CALLDATALOAD DUP8 PUSH2 0x4F8E JUMP JUMPDEST AND ISZERO PUSH2 0x1A1B JUMPI SWAP1 PUSH2 0x191E PUSH2 0x1A16 SWAP3 CALLER SWAP1 PUSH2 0x1A0E PUSH2 0x18D9 DUP6 PUSH1 0x84 CALLDATALOAD PUSH1 0x4 ADD CALLDATALOAD DUP10 PUSH2 0x4F8E JUMP JUMPDEST AND EQ ISZERO PUSH2 0x4FB2 JUMP JUMPDEST PUSH2 0x19B9 JUMP JUMPDEST PUSH1 0x40 MLOAD PUSH3 0x461BCD PUSH1 0xE5 SHL DUP2 MSTORE PUSH1 0x20 PUSH1 0x4 DUP3 ADD MSTORE PUSH1 0x16 PUSH1 0x24 DUP3 ADD MSTORE PUSH22 0x496E76616C696420696E766974652061646472657373 PUSH1 0x50 SHL DUP2 DUP9 ADD MSTORE PUSH1 0x64 SWAP1 REVERT JUMPDEST PUSH1 0x40 MLOAD PUSH3 0x461BCD PUSH1 0xE5 SHL DUP2 MSTORE PUSH1 0x20 PUSH1 0x4 DUP3 ADD MSTORE PUSH1 0x2C PUSH1 0x24 DUP3 ADD MSTORE PUSH32 0x507269766174652067726F757073206D7573742068617665206174206C656173 DUP2 DUP6 ADD MSTORE PUSH12 0x74206F6E6520696E76697465 PUSH1 0xA0 SHL PUSH1 0x64 DUP3 ADD MSTORE PUSH1 0x84 SWAP1 REVERT JUMPDEST PUSH1 0x40 MLOAD PUSH3 0x461BCD PUSH1 0xE5 SHL DUP2 MSTORE PUSH1 0x20 PUSH1 0x4 DUP3 ADD MSTORE PUSH1 0x18 PUSH1 0x24 DUP3 ADD MSTORE PUSH32 0x436F6E747269627574696F6E206D757374206265203E20300000000000000000 DUP2 DUP6 ADD MSTORE PUSH1 0x64 SWAP1 REVERT JUMPDEST PUSH1 0x40 MLOAD PUSH3 0x461BCD PUSH1 0xE5 SHL DUP2 MSTORE PUSH1 0x20 PUSH1 0x4 DUP3 ADD MSTORE PUSH1 0x16 PUSH1 0x24 DUP3 ADD MSTORE PUSH22 0x54656E7572653A203120746F203234206D6F6E746873 PUSH1 0x50 SHL DUP2 DUP6 ADD MSTORE PUSH1 0x64 SWAP1 REVERT JUMPDEST POP PUSH1 0x18 DUP4 CALLDATALOAD GT ISZERO PUSH2 0x162D JUMP JUMPDEST PUSH1 0x40 MLOAD PUSH3 0x461BCD PUSH1 0xE5 SHL DUP2 MSTORE PUSH1 0x20 PUSH1 0x4 DUP3 ADD MSTORE PUSH1 0x12 PUSH1 0x24 DUP3 ADD MSTORE PUSH18 0x4D6178696D756D203430206D656D62657273 PUSH1 0x70 SHL PUSH1 0x44 DUP3 ADD MSTORE PUSH1 0x64 SWAP1 REVERT JUMPDEST PUSH1 0x40 MLOAD PUSH3 0x461BCD PUSH1 0xE5 SHL DUP2 MSTORE PUSH1 0x20 PUSH1 0x4 DUP3 ADD MSTORE PUSH1 0x11 PUSH1 0x24 DUP3 ADD MSTORE PUSH17 0x4D696E696D756D2032206D656D62657273 PUSH1 0x78 SHL PUSH1 0x44 DUP3 ADD MSTORE PUSH1 0x64 SWAP1 REVERT JUMPDEST PUSH1 0x40 MLOAD PUSH3 0x461BCD PUSH1 0xE5 SHL DUP2 MSTORE PUSH1 0x20 PUSH1 0x4 DUP3 ADD MSTORE PUSH1 0x14 PUSH1 0x24 DUP3 ADD MSTORE PUSH20 0x4E616D652063616E6E6F7420626520656D707479 PUSH1 0x60 SHL PUSH1 0x44 DUP3 ADD MSTORE PUSH1 0x64 SWAP1 REVERT JUMPDEST PUSH1 0x40 MLOAD PUSH3 0x461BCD PUSH1 0xE5 SHL DUP2 MSTORE PUSH1 0x20 PUSH1 0x4 DUP3 ADD MSTORE PUSH1 0x19 PUSH1 0x24 DUP3 ADD MSTORE PUSH32 0x4C656176652063757272656E742067726F757020666972737400000000000000 PUSH1 0x44 DUP3 ADD MSTORE PUSH1 0x64 SWAP1 REVERT JUMPDEST CALLVALUE PUSH2 0x391 JUMPI PUSH1 0x20 CALLDATASIZE PUSH1 0x3 NOT ADD SLT PUSH2 0x391 JUMPI PUSH1 0x4 CALLDATALOAD PUSH1 0x0 MSTORE PUSH1 0x13 PUSH1 0x20 MSTORE PUSH2 0x14CE PUSH2 0x14C2 PUSH1 0x40 PUSH1 0x0 KECCAK256 PUSH2 0x50DD JUMP JUMPDEST CALLVALUE PUSH2 0x391 JUMPI PUSH2 0x1C6C CALLDATASIZE PUSH2 0x4AB4 JUMP JUMPDEST SWAP2 PUSH1 0x0 MSTORE PUSH1 0xB PUSH1 0x20 MSTORE PUSH1 0x40 PUSH1 0x0 KECCAK256 SWAP1 PUSH1 0x0 MSTORE PUSH1 0x20 MSTORE PUSH1 0x40 PUSH1 0x0 KECCAK256 SWAP1 PUSH1 0x1 DUP1 PUSH1 0xA0 SHL SUB AND PUSH1 0x0 MSTORE PUSH1 0x20 MSTORE PUSH1 0x20 PUSH1 0xFF PUSH1 0x40 PUSH1 0x0 KECCAK256 SLOAD AND PUSH1 0x40 MLOAD SWAP1 ISZERO ISZERO DUP2 MSTORE RETURN JUMPDEST CALLVALUE PUSH2 0x391 JUMPI PUSH1 0x40 CALLDATASIZE PUSH1 0x3 NOT ADD SLT PUSH2 0x391 JUMPI PUSH1 0x4 CALLDATALOAD PUSH2 0x1CC6 PUSH2 0x49DB JUMP JUMPDEST SWAP1 PUSH2 0x1CCF PUSH2 0x4F3B JUMP JUMPDEST DUP1 ISZERO ISZERO DUP1 PUSH2 0x1F06 JUMPI JUMPDEST PUSH2 0x1CE1 SWAP1 PUSH2 0x4DD4 JUMP JUMPDEST PUSH1 0x0 DUP2 DUP2 MSTORE PUSH1 0x3 PUSH1 0x20 SWAP1 DUP2 MSTORE PUSH1 0x40 SWAP1 SWAP2 KECCAK256 PUSH1 0x2 DUP2 ADD SLOAD PUSH1 0x1 PUSH1 0x1 PUSH1 0xA0 SHL SUB SWAP5 SWAP3 SWAP2 DUP6 DUP3 AND CALLER SUB PUSH2 0x1EC1 JUMPI PUSH1 0x18 ADD SLOAD PUSH1 0xFF AND ISZERO PUSH2 0x1E8A JUMPI DUP4 PUSH1 0x0 MSTORE PUSH1 0x12 DUP3 MSTORE PUSH1 0x40 PUSH1 0x0 KECCAK256 SWAP5 DUP4 AND SWAP5 DUP6 PUSH1 0x0 MSTORE DUP3 MSTORE PUSH1 0xFF PUSH1 0x40 PUSH1 0x0 KECCAK256 SLOAD AND PUSH2 0x1E53 JUMPI DUP5 ISZERO PUSH2 0x1E1C JUMPI PUSH1 0xFF SWAP1 PUSH2 0x1D50 CALLER DUP8 EQ ISZERO PUSH2 0x4FB2 JUMP JUMPDEST PUSH1 0xA0 SHR AND PUSH1 0x4 DUP2 LT ISZERO PUSH2 0x76E JUMPI PUSH1 0x1 DUP2 EQ SWAP1 DUP2 ISZERO PUSH2 0x1E13 JUMPI JUMPDEST POP ISZERO PUSH2 0x1DCF JUMPI SWAP1 PUSH1 0x13 PUSH2 0x1DA8 SWAP3 DUP5 PUSH1 0x0 MSTORE PUSH1 0x12 DUP2 MSTORE PUSH1 0x40 PUSH1 0x0 KECCAK256 DUP7 PUSH1 0x0 MSTORE DUP2 MSTORE PUSH1 0x40 PUSH1 0x0 KECCAK256 PUSH1 0x1 PUSH1 0xFF NOT DUP3 SLOAD AND OR SWAP1 SSTORE DUP5 PUSH1 0x0 MSTORE MSTORE PUSH1 0x40 PUSH1 0x0 KECCAK256 PUSH2 0x5053 JUMP JUMPDEST PUSH32 0x6E32DA99952E6892C42B54EEC8C835D9A2E0A6C879C0219CC693229E6894175A PUSH1 0x0 DUP1 LOG3 STOP JUMPDEST PUSH1 0x64 SWAP1 PUSH1 0x40 MLOAD SWAP1 PUSH3 0x461BCD PUSH1 0xE5 SHL DUP3 MSTORE PUSH1 0x4 DUP3 ADD MSTORE PUSH1 0x1A PUSH1 0x24 DUP3 ADD MSTORE PUSH32 0x47726F7570206E6F74206F70656E20666F7220696E7669746573000000000000 PUSH1 0x44 DUP3 ADD MSTORE REVERT JUMPDEST SWAP1 POP ISZERO DUP6 PUSH2 0x1D69 JUMP JUMPDEST PUSH1 0x40 MLOAD PUSH3 0x461BCD PUSH1 0xE5 SHL DUP2 MSTORE PUSH1 0x4 DUP2 ADD DUP4 SWAP1 MSTORE PUSH1 0xF PUSH1 0x24 DUP3 ADD MSTORE PUSH15 0x496E76616C69642061646472657373 PUSH1 0x88 SHL PUSH1 0x44 DUP3 ADD MSTORE PUSH1 0x64 SWAP1 REVERT JUMPDEST PUSH1 0x40 MLOAD PUSH3 0x461BCD PUSH1 0xE5 SHL DUP2 MSTORE PUSH1 0x4 DUP2 ADD DUP4 SWAP1 MSTORE PUSH1 0xF PUSH1 0x24 DUP3 ADD MSTORE PUSH15 0x105B1C9958591E481A5B9D9A5D1959 PUSH1 0x8A SHL PUSH1 0x44 DUP3 ADD MSTORE PUSH1 0x64 SWAP1 REVERT JUMPDEST PUSH1 0x40 MLOAD PUSH3 0x461BCD PUSH1 0xE5 SHL DUP2 MSTORE PUSH1 0x4 DUP2 ADD DUP4 SWAP1 MSTORE PUSH1 0xF PUSH1 0x24 DUP3 ADD MSTORE PUSH15 0x47726F7570206973207075626C6963 PUSH1 0x88 SHL PUSH1 0x44 DUP3 ADD MSTORE PUSH1 0x64 SWAP1 REVERT JUMPDEST PUSH1 0x40 MLOAD PUSH3 0x461BCD PUSH1 0xE5 SHL DUP2 MSTORE PUSH1 0x4 DUP2 ADD DUP5 SWAP1 MSTORE PUSH1 0x17 PUSH1 0x24 DUP3 ADD MSTORE PUSH32 0x4F6E6C792063726561746F722063616E20696E76697465000000000000000000 PUSH1 0x44 DUP3 ADD MSTORE PUSH1 0x64 SWAP1 REVERT JUMPDEST POP PUSH1 0x2 SLOAD DUP2 GT ISZERO PUSH2 0x1CD8 JUMP JUMPDEST CALLVALUE PUSH2 0x391 JUMPI PUSH1 0x20 CALLDATASIZE PUSH1 0x3 NOT ADD SLT PUSH2 0x391 JUMPI PUSH1 0x4 CALLDATALOAD PUSH1 0x0 MSTORE PUSH1 0x3 PUSH1 0x20 MSTORE PUSH1 0x40 PUSH1 0x0 KECCAK256 DUP1 SLOAD SWAP1 PUSH1 0x1 DUP2 ADD PUSH2 0x1F43 SWAP1 PUSH2 0x4B87 JUMP JUMPDEST PUSH1 0x2 DUP3 ADD SLOAD PUSH1 0x3 DUP4 ADD SLOAD PUSH1 0x4 DUP5 ADD SLOAD PUSH1 0x5 DUP6 ADD SLOAD PUSH1 0x6 DUP7 ADD SLOAD PUSH1 0x8 DUP8 ADD SLOAD SWAP6 SWAP8 PUSH1 0x1 PUSH1 0x1 PUSH1 0xA0 SHL SUB SWAP1 SWAP7 AND SWAP7 SWAP4 SWAP5 PUSH2 0x1F7D PUSH1 0x9 DUP7 ADD PUSH2 0x4C6D JUMP JUMPDEST PUSH2 0x1F89 PUSH1 0x10 DUP8 ADD PUSH2 0x4CC2 JUMP JUMPDEST SWAP9 PUSH1 0x14 DUP8 ADD SLOAD SWAP4 PUSH1 0x15 DUP9 ADD SLOAD SWAP6 PUSH1 0x16 DUP10 ADD SLOAD SWAP8 PUSH1 0x17 DUP11 ADD SLOAD SWAP10 PUSH1 0x18 ADD SLOAD PUSH1 0xFF AND SWAP11 PUSH1 0x40 MLOAD SWAP15 DUP16 SWAP14 DUP15 MSTORE DUP14 PUSH2 0x340 SWAP1 DUP2 PUSH1 0x20 DUP3 ADD MSTORE ADD PUSH2 0x1FC7 SWAP2 PUSH2 0x4C2D JUMP JUMPDEST PUSH1 0x1 PUSH1 0x1 PUSH1 0xA0 SHL SUB DUP9 AND PUSH1 0x40 SWAP1 SWAP15 ADD SWAP14 SWAP1 SWAP14 MSTORE PUSH1 0xFF PUSH1 0xA0 DUP9 SWAP1 SHR AND PUSH1 0x4 GT ISZERO PUSH2 0x76E JUMPI DUP15 PUSH1 0xA0 SWAP2 PUSH1 0xFF PUSH1 0xC0 SWAP10 DUP5 SHR AND PUSH1 0x60 DUP4 ADD MSTORE PUSH1 0x80 DUP3 ADD MSTORE ADD MSTORE DUP5 DUP14 ADD MSTORE PUSH1 0xE0 DUP13 ADD MSTORE PUSH2 0x100 DUP12 ADD MSTORE DUP1 MLOAD PUSH2 0x120 DUP12 ADD MSTORE PUSH1 0x20 DUP2 ADD MLOAD PUSH2 0x140 DUP12 ADD MSTORE PUSH1 0x40 DUP2 ADD MLOAD PUSH2 0x160 DUP12 ADD MSTORE PUSH1 0x60 DUP2 ADD MLOAD PUSH2 0x180 DUP12 ADD MSTORE PUSH1 0x80 DUP2 ADD MLOAD PUSH2 0x1A0 DUP12 ADD MSTORE PUSH1 0xA0 DUP2 ADD MLOAD PUSH2 0x1C0 DUP12 ADD MSTORE ADD MLOAD ISZERO ISZERO PUSH2 0x1E0 DUP10 ADD MSTORE DUP7 MLOAD PUSH1 0x3 DUP2 LT ISZERO PUSH2 0x76E JUMPI DUP9 SWAP8 PUSH1 0x80 SWAP2 PUSH2 0x200 DUP11 ADD MSTORE PUSH1 0x20 DUP2 ADD MLOAD PUSH2 0x220 DUP11 ADD MSTORE PUSH1 0x40 DUP2 ADD MLOAD PUSH2 0x240 DUP11 ADD MSTORE PUSH1 0x1 DUP1 PUSH1 0xA0 SHL SUB PUSH1 0x60 DUP3 ADD MLOAD AND PUSH2 0x260 DUP11 ADD MSTORE ADD MLOAD ISZERO ISZERO PUSH2 0x280 DUP9 ADD MSTORE PUSH2 0x2A0 DUP8 ADD MSTORE PUSH2 0x2C0 DUP7 ADD MSTORE PUSH2 0x2E0 DUP6 ADD MSTORE PUSH2 0x300 DUP5 ADD MSTORE ISZERO ISZERO PUSH2 0x320 DUP4 ADD MSTORE SUB SWAP1 RETURN JUMPDEST CALLVALUE PUSH2 0x391 JUMPI PUSH1 0x0 CALLDATASIZE PUSH1 0x3 NOT ADD SLT PUSH2 0x391 JUMPI PUSH1 0x2 DUP1 SLOAD PUSH1 0x0 PUSH1 0x1 JUMPDEST DUP3 DUP2 GT ISZERO PUSH2 0x218A JUMPI POP PUSH2 0x20F3 SWAP1 PUSH2 0x5393 JUMP JUMPDEST SWAP1 PUSH1 0x0 SWAP3 PUSH1 0x1 JUMPDEST DUP3 DUP2 GT ISZERO PUSH2 0x2110 JUMPI PUSH1 0x40 MLOAD DUP1 PUSH2 0x14CE DUP7 DUP3 PUSH2 0x4A56 JUMP JUMPDEST DUP1 PUSH1 0x0 MSTORE PUSH1 0x3 SWAP1 PUSH1 0x20 DUP3 DUP2 MSTORE PUSH1 0xFF DUP1 DUP6 PUSH1 0x40 PUSH1 0x0 KECCAK256 ADD SLOAD PUSH1 0xA0 SHR AND SWAP4 PUSH1 0x4 DUP6 LT ISZERO PUSH2 0x76E JUMPI PUSH1 0x1 PUSH2 0x214F SWAP6 EQ SWAP3 DUP4 PUSH2 0x216E JUMPI JUMPDEST POP POP POP PUSH2 0x2154 JUMPI PUSH2 0x4F7F JUMP JUMPDEST PUSH2 0x20FA JUMP JUMPDEST DUP1 PUSH2 0x2168 PUSH2 0x2161 DUP9 PUSH2 0x4F7F JUMP JUMPDEST SWAP8 DUP8 PUSH2 0x526C JUMP JUMPDEST MSTORE PUSH2 0x4F7F JUMP JUMPDEST SWAP1 SWAP2 SWAP3 POP DUP4 PUSH1 0x0 MSTORE MSTORE PUSH1 0x18 PUSH1 0x40 PUSH1 0x0 KECCAK256 ADD SLOAD AND ISZERO DUP8 DUP1 DUP1 PUSH2 0x2143 JUMP JUMPDEST DUP1 PUSH1 0x0 MSTORE PUSH1 0x3 PUSH1 0x20 SWAP1 DUP1 DUP3 MSTORE PUSH1 0xFF SWAP1 DUP2 DUP8 PUSH1 0x40 PUSH1 0x0 KECCAK256 ADD SLOAD PUSH1 0xA0 SHR AND PUSH1 0x4 DUP2 LT ISZERO PUSH2 0x76E JUMPI PUSH1 0x1 EQ SWAP3 DUP4 PUSH2 0x21E4 JUMPI JUMPDEST POP POP POP PUSH2 0x21CF JUMPI JUMPDEST PUSH2 0x21CA SWAP1 PUSH2 0x4F7F JUMP JUMPDEST PUSH2 0x20E1 JUMP JUMPDEST SWAP1 PUSH2 0x21DC PUSH2 0x21CA SWAP2 PUSH2 0x4F7F JUMP JUMPDEST SWAP2 SWAP1 POP PUSH2 0x21C1 JUMP JUMPDEST SWAP1 SWAP2 SWAP3 POP DUP4 PUSH1 0x0 MSTORE MSTORE PUSH1 0x18 PUSH1 0x40 PUSH1 0x0 KECCAK256 ADD SLOAD AND ISZERO DUP6 DUP1 DUP1 PUSH2 0x21B9 JUMP JUMPDEST CALLVALUE PUSH2 0x391 JUMPI PUSH1 0x20 CALLDATASIZE PUSH1 0x3 NOT ADD SLT PUSH2 0x391 JUMPI PUSH1 0x20 PUSH2 0xB2F PUSH1 0x4 CALLDATALOAD PUSH2 0x55AC JUMP JUMPDEST CALLVALUE PUSH2 0x391 JUMPI PUSH1 0x40 CALLDATASIZE PUSH1 0x3 NOT ADD SLT PUSH2 0x391 JUMPI PUSH2 0x2237 PUSH2 0x49DB JUMP JUMPDEST PUSH1 0x4 CALLDATALOAD PUSH1 0x0 MSTORE PUSH1 0x5 PUSH1 0x20 MSTORE PUSH1 0x40 PUSH1 0x0 KECCAK256 SWAP1 PUSH1 0x1 DUP1 PUSH1 0xA0 SHL SUB AND PUSH1 0x0 MSTORE PUSH1 0x20 MSTORE PUSH1 0x20 PUSH1 0x1 PUSH1 0x40 PUSH1 0x0 KECCAK256 ADD SLOAD PUSH1 0x40 MLOAD SWAP1 DUP2 MSTORE RETURN JUMPDEST CALLVALUE PUSH2 0x391 JUMPI PUSH1 0x0 CALLDATASIZE PUSH1 0x3 NOT ADD SLT PUSH2 0x391 JUMPI PUSH1 0x20 PUSH1 0x40 MLOAD PUSH3 0x7A120 DUP2 MSTORE RETURN JUMPDEST CALLVALUE PUSH2 0x391 JUMPI PUSH1 0x0 CALLDATASIZE PUSH1 0x3 NOT ADD SLT PUSH2 0x391 JUMPI PUSH1 0x20 PUSH1 0x2 SLOAD PUSH1 0x40 MLOAD SWAP1 DUP2 MSTORE RETURN JUMPDEST CALLVALUE PUSH2 0x391 JUMPI PUSH1 0x0 CALLDATASIZE PUSH1 0x3 NOT ADD SLT PUSH2 0x391 JUMPI PUSH1 0x20 PUSH1 0x40 MLOAD PUSH1 0x28 DUP2 MSTORE RETURN JUMPDEST CALLVALUE PUSH2 0x391 JUMPI PUSH1 0x40 CALLDATASIZE PUSH1 0x3 NOT ADD SLT PUSH2 0x391 JUMPI PUSH1 0x4 CALLDATALOAD PUSH2 0x22DD PUSH2 0x49DB JUMP JUMPDEST SWAP1 PUSH2 0x22E6 PUSH2 0x4F3B JUMP JUMPDEST DUP1 ISZERO ISZERO DUP1 PUSH2 0x23FC JUMPI JUMPDEST PUSH2 0x22F8 SWAP1 PUSH2 0x4DD4 JUMP JUMPDEST DUP1 PUSH1 0x0 MSTORE PUSH1 0x20 PUSH1 0x3 DUP2 MSTORE PUSH1 0x1 DUP1 PUSH1 0xA0 SHL SUB DUP1 PUSH1 0x2 PUSH1 0x40 PUSH1 0x0 KECCAK256 ADD SLOAD AND CALLER SUB PUSH2 0x23B7 JUMPI DUP3 PUSH1 0x0 MSTORE PUSH1 0x12 DUP3 MSTORE PUSH1 0x40 PUSH1 0x0 KECCAK256 SWAP4 AND SWAP3 DUP4 PUSH1 0x0 MSTORE DUP2 MSTORE PUSH1 0xFF PUSH1 0x40 PUSH1 0x0 KECCAK256 SLOAD AND ISZERO PUSH2 0x2385 JUMPI DUP2 PUSH1 0x0 MSTORE PUSH1 0x12 DUP2 MSTORE PUSH1 0x40 PUSH1 0x0 KECCAK256 SWAP1 DUP4 PUSH1 0x0 MSTORE MSTORE PUSH1 0x40 PUSH1 0x0 KECCAK256 PUSH1 0xFF NOT DUP2 SLOAD AND SWAP1 SSTORE PUSH32 0x8AEC0DB50E2FB503D8EF5D554809D700E2878A7431E522A5DA1D94BF356DC438 PUSH1 0x0 DUP1 LOG3 STOP JUMPDEST PUSH1 0x64 SWAP1 PUSH1 0x40 MLOAD SWAP1 PUSH3 0x461BCD PUSH1 0xE5 SHL DUP3 MSTORE PUSH1 0x4 DUP3 ADD MSTORE PUSH1 0xB PUSH1 0x24 DUP3 ADD MSTORE PUSH11 0x139BDD081A5B9D9A5D1959 PUSH1 0xAA SHL PUSH1 0x44 DUP3 ADD MSTORE REVERT JUMPDEST PUSH1 0x40 MLOAD PUSH3 0x461BCD PUSH1 0xE5 SHL DUP2 MSTORE PUSH1 0x4 DUP2 ADD DUP4 SWAP1 MSTORE PUSH1 0x17 PUSH1 0x24 DUP3 ADD MSTORE PUSH32 0x4F6E6C792063726561746F722063616E207265766F6B65000000000000000000 PUSH1 0x44 DUP3 ADD MSTORE PUSH1 0x64 SWAP1 REVERT JUMPDEST POP PUSH1 0x2 SLOAD DUP2 GT ISZERO PUSH2 0x22EF JUMP JUMPDEST CALLVALUE PUSH2 0x391 JUMPI PUSH1 0x20 CALLDATASIZE PUSH1 0x3 NOT ADD SLT PUSH2 0x391 JUMPI PUSH1 0x4 CALLDATALOAD PUSH1 0x0 MSTORE PUSH1 0x3 PUSH1 0x20 MSTORE PUSH1 0x20 PUSH2 0xB2F PUSH2 0x244B PUSH2 0x243C PUSH1 0x9 PUSH1 0x40 PUSH1 0x0 KECCAK256 ADD PUSH2 0x4C6D JUMP JUMPDEST DUP4 PUSH1 0x40 DUP3 ADD MLOAD SWAP2 ADD MLOAD SWAP1 PUSH2 0x4E51 JUMP JUMPDEST PUSH2 0x55AC JUMP JUMPDEST CALLVALUE PUSH2 0x391 JUMPI PUSH1 0x0 CALLDATASIZE PUSH1 0x3 NOT ADD SLT PUSH2 0x391 JUMPI PUSH1 0x1 DUP1 SLOAD PUSH2 0x247D CALLER PUSH1 0x8 DUP4 SWAP1 SHR PUSH1 0x1 PUSH1 0x1 PUSH1 0xA0 SHL SUB AND EQ PUSH2 0x4D9C JUMP JUMPDEST PUSH2 0x2485 PUSH2 0x4F3B JUMP JUMPDEST PUSH1 0xFF NOT AND OR PUSH1 0x1 SSTORE PUSH32 0x62E78CEA01BEE320CD4E420270B5EA74000D11B0C9F74754EBDBFC544B05A258 PUSH1 0x20 PUSH1 0x40 MLOAD CALLER DUP2 MSTORE LOG1 STOP JUMPDEST CALLVALUE PUSH2 0x391 JUMPI PUSH1 0x40 CALLDATASIZE PUSH1 0x3 NOT ADD SLT PUSH2 0x391 JUMPI PUSH2 0x24D2 PUSH2 0x49DB JUMP JUMPDEST PUSH1 0x4 CALLDATALOAD PUSH1 0x0 MSTORE PUSH1 0x8 PUSH1 0x20 MSTORE PUSH1 0x40 PUSH1 0x0 KECCAK256 SWAP1 PUSH1 0x1 DUP1 PUSH1 0xA0 SHL SUB AND PUSH1 0x0 MSTORE PUSH1 0x20 MSTORE PUSH1 0x20 PUSH1 0x40 PUSH1 0x0 KECCAK256 SLOAD PUSH1 0x40 MLOAD SWAP1 DUP2 MSTORE RETURN JUMPDEST CALLVALUE PUSH2 0x391 JUMPI PUSH1 0x20 DUP1 PUSH1 0x3 NOT CALLDATASIZE ADD SLT PUSH2 0x391 JUMPI PUSH1 0x4 CALLDATALOAD SWAP1 PUSH2 0x251F PUSH2 0x4F3B JUMP JUMPDEST DUP2 ISZERO ISZERO DUP1 PUSH2 0x25FC JUMPI JUMPDEST PUSH2 0x2531 SWAP1 PUSH2 0x4DD4 JUMP JUMPDEST PUSH2 0x253E PUSH2 0x82E CALLER DUP5 PUSH2 0x55CF JUMP JUMPDEST PUSH2 0x2546 PUSH2 0x4EE5 JUMP JUMPDEST DUP2 PUSH1 0x0 MSTORE PUSH1 0x4 DUP2 MSTORE PUSH1 0x40 PUSH1 0x0 KECCAK256 CALLER PUSH1 0x0 MSTORE DUP2 MSTORE PUSH1 0x40 PUSH1 0x0 KECCAK256 SLOAD SWAP1 DUP2 ISZERO PUSH2 0x25C0 JUMPI PUSH32 0x9DADF9E0A46D44D7F45907190D0C0FDBF833F91D9B4B7478BAD96964BB98372C SWAP2 PUSH1 0x3 PUSH2 0x900 SWAP3 DUP6 PUSH1 0x0 MSTORE PUSH1 0x4 DUP2 MSTORE PUSH1 0x40 PUSH1 0x0 KECCAK256 CALLER PUSH1 0x0 MSTORE DUP2 MSTORE PUSH1 0x0 PUSH1 0x40 DUP2 KECCAK256 SSTORE DUP6 PUSH1 0x0 MSTORE MSTORE PUSH1 0x17 PUSH1 0x40 PUSH1 0x0 KECCAK256 ADD PUSH2 0x8CC DUP3 DUP3 SLOAD PUSH2 0x5280 JUMP JUMPDEST PUSH1 0x64 SWAP1 PUSH1 0x40 MLOAD SWAP1 PUSH3 0x461BCD PUSH1 0xE5 SHL DUP3 MSTORE PUSH1 0x4 DUP3 ADD MSTORE PUSH1 0x15 PUSH1 0x24 DUP3 ADD MSTORE PUSH21 0x4E6F2070726F66697420746F207769746864726177 PUSH1 0x58 SHL PUSH1 0x44 DUP3 ADD MSTORE REVERT JUMPDEST POP PUSH1 0x2 SLOAD DUP3 GT ISZERO PUSH2 0x2528 JUMP JUMPDEST CALLVALUE PUSH2 0x391 JUMPI PUSH1 0x0 CALLDATASIZE PUSH1 0x3 NOT ADD SLT PUSH2 0x391 JUMPI PUSH1 0x20 PUSH1 0x40 MLOAD PUSH3 0x93A80 DUP2 MSTORE RETURN JUMPDEST CALLVALUE PUSH2 0x391 JUMPI PUSH2 0x2634 CALLDATASIZE PUSH2 0x4A07 JUMP JUMPDEST SWAP1 PUSH1 0x0 MSTORE PUSH1 0xA PUSH1 0x20 MSTORE PUSH1 0x40 PUSH1 0x0 KECCAK256 SWAP1 PUSH1 0x0 MSTORE PUSH1 0x20 MSTORE PUSH1 0x40 PUSH1 0x0 KECCAK256 DUP1 SLOAD PUSH1 0x1 DUP1 PUSH1 0xA0 SHL SUB PUSH1 0x1 DUP4 ADD SLOAD AND SWAP2 PUSH1 0x2 DUP2 ADD SLOAD PUSH1 0xFF PUSH2 0x2671 PUSH1 0x3 DUP5 ADD PUSH2 0x4B87 JUMP JUMPDEST SWAP3 PUSH1 0x4 DUP2 ADD SLOAD SWAP4 PUSH1 0x5 DUP3 ADD SLOAD PUSH2 0x26B4 PUSH1 0x6 DUP5 ADD SLOAD SWAP3 PUSH1 0x8 PUSH1 0x7 DUP7 ADD SLOAD SWAP6 ADD SLOAD SWAP7 PUSH1 0x40 MLOAD SWAP11 DUP12 SWAP11 DUP12 MSTORE PUSH1 0x20 DUP12 ADD MSTORE PUSH1 0x40 DUP11 ADD MSTORE PUSH2 0x160 DUP1 PUSH1 0x60 DUP12 ADD MSTORE DUP10 ADD SWAP1 PUSH2 0x4C2D JUMP JUMPDEST SWAP6 PUSH1 0x80 DUP9 ADD MSTORE PUSH1 0xA0 DUP8 ADD MSTORE PUSH1 0xC0 DUP7 ADD MSTORE DUP2 DUP2 AND ISZERO ISZERO PUSH1 0xE0 DUP7 ADD MSTORE DUP2 DUP2 PUSH1 0x8 SHR AND ISZERO ISZERO PUSH2 0x100 DUP7 ADD MSTORE PUSH1 0x10 SHR AND ISZERO ISZERO PUSH2 0x120 DUP5 ADD MSTORE PUSH2 0x140 DUP4 ADD MSTORE SUB SWAP1 RETURN JUMPDEST CALLVALUE PUSH2 0x391 JUMPI PUSH1 0x40 CALLDATASIZE PUSH1 0x3 NOT ADD SLT PUSH2 0x391 JUMPI PUSH1 0x4 CALLDATALOAD PUSH2 0x270E PUSH2 0x49DB JUMP JUMPDEST PUSH2 0x2716 PUSH2 0x4F3B JUMP JUMPDEST DUP2 ISZERO ISZERO DUP1 PUSH2 0x2945 JUMPI JUMPDEST PUSH2 0x2728 SWAP1 PUSH2 0x4DD4 JUMP JUMPDEST PUSH2 0x2735 PUSH2 0x82E CALLER DUP5 PUSH2 0x55CF JUMP JUMPDEST DUP2 PUSH1 0x0 MSTORE PUSH1 0x20 PUSH1 0x3 DUP2 MSTORE PUSH1 0x40 PUSH1 0x0 KECCAK256 SWAP1 PUSH1 0xFF PUSH1 0x10 DUP4 ADD SLOAD AND PUSH1 0x3 DUP2 LT ISZERO PUSH2 0x76E JUMPI PUSH1 0x1 SUB PUSH2 0x2910 JUMPI PUSH2 0x276D PUSH1 0x11 DUP4 ADD SLOAD TIMESTAMP GT ISZERO PUSH2 0x51D6 JUMP JUMPDEST DUP4 PUSH1 0x0 MSTORE PUSH1 0x7 DUP2 MSTORE PUSH1 0x40 PUSH1 0x0 KECCAK256 CALLER PUSH1 0x0 MSTORE DUP2 MSTORE PUSH2 0x2792 PUSH1 0xFF PUSH1 0x40 PUSH1 0x0 KECCAK256 SLOAD AND ISZERO PUSH2 0x5219 JUMP JUMPDEST PUSH1 0x1 PUSH1 0x1 PUSH1 0xA0 SHL SUB DUP4 AND SWAP1 CALLER DUP3 EQ PUSH2 0x28CC JUMPI PUSH2 0x27AE DUP5 DUP7 PUSH2 0x55CF JUMP JUMPDEST ISZERO PUSH2 0x288F JUMPI PUSH2 0x286F SWAP3 PUSH32 0xCFFF1651BCEA794952A516CE970AB17518A85210BD939AAEAAC670A8D3E65EC7 SWAP5 SWAP3 PUSH1 0x12 SWAP3 DUP8 PUSH1 0x0 MSTORE PUSH1 0x8 DUP2 MSTORE PUSH1 0x40 PUSH1 0x0 KECCAK256 DUP3 PUSH1 0x0 MSTORE DUP2 MSTORE PUSH1 0x40 PUSH1 0x0 KECCAK256 SLOAD ISZERO PUSH2 0x2874 JUMPI JUMPDEST DUP8 PUSH1 0x0 MSTORE PUSH1 0x7 DUP2 MSTORE PUSH1 0x40 PUSH1 0x0 KECCAK256 CALLER PUSH1 0x0 MSTORE DUP2 MSTORE PUSH1 0x40 PUSH1 0x0 KECCAK256 PUSH1 0x1 PUSH1 0xFF NOT DUP3 SLOAD AND OR SWAP1 SSTORE DUP8 PUSH1 0x0 MSTORE PUSH1 0x8 DUP2 MSTORE PUSH1 0x40 PUSH1 0x0 KECCAK256 SWAP2 PUSH1 0x0 MSTORE MSTORE PUSH1 0x40 PUSH1 0x0 KECCAK256 PUSH2 0x2840 DUP2 SLOAD PUSH2 0x4F7F JUMP JUMPDEST SWAP1 SSTORE ADD PUSH2 0x284D DUP2 SLOAD PUSH2 0x4F7F JUMP JUMPDEST SWAP1 SSTORE PUSH1 0x40 DUP1 MLOAD CALLER DUP2 MSTORE PUSH1 0x1 PUSH1 0x1 PUSH1 0xA0 SHL SUB SWAP1 SWAP3 AND PUSH1 0x20 DUP4 ADD MSTORE SWAP1 SWAP2 DUP3 SWAP2 DUP3 ADD SWAP1 JUMP JUMPDEST SUB SWAP1 LOG2 STOP JUMPDEST DUP8 PUSH1 0x0 MSTORE PUSH1 0x9 DUP2 MSTORE PUSH2 0x288A DUP6 PUSH1 0x40 PUSH1 0x0 KECCAK256 PUSH2 0x5053 JUMP JUMPDEST PUSH2 0x27FC JUMP JUMPDEST PUSH1 0x64 SWAP1 PUSH1 0x40 MLOAD SWAP1 PUSH3 0x461BCD PUSH1 0xE5 SHL DUP3 MSTORE PUSH1 0x4 DUP3 ADD MSTORE PUSH1 0x16 PUSH1 0x24 DUP3 ADD MSTORE PUSH22 0x43616E646964617465206E6F7420696E2067726F757 PUSH1 0x54 SHL PUSH1 0x44 DUP3 ADD MSTORE REVERT JUMPDEST PUSH1 0x64 SWAP1 PUSH1 0x40 MLOAD SWAP1 PUSH3 0x461BCD PUSH1 0xE5 SHL DUP3 MSTORE PUSH1 0x4 DUP3 ADD MSTORE PUSH1 0x18 PUSH1 0x24 DUP3 ADD MSTORE PUSH32 0x43616E6E6F7420766F746520666F7220796F757273656C660000000000000000 PUSH1 0x44 DUP3 ADD MSTORE REVERT JUMPDEST PUSH1 0x64 SWAP1 PUSH1 0x40 MLOAD SWAP1 PUSH3 0x461BCD PUSH1 0xE5 SHL DUP3 MSTORE PUSH1 0x4 DUP3 ADD MSTORE PUSH1 0xE PUSH1 0x24 DUP3 ADD MSTORE PUSH14 0x4E6F2061637469766520766F7465 PUSH1 0x90 SHL PUSH1 0x44 DUP3 ADD MSTORE REVERT JUMPDEST POP PUSH1 0x2 SLOAD DUP3 GT ISZERO PUSH2 0x271F JUMP JUMPDEST CALLVALUE PUSH2 0x391 JUMPI PUSH1 0x20 DUP1 PUSH1 0x3 NOT CALLDATASIZE ADD SLT PUSH2 0x391 JUMPI PUSH2 0x296B PUSH2 0x49F1 JUMP JUMPDEST PUSH1 0x2 DUP1 SLOAD SWAP1 SWAP3 SWAP2 PUSH1 0x0 PUSH1 0x1 JUMPDEST DUP4 DUP2 GT ISZERO PUSH2 0x2A42 JUMPI POP PUSH2 0x2989 SWAP1 PUSH2 0x5393 JUMP JUMPDEST SWAP3 PUSH1 0x0 SWAP5 PUSH1 0x1 JUMPDEST DUP5 DUP2 GT ISZERO PUSH2 0x29A6 JUMPI PUSH1 0x40 MLOAD DUP1 PUSH2 0x14CE DUP9 DUP3 PUSH2 0x4A56 JUMP JUMPDEST DUP1 PUSH1 0x0 MSTORE PUSH1 0x3 DUP1 DUP5 MSTORE PUSH1 0xFF DUP1 PUSH1 0x18 PUSH1 0x40 PUSH1 0x0 KECCAK256 ADD SLOAD AND SWAP2 DUP3 PUSH2 0x2A1E JUMPI JUMPDEST DUP3 PUSH2 0x29F2 JUMPI JUMPDEST POP POP SWAP1 PUSH2 0x29D9 SWAP2 PUSH2 0x29DE JUMPI PUSH2 0x4F7F JUMP JUMPDEST PUSH2 0x2990 JUMP JUMPDEST DUP1 PUSH2 0x2168 PUSH2 0x29EB DUP11 PUSH2 0x4F7F JUMP JUMPDEST SWAP10 DUP10 PUSH2 0x526C JUMP JUMPDEST SWAP1 SWAP2 POP DUP3 PUSH1 0x0 MSTORE DUP5 MSTORE DUP3 PUSH1 0x40 PUSH1 0x0 KECCAK256 ADD SLOAD PUSH1 0xA0 SHR AND SWAP1 PUSH1 0x4 DUP3 LT ISZERO PUSH2 0x76E JUMPI SWAP1 PUSH1 0x1 EQ PUSH2 0x29D9 DUP10 PUSH2 0x29C9 JUMP JUMPDEST PUSH1 0x12 DUP7 MSTORE PUSH1 0x40 PUSH1 0x0 DUP2 DUP2 KECCAK256 PUSH1 0x1 PUSH1 0x1 PUSH1 0xA0 SHL SUB DUP11 AND DUP3 MSTORE DUP9 MSTORE KECCAK256 SLOAD DUP3 AND SWAP3 POP PUSH2 0x29C3 JUMP JUMPDEST DUP1 PUSH1 0x0 MSTORE PUSH1 0x3 DUP1 DUP7 MSTORE PUSH1 0xFF DUP1 PUSH1 0x18 PUSH1 0x40 PUSH1 0x0 KECCAK256 ADD SLOAD AND SWAP2 DUP3 PUSH2 0x2AB7 JUMPI JUMPDEST DUP3 PUSH2 0x2A8F JUMPI JUMPDEST POP POP PUSH2 0x2A7A JUMPI JUMPDEST PUSH2 0x2A75 SWAP1 PUSH2 0x4F7F JUMP JUMPDEST PUSH2 0x2977 JUMP JUMPDEST SWAP1 PUSH2 0x2A87 PUSH2 0x2A75 SWAP2 PUSH2 0x4F7F JUMP JUMPDEST SWAP2 SWAP1 POP PUSH2 0x2A6C JUMP JUMPDEST SWAP1 SWAP2 POP DUP3 PUSH1 0x0 MSTORE DUP7 MSTORE DUP7 PUSH1 0x40 PUSH1 0x0 KECCAK256 ADD SLOAD PUSH1 0xA0 SHR AND PUSH1 0x4 DUP2 LT ISZERO PUSH2 0x76E JUMPI PUSH1 0x1 EQ DUP8 DUP1 PUSH2 0x2A65 JUMP JUMPDEST PUSH1 0x12 DUP9 MSTORE PUSH1 0x40 PUSH1 0x0 DUP2 DUP2 KECCAK256 PUSH1 0x1 PUSH1 0x1 PUSH1 0xA0 SHL SUB DUP10 AND DUP3 MSTORE DUP11 MSTORE KECCAK256 SLOAD DUP3 AND SWAP3 POP PUSH2 0x2A5F JUMP JUMPDEST CALLVALUE PUSH2 0x391 JUMPI PUSH2 0x2AE9 CALLDATASIZE PUSH2 0x4A07 JUMP JUMPDEST SWAP1 PUSH1 0x0 MSTORE PUSH1 0x13 PUSH1 0x20 MSTORE PUSH1 0x40 PUSH1 0x0 KECCAK256 DUP1 SLOAD DUP3 LT ISZERO PUSH2 0x391 JUMPI PUSH1 0x20 SWAP2 PUSH2 0x2B0C SWAP2 PUSH2 0x4ADE JUMP JUMPDEST SWAP1 SLOAD PUSH1 0x40 MLOAD PUSH1 0x3 SWAP3 SWAP1 SWAP3 SHL SHR PUSH1 0x1 PUSH1 0x1 PUSH1 0xA0 SHL SUB AND DUP2 MSTORE RETURN JUMPDEST PUSH1 0x20 CALLDATASIZE PUSH1 0x3 NOT ADD SLT PUSH2 0x391 JUMPI PUSH2 0x2B39 PUSH2 0x4F3B JUMP JUMPDEST PUSH1 0x4 CALLDATALOAD ISZERO ISZERO DUP1 PUSH2 0x2EE0 JUMPI JUMPDEST PUSH2 0x2B4D SWAP1 PUSH2 0x4DD4 JUMP JUMPDEST PUSH2 0x2B55 PUSH2 0x4EE5 JUMP JUMPDEST PUSH1 0x4 CALLDATALOAD PUSH1 0x0 SWAP1 DUP2 MSTORE PUSH1 0x3 PUSH1 0x20 MSTORE PUSH1 0x40 SWAP1 KECCAK256 PUSH1 0x8 DUP2 ADD SLOAD PUSH1 0x1 PUSH1 0x1 PUSH1 0xA0 SHL SUB AND CALLER SUB PUSH2 0x2EA8 JUMPI PUSH1 0xFF PUSH1 0xF DUP3 ADD SLOAD AND ISZERO PUSH2 0x2E72 JUMPI PUSH1 0xC DUP2 ADD SLOAD PUSH1 0x5 DUP3 ADD SLOAD GT ISZERO PUSH2 0x2E39 JUMPI PUSH1 0xB DUP2 ADD SLOAD SWAP1 PUSH2 0x2BAC PUSH1 0xA DUP3 ADD SLOAD DUP1 SWAP4 PUSH2 0x4E51 JUMP JUMPDEST PUSH1 0x0 SWAP2 PUSH1 0x1 SWAP4 PUSH1 0xE DUP3 ADD SLOAD DUP1 TIMESTAMP GT PUSH2 0x2DFF JUMPI JUMPDEST POP PUSH2 0x2BCA DUP5 DUP5 PUSH2 0x4E51 JUMP JUMPDEST CALLVALUE SUB PUSH2 0x2DC3 JUMPI DUP4 PUSH2 0x2BDA SWAP2 PUSH2 0x4E51 JUMP JUMPDEST SWAP3 PUSH2 0x2BE9 PUSH1 0x7 DUP4 ADD SLOAD DUP6 PUSH2 0x528D JUMP JUMPDEST SWAP3 PUSH1 0x0 JUMPDEST PUSH1 0x7 DUP5 ADD SLOAD DUP2 LT ISZERO PUSH2 0x2C1F JUMPI PUSH2 0x2C1A SWAP1 PUSH1 0x4 CALLDATALOAD PUSH1 0x0 MSTORE PUSH1 0x4 PUSH1 0x20 MSTORE PUSH1 0x40 PUSH1 0x0 KECCAK256 PUSH2 0x1397 DUP3 PUSH1 0x7 DUP9 ADD PUSH2 0x4ADE JUMP JUMPDEST PUSH2 0x2BED JUMP JUMPDEST POP DUP6 SWAP4 POP DUP5 PUSH2 0x2C33 PUSH1 0x17 DUP6 ADD SWAP2 DUP3 SLOAD PUSH2 0x4E51 JUMP JUMPDEST SWAP1 SSTORE PUSH2 0x2C42 PUSH1 0xC DUP5 ADD SLOAD PUSH2 0x4F7F JUMP JUMPDEST PUSH1 0xC DUP5 ADD SSTORE TIMESTAMP PUSH1 0xD DUP5 ADD SSTORE PUSH1 0x3C TIMESTAMP ADD TIMESTAMP GT PUSH2 0xF5C JUMPI PUSH1 0x3C TIMESTAMP ADD PUSH1 0xE DUP5 ADD SSTORE PUSH1 0x4 CALLDATALOAD PUSH1 0x0 MSTORE PUSH1 0x5 PUSH1 0x20 MSTORE PUSH1 0x40 PUSH1 0x0 KECCAK256 PUSH1 0x1 DUP1 PUSH1 0xA0 SHL SUB PUSH1 0x8 DUP6 ADD SLOAD AND PUSH1 0x0 MSTORE PUSH1 0x20 MSTORE PUSH1 0x40 PUSH1 0x0 KECCAK256 SWAP4 PUSH1 0x0 EQ PUSH2 0x2D88 JUMPI PUSH1 0x3 DUP5 ADD PUSH2 0x2C9E DUP2 SLOAD PUSH2 0x4F7F JUMP JUMPDEST SWAP1 SSTORE PUSH1 0x1 DUP5 ADD DUP1 SLOAD SWAP1 PUSH1 0xA DUP3 ADD DUP1 SWAP3 GT PUSH2 0xF5C JUMPI SSTORE JUMPDEST PUSH1 0xC DUP4 ADD SLOAD SWAP2 PUSH1 0x40 MLOAD SWAP2 CALLER DUP4 MSTORE PUSH1 0x20 DUP4 ADD MSTORE DUP3 PUSH1 0x40 DUP4 ADD MSTORE PUSH1 0x60 DUP3 ADD MSTORE PUSH32 0xA311EF6156DB45BBE3CE4128BBE878541A06D895FF987C4316315B345AD499C0 PUSH1 0x80 PUSH1 0x4 CALLDATALOAD SWAP3 LOG2 PUSH1 0x8 DUP3 ADD SLOAD PUSH1 0x1 SWAP4 SWAP1 SWAP4 ADD SLOAD PUSH1 0x40 DUP1 MLOAD PUSH1 0x1 PUSH1 0x1 PUSH1 0xA0 SHL SUB DUP7 AND DUP2 MSTORE PUSH1 0x20 DUP2 ADD SWAP3 SWAP1 SWAP3 MSTORE PUSH1 0x4 CALLDATALOAD SWAP2 PUSH32 0x52B03660DF9E58E6A5519F066933B571653CE7309B41E9E172A00A429D5F11AE SWAP2 SWAP1 LOG2 PUSH1 0x5 DUP3 ADD SLOAD EQ PUSH2 0x2D57 JUMPI JUMPDEST PUSH1 0x1 PUSH1 0x0 SSTORE STOP JUMPDEST PUSH1 0xF DUP2 ADD DUP1 SLOAD PUSH1 0xFF NOT SWAP1 DUP2 AND SWAP1 SWAP2 SSTORE PUSH1 0x1 PUSH1 0x1 PUSH1 0xA0 SHL SUB NOT SWAP1 SWAP3 AND PUSH1 0x8 DUP3 ADD SSTORE PUSH1 0x10 ADD DUP1 SLOAD SWAP1 SWAP2 AND SWAP1 SSTORE DUP1 DUP1 PUSH2 0x2D50 JUMP JUMPDEST PUSH1 0x4 DUP5 ADD PUSH2 0x2D96 DUP2 SLOAD PUSH2 0x4F7F JUMP JUMPDEST SWAP1 SSTORE PUSH1 0x1 DUP5 ADD DUP1 SLOAD PUSH1 0x5 GT PUSH2 0x2DBA JUMPI DUP1 SLOAD PUSH1 0x4 NOT DUP2 ADD SWAP2 SWAP1 DUP3 GT PUSH2 0xF5C JUMPI SSTORE PUSH2 0x2CB4 JUMP JUMPDEST PUSH1 0x0 SWAP1 SSTORE PUSH2 0x2CB4 JUMP JUMPDEST PUSH1 0x40 MLOAD PUSH3 0x461BCD PUSH1 0xE5 SHL DUP2 MSTORE PUSH1 0x20 PUSH1 0x4 DUP3 ADD MSTORE PUSH1 0x14 PUSH1 0x24 DUP3 ADD MSTORE PUSH20 0x125B98DBDC9C9958DD0811535248185B5BDD5B9D PUSH1 0x62 SHL PUSH1 0x44 DUP3 ADD MSTORE PUSH1 0x64 SWAP1 REVERT JUMPDEST DUP4 SWAP2 SWAP6 SWAP3 SWAP5 POP PUSH2 0x2E11 PUSH1 0x3C SWAP2 TIMESTAMP PUSH2 0x5280 JUMP JUMPDEST DIV SWAP2 SHL DUP3 DUP2 DIV PUSH1 0x2 EQ DUP4 ISZERO OR ISZERO PUSH2 0xF5C JUMPI PUSH1 0x64 SWAP2 PUSH2 0x2E2E SWAP2 PUSH2 0x51C3 JUMP JUMPDEST DIV SWAP2 PUSH1 0x0 SWAP4 DUP6 PUSH2 0x2BBF JUMP JUMPDEST PUSH1 0x40 MLOAD PUSH3 0x461BCD PUSH1 0xE5 SHL DUP2 MSTORE PUSH1 0x20 PUSH1 0x4 DUP3 ADD MSTORE PUSH1 0x11 PUSH1 0x24 DUP3 ADD MSTORE PUSH17 0x131BD85B88199D5B1B1E481C995C185A59 PUSH1 0x7A SHL PUSH1 0x44 DUP3 ADD MSTORE PUSH1 0x64 SWAP1 REVERT JUMPDEST PUSH1 0x40 MLOAD PUSH3 0x461BCD PUSH1 0xE5 SHL DUP2 MSTORE PUSH1 0x20 PUSH1 0x4 DUP3 ADD MSTORE PUSH1 0xE PUSH1 0x24 DUP3 ADD MSTORE PUSH14 0x27379030B1BA34BB32903637B0B7 PUSH1 0x91 SHL PUSH1 0x44 DUP3 ADD MSTORE PUSH1 0x64 SWAP1 REVERT JUMPDEST PUSH1 0x40 MLOAD PUSH3 0x461BCD PUSH1 0xE5 SHL DUP2 MSTORE PUSH1 0x20 PUSH1 0x4 DUP3 ADD MSTORE PUSH1 0x10 PUSH1 0x24 DUP3 ADD MSTORE PUSH16 0x2737BA103A3432903137B93937BBB2B9 PUSH1 0x81 SHL PUSH1 0x44 DUP3 ADD MSTORE PUSH1 0x64 SWAP1 REVERT JUMPDEST POP PUSH1 0x2 SLOAD PUSH1 0x4 CALLDATALOAD GT ISZERO PUSH2 0x2B44 JUMP JUMPDEST CALLVALUE PUSH2 0x391 JUMPI PUSH2 0x2EFC CALLDATASIZE PUSH2 0x4AB4 JUMP JUMPDEST SWAP2 PUSH1 0x0 MSTORE PUSH1 0x6 PUSH1 0x20 MSTORE PUSH1 0x40 PUSH1 0x0 KECCAK256 SWAP1 PUSH1 0x0 MSTORE PUSH1 0x20 MSTORE PUSH1 0x40 PUSH1 0x0 KECCAK256 SWAP1 PUSH1 0x1 DUP1 PUSH1 0xA0 SHL SUB AND PUSH1 0x0 MSTORE PUSH1 0x20 MSTORE PUSH1 0x20 PUSH1 0xFF PUSH1 0x40 PUSH1 0x0 KECCAK256 SLOAD AND PUSH1 0x40 MLOAD SWAP1 ISZERO ISZERO DUP2 MSTORE RETURN JUMPDEST CALLVALUE PUSH2 0x391 JUMPI PUSH1 0x20 CALLDATASIZE PUSH1 0x3 NOT ADD SLT PUSH2 0x391 JUMPI PUSH1 0x4 CALLDATALOAD PUSH1 0x0 MSTORE PUSH1 0x3 PUSH1 0x20 MSTORE PUSH1 0x20 PUSH2 0xB2F PUSH1 0x16 PUSH1 0x40 PUSH1 0x0 KECCAK256 ADD SLOAD PUSH2 0x55AC JUMP JUMPDEST PUSH2 0x2F72 CALLDATASIZE PUSH2 0x4A07 JUMP JUMPDEST PUSH2 0x2F7A PUSH2 0x4F3B JUMP JUMPDEST DUP2 ISZERO ISZERO DUP1 PUSH2 0x31FB JUMPI JUMPDEST PUSH2 0x2F8C SWAP1 PUSH2 0x4DD4 JUMP JUMPDEST PUSH2 0x2F94 PUSH2 0x4EE5 JUMP JUMPDEST DUP2 PUSH1 0x0 MSTORE PUSH1 0x20 SWAP2 PUSH1 0xA DUP4 MSTORE PUSH1 0x40 PUSH1 0x0 KECCAK256 DUP3 PUSH1 0x0 MSTORE DUP4 MSTORE PUSH1 0x40 PUSH1 0x0 KECCAK256 DUP2 PUSH1 0x0 MSTORE PUSH1 0x3 SWAP4 DUP5 DUP2 MSTORE PUSH1 0x40 PUSH1 0x0 KECCAK256 PUSH1 0x1 DUP1 PUSH1 0xA0 SHL SUB SWAP6 PUSH1 0x1 SWAP7 DUP1 DUP9 DUP7 ADD SLOAD AND CALLER SUB PUSH2 0x31C2 JUMPI PUSH1 0x7 DUP6 ADD SWAP4 DUP5 SLOAD SWAP6 PUSH1 0xFF DUP8 PUSH1 0x8 SHR AND ISZERO PUSH2 0x317D JUMPI PUSH1 0xFF DUP8 PUSH1 0x10 SHR AND PUSH2 0x3147 JUMPI PUSH1 0x2 ADD SLOAD SWAP5 DUP4 DUP7 MUL DUP7 DUP2 DIV DUP6 EQ DUP8 ISZERO OR ISZERO PUSH2 0xF5C JUMPI PUSH1 0x64 PUSH2 0x3017 SWAP2 DIV DUP1 SWAP8 PUSH2 0x4E51 JUMP JUMPDEST SWAP7 DUP8 CALLVALUE SUB PUSH2 0x3102 JUMPI SWAP1 PUSH3 0x10000 DUP12 SWAP6 SWAP5 SWAP4 SWAP3 PUSH3 0xFF0000 NOT AND OR SWAP1 SSTORE CALLER PUSH1 0x0 MSTORE PUSH1 0xC DUP2 MSTORE PUSH1 0x0 PUSH1 0x40 DUP2 KECCAK256 SSTORE PUSH1 0x7 DUP6 ADD SWAP2 PUSH2 0x3051 DUP4 SLOAD DUP9 PUSH2 0x528D JUMP JUMPDEST SWAP4 PUSH1 0x0 DUP7 JUMPDEST PUSH2 0x30B6 JUMPI JUMPDEST POP DUP6 DUP12 DUP12 PUSH32 0x5B32583CA9F1A2A6AC67B63A9553E4AE06ED06E8DEE3AD359E71E202DD84D5CD PUSH2 0x30AE DUP14 DUP14 PUSH2 0x3094 PUSH1 0x17 DUP16 ADD SWAP2 DUP3 SLOAD PUSH2 0x4E51 JUMP JUMPDEST SWAP1 SSTORE PUSH1 0x40 DUP1 MLOAD CALLER DUP2 MSTORE PUSH1 0x20 DUP2 ADD SWAP3 SWAP1 SWAP3 MSTORE SWAP1 SWAP2 DUP3 SWAP2 DUP3 ADD SWAP1 JUMP JUMPDEST SUB SWAP1 LOG3 PUSH1 0x0 SSTORE STOP JUMPDEST DUP5 SLOAD DUP2 LT ISZERO PUSH2 0x30FD JUMPI PUSH2 0x30F7 SWAP1 DUP12 PUSH1 0x0 MSTORE PUSH1 0x4 DUP6 MSTORE PUSH1 0x40 PUSH1 0x0 KECCAK256 DUP5 PUSH2 0x30DB DUP4 DUP10 PUSH2 0x4ADE JUMP JUMPDEST SWAP1 SLOAD SWAP1 DUP7 SHL SHR AND PUSH1 0x0 MSTORE DUP6 MSTORE PUSH1 0x40 PUSH1 0x0 KECCAK256 PUSH2 0x13BC DUP9 DUP3 SLOAD PUSH2 0x4E51 JUMP JUMPDEST DUP7 PUSH2 0x3056 JUMP JUMPDEST PUSH2 0x305B JUMP JUMPDEST PUSH1 0x40 MLOAD PUSH3 0x461BCD PUSH1 0xE5 SHL DUP2 MSTORE PUSH1 0x4 DUP2 ADD DUP5 SWAP1 MSTORE PUSH1 0x1A PUSH1 0x24 DUP3 ADD MSTORE PUSH32 0x496E636F72726563742072657061796D656E7420616D6F756E74000000000000 PUSH1 0x44 DUP3 ADD MSTORE PUSH1 0x64 SWAP1 REVERT JUMPDEST PUSH1 0x40 MLOAD PUSH3 0x461BCD PUSH1 0xE5 SHL DUP2 MSTORE PUSH1 0x4 DUP2 ADD DUP4 SWAP1 MSTORE PUSH1 0xE PUSH1 0x24 DUP3 ADD MSTORE PUSH14 0x105B1C9958591E481C995C185A59 PUSH1 0x92 SHL PUSH1 0x44 DUP3 ADD MSTORE PUSH1 0x64 SWAP1 REVERT JUMPDEST PUSH1 0x40 MLOAD PUSH3 0x461BCD PUSH1 0xE5 SHL DUP2 MSTORE PUSH1 0x4 DUP2 ADD DUP4 SWAP1 MSTORE PUSH1 0x18 PUSH1 0x24 DUP3 ADD MSTORE PUSH32 0x5265717565737420776173206E6F7420617070726F7665640000000000000000 PUSH1 0x44 DUP3 ADD MSTORE PUSH1 0x64 SWAP1 REVERT JUMPDEST PUSH1 0x40 MLOAD PUSH3 0x461BCD PUSH1 0xE5 SHL DUP2 MSTORE PUSH1 0x4 DUP2 ADD DUP6 SWAP1 MSTORE PUSH1 0x11 PUSH1 0x24 DUP3 ADD MSTORE PUSH17 0x2737BA103A3432903932B8BAB2B9BA32B9 PUSH1 0x79 SHL PUSH1 0x44 DUP3 ADD MSTORE PUSH1 0x64 SWAP1 REVERT JUMPDEST POP PUSH1 0x2 SLOAD DUP3 GT ISZERO PUSH2 0x2F83 JUMP JUMPDEST CALLVALUE PUSH2 0x391 JUMPI PUSH2 0x3215 CALLDATASIZE PUSH2 0x4A91 JUMP JUMPDEST PUSH2 0x3220 SWAP3 SWAP2 SWAP3 PUSH2 0x4F3B JUMP JUMPDEST DUP2 ISZERO ISZERO DUP1 PUSH2 0x3369 JUMPI JUMPDEST PUSH2 0x3232 SWAP1 PUSH2 0x4DD4 JUMP JUMPDEST PUSH2 0x323F PUSH2 0x82E CALLER DUP5 PUSH2 0x55CF JUMP JUMPDEST DUP2 PUSH1 0x0 MSTORE PUSH1 0x20 PUSH1 0xA DUP2 MSTORE PUSH1 0x40 PUSH1 0x0 KECCAK256 DUP5 PUSH1 0x0 MSTORE DUP2 MSTORE PUSH1 0x40 PUSH1 0x0 KECCAK256 SWAP1 PUSH2 0x326B PUSH1 0xFF PUSH1 0x7 DUP5 ADD SLOAD AND ISZERO PUSH2 0x5316 JUMP JUMPDEST PUSH2 0x327B PUSH1 0x4 DUP4 ADD SLOAD TIMESTAMP GT ISZERO PUSH2 0x51D6 JUMP JUMPDEST DUP4 PUSH1 0x0 MSTORE PUSH1 0xB DUP2 MSTORE PUSH1 0x40 PUSH1 0x0 KECCAK256 DUP6 PUSH1 0x0 MSTORE DUP2 MSTORE PUSH1 0x40 PUSH1 0x0 KECCAK256 CALLER PUSH1 0x0 MSTORE DUP2 MSTORE PUSH2 0x32AB PUSH1 0xFF PUSH1 0x40 PUSH1 0x0 KECCAK256 SLOAD AND ISZERO PUSH2 0x5219 JUMP JUMPDEST PUSH1 0x1 DUP3 ADD SLOAD PUSH1 0x1 PUSH1 0x1 PUSH1 0xA0 SHL SUB AND CALLER EQ PUSH2 0x332D JUMPI PUSH1 0x0 DUP5 DUP2 MSTORE PUSH1 0xB DUP3 MSTORE PUSH1 0x40 DUP1 DUP3 KECCAK256 DUP8 DUP4 MSTORE DUP4 MSTORE DUP1 DUP3 KECCAK256 CALLER DUP4 MSTORE SWAP1 SWAP3 MSTORE KECCAK256 DUP1 SLOAD PUSH1 0xFF NOT AND PUSH1 0x1 OR SWAP1 SSTORE PUSH32 0x6F6E44E06B7560D636D01FA051314D5D0169C306BB1AD5914156CB73D1663737 SWAP2 PUSH2 0xA7F SWAP2 DUP2 ISZERO PUSH2 0x3320 JUMPI PUSH1 0x5 ADD PUSH2 0xA64 DUP2 SLOAD PUSH2 0x4F7F JUMP JUMPDEST PUSH1 0x6 ADD PUSH2 0xA91 DUP2 SLOAD PUSH2 0x4F7F JUMP JUMPDEST PUSH1 0x64 SWAP1 PUSH1 0x40 MLOAD SWAP1 PUSH3 0x461BCD PUSH1 0xE5 SHL DUP3 MSTORE PUSH1 0x4 DUP3 ADD MSTORE PUSH1 0x15 PUSH1 0x24 DUP3 ADD MSTORE PUSH21 0x5265717565737465722063616E6E6F7420766F7465 PUSH1 0x58 SHL PUSH1 0x44 DUP3 ADD MSTORE REVERT JUMPDEST POP PUSH1 0x2 SLOAD DUP3 GT ISZERO PUSH2 0x3229 JUMP JUMPDEST CALLVALUE PUSH2 0x391 JUMPI PUSH1 0x0 CALLDATASIZE PUSH1 0x3 NOT ADD SLT PUSH2 0x391 JUMPI PUSH1 0x2 DUP1 SLOAD PUSH1 0x0 PUSH1 0x1 JUMPDEST DUP3 DUP2 GT ISZERO PUSH2 0x33F2 JUMPI POP PUSH2 0x33A1 SWAP1 PUSH2 0x5393 JUMP JUMPDEST SWAP1 PUSH1 0x0 SWAP3 PUSH1 0x1 JUMPDEST DUP3 DUP2 GT ISZERO PUSH2 0x33BE JUMPI PUSH1 0x40 MLOAD DUP1 PUSH2 0x14CE DUP7 DUP3 PUSH2 0x4A56 JUMP JUMPDEST DUP1 PUSH1 0x0 MSTORE PUSH1 0x3 PUSH1 0x20 MSTORE PUSH1 0xFF DUP3 PUSH1 0x40 PUSH1 0x0 KECCAK256 ADD SLOAD PUSH1 0xA0 SHR AND SWAP1 PUSH1 0x4 DUP3 LT ISZERO PUSH2 0x76E JUMPI PUSH2 0x33ED SWAP2 ISZERO PUSH2 0x2154 JUMPI PUSH2 0x4F7F JUMP JUMPDEST PUSH2 0x33A8 JUMP JUMPDEST DUP1 PUSH1 0x0 MSTORE PUSH1 0x3 PUSH1 0x20 MSTORE PUSH1 0xFF DUP5 PUSH1 0x40 PUSH1 0x0 KECCAK256 ADD SLOAD PUSH1 0xA0 SHR AND PUSH1 0x4 DUP2 LT ISZERO PUSH2 0x76E JUMPI ISZERO PUSH2 0x3426 JUMPI JUMPDEST PUSH2 0x3421 SWAP1 PUSH2 0x4F7F JUMP JUMPDEST PUSH2 0x338F JUMP JUMPDEST SWAP1 PUSH2 0x3433 PUSH2 0x3421 SWAP2 PUSH2 0x4F7F JUMP JUMPDEST SWAP2 SWAP1 POP PUSH2 0x3418 JUMP JUMPDEST CALLVALUE PUSH2 0x391 JUMPI PUSH1 0x0 CALLDATASIZE PUSH1 0x3 NOT ADD SLT PUSH2 0x391 JUMPI PUSH1 0x20 PUSH1 0x40 MLOAD PUSH1 0x32 DUP2 MSTORE RETURN JUMPDEST CALLVALUE PUSH2 0x391 JUMPI PUSH1 0x0 CALLDATASIZE PUSH1 0x3 NOT ADD SLT PUSH2 0x391 JUMPI PUSH1 0x20 PUSH1 0xFF PUSH1 0x1 SLOAD AND PUSH1 0x40 MLOAD SWAP1 ISZERO ISZERO DUP2 MSTORE RETURN JUMPDEST PUSH2 0x49BF JUMP JUMPDEST PUSH2 0x4A1D JUMP JUMPDEST CALLVALUE PUSH2 0x391 JUMPI PUSH1 0x20 CALLDATASIZE PUSH1 0x3 NOT ADD SLT PUSH2 0x391 JUMPI PUSH1 0x20 PUSH2 0xB2F PUSH1 0x4 CALLDATALOAD PUSH2 0x53C5 JUMP JUMPDEST CALLVALUE PUSH2 0x391 JUMPI PUSH1 0x20 CALLDATASIZE PUSH1 0x3 NOT ADD SLT PUSH2 0x391 JUMPI PUSH1 0x4 CALLDATALOAD PUSH2 0x34BE PUSH2 0x4F3B JUMP JUMPDEST DUP1 ISZERO ISZERO DUP1 PUSH2 0x3698 JUMPI JUMPDEST PUSH2 0x34D0 SWAP1 PUSH2 0x4DD4 JUMP JUMPDEST PUSH2 0x34DD PUSH2 0x82E CALLER DUP4 PUSH2 0x55CF JUMP JUMPDEST PUSH2 0x34E5 PUSH2 0x4EE5 JUMP JUMPDEST DUP1 PUSH1 0x0 MSTORE PUSH1 0x3 PUSH1 0x20 MSTORE PUSH1 0x40 PUSH1 0x0 KECCAK256 PUSH1 0xF DUP2 ADD SWAP1 DUP2 SLOAD SWAP1 PUSH2 0x3508 PUSH1 0xFF DUP4 AND ISZERO PUSH2 0x5181 JUMP JUMPDEST PUSH1 0x8 DUP2 ADD SWAP3 PUSH1 0x1 DUP1 PUSH1 0xA0 SHL SUB SWAP2 DUP3 DUP6 SLOAD AND SWAP4 DUP5 ISZERO PUSH2 0x365B JUMPI PUSH1 0x16 DUP3 ADD DUP1 SLOAD SWAP6 PUSH1 0x5 DUP8 MUL DUP8 DUP2 DIV PUSH1 0x5 EQ DUP9 ISZERO OR ISZERO PUSH2 0xF5C JUMPI PUSH1 0x64 SWAP1 DIV SWAP1 PUSH2 0x354C PUSH1 0x5 DUP7 ADD SLOAD DUP10 PUSH2 0x528D JUMP JUMPDEST SWAP5 PUSH1 0x3C TIMESTAMP ADD SWAP4 DUP5 TIMESTAMP GT PUSH2 0xF5C JUMPI PUSH1 0x0 SWAP8 PUSH1 0x1 DUP10 SWAP9 SWAP8 DUP10 SWAP9 SWAP8 PUSH1 0xE DUP11 SWAP10 SWAP7 DUP16 SWAP10 SWAP8 DUP12 SWAP9 DUP7 PUSH1 0xC0 DUP14 PUSH1 0x40 MLOAD SWAP1 PUSH2 0x357F DUP3 PUSH2 0x4B4B JUMP JUMPDEST DUP2 MSTORE DUP4 PUSH1 0x20 DUP3 ADD MSTORE DUP5 PUSH1 0x40 DUP3 ADD MSTORE DUP13 PUSH1 0x60 DUP3 ADD MSTORE TIMESTAMP PUSH1 0x80 DUP3 ADD MSTORE DUP8 PUSH1 0xA0 DUP3 ADD MSTORE ADD MSTORE DUP12 PUSH1 0x9 DUP5 ADD SSTORE PUSH1 0xA DUP4 ADD SSTORE PUSH1 0xB DUP3 ADD SSTORE DUP8 PUSH1 0xC DUP3 ADD SSTORE TIMESTAMP PUSH1 0xD DUP3 ADD SSTORE ADD SSTORE PUSH1 0xFF NOT AND OR SWAP1 SSTORE SSTORE GAS CALL PUSH2 0x35D1 PUSH2 0x4E79 JUMP JUMPDEST POP ISZERO PUSH2 0x361F JUMPI SWAP2 SLOAD PUSH1 0x40 DUP1 MLOAD SWAP2 SWAP1 SWAP4 AND PUSH1 0x1 PUSH1 0x1 PUSH1 0xA0 SHL SUB AND DUP2 MSTORE PUSH1 0x20 DUP2 ADD SWAP2 SWAP1 SWAP2 MSTORE PUSH32 0x895130D6EC3D51C762D94617E61152B1BE8447DB99E1EFE41D743CBDE09B39D7 SWAP2 DUP2 SWAP1 DUP2 ADD PUSH2 0x900 JUMP JUMPDEST PUSH1 0x40 MLOAD PUSH3 0x461BCD PUSH1 0xE5 SHL DUP2 MSTORE PUSH1 0x20 PUSH1 0x4 DUP3 ADD MSTORE PUSH1 0x14 PUSH1 0x24 DUP3 ADD MSTORE PUSH20 0x119D5B99081D1C985B9CD9995C8819985A5B1959 PUSH1 0x62 SHL PUSH1 0x44 DUP3 ADD MSTORE PUSH1 0x64 SWAP1 REVERT JUMPDEST PUSH1 0x40 MLOAD PUSH3 0x461BCD PUSH1 0xE5 SHL DUP2 MSTORE PUSH1 0x20 PUSH1 0x4 DUP3 ADD MSTORE PUSH1 0x15 PUSH1 0x24 DUP3 ADD MSTORE PUSH21 0x109BDC9C9BDDD95C881B9BDD081CD95B1958DD1959 PUSH1 0x5A SHL PUSH1 0x44 DUP3 ADD MSTORE PUSH1 0x64 SWAP1 REVERT JUMPDEST POP PUSH1 0x2 SLOAD DUP2 GT ISZERO PUSH2 0x34C7 JUMP JUMPDEST CALLVALUE PUSH2 0x391 JUMPI PUSH1 0x0 CALLDATASIZE PUSH1 0x3 NOT ADD SLT PUSH2 0x391 JUMPI PUSH1 0x20 PUSH1 0x40 MLOAD PUSH1 0x14 DUP2 MSTORE RETURN JUMPDEST PUSH2 0x4A39 JUMP JUMPDEST CALLVALUE PUSH2 0x391 JUMPI PUSH1 0x40 CALLDATASIZE PUSH1 0x3 NOT ADD SLT PUSH2 0x391 JUMPI PUSH2 0x36DE PUSH2 0x49DB JUMP JUMPDEST PUSH1 0x4 CALLDATALOAD PUSH1 0x0 MSTORE PUSH1 0x7 PUSH1 0x20 MSTORE PUSH1 0x40 PUSH1 0x0 KECCAK256 SWAP1 PUSH1 0x1 DUP1 PUSH1 0xA0 SHL SUB AND PUSH1 0x0 MSTORE PUSH1 0x20 MSTORE PUSH1 0x20 PUSH1 0xFF PUSH1 0x40 PUSH1 0x0 KECCAK256 SLOAD AND PUSH1 0x40 MLOAD SWAP1 ISZERO ISZERO DUP2 MSTORE RETURN JUMPDEST CALLVALUE PUSH2 0x391 JUMPI PUSH1 0x40 CALLDATASIZE PUSH1 0x3 NOT ADD SLT PUSH2 0x391 JUMPI PUSH2 0x372B PUSH2 0x49DB JUMP JUMPDEST PUSH1 0x4 CALLDATALOAD PUSH1 0x0 MSTORE PUSH1 0xF PUSH1 0x20 MSTORE PUSH1 0x40 PUSH1 0x0 KECCAK256 SWAP1 PUSH1 0x1 DUP1 PUSH1 0xA0 SHL SUB AND PUSH1 0x0 MSTORE PUSH1 0x20 MSTORE PUSH1 0x20 PUSH1 0x40 PUSH1 0x0 KECCAK256 SLOAD PUSH1 0x40 MLOAD SWAP1 DUP2 MSTORE RETURN JUMPDEST CALLVALUE PUSH2 0x391 JUMPI PUSH1 0x0 CALLDATASIZE PUSH1 0x3 NOT ADD SLT PUSH2 0x391 JUMPI PUSH1 0x1 SLOAD PUSH2 0x3786 CALLER PUSH1 0x8 DUP4 SWAP1 SHR PUSH1 0x1 PUSH1 0x1 PUSH1 0xA0 SHL SUB AND EQ PUSH2 0x4D9C JUMP JUMPDEST PUSH1 0xFF DUP2 AND ISZERO PUSH2 0x37C2 JUMPI PUSH1 0xFF NOT AND PUSH1 0x1 SSTORE PUSH32 0x5DB9EE0A495BF2E6FF9C91A7834C1BA4FDD244A5E8AA4E537BD38AEAE4B073AA PUSH1 0x20 PUSH1 0x40 MLOAD CALLER DUP2 MSTORE LOG1 STOP JUMPDEST PUSH1 0x40 MLOAD PUSH3 0x461BCD PUSH1 0xE5 SHL DUP2 MSTORE PUSH1 0x20 PUSH1 0x4 DUP3 ADD MSTORE PUSH1 0x14 PUSH1 0x24 DUP3 ADD MSTORE PUSH20 0x14185D5CD8589B194E881B9BDD081C185D5CD959 PUSH1 0x62 SHL PUSH1 0x44 DUP3 ADD MSTORE PUSH1 0x64 SWAP1 REVERT JUMPDEST CALLVALUE PUSH2 0x391 JUMPI PUSH1 0x20 DUP1 PUSH1 0x3 NOT CALLDATASIZE ADD SLT PUSH2 0x391 JUMPI PUSH1 0x4 CALLDATALOAD SWAP1 PUSH2 0x381C PUSH2 0x4F3B JUMP JUMPDEST DUP2 ISZERO ISZERO DUP1 PUSH2 0x3A69 JUMPI JUMPDEST PUSH2 0x382E SWAP1 PUSH2 0x4DD4 JUMP JUMPDEST PUSH2 0x383B PUSH2 0x82E CALLER DUP5 PUSH2 0x55CF JUMP JUMPDEST DUP2 PUSH1 0x0 MSTORE PUSH1 0x3 DUP1 DUP3 MSTORE PUSH1 0x40 PUSH1 0x0 KECCAK256 SWAP2 PUSH1 0x7 DUP1 DUP5 ADD SWAP3 DUP4 SLOAD PUSH1 0x4 DUP7 ADD SLOAD SUB PUSH2 0x3A2F JUMPI PUSH1 0x8 DUP6 DUP2 ADD SLOAD PUSH1 0x1 PUSH1 0x1 PUSH1 0xA0 SHL SUB SWAP4 SWAP1 DUP5 AND PUSH2 0x39EA JUMPI PUSH1 0x10 DUP8 ADD SWAP7 PUSH1 0xFF DUP9 SLOAD AND DUP5 DUP2 LT ISZERO PUSH2 0x76E JUMPI PUSH2 0x39AE JUMPI PUSH2 0x3899 PUSH1 0xFF PUSH1 0xF DUP4 ADD SLOAD AND ISZERO PUSH2 0x5181 JUMP JUMPDEST PUSH1 0x0 JUMPDEST DUP8 SLOAD DUP2 LT ISZERO PUSH2 0x390D JUMPI PUSH2 0x3908 SWAP1 DUP11 PUSH1 0x0 MSTORE DUP4 DUP9 MSTORE PUSH1 0x40 PUSH1 0x0 KECCAK256 DUP8 PUSH2 0x38C0 DUP4 DUP13 PUSH2 0x4ADE JUMP JUMPDEST SWAP1 SLOAD SWAP1 DUP10 SHL SHR AND PUSH1 0x0 MSTORE DUP9 MSTORE PUSH1 0x40 PUSH1 0x0 KECCAK256 PUSH1 0xFF NOT DUP2 SLOAD AND SWAP1 SSTORE DUP11 PUSH1 0x0 MSTORE DUP5 DUP9 MSTORE PUSH1 0x40 PUSH1 0x0 KECCAK256 DUP8 PUSH2 0x38F0 DUP4 DUP13 PUSH2 0x4ADE JUMP JUMPDEST SWAP1 SLOAD SWAP1 DUP10 SHL SHR AND PUSH1 0x0 MSTORE DUP9 MSTORE PUSH1 0x0 PUSH1 0x40 DUP2 KECCAK256 SSTORE PUSH2 0x4F7F JUMP JUMPDEST PUSH2 0x389C JUMP JUMPDEST DUP10 DUP3 DUP9 DUP12 DUP4 PUSH1 0x0 MSTORE PUSH1 0x9 DUP3 MSTORE PUSH1 0x40 PUSH1 0x0 KECCAK256 DUP1 SLOAD PUSH1 0x0 DUP3 SSTORE DUP1 PUSH2 0x3993 JUMPI JUMPDEST POP POP PUSH1 0x1 PUSH1 0xFF NOT DUP3 SLOAD AND OR SWAP1 SSTORE PUSH2 0x12C TIMESTAMP ADD DUP1 TIMESTAMP GT PUSH2 0xF5C JUMPI PUSH1 0x11 DUP4 ADD DUP2 SWAP1 SSTORE PUSH1 0x0 PUSH1 0x12 DUP5 ADD SSTORE PUSH1 0x2 SWAP3 SWAP1 SWAP3 ADD DUP1 SLOAD PUSH1 0xFF PUSH1 0xA0 SHL NOT AND PUSH1 0x1 PUSH1 0xA1 SHL OR SWAP1 SSTORE PUSH1 0x40 MLOAD SWAP2 DUP3 MSTORE PUSH32 0xF8C022056754DBACCA05AFF710DC315A2FA7699AE9309FDA403CD1E55C11D40F SWAP2 LOG2 STOP JUMPDEST PUSH2 0x39A7 SWAP2 PUSH1 0x0 MSTORE DUP4 PUSH1 0x0 KECCAK256 SWAP1 DUP2 ADD SWAP1 PUSH2 0x4FF7 JUMP JUMPDEST DUP5 DUP1 PUSH2 0x392A JUMP JUMPDEST PUSH1 0x40 MLOAD PUSH3 0x461BCD PUSH1 0xE5 SHL DUP2 MSTORE PUSH1 0x4 DUP2 ADD DUP8 SWAP1 MSTORE PUSH1 0x14 PUSH1 0x24 DUP3 ADD MSTORE PUSH20 0x159BDD1948185B1C9958591E481CDD185C9D1959 PUSH1 0x62 SHL PUSH1 0x44 DUP3 ADD MSTORE PUSH1 0x64 SWAP1 REVERT JUMPDEST PUSH1 0x40 MLOAD PUSH3 0x461BCD PUSH1 0xE5 SHL DUP2 MSTORE PUSH1 0x4 DUP2 ADD DUP7 SWAP1 MSTORE PUSH1 0x17 PUSH1 0x24 DUP3 ADD MSTORE PUSH32 0x426F72726F77657220616C72656164792063686F73656E000000000000000000 PUSH1 0x44 DUP3 ADD MSTORE PUSH1 0x64 SWAP1 REVERT JUMPDEST PUSH1 0x40 MLOAD PUSH3 0x461BCD PUSH1 0xE5 SHL DUP2 MSTORE PUSH1 0x4 DUP2 ADD DUP5 SWAP1 MSTORE PUSH1 0x12 PUSH1 0x24 DUP3 ADD MSTORE PUSH18 0x11DC9BDD5C081B9BDD08199D5B1B081E595D PUSH1 0x72 SHL PUSH1 0x44 DUP3 ADD MSTORE PUSH1 0x64 SWAP1 REVERT JUMPDEST POP PUSH1 0x2 SLOAD DUP3 GT ISZERO PUSH2 0x3825 JUMP JUMPDEST CALLVALUE PUSH2 0x391 JUMPI PUSH1 0x20 CALLDATASIZE PUSH1 0x3 NOT ADD SLT PUSH2 0x391 JUMPI PUSH1 0x4 CALLDATALOAD PUSH1 0x0 MSTORE PUSH1 0x3 PUSH1 0x20 MSTORE PUSH1 0x20 PUSH2 0xB2F PUSH2 0x3AA6 PUSH1 0x9 PUSH1 0x40 PUSH1 0x0 KECCAK256 ADD PUSH2 0x4C6D JUMP JUMPDEST DUP3 PUSH1 0x40 DUP3 ADD MLOAD SWAP2 ADD MLOAD SWAP1 PUSH2 0x4E51 JUMP JUMPDEST CALLVALUE PUSH2 0x391 JUMPI PUSH1 0x20 CALLDATASIZE PUSH1 0x3 NOT ADD SLT PUSH2 0x391 JUMPI PUSH2 0x3ACE PUSH2 0x4F3B JUMP JUMPDEST PUSH1 0x4 CALLDATALOAD ISZERO ISZERO DUP1 PUSH2 0x3F3F JUMPI JUMPDEST PUSH2 0x3AE2 SWAP1 PUSH2 0x4DD4 JUMP JUMPDEST PUSH2 0x3AF1 PUSH2 0x82E CALLER PUSH1 0x4 CALLDATALOAD PUSH2 0x55CF JUMP JUMPDEST PUSH1 0x4 CALLDATALOAD PUSH1 0x0 MSTORE PUSH1 0x3 PUSH1 0x20 MSTORE PUSH1 0x40 PUSH1 0x0 KECCAK256 PUSH1 0x10 DUP2 ADD SLOAD PUSH1 0xFF DUP2 AND PUSH1 0x3 DUP2 LT ISZERO PUSH2 0x76E JUMPI PUSH1 0x1 SUB PUSH2 0x3F0B JUMPI PUSH1 0x11 DUP3 ADD SLOAD TIMESTAMP GT DUP1 ISZERO PUSH2 0x3EFA JUMPI JUMPDEST ISZERO PUSH2 0x3EBC JUMPI PUSH1 0x0 PUSH1 0x12 DUP4 ADD SLOAD DUP1 ISZERO PUSH1 0x0 EQ PUSH2 0x3C08 JUMPI POP PUSH1 0x7 DUP4 ADD SWAP1 DUP2 SLOAD ISZERO PUSH2 0x3BF2 JUMPI PUSH32 0xA4DE64F8ECE5E3D0E00794857BF4663D0774D75EFC197695FA248F3F3E0B43E9 SWAP3 PUSH2 0x286F SWAP3 PUSH1 0x0 MSTORE PUSH1 0x13 PUSH1 0x1 DUP1 PUSH1 0xA0 SHL SUB PUSH1 0x20 PUSH1 0x0 KECCAK256 SLOAD AND SWAP6 JUMPDEST PUSH1 0x8 DUP2 ADD DUP1 SLOAD PUSH1 0x1 PUSH1 0x1 PUSH1 0xA0 SHL SUB NOT AND PUSH1 0x1 PUSH1 0x1 PUSH1 0xA0 SHL SUB SWAP9 SWAP1 SWAP9 AND SWAP8 DUP9 OR SWAP1 SSTORE PUSH1 0xFF NOT SWAP1 SWAP3 AND PUSH1 0x2 OR PUSH1 0x10 DUP4 ADD SSTORE ADD DUP1 SLOAD PUSH1 0x1 PUSH1 0x1 PUSH1 0xA8 SHL SUB NOT AND DUP6 OR SWAP2 ISZERO ISZERO PUSH1 0xA0 DUP2 SWAP1 SHL PUSH1 0xFF PUSH1 0xA0 SHL AND SWAP3 SWAP1 SWAP3 OR SWAP1 SSTORE PUSH1 0x40 DUP1 MLOAD SWAP5 DUP6 MSTORE PUSH1 0x20 DUP6 ADD SWAP2 SWAP1 SWAP2 MSTORE PUSH1 0x4 CALLDATALOAD SWAP4 SWAP2 DUP3 SWAP2 DUP3 ADD SWAP1 JUMP JUMPDEST PUSH4 0x4E487B71 PUSH1 0xE0 SHL PUSH1 0x0 MSTORE PUSH1 0x32 PUSH1 0x4 MSTORE PUSH1 0x24 PUSH1 0x0 REVERT JUMPDEST PUSH1 0x0 SWAP1 PUSH1 0x0 JUMPDEST PUSH1 0x4 CALLDATALOAD PUSH1 0x0 MSTORE PUSH1 0x9 DUP1 PUSH1 0x20 MSTORE PUSH1 0x40 PUSH1 0x0 KECCAK256 SLOAD DUP3 LT ISZERO PUSH2 0x3CC1 JUMPI PUSH1 0x8 DUP1 PUSH1 0x20 MSTORE PUSH1 0x40 PUSH1 0x0 KECCAK256 SWAP1 DUP3 PUSH1 0x20 MSTORE PUSH2 0x3C45 DUP5 PUSH1 0x40 PUSH1 0x0 KECCAK256 PUSH2 0x4ADE JUMP JUMPDEST SWAP3 SWAP1 PUSH1 0x1 DUP1 PUSH1 0xA0 SHL SUB SWAP4 DUP5 SWAP2 SLOAD SWAP1 PUSH1 0x3 SHL SHR AND PUSH1 0x0 MSTORE PUSH1 0x20 MSTORE DUP6 PUSH1 0x40 PUSH1 0x0 KECCAK256 SLOAD GT PUSH2 0x3C7C JUMPI JUMPDEST POP POP POP PUSH2 0x3C77 SWAP1 PUSH2 0x4F7F JUMP JUMPDEST PUSH2 0x3C0E JUMP JUMPDEST SWAP1 SWAP2 SWAP3 SWAP5 POP PUSH1 0x4 CALLDATALOAD PUSH1 0x0 MSTORE PUSH1 0x20 MSTORE PUSH1 0x40 PUSH1 0x0 KECCAK256 SWAP2 PUSH1 0x20 MSTORE PUSH2 0x3CA1 DUP5 PUSH1 0x40 PUSH1 0x0 KECCAK256 PUSH2 0x4ADE JUMP JUMPDEST SWAP1 SLOAD SWAP1 PUSH1 0x3 SHL SHR AND PUSH1 0x0 MSTORE PUSH1 0x20 MSTORE PUSH2 0x3C77 PUSH1 0x40 PUSH1 0x0 KECCAK256 SLOAD SWAP3 SWAP1 DUP8 DUP1 PUSH2 0x3C6B JUMP JUMPDEST POP POP SWAP3 SWAP2 PUSH1 0x4 CALLDATALOAD PUSH1 0x0 MSTORE PUSH1 0x9 PUSH1 0x20 MSTORE PUSH1 0x40 PUSH1 0x0 KECCAK256 SLOAD SWAP3 PUSH2 0x3CE0 DUP5 PUSH2 0x5255 JUMP JUMPDEST SWAP4 PUSH2 0x3CEE PUSH1 0x40 MLOAD SWAP6 DUP7 PUSH2 0x4B66 JUMP JUMPDEST DUP1 DUP6 MSTORE PUSH2 0x3CFD PUSH1 0x1F NOT SWAP2 PUSH2 0x5255 JUMP JUMPDEST ADD CALLDATASIZE PUSH1 0x20 DUP7 ADD CALLDATACOPY PUSH1 0x0 SWAP2 PUSH1 0x0 JUMPDEST PUSH1 0x4 CALLDATALOAD PUSH1 0x0 MSTORE PUSH1 0x9 PUSH1 0x20 MSTORE PUSH1 0x40 PUSH1 0x0 KECCAK256 SLOAD DUP2 LT ISZERO PUSH2 0x3DAF JUMPI PUSH2 0x3D6F SWAP1 PUSH1 0x8 PUSH1 0x20 MSTORE PUSH1 0x40 PUSH1 0x0 KECCAK256 PUSH1 0x9 PUSH1 0x20 MSTORE PUSH2 0x3D43 DUP3 PUSH1 0x40 PUSH1 0x0 KECCAK256 PUSH2 0x4ADE JUMP JUMPDEST SWAP2 SWAP1 PUSH1 0x1 DUP1 PUSH1 0xA0 SHL SUB SWAP3 DUP4 SWAP2 SLOAD SWAP1 PUSH1 0x3 SHL SHR AND PUSH1 0x0 MSTORE PUSH1 0x20 MSTORE DUP7 PUSH1 0x40 PUSH1 0x0 KECCAK256 SLOAD EQ PUSH2 0x3D74 JUMPI JUMPDEST POP PUSH2 0x4F7F JUMP JUMPDEST PUSH2 0x3D0A JUMP JUMPDEST PUSH1 0x4 CALLDATALOAD PUSH1 0x0 MSTORE PUSH1 0x9 PUSH1 0x20 MSTORE PUSH2 0x3D8D DUP3 PUSH1 0x40 PUSH1 0x0 KECCAK256 PUSH2 0x4ADE JUMP JUMPDEST SWAP1 SLOAD SWAP1 PUSH1 0x3 SHL SHR AND PUSH2 0x3DA8 PUSH2 0x3DA1 DUP8 PUSH2 0x4F7F JUMP JUMPDEST SWAP7 DUP10 PUSH2 0x526C JUMP JUMPDEST MSTORE DUP10 PUSH2 0x3D69 JUMP JUMPDEST POP SWAP3 POP SWAP4 PUSH1 0x1 DUP3 EQ PUSH1 0x0 EQ PUSH2 0x3E06 JUMPI POP POP DUP2 MLOAD ISZERO PUSH2 0x3BF2 JUMPI PUSH1 0x20 SWAP1 SWAP2 ADD MLOAD PUSH1 0x1 PUSH1 0x1 PUSH1 0xA0 SHL SUB AND SWAP3 PUSH32 0xA4DE64F8ECE5E3D0E00794857BF4663D0774D75EFC197695FA248F3F3E0B43E9 SWAP3 PUSH2 0x286F SWAP3 SWAP2 PUSH1 0x13 SWAP1 PUSH2 0x3B85 JUMP JUMPDEST SWAP2 POP SWAP2 SWAP3 PUSH1 0x1 SWAP2 PUSH1 0x0 NOT NUMBER ADD SWAP1 NUMBER DUP3 GT PUSH2 0xF5C JUMPI PUSH1 0x40 MLOAD SWAP1 PUSH1 0x20 DUP3 ADD SWAP3 BLOCKHASH DUP4 MSTORE TIMESTAMP PUSH1 0x40 DUP4 ADD MSTORE PUSH1 0x60 DUP3 ADD MSTORE PUSH1 0x4 CALLDATALOAD PUSH1 0x80 DUP3 ADD MSTORE PUSH1 0x80 DUP2 MSTORE PUSH1 0xA0 DUP2 ADD DUP2 DUP2 LT PUSH1 0x1 PUSH1 0x1 PUSH1 0x40 SHL SUB DUP3 GT OR PUSH2 0xF46 JUMPI PUSH1 0x40 MSTORE MLOAD SWAP1 KECCAK256 SWAP4 DUP4 ISZERO PUSH2 0x3EA6 JUMPI PUSH32 0xA4DE64F8ECE5E3D0E00794857BF4663D0774D75EFC197695FA248F3F3E0B43E9 SWAP5 PUSH2 0x286F SWAP5 PUSH1 0x13 SWAP3 PUSH1 0x1 PUSH1 0x1 PUSH1 0xA0 SHL SUB SWAP3 PUSH2 0x3E9E SWAP3 SWAP1 MOD SWAP1 PUSH2 0x526C JUMP JUMPDEST MLOAD AND SWAP6 PUSH2 0x3B85 JUMP JUMPDEST PUSH4 0x4E487B71 PUSH1 0xE0 SHL PUSH1 0x0 MSTORE PUSH1 0x12 PUSH1 0x4 MSTORE PUSH1 0x24 PUSH1 0x0 REVERT JUMPDEST PUSH1 0x40 MLOAD PUSH3 0x461BCD PUSH1 0xE5 SHL DUP2 MSTORE PUSH1 0x20 PUSH1 0x4 DUP3 ADD MSTORE PUSH1 0x16 PUSH1 0x24 DUP3 ADD MSTORE PUSH22 0x566F7465207374696C6C20696E2070726F6772657373 PUSH1 0x50 SHL PUSH1 0x44 DUP3 ADD MSTORE PUSH1 0x64 SWAP1 REVERT JUMPDEST POP PUSH1 0x12 DUP3 ADD SLOAD PUSH1 0x7 DUP4 ADD SLOAD EQ PUSH2 0x3B28 JUMP JUMPDEST PUSH1 0x40 MLOAD PUSH3 0x461BCD PUSH1 0xE5 SHL DUP2 MSTORE PUSH1 0x20 PUSH1 0x4 DUP3 ADD MSTORE PUSH1 0xC PUSH1 0x24 DUP3 ADD MSTORE PUSH12 0x4E6F206F70656E20766F7465 PUSH1 0xA0 SHL PUSH1 0x44 DUP3 ADD MSTORE PUSH1 0x64 SWAP1 REVERT JUMPDEST POP PUSH1 0x2 SLOAD PUSH1 0x4 CALLDATALOAD GT ISZERO PUSH2 0x3AD9 JUMP JUMPDEST CALLVALUE PUSH2 0x391 JUMPI PUSH2 0x3F5B CALLDATASIZE PUSH2 0x4A07 JUMP JUMPDEST PUSH2 0x3F63 PUSH2 0x4F3B JUMP JUMPDEST DUP2 ISZERO ISZERO DUP1 PUSH2 0x41AF JUMPI JUMPDEST PUSH2 0x3F75 SWAP1 PUSH2 0x4DD4 JUMP JUMPDEST PUSH2 0x3F82 PUSH2 0x82E CALLER DUP5 PUSH2 0x55CF JUMP JUMPDEST PUSH2 0x3F8A PUSH2 0x4EE5 JUMP JUMPDEST DUP2 PUSH1 0x0 MSTORE PUSH1 0x20 SWAP2 PUSH1 0x3 DUP4 MSTORE PUSH1 0x40 PUSH1 0x0 KECCAK256 PUSH1 0xA DUP5 MSTORE PUSH1 0x40 PUSH1 0x0 KECCAK256 DUP4 PUSH1 0x0 MSTORE DUP5 MSTORE PUSH1 0x40 PUSH1 0x0 KECCAK256 PUSH1 0x7 DUP2 ADD SWAP5 DUP6 SLOAD SWAP6 PUSH2 0x3FC3 PUSH1 0xFF DUP9 AND ISZERO PUSH2 0x5316 JUMP JUMPDEST PUSH2 0x3FD2 PUSH1 0x4 DUP5 ADD SLOAD TIMESTAMP GT PUSH2 0x5355 JUMP JUMPDEST PUSH1 0x7 DUP5 ADD SLOAD SWAP7 PUSH1 0x1 SWAP8 DUP9 SHR DUP9 DUP2 ADD DUP1 SWAP2 GT PUSH2 0xF5C JUMPI PUSH32 0xB910E2AC7B2959D46DE10C641870EB1CA8BEF723E4F53E0E026DD2EF9C6D04AB PUSH1 0x60 DUP9 SWAP3 PUSH2 0x403E DUP12 SWAP6 DUP14 SWAP8 PUSH1 0x5 DUP12 ADD SWAP4 DUP5 SLOAD LT ISZERO SWAP9 DUP10 SWAP3 PUSH1 0xFF NOT AND OR DUP2 SSTORE SWAP1 PUSH2 0xFF00 DUP3 SLOAD SWAP2 ISZERO ISZERO PUSH1 0x8 SHL AND SWAP1 PUSH2 0xFF00 NOT AND OR SWAP1 SSTORE JUMP JUMPDEST SLOAD PUSH1 0x6 DUP9 ADD SLOAD PUSH1 0x40 MLOAD SWAP2 DUP8 DUP4 MSTORE DUP9 DUP4 ADD MSTORE PUSH1 0x40 DUP3 ADD MSTORE LOG3 ISZERO PUSH2 0x418A JUMPI SELFBALANCE SWAP2 PUSH1 0x2 DUP2 ADD SWAP4 DUP5 SLOAD DUP1 SWAP5 LT PUSH2 0x4145 JUMPI PUSH1 0x5 ADD SLOAD SWAP1 PUSH1 0x3C DUP3 MUL SWAP2 DUP1 DUP4 DIV PUSH1 0x3C EQ SWAP1 ISZERO OR ISZERO PUSH2 0xF5C JUMPI PUSH2 0x408D DUP9 SWAP3 TIMESTAMP PUSH2 0x4E51 JUMP JUMPDEST PUSH1 0x8 DUP3 ADD SSTORE ADD SWAP1 PUSH1 0x0 DUP1 DUP1 DUP1 PUSH1 0x1 DUP1 PUSH1 0xA0 SHL SUB SWAP7 DUP8 DUP8 SLOAD AND GAS CALL PUSH2 0x40AF PUSH2 0x4E79 JUMP JUMPDEST POP ISZERO PUSH2 0x4101 JUMPI POP SLOAD SWAP2 SLOAD PUSH1 0x40 DUP1 MLOAD SWAP3 SWAP1 SWAP4 AND PUSH1 0x1 PUSH1 0x1 PUSH1 0xA0 SHL SUB AND DUP3 MSTORE PUSH1 0x20 DUP3 ADD MSTORE PUSH32 0xACA58D80F1AD9E62DAC1912D6C507CD35FE5410DF8D1D09D6BA4487241D1DB6E SWAP2 DUP2 SWAP1 DUP2 ADD PUSH2 0x30AE JUMP JUMPDEST PUSH1 0x0 SSTORE STOP JUMPDEST PUSH1 0x64 SWAP1 PUSH1 0x40 MLOAD SWAP1 PUSH3 0x461BCD PUSH1 0xE5 SHL DUP3 MSTORE PUSH1 0x4 DUP3 ADD MSTORE PUSH1 0x19 PUSH1 0x24 DUP3 ADD MSTORE PUSH32 0x456D657267656E6379207472616E73666572206661696C656400000000000000 PUSH1 0x44 DUP3 ADD MSTORE REVERT JUMPDEST PUSH1 0x40 MLOAD PUSH3 0x461BCD PUSH1 0xE5 SHL DUP2 MSTORE PUSH1 0x4 DUP2 ADD DUP5 SWAP1 MSTORE PUSH1 0x1D PUSH1 0x24 DUP3 ADD MSTORE PUSH32 0x496E73756666696369656E7420636F6E74726163742062616C616E6365000000 PUSH1 0x44 DUP3 ADD MSTORE PUSH1 0x64 SWAP1 REVERT JUMPDEST SWAP1 DUP6 ADD SLOAD PUSH1 0x1 PUSH1 0x1 PUSH1 0xA0 SHL SUB AND PUSH1 0x0 SWAP1 DUP2 MSTORE PUSH1 0xC SWAP1 SWAP2 MSTORE PUSH1 0x40 DUP2 KECCAK256 SSTORE POP PUSH2 0x40FC SWAP2 POP POP JUMP JUMPDEST POP PUSH1 0x2 SLOAD DUP3 GT ISZERO PUSH2 0x3F6C JUMP JUMPDEST CALLVALUE PUSH2 0x391 JUMPI PUSH1 0x20 CALLDATASIZE PUSH1 0x3 NOT ADD SLT PUSH2 0x391 JUMPI PUSH1 0x1 PUSH1 0x1 PUSH1 0xA0 SHL SUB PUSH2 0x41DC PUSH2 0x49F1 JUMP JUMPDEST AND PUSH1 0x0 MSTORE PUSH1 0x11 PUSH1 0x20 MSTORE PUSH1 0x20 PUSH1 0xFF PUSH1 0x40 PUSH1 0x0 KECCAK256 SLOAD AND PUSH1 0x40 MLOAD SWAP1 ISZERO ISZERO DUP2 MSTORE RETURN JUMPDEST CALLVALUE PUSH2 0x391 JUMPI PUSH1 0x20 CALLDATASIZE PUSH1 0x3 NOT ADD SLT PUSH2 0x391 JUMPI PUSH1 0x4 CALLDATALOAD PUSH2 0x4226 PUSH1 0x1 DUP1 PUSH1 0xA0 SHL SUB PUSH1 0x1 SLOAD PUSH1 0x8 SHR AND CALLER EQ PUSH2 0x4D9C JUMP JUMPDEST DUP1 ISZERO ISZERO DUP1 PUSH2 0x42CC JUMPI JUMPDEST PUSH2 0x4238 SWAP1 PUSH2 0x4DD4 JUMP JUMPDEST DUP1 PUSH1 0x0 MSTORE PUSH1 0x3 PUSH1 0x20 MSTORE PUSH1 0xFF PUSH1 0x2 PUSH1 0x40 PUSH1 0x0 KECCAK256 ADD SLOAD PUSH1 0xA0 SHR AND PUSH1 0x4 DUP2 LT ISZERO PUSH2 0x76E JUMPI PUSH2 0x4263 SWAP1 ISZERO PUSH2 0x4E17 JUMP JUMPDEST PUSH1 0x0 DUP2 DUP2 MSTORE PUSH1 0x3 PUSH1 0x20 MSTORE PUSH1 0x40 SWAP1 KECCAK256 PUSH1 0x2 ADD DUP1 SLOAD PUSH1 0xFF PUSH1 0xA0 SHL NOT AND PUSH1 0x1 PUSH1 0xA0 SHL OR SWAP1 SSTORE TIMESTAMP PUSH3 0x93A80 DUP2 ADD SWAP1 DUP2 LT PUSH2 0xF5C JUMPI DUP2 PUSH1 0x0 MSTORE PUSH1 0x3 PUSH1 0x20 MSTORE PUSH1 0x6 PUSH1 0x40 PUSH1 0x0 KECCAK256 ADD SSTORE PUSH32 0x6AFB1F32C9B62907732C7131785B4227D9840AFC33D8762875F6DADA618D620A PUSH1 0x0 DUP1 LOG2 STOP JUMPDEST POP PUSH1 0x2 SLOAD DUP2 GT ISZERO PUSH2 0x422F JUMP JUMPDEST CALLVALUE PUSH2 0x391 JUMPI PUSH1 0x40 CALLDATASIZE PUSH1 0x3 NOT ADD SLT PUSH2 0x391 JUMPI PUSH1 0x80 PUSH2 0x42F3 PUSH2 0x49DB JUMP JUMPDEST PUSH1 0x4 CALLDATALOAD PUSH1 0x0 MSTORE PUSH1 0x5 PUSH1 0x20 MSTORE PUSH1 0x40 PUSH1 0x0 KECCAK256 PUSH1 0x1 DUP1 PUSH1 0xA0 SHL SUB DUP1 SWAP3 AND PUSH1 0x0 MSTORE PUSH1 0x20 MSTORE PUSH1 0x40 PUSH1 0x0 KECCAK256 PUSH1 0x40 MLOAD SWAP2 PUSH2 0x4325 DUP4 PUSH2 0x4B30 JUMP JUMPDEST DUP2 SLOAD AND DUP3 MSTORE PUSH1 0x1 DUP2 ADD SLOAD SWAP2 DUP3 PUSH1 0x20 DUP3 ADD MSTORE PUSH1 0x2 DUP3 ADD SLOAD DUP1 PUSH1 0x40 DUP4 ADD MSTORE PUSH1 0x3 DUP4 ADD SLOAD SWAP2 DUP3 PUSH1 0x60 DUP3 ADD MSTORE PUSH1 0xA0 PUSH1 0xFF PUSH1 0x5 PUSH1 0x4 DUP8 ADD SLOAD SWAP7 DUP8 DUP11 DUP7 ADD MSTORE ADD SLOAD AND ISZERO ISZERO SWAP2 ADD MSTORE PUSH1 0x40 MLOAD SWAP4 DUP5 MSTORE PUSH1 0x20 DUP5 ADD MSTORE PUSH1 0x40 DUP4 ADD MSTORE PUSH1 0x60 DUP3 ADD MSTORE RETURN JUMPDEST CALLVALUE PUSH2 0x391 JUMPI PUSH2 0x438B CALLDATASIZE PUSH2 0x4A07 JUMP JUMPDEST SWAP1 PUSH1 0x0 MSTORE PUSH1 0xD PUSH1 0x20 MSTORE PUSH1 0x40 PUSH1 0x0 KECCAK256 SWAP1 PUSH1 0x0 MSTORE PUSH1 0x20 MSTORE PUSH2 0x100 PUSH1 0x40 PUSH1 0x0 KECCAK256 PUSH1 0xFF DUP2 SLOAD SWAP2 PUSH1 0x1 DUP1 PUSH1 0xA0 SHL SUB SWAP1 DUP2 PUSH1 0x1 DUP3 ADD SLOAD AND SWAP2 PUSH1 0x2 DUP3 ADD SLOAD AND PUSH1 0x3 DUP3 ADD SLOAD PUSH1 0x4 DUP4 ADD SLOAD SWAP2 PUSH1 0x6 PUSH1 0x5 DUP6 ADD SLOAD SWAP5 ADD SLOAD SWAP5 PUSH1 0x40 MLOAD SWAP8 DUP9 MSTORE PUSH1 0x20 DUP9 ADD MSTORE PUSH1 0x40 DUP8 ADD MSTORE PUSH1 0x60 DUP7 ADD MSTORE PUSH1 0x80 DUP6 ADD MSTORE PUSH1 0xA0 DUP5 ADD MSTORE DUP2 DUP2 AND ISZERO ISZERO PUSH1 0xC0 DUP5 ADD MSTORE PUSH1 0x8 SHR AND ISZERO ISZERO PUSH1 0xE0 DUP3 ADD MSTORE RETURN JUMPDEST CALLVALUE PUSH2 0x391 JUMPI PUSH1 0x40 CALLDATASIZE PUSH1 0x3 NOT ADD SLT PUSH2 0x391 JUMPI PUSH1 0x4 CALLDATALOAD PUSH2 0x442B PUSH2 0x49DB JUMP JUMPDEST SWAP1 PUSH2 0x4434 PUSH2 0x4F3B JUMP JUMPDEST DUP1 ISZERO ISZERO DUP1 PUSH2 0x4729 JUMPI JUMPDEST PUSH2 0x4446 SWAP1 PUSH2 0x4DD4 JUMP JUMPDEST PUSH2 0x4453 PUSH2 0x82E CALLER DUP4 PUSH2 0x55CF JUMP JUMPDEST PUSH1 0x0 DUP2 DUP2 MSTORE PUSH1 0x3 PUSH1 0x20 SWAP1 DUP2 MSTORE PUSH1 0x40 SWAP1 SWAP2 KECCAK256 PUSH1 0x1 PUSH1 0x1 PUSH1 0xA0 SHL SUB DUP1 DUP6 AND SWAP5 SWAP1 SWAP3 SWAP2 CALLER DUP7 EQ PUSH2 0x46ED JUMPI PUSH2 0x4484 DUP3 DUP7 PUSH2 0x55CF JUMP JUMPDEST ISZERO PUSH2 0x46B2 JUMPI DUP5 PUSH1 0x0 MSTORE PUSH1 0x5 DUP4 MSTORE PUSH1 0x40 PUSH1 0x0 KECCAK256 DUP7 PUSH1 0x0 MSTORE DUP4 MSTORE PUSH1 0x2 DUP1 PUSH1 0x40 PUSH1 0x0 KECCAK256 ADD SLOAD LT PUSH2 0x4674 JUMPI DUP5 PUSH1 0x0 MSTORE PUSH1 0xF DUP4 MSTORE PUSH1 0x40 PUSH1 0x0 KECCAK256 DUP7 PUSH1 0x0 MSTORE DUP4 MSTORE PUSH1 0x40 PUSH1 0x0 KECCAK256 SLOAD PUSH2 0x462F JUMPI PUSH1 0x15 ADD SWAP5 PUSH2 0x44D6 DUP7 SLOAD PUSH2 0x4F7F JUMP JUMPDEST DUP1 SWAP7 SSTORE PUSH2 0x12C TIMESTAMP ADD SWAP3 DUP4 TIMESTAMP GT PUSH2 0xF5C JUMPI PUSH1 0x40 MLOAD SWAP4 PUSH2 0x100 DUP6 ADD SWAP5 DUP1 DUP7 LT PUSH1 0x1 PUSH1 0x1 PUSH1 0x40 SHL SUB DUP8 GT OR PUSH2 0xF46 JUMPI PUSH1 0x0 PUSH2 0x45DF PUSH1 0x6 DUP3 SWAP4 DUP12 DUP8 PUSH2 0x45F6 SWAP8 DUP16 PUSH32 0x79AADE8012992F30385B9C91C5BDCA9B4DFFDB497B853421E7833B758617B44 SWAP15 PUSH2 0xA7F SWAP15 PUSH1 0x40 MSTORE DUP2 DUP7 MSTORE DUP4 DUP7 ADD SWAP1 DUP14 DUP3 MSTORE PUSH1 0x40 DUP8 ADD SWAP3 CALLER DUP5 MSTORE PUSH1 0x60 DUP9 ADD SWAP5 DUP6 MSTORE PUSH1 0xD PUSH1 0x80 DUP10 ADD SWAP7 DUP13 DUP9 MSTORE PUSH1 0xA0 DUP11 ADD SWAP9 DUP14 DUP11 MSTORE PUSH1 0xC0 DUP12 ADD SWAP15 DUP16 MSTORE PUSH1 0xE0 DUP12 ADD SWAP14 DUP15 MSTORE PUSH1 0x0 MSTORE MSTORE PUSH1 0x40 PUSH1 0x0 KECCAK256 SWAP1 PUSH1 0x0 MSTORE DUP14 MSTORE PUSH1 0x40 PUSH1 0x0 KECCAK256 SWAP7 MLOAD DUP8 SSTORE DUP1 PUSH1 0x1 DUP9 ADD SWAP3 MLOAD AND SWAP2 PUSH1 0x1 PUSH1 0x1 PUSH1 0x60 SHL SUB PUSH1 0xA0 SHL SWAP3 DUP4 DUP3 SLOAD AND OR SWAP1 SSTORE PUSH1 0x2 DUP8 ADD SWAP3 MLOAD AND SWAP1 DUP3 SLOAD AND OR SWAP1 SSTORE MLOAD PUSH1 0x3 DUP5 ADD SSTORE MLOAD PUSH1 0x4 DUP4 ADD SSTORE MLOAD PUSH1 0x5 DUP3 ADD SSTORE ADD SWAP3 MLOAD ISZERO ISZERO DUP4 SWAP1 PUSH1 0xFF DUP1 NOT DUP4 SLOAD AND SWAP2 ISZERO ISZERO AND OR SWAP1 SSTORE JUMP JUMPDEST MLOAD DUP2 SLOAD PUSH2 0xFF00 NOT AND SWAP1 ISZERO ISZERO PUSH1 0x8 SHL PUSH2 0xFF00 AND OR SWAP1 SSTORE JUMP JUMPDEST PUSH1 0x0 DUP7 DUP2 MSTORE PUSH1 0xF DUP3 MSTORE PUSH1 0x40 DUP1 DUP3 KECCAK256 SWAP4 DUP3 MSTORE SWAP3 SWAP1 SWAP2 MSTORE DUP2 SWAP1 KECCAK256 DUP7 SWAP1 SSTORE DUP1 MLOAD PUSH1 0x1 PUSH1 0x1 PUSH1 0xA0 SHL SUB SWAP1 SWAP3 AND DUP3 MSTORE CALLER PUSH1 0x20 DUP4 ADD MSTORE SWAP1 SWAP2 DUP3 SWAP2 DUP3 ADD SWAP1 JUMP JUMPDEST PUSH1 0x40 MLOAD PUSH3 0x461BCD PUSH1 0xE5 SHL DUP2 MSTORE PUSH1 0x4 DUP2 ADD DUP5 SWAP1 MSTORE PUSH1 0x18 PUSH1 0x24 DUP3 ADD MSTORE PUSH32 0x4B69636B20616C726561647920696E2070726F67726573730000000000000000 PUSH1 0x44 DUP3 ADD MSTORE PUSH1 0x64 SWAP1 REVERT JUMPDEST PUSH1 0x40 MLOAD PUSH3 0x461BCD PUSH1 0xE5 SHL DUP2 MSTORE PUSH1 0x4 DUP2 ADD DUP5 SWAP1 MSTORE PUSH1 0x16 PUSH1 0x24 DUP3 ADD MSTORE PUSH22 0x4E6F7420656E6F756768206D697373656420454D4973 PUSH1 0x50 SHL PUSH1 0x44 DUP3 ADD MSTORE PUSH1 0x64 SWAP1 REVERT JUMPDEST PUSH1 0x40 MLOAD PUSH3 0x461BCD PUSH1 0xE5 SHL DUP2 MSTORE PUSH1 0x4 DUP2 ADD DUP5 SWAP1 MSTORE PUSH1 0x13 PUSH1 0x24 DUP3 ADD MSTORE PUSH19 0x546172676574206E6F7420696E2067726F757 PUSH1 0x6C SHL PUSH1 0x44 DUP3 ADD MSTORE PUSH1 0x64 SWAP1 REVERT JUMPDEST PUSH1 0x40 MLOAD PUSH3 0x461BCD PUSH1 0xE5 SHL DUP2 MSTORE PUSH1 0x4 DUP2 ADD DUP5 SWAP1 MSTORE PUSH1 0x14 PUSH1 0x24 DUP3 ADD MSTORE PUSH20 0x21B0B73737BA1035B4B1B5903CB7BAB939B2B633 PUSH1 0x61 SHL PUSH1 0x44 DUP3 ADD MSTORE PUSH1 0x64 SWAP1 REVERT JUMPDEST POP PUSH1 0x2 SLOAD DUP2 GT ISZERO PUSH2 0x443D JUMP JUMPDEST CALLVALUE PUSH2 0x391 JUMPI PUSH1 0x40 CALLDATASIZE PUSH1 0x3 NOT ADD SLT PUSH2 0x391 JUMPI PUSH1 0xC0 PUSH2 0x4750 PUSH2 0x49DB JUMP JUMPDEST PUSH1 0x4 CALLDATALOAD PUSH1 0x0 MSTORE PUSH1 0x5 PUSH1 0x20 MSTORE PUSH1 0x40 PUSH1 0x0 KECCAK256 PUSH1 0x1 DUP1 PUSH1 0xA0 SHL SUB DUP1 SWAP3 AND PUSH1 0x0 MSTORE PUSH1 0x20 MSTORE PUSH1 0x40 PUSH1 0x0 KECCAK256 SWAP1 DUP2 SLOAD AND SWAP1 PUSH1 0x1 DUP2 ADD SLOAD SWAP1 PUSH1 0x2 DUP2 ADD SLOAD PUSH1 0x3 DUP3 ADD SLOAD SWAP1 PUSH1 0xFF PUSH1 0x5 PUSH1 0x4 DUP6 ADD SLOAD SWAP5 ADD SLOAD AND SWAP4 PUSH1 0x40 MLOAD SWAP6 DUP7 MSTORE PUSH1 0x20 DUP7 ADD MSTORE PUSH1 0x40 DUP6 ADD MSTORE PUSH1 0x60 DUP5 ADD MSTORE PUSH1 0x80 DUP4 ADD MSTORE ISZERO ISZERO PUSH1 0xA0 DUP3 ADD MSTORE RETURN JUMPDEST CALLVALUE PUSH2 0x391 JUMPI PUSH1 0x20 DUP1 PUSH1 0x3 NOT CALLDATASIZE ADD SLT PUSH2 0x391 JUMPI PUSH1 0x4 CALLDATALOAD PUSH2 0x47D9 PUSH2 0x4F3B JUMP JUMPDEST DUP1 ISZERO ISZERO DUP1 PUSH2 0x49B3 JUMPI JUMPDEST PUSH2 0x47EB SWAP1 PUSH2 0x4DD4 JUMP JUMPDEST DUP1 PUSH1 0x0 MSTORE PUSH1 0x3 SWAP2 DUP3 DUP2 MSTORE PUSH1 0xFF PUSH1 0x2 PUSH1 0x40 PUSH1 0x0 KECCAK256 ADD SLOAD PUSH1 0xA0 SHR AND SWAP3 PUSH1 0x4 DUP5 LT ISZERO PUSH2 0x76E JUMPI PUSH2 0x481B PUSH1 0x1 DUP1 SWAP6 EQ PUSH2 0x509C JUMP JUMPDEST PUSH2 0x4823 PUSH2 0x4EE5 JUMP JUMPDEST DUP3 PUSH1 0x0 MSTORE DUP1 DUP3 MSTORE PUSH1 0x40 PUSH1 0x0 KECCAK256 SWAP1 PUSH1 0x6 DUP3 ADD SLOAD TIMESTAMP GT ISZERO PUSH2 0x4978 JUMPI PUSH1 0x7 DUP3 ADD DUP1 SLOAD PUSH1 0x4 DUP5 ADD SLOAD GT ISZERO PUSH2 0x4933 JUMPI PUSH1 0x2 DUP4 ADD DUP1 SLOAD PUSH1 0xFF PUSH1 0xA0 SHL NOT AND PUSH1 0x3 PUSH1 0xA0 SHL OR SWAP1 SSTORE SWAP2 DUP2 ADD SWAP2 DUP6 SWAP2 SWAP1 PUSH1 0x0 DUP4 JUMPDEST PUSH2 0x48D0 JUMPI JUMPDEST DUP4 DUP8 PUSH32 0x7AAC2E1F5D480DD5EE714064322C3F2B41AF09E78BCF63417F5C981C424C6A30 PUSH1 0x60 DUP10 PUSH1 0x1B PUSH1 0x40 MLOAD SWAP2 DUP1 DUP4 MSTORE DUP3 ADD MSTORE PUSH32 0x457870697265643A206E6F742066696C6C656420696E2074696D650000000000 PUSH1 0x40 DUP3 ADD MSTORE LOG2 PUSH1 0x0 SSTORE STOP JUMPDEST DUP2 SLOAD DUP2 LT ISZERO PUSH2 0x492E JUMPI DUP1 PUSH2 0x191E PUSH1 0x0 DUP1 DUP1 DUP1 PUSH2 0x48EF PUSH2 0x4928 SWAP8 DUP10 PUSH2 0x4ADE JUMP JUMPDEST SWAP1 SLOAD SWAP1 DUP11 SHL SHR PUSH1 0x1 PUSH1 0x1 PUSH1 0xA0 SHL SUB AND DUP1 DUP3 MSTORE PUSH1 0x11 DUP14 MSTORE PUSH1 0x40 DUP1 DUP4 KECCAK256 DUP1 SLOAD PUSH1 0xFF NOT AND SWAP1 SSTORE PUSH1 0x10 DUP15 MSTORE DUP3 KECCAK256 DUP3 SWAP1 SSTORE DUP12 SLOAD SWAP1 GAS CALL PUSH2 0x110C PUSH2 0x4E79 JUMP JUMPDEST DUP4 PUSH2 0x486D JUMP JUMPDEST PUSH2 0x4872 JUMP JUMPDEST PUSH1 0x40 MLOAD PUSH3 0x461BCD PUSH1 0xE5 SHL DUP2 MSTORE PUSH1 0x4 DUP2 ADD DUP6 SWAP1 MSTORE PUSH1 0x1C PUSH1 0x24 DUP3 ADD MSTORE PUSH32 0x47726F75702069732066756C6C2C2063616E6E6F742065787069726500000000 PUSH1 0x44 DUP3 ADD MSTORE PUSH1 0x64 SWAP1 REVERT JUMPDEST PUSH1 0x40 MLOAD PUSH3 0x461BCD PUSH1 0xE5 SHL DUP2 MSTORE PUSH1 0x4 DUP2 ADD DUP5 SWAP1 MSTORE PUSH1 0x13 PUSH1 0x24 DUP3 ADD MSTORE PUSH19 0x111958591B1A5B99481B9BDD081C185CDCD959 PUSH1 0x6A SHL PUSH1 0x44 DUP3 ADD MSTORE PUSH1 0x64 SWAP1 REVERT JUMPDEST POP PUSH1 0x2 SLOAD DUP2 GT ISZERO PUSH2 0x47E2 JUMP JUMPDEST CALLVALUE PUSH2 0x391 JUMPI PUSH1 0x0 CALLDATASIZE PUSH1 0x3 NOT ADD SLT PUSH2 0x391 JUMPI PUSH1 0x20 PUSH1 0x40 MLOAD PUSH1 0x5 DUP2 MSTORE RETURN JUMPDEST PUSH1 0x24 CALLDATALOAD SWAP1 PUSH1 0x1 PUSH1 0x1 PUSH1 0xA0 SHL SUB DUP3 AND DUP3 SUB PUSH2 0x391 JUMPI JUMP JUMPDEST PUSH1 0x4 CALLDATALOAD SWAP1 PUSH1 0x1 PUSH1 0x1 PUSH1 0xA0 SHL SUB DUP3 AND DUP3 SUB PUSH2 0x391 JUMPI JUMP JUMPDEST PUSH1 0x40 SWAP1 PUSH1 0x3 NOT ADD SLT PUSH2 0x391 JUMPI PUSH1 0x4 CALLDATALOAD SWAP1 PUSH1 0x24 CALLDATALOAD SWAP1 JUMP JUMPDEST CALLVALUE PUSH2 0x391 JUMPI PUSH1 0x0 CALLDATASIZE PUSH1 0x3 NOT ADD SLT PUSH2 0x391 JUMPI PUSH1 0x20 PUSH1 0x40 MLOAD PUSH1 0x2 DUP2 MSTORE RETURN JUMPDEST CALLVALUE PUSH2 0x391 JUMPI PUSH1 0x0 CALLDATASIZE PUSH1 0x3 NOT ADD SLT PUSH2 0x391 JUMPI PUSH1 0x20 PUSH1 0x40 MLOAD PUSH2 0x12C DUP2 MSTORE RETURN JUMPDEST PUSH1 0x20 SWAP1 DUP2 PUSH1 0x40 DUP2 DUP4 ADD SWAP3 DUP3 DUP2 MSTORE DUP6 MLOAD DUP1 SWAP5 MSTORE ADD SWAP4 ADD SWAP2 PUSH1 0x0 JUMPDEST DUP3 DUP2 LT PUSH2 0x4A7D JUMPI POP POP POP POP SWAP1 JUMP JUMPDEST DUP4 MLOAD DUP6 MSTORE SWAP4 DUP2 ADD SWAP4 SWAP3 DUP2 ADD SWAP3 PUSH1 0x1 ADD PUSH2 0x4A6F JUMP JUMPDEST PUSH1 0x60 SWAP1 PUSH1 0x3 NOT ADD SLT PUSH2 0x391 JUMPI PUSH1 0x4 CALLDATALOAD SWAP1 PUSH1 0x24 CALLDATALOAD SWAP1 PUSH1 0x44 CALLDATALOAD DUP1 ISZERO ISZERO DUP2 SUB PUSH2 0x391 JUMPI SWAP1 JUMP JUMPDEST PUSH1 0x60 SWAP1 PUSH1 0x3 NOT ADD SLT PUSH2 0x391 JUMPI PUSH1 0x4 CALLDATALOAD SWAP1 PUSH1 0x24 CALLDATALOAD SWAP1 PUSH1 0x44 CALLDATALOAD PUSH1 0x1 PUSH1 0x1 PUSH1 0xA0 SHL SUB DUP2 AND DUP2 SUB PUSH2 0x391 JUMPI SWAP1 JUMP JUMPDEST DUP1 SLOAD DUP3 LT ISZERO PUSH2 0x3BF2 JUMPI PUSH1 0x0 MSTORE PUSH1 0x20 PUSH1 0x0 KECCAK256 ADD SWAP1 PUSH1 0x0 SWAP1 JUMP JUMPDEST SWAP1 PUSH1 0x1 DUP3 DUP2 SHR SWAP3 AND DUP1 ISZERO PUSH2 0x4B26 JUMPI JUMPDEST PUSH1 0x20 DUP4 LT EQ PUSH2 0x4B10 JUMPI JUMP JUMPDEST PUSH4 0x4E487B71 PUSH1 0xE0 SHL PUSH1 0x0 MSTORE PUSH1 0x22 PUSH1 0x4 MSTORE PUSH1 0x24 PUSH1 0x0 REVERT JUMPDEST SWAP2 PUSH1 0x7F AND SWAP2 PUSH2 0x4B05 JUMP JUMPDEST PUSH1 0xC0 DUP2 ADD SWAP1 DUP2 LT PUSH1 0x1 PUSH1 0x1 PUSH1 0x40 SHL SUB DUP3 GT OR PUSH2 0xF46 JUMPI PUSH1 0x40 MSTORE JUMP JUMPDEST PUSH1 0xE0 DUP2 ADD SWAP1 DUP2 LT PUSH1 0x1 PUSH1 0x1 PUSH1 0x40 SHL SUB DUP3 GT OR PUSH2 0xF46 JUMPI PUSH1 0x40 MSTORE JUMP JUMPDEST SWAP1 PUSH1 0x1F DUP1 NOT SWAP2 ADD AND DUP2 ADD SWAP1 DUP2 LT PUSH1 0x1 PUSH1 0x1 PUSH1 0x40 SHL SUB DUP3 GT OR PUSH2 0xF46 JUMPI PUSH1 0x40 MSTORE JUMP JUMPDEST SWAP1 PUSH1 0x40 MLOAD SWAP2 DUP3 PUSH1 0x0 DUP3 SLOAD SWAP3 PUSH2 0x4B9B DUP5 PUSH2 0x4AF6 JUMP JUMPDEST SWAP1 DUP2 DUP5 MSTORE PUSH1 0x1 SWAP5 DUP6 DUP2 AND SWAP1 DUP2 PUSH1 0x0 EQ PUSH2 0x4C0A JUMPI POP PUSH1 0x1 EQ PUSH2 0x4BC7 JUMPI JUMPDEST POP POP PUSH2 0x4BC5 SWAP3 POP SUB DUP4 PUSH2 0x4B66 JUMP JUMPDEST JUMP JUMPDEST SWAP1 SWAP4 SWAP2 POP PUSH1 0x0 MSTORE PUSH1 0x20 SWAP1 DUP2 PUSH1 0x0 KECCAK256 SWAP4 PUSH1 0x0 SWAP2 JUMPDEST DUP2 DUP4 LT PUSH2 0x4BF2 JUMPI POP POP PUSH2 0x4BC5 SWAP4 POP DUP3 ADD ADD CODESIZE DUP1 PUSH2 0x4BB7 JUMP JUMPDEST DUP6 SLOAD DUP9 DUP5 ADD DUP6 ADD MSTORE SWAP5 DUP6 ADD SWAP5 DUP8 SWAP5 POP SWAP2 DUP4 ADD SWAP2 PUSH2 0x4BDA JUMP JUMPDEST SWAP2 POP POP PUSH2 0x4BC5 SWAP5 POP PUSH1 0x20 SWAP3 POP PUSH1 0xFF NOT AND DUP3 DUP5 ADD MSTORE ISZERO ISZERO PUSH1 0x5 SHL DUP3 ADD ADD CODESIZE DUP1 PUSH2 0x4BB7 JUMP JUMPDEST SWAP2 SWAP1 DUP3 MLOAD SWAP3 DUP4 DUP3 MSTORE PUSH1 0x0 JUMPDEST DUP5 DUP2 LT PUSH2 0x4C59 JUMPI POP POP DUP3 PUSH1 0x0 PUSH1 0x20 DUP1 SWAP5 SWAP6 DUP5 ADD ADD MSTORE PUSH1 0x1F DUP1 NOT SWAP2 ADD AND ADD ADD SWAP1 JUMP JUMPDEST PUSH1 0x20 DUP2 DUP4 ADD DUP2 ADD MLOAD DUP5 DUP4 ADD DUP3 ADD MSTORE ADD PUSH2 0x4C38 JUMP JUMPDEST SWAP1 PUSH1 0x40 MLOAD PUSH2 0x4C7A DUP2 PUSH2 0x4B4B JUMP JUMPDEST PUSH1 0xC0 PUSH1 0xFF PUSH1 0x6 DUP4 SWAP6 DUP1 SLOAD DUP6 MSTORE PUSH1 0x1 DUP2 ADD SLOAD PUSH1 0x20 DUP7 ADD MSTORE PUSH1 0x2 DUP2 ADD SLOAD PUSH1 0x40 DUP7 ADD MSTORE PUSH1 0x3 DUP2 ADD SLOAD PUSH1 0x60 DUP7 ADD MSTORE PUSH1 0x4 DUP2 ADD SLOAD PUSH1 0x80 DUP7 ADD MSTORE PUSH1 0x5 DUP2 ADD SLOAD PUSH1 0xA0 DUP7 ADD MSTORE ADD SLOAD AND ISZERO ISZERO SWAP2 ADD MSTORE JUMP JUMPDEST SWAP1 PUSH1 0x40 MLOAD PUSH1 0xA0 DUP2 ADD DUP2 DUP2 LT PUSH1 0x1 PUSH1 0x1 PUSH1 0x40 SHL SUB DUP3 GT OR PUSH2 0xF46 JUMPI PUSH1 0x40 MSTORE DUP1 SWAP3 PUSH1 0xFF DUP2 SLOAD AND SWAP1 PUSH1 0x3 DUP3 LT ISZERO PUSH2 0x76E JUMPI SWAP1 DUP3 MSTORE PUSH1 0x1 DUP2 ADD SLOAD PUSH1 0x20 DUP4 ADD MSTORE PUSH1 0x2 DUP2 ADD SLOAD PUSH1 0x40 DUP4 ADD MSTORE PUSH1 0x3 ADD SLOAD PUSH1 0x1 PUSH1 0x1 PUSH1 0xA0 SHL SUB DUP2 AND PUSH1 0x60 DUP4 ADD MSTORE PUSH1 0xA0 SHR PUSH1 0xFF AND ISZERO ISZERO PUSH1 0x80 SWAP2 SWAP1 SWAP2 ADD MSTORE JUMP JUMPDEST PUSH1 0x20 SWAP1 DUP2 PUSH1 0x40 DUP2 DUP4 ADD SWAP3 DUP3 DUP2 MSTORE DUP6 MLOAD DUP1 SWAP5 MSTORE ADD SWAP4 ADD SWAP2 PUSH1 0x0 JUMPDEST DUP3 DUP2 LT PUSH2 0x4D52 JUMPI POP POP POP POP SWAP1 JUMP JUMPDEST DUP4 MLOAD PUSH1 0x1 PUSH1 0x1 PUSH1 0xA0 SHL SUB AND DUP6 MSTORE SWAP4 DUP2 ADD SWAP4 SWAP3 DUP2 ADD SWAP3 PUSH1 0x1 ADD PUSH2 0x4D44 JUMP JUMPDEST SWAP2 DUP2 PUSH1 0x1F DUP5 ADD SLT ISZERO PUSH2 0x391 JUMPI DUP3 CALLDATALOAD SWAP2 PUSH1 0x1 PUSH1 0x1 PUSH1 0x40 SHL SUB DUP4 GT PUSH2 0x391 JUMPI PUSH1 0x20 DUP4 DUP2 DUP7 ADD SWAP6 ADD ADD GT PUSH2 0x391 JUMPI JUMP JUMPDEST ISZERO PUSH2 0x4DA3 JUMPI JUMP JUMPDEST PUSH1 0x40 MLOAD PUSH3 0x461BCD PUSH1 0xE5 SHL DUP2 MSTORE PUSH1 0x20 PUSH1 0x4 DUP3 ADD MSTORE PUSH1 0x9 PUSH1 0x24 DUP3 ADD MSTORE PUSH9 0x2737BA1030B236B4B7 PUSH1 0xB9 SHL PUSH1 0x44 DUP3 ADD MSTORE PUSH1 0x64 SWAP1 REVERT JUMPDEST ISZERO PUSH2 0x4DDB JUMPI JUMP JUMPDEST PUSH1 0x40 MLOAD PUSH3 0x461BCD PUSH1 0xE5 SHL DUP2 MSTORE PUSH1 0x20 PUSH1 0x4 DUP3 ADD MSTORE PUSH1 0x14 PUSH1 0x24 DUP3 ADD MSTORE PUSH20 0x11DC9BDD5C08191BD95CC81B9BDD08195E1A5CDD PUSH1 0x62 SHL PUSH1 0x44 DUP3 ADD MSTORE PUSH1 0x64 SWAP1 REVERT JUMPDEST ISZERO PUSH2 0x4E1E JUMPI JUMP JUMPDEST PUSH1 0x40 MLOAD PUSH3 0x461BCD PUSH1 0xE5 SHL DUP2 MSTORE PUSH1 0x20 PUSH1 0x4 DUP3 ADD MSTORE PUSH1 0xB PUSH1 0x24 DUP3 ADD MSTORE PUSH11 0x4E6F742070656E64696E67 PUSH1 0xA8 SHL PUSH1 0x44 DUP3 ADD MSTORE PUSH1 0x64 SWAP1 REVERT JUMPDEST SWAP2 SWAP1 DUP3 ADD DUP1 SWAP3 GT PUSH2 0xF5C JUMPI JUMP JUMPDEST PUSH1 0x1 PUSH1 0x1 PUSH1 0x40 SHL SUB DUP2 GT PUSH2 0xF46 JUMPI PUSH1 0x1F ADD PUSH1 0x1F NOT AND PUSH1 0x20 ADD SWAP1 JUMP JUMPDEST RETURNDATASIZE ISZERO PUSH2 0x4EA4 JUMPI RETURNDATASIZE SWAP1 PUSH2 0x4E8A DUP3 PUSH2 0x4E5E JUMP JUMPDEST SWAP2 PUSH2 0x4E98 PUSH1 0x40 MLOAD SWAP4 DUP5 PUSH2 0x4B66 JUMP JUMPDEST DUP3 MSTORE RETURNDATASIZE PUSH1 0x0 PUSH1 0x20 DUP5 ADD RETURNDATACOPY JUMP JUMPDEST PUSH1 0x60 SWAP1 JUMP JUMPDEST ISZERO PUSH2 0x4EB0 JUMPI JUMP JUMPDEST PUSH1 0x40 MLOAD PUSH3 0x461BCD PUSH1 0xE5 SHL DUP2 MSTORE PUSH1 0x20 PUSH1 0x4 DUP3 ADD MSTORE PUSH1 0xD PUSH1 0x24 DUP3 ADD MSTORE PUSH13 0x1499599D5B990819985A5B1959 PUSH1 0x9A SHL PUSH1 0x44 DUP3 ADD MSTORE PUSH1 0x64 SWAP1 REVERT JUMPDEST PUSH1 0x2 PUSH1 0x0 SLOAD EQ PUSH2 0x4EF6 JUMPI PUSH1 0x2 PUSH1 0x0 SSTORE JUMP JUMPDEST PUSH1 0x40 MLOAD PUSH3 0x461BCD PUSH1 0xE5 SHL DUP2 MSTORE PUSH1 0x20 PUSH1 0x4 DUP3 ADD MSTORE PUSH1 0x1F PUSH1 0x24 DUP3 ADD MSTORE PUSH32 0x5265656E7472616E637947756172643A207265656E7472616E742063616C6C00 PUSH1 0x44 DUP3 ADD MSTORE PUSH1 0x64 SWAP1 REVERT JUMPDEST PUSH1 0xFF PUSH1 0x1 SLOAD AND PUSH2 0x4F47 JUMPI JUMP JUMPDEST PUSH1 0x40 MLOAD PUSH3 0x461BCD PUSH1 0xE5 SHL DUP2 MSTORE PUSH1 0x20 PUSH1 0x4 DUP3 ADD MSTORE PUSH1 0x10 PUSH1 0x24 DUP3 ADD MSTORE PUSH16 0x14185D5CD8589B194E881C185D5CD959 PUSH1 0x82 SHL PUSH1 0x44 DUP3 ADD MSTORE PUSH1 0x64 SWAP1 REVERT JUMPDEST PUSH1 0x0 NOT DUP2 EQ PUSH2 0xF5C JUMPI PUSH1 0x1 ADD SWAP1 JUMP JUMPDEST SWAP2 SWAP1 DUP2 LT ISZERO PUSH2 0x3BF2 JUMPI PUSH1 0x5 SHL ADD SWAP1 JUMP JUMPDEST CALLDATALOAD PUSH1 0x1 PUSH1 0x1 PUSH1 0xA0 SHL SUB DUP2 AND DUP2 SUB PUSH2 0x391 JUMPI SWAP1 JUMP JUMPDEST ISZERO PUSH2 0x4FB9 JUMPI JUMP JUMPDEST PUSH1 0x40 MLOAD PUSH3 0x461BCD PUSH1 0xE5 SHL DUP2 MSTORE PUSH1 0x20 PUSH1 0x4 DUP3 ADD MSTORE PUSH1 0x16 PUSH1 0x24 DUP3 ADD MSTORE PUSH22 0x21B0B73737BA1034B73B34BA32903CB7BAB939B2B633 PUSH1 0x51 SHL PUSH1 0x44 DUP3 ADD MSTORE PUSH1 0x64 SWAP1 REVERT JUMPDEST DUP2 DUP2 LT PUSH2 0x5002 JUMPI POP POP JUMP JUMPDEST PUSH1 0x0 DUP2 SSTORE PUSH1 0x1 ADD PUSH2 0x4FF7 JUMP JUMPDEST SWAP2 SWAP1 PUSH1 0x1F DUP2 GT PUSH2 0x501D JUMPI POP POP POP JUMP JUMPDEST PUSH2 0x4BC5 SWAP3 PUSH1 0x0 MSTORE PUSH1 0x20 PUSH1 0x0 KECCAK256 SWAP1 PUSH1 0x20 PUSH1 0x1F DUP5 ADD PUSH1 0x5 SHR DUP4 ADD SWAP4 LT PUSH2 0x5049 JUMPI JUMPDEST PUSH1 0x1F ADD PUSH1 0x5 SHR ADD SWAP1 PUSH2 0x4FF7 JUMP JUMPDEST SWAP1 SWAP2 POP DUP2 SWAP1 PUSH2 0x503C JUMP JUMPDEST SWAP1 DUP2 SLOAD SWAP2 PUSH9 0x10000000000000000 DUP4 LT ISZERO PUSH2 0xF46 JUMPI DUP3 PUSH2 0x12A7 SWAP2 PUSH1 0x1 PUSH2 0x4BC5 SWAP6 ADD DUP2 SSTORE PUSH2 0x4ADE JUMP JUMPDEST SWAP1 DUP1 PUSH1 0x20 SWAP4 SWAP3 DUP2 DUP5 MSTORE DUP5 DUP5 ADD CALLDATACOPY PUSH1 0x0 DUP3 DUP3 ADD DUP5 ADD MSTORE PUSH1 0x1F ADD PUSH1 0x1F NOT AND ADD ADD SWAP1 JUMP JUMPDEST ISZERO PUSH2 0x50A3 JUMPI JUMP JUMPDEST PUSH1 0x40 MLOAD PUSH3 0x461BCD PUSH1 0xE5 SHL DUP2 MSTORE PUSH1 0x20 PUSH1 0x4 DUP3 ADD MSTORE PUSH1 0x12 PUSH1 0x24 DUP3 ADD MSTORE PUSH18 0x57726F6E672067726F757020737461747573 PUSH1 0x70 SHL PUSH1 0x44 DUP3 ADD MSTORE PUSH1 0x64 SWAP1 REVERT JUMPDEST SWAP1 PUSH1 0x40 MLOAD SWAP2 DUP3 DUP2 SLOAD SWAP2 DUP3 DUP3 MSTORE PUSH1 0x20 SWAP3 DUP4 DUP4 ADD SWAP2 PUSH1 0x0 MSTORE DUP4 PUSH1 0x0 KECCAK256 SWAP4 PUSH1 0x0 SWAP1 JUMPDEST DUP3 DUP3 LT PUSH2 0x5112 JUMPI POP POP POP PUSH2 0x4BC5 SWAP3 POP SUB DUP4 PUSH2 0x4B66 JUMP JUMPDEST DUP6 SLOAD PUSH1 0x1 PUSH1 0x1 PUSH1 0xA0 SHL SUB AND DUP5 MSTORE PUSH1 0x1 SWAP6 DUP7 ADD SWAP6 DUP9 SWAP6 POP SWAP4 DUP2 ADD SWAP4 SWAP1 SWAP2 ADD SWAP1 PUSH2 0x50FC JUMP JUMPDEST ISZERO PUSH2 0x513C JUMPI JUMP JUMPDEST PUSH1 0x40 MLOAD PUSH3 0x461BCD PUSH1 0xE5 SHL DUP2 MSTORE PUSH1 0x20 PUSH1 0x4 DUP3 ADD MSTORE PUSH1 0x1A PUSH1 0x24 DUP3 ADD MSTORE PUSH32 0x4E6F742061206D656D626572206F6620746869732067726F7570000000000000 PUSH1 0x44 DUP3 ADD MSTORE PUSH1 0x64 SWAP1 REVERT JUMPDEST ISZERO PUSH2 0x5188 JUMPI JUMP JUMPDEST PUSH1 0x40 MLOAD PUSH3 0x461BCD PUSH1 0xE5 SHL DUP2 MSTORE PUSH1 0x20 PUSH1 0x4 DUP3 ADD MSTORE PUSH1 0x13 PUSH1 0x24 DUP3 ADD MSTORE PUSH19 0x4C6F616E20616C726561647920616374697665 PUSH1 0x68 SHL PUSH1 0x44 DUP3 ADD MSTORE PUSH1 0x64 SWAP1 REVERT JUMPDEST DUP2 DUP2 MUL SWAP3 SWAP2 DUP2 ISZERO SWAP2 DUP5 DIV EQ OR ISZERO PUSH2 0xF5C JUMPI JUMP JUMPDEST ISZERO PUSH2 0x51DD JUMPI JUMP JUMPDEST PUSH1 0x40 MLOAD PUSH3 0x461BCD PUSH1 0xE5 SHL DUP2 MSTORE PUSH1 0x20 PUSH1 0x4 DUP3 ADD MSTORE PUSH1 0x14 PUSH1 0x24 DUP3 ADD MSTORE PUSH20 0x159BDD1A5B99C81DDA5B991BDDC818DB1BDCD959 PUSH1 0x62 SHL PUSH1 0x44 DUP3 ADD MSTORE PUSH1 0x64 SWAP1 REVERT JUMPDEST ISZERO PUSH2 0x5220 JUMPI JUMP JUMPDEST PUSH1 0x40 MLOAD PUSH3 0x461BCD PUSH1 0xE5 SHL DUP2 MSTORE PUSH1 0x20 PUSH1 0x4 DUP3 ADD MSTORE PUSH1 0xD PUSH1 0x24 DUP3 ADD MSTORE PUSH13 0x105B1C9958591E481D9BDD1959 PUSH1 0x9A SHL PUSH1 0x44 DUP3 ADD MSTORE PUSH1 0x64 SWAP1 REVERT JUMPDEST PUSH1 0x1 PUSH1 0x1 PUSH1 0x40 SHL SUB DUP2 GT PUSH2 0xF46 JUMPI PUSH1 0x5 SHL PUSH1 0x20 ADD SWAP1 JUMP JUMPDEST DUP1 MLOAD DUP3 LT ISZERO PUSH2 0x3BF2 JUMPI PUSH1 0x20 SWAP2 PUSH1 0x5 SHL ADD ADD SWAP1 JUMP JUMPDEST SWAP2 SWAP1 DUP3 SUB SWAP2 DUP3 GT PUSH2 0xF5C JUMPI JUMP JUMPDEST DUP2 ISZERO PUSH2 0x3EA6 JUMPI DIV SWAP1 JUMP JUMPDEST ISZERO PUSH2 0x529E JUMPI JUMP JUMPDEST PUSH1 0x40 MLOAD PUSH3 0x461BCD PUSH1 0xE5 SHL DUP2 MSTORE PUSH1 0x20 PUSH1 0x4 DUP3 ADD MSTORE PUSH1 0xF PUSH1 0x24 DUP3 ADD MSTORE PUSH15 0x151C985B9CD9995C8819985A5B1959 PUSH1 0x8A SHL PUSH1 0x44 DUP3 ADD MSTORE PUSH1 0x64 SWAP1 REVERT JUMPDEST ISZERO PUSH2 0x52DC JUMPI JUMP JUMPDEST PUSH1 0x40 MLOAD PUSH3 0x461BCD PUSH1 0xE5 SHL DUP2 MSTORE PUSH1 0x20 PUSH1 0x4 DUP3 ADD MSTORE PUSH1 0x12 PUSH1 0x24 DUP3 ADD MSTORE PUSH18 0x416D6F756E74206D757374206265203E203 PUSH1 0x74 SHL PUSH1 0x44 DUP3 ADD MSTORE PUSH1 0x64 SWAP1 REVERT JUMPDEST ISZERO PUSH2 0x531D JUMPI JUMP JUMPDEST PUSH1 0x40 MLOAD PUSH3 0x461BCD PUSH1 0xE5 SHL DUP2 MSTORE PUSH1 0x20 PUSH1 0x4 DUP3 ADD MSTORE PUSH1 0x10 PUSH1 0x24 DUP3 ADD MSTORE PUSH16 0x105B1C9958591E481C995CDBDB1D9959 PUSH1 0x82 SHL PUSH1 0x44 DUP3 ADD MSTORE PUSH1 0x64 SWAP1 REVERT JUMPDEST ISZERO PUSH2 0x535C JUMPI JUMP JUMPDEST PUSH1 0x40 MLOAD PUSH3 0x461BCD PUSH1 0xE5 SHL DUP2 MSTORE PUSH1 0x20 PUSH1 0x4 DUP3 ADD MSTORE PUSH1 0xF PUSH1 0x24 DUP3 ADD MSTORE PUSH15 0x2B37BA329039BA34B6361037B832B7 PUSH1 0x89 SHL PUSH1 0x44 DUP3 ADD MSTORE PUSH1 0x64 SWAP1 REVERT JUMPDEST SWAP1 PUSH2 0x539D DUP3 PUSH2 0x5255 JUMP JUMPDEST PUSH2 0x53AA PUSH1 0x40 MLOAD SWAP2 DUP3 PUSH2 0x4B66 JUMP JUMPDEST DUP3 DUP2 MSTORE DUP1 SWAP3 PUSH2 0x53BB PUSH1 0x1F NOT SWAP2 PUSH2 0x5255 JUMP JUMPDEST ADD SWAP1 PUSH1 0x20 CALLDATASIZE SWAP2 ADD CALLDATACOPY JUMP JUMPDEST PUSH1 0x0 MSTORE PUSH1 0x3 PUSH1 0x20 MSTORE PUSH2 0x53DD PUSH1 0x9 PUSH1 0x40 PUSH1 0x0 KECCAK256 ADD PUSH2 0x4C6D JUMP JUMPDEST PUSH1 0xC0 DUP2 ADD MLOAD ISZERO DUP1 ISZERO PUSH2 0x543C JUMPI JUMPDEST PUSH2 0x5436 JUMPI PUSH2 0x5413 PUSH1 0x3C PUSH2 0x5401 PUSH1 0xA0 DUP5 ADD MLOAD TIMESTAMP PUSH2 0x5280 JUMP JUMPDEST DIV SWAP2 PUSH1 0x20 PUSH1 0x40 DUP3 ADD MLOAD SWAP2 ADD MLOAD SWAP1 PUSH2 0x4E51 JUMP JUMPDEST DUP1 PUSH1 0x1 SHL SWAP1 DUP1 DUP3 DIV PUSH1 0x2 EQ SWAP1 ISZERO OR ISZERO PUSH2 0xF5C JUMPI PUSH1 0x64 SWAP2 PUSH2 0x5432 SWAP2 PUSH2 0x51C3 JUMP JUMPDEST DIV SWAP1 JUMP JUMPDEST POP PUSH1 0x0 SWAP1 JUMP JUMPDEST POP PUSH1 0xA0 DUP2 ADD MLOAD TIMESTAMP GT ISZERO PUSH2 0x53EA JUMP JUMPDEST PUSH1 0x0 SWAP1 DUP2 MSTORE PUSH1 0x3 PUSH1 0x20 MSTORE PUSH1 0x40 DUP2 KECCAK256 PUSH1 0x40 MLOAD SWAP1 PUSH2 0x220 DUP3 ADD DUP3 DUP2 LT PUSH1 0x1 PUSH1 0x1 PUSH1 0x40 SHL SUB DUP3 GT OR PUSH2 0x5598 JUMPI PUSH1 0x40 MSTORE DUP1 SLOAD DUP3 MSTORE PUSH2 0x5486 PUSH1 0x1 DUP3 ADD PUSH2 0x4B87 JUMP JUMPDEST PUSH1 0x20 DUP4 ADD MSTORE PUSH1 0x2 DUP2 ADD SLOAD PUSH1 0x1 PUSH1 0x1 PUSH1 0xA0 SHL SUB DUP1 DUP3 AND PUSH1 0x40 DUP6 ADD MSTORE SWAP3 SWAP1 PUSH1 0xA0 SHR PUSH1 0xFF AND PUSH1 0x4 DUP2 LT ISZERO PUSH2 0x5584 JUMPI SWAP1 PUSH1 0x60 SWAP3 SWAP2 DUP4 DUP3 ADD MSTORE PUSH1 0x3 DUP3 ADD SLOAD PUSH1 0x80 DUP3 ADD MSTORE PUSH1 0x4 DUP3 ADD SLOAD PUSH1 0xA0 DUP3 ADD MSTORE PUSH1 0x5 DUP3 ADD SLOAD SWAP4 PUSH1 0xC0 DUP3 ADD SWAP5 DUP6 MSTORE PUSH1 0x6 DUP4 ADD SLOAD PUSH1 0xE0 DUP4 ADD MSTORE PUSH2 0x54F1 PUSH1 0x7 DUP5 ADD PUSH2 0x50DD JUMP JUMPDEST PUSH2 0x100 DUP4 ADD MSTORE PUSH1 0x8 DUP4 ADD SLOAD AND PUSH2 0x120 DUP3 ADD MSTORE PUSH2 0x200 PUSH1 0xFF PUSH1 0x18 PUSH2 0x5516 PUSH1 0x9 DUP7 ADD PUSH2 0x4C6D JUMP JUMPDEST SWAP5 PUSH2 0x140 DUP6 ADD SWAP6 DUP7 MSTORE PUSH2 0x552B PUSH1 0x10 DUP3 ADD PUSH2 0x4CC2 JUMP JUMPDEST PUSH2 0x160 DUP7 ADD MSTORE PUSH1 0x14 DUP2 ADD SLOAD PUSH2 0x180 DUP7 ADD MSTORE PUSH1 0x15 DUP2 ADD SLOAD PUSH2 0x1A0 DUP7 ADD MSTORE PUSH1 0x16 DUP2 ADD SLOAD PUSH2 0x1C0 DUP7 ADD MSTORE PUSH1 0x17 DUP2 ADD SLOAD PUSH2 0x1E0 DUP7 ADD MSTORE ADD SLOAD AND ISZERO ISZERO SWAP2 ADD MSTORE MLOAD ADD MLOAD SWAP1 MLOAD DUP1 DUP3 LT ISZERO PUSH2 0x557F JUMPI PUSH2 0x557C SWAP3 POP PUSH2 0x5280 JUMP JUMPDEST SWAP1 JUMP JUMPDEST POP POP SWAP1 JUMP JUMPDEST PUSH4 0x4E487B71 PUSH1 0xE0 SHL DUP6 MSTORE PUSH1 0x21 PUSH1 0x4 MSTORE PUSH1 0x24 DUP6 REVERT JUMPDEST PUSH4 0x4E487B71 PUSH1 0xE0 SHL DUP5 MSTORE PUSH1 0x41 PUSH1 0x4 MSTORE PUSH1 0x24 DUP5 REVERT JUMPDEST PUSH3 0x7A120 SWAP1 DUP2 DUP2 MUL SWAP2 DUP2 DUP4 DIV EQ SWAP1 ISZERO OR ISZERO PUSH2 0xF5C JUMPI PUSH8 0xDE0B6B3A7640000 SWAP1 DIV SWAP1 JUMP JUMPDEST PUSH1 0x0 MSTORE PUSH1 0x3 PUSH1 0x20 MSTORE PUSH2 0x55E7 PUSH1 0x7 PUSH1 0x40 PUSH1 0x0 KECCAK256 ADD PUSH2 0x50DD JUMP JUMPDEST SWAP1 PUSH1 0x0 JUMPDEST DUP3 MLOAD DUP2 LT ISZERO PUSH2 0x5627 JUMPI PUSH1 0x1 PUSH1 0x1 PUSH1 0xA0 SHL SUB DUP1 PUSH2 0x5607 DUP4 DUP7 PUSH2 0x526C JUMP JUMPDEST MLOAD AND SWAP1 DUP4 AND EQ PUSH2 0x561F JUMPI PUSH2 0x561A SWAP1 PUSH2 0x4F7F JUMP JUMPDEST PUSH2 0x55EB JUMP JUMPDEST POP POP POP PUSH1 0x1 SWAP1 JUMP JUMPDEST POP POP POP PUSH1 0x0 SWAP1 JUMP INVALID LOG2 PUSH5 0x6970667358 0x22 SLT KECCAK256 0xC0 CREATE2 MULMOD 0xCA 0xD REVERT PUSH25 0x6C29F92F64211F46611EE3DF9D7BBEA69369A8DCC50CFCDA32 PUSH5 0x736F6C6343 STOP ADDMOD EQ STOP CALLER "},"methodIdentifiers":{"CREDIT_DEFAULT()":"49c7032d","CREDIT_LATE()":"05bcca8c","CREDIT_ON_TIME()":"f3d25fc5","EMERGENCY_CAP_PCT()":"5def8d83","EMERGENCY_EXTRA()":"d3f514ca","EMERGENCY_WINDOW()":"31c19d50","ETH_TO_INR()":"90657587","FILL_DEADLINE()":"7f08ee7c","INTEREST_RATE()":"5b72a33a","KICK_WINDOW()":"46013b73","LATE_FEE_PER_DAY()":"5a45d69b","MAX_SIZE()":"8d67799e","MIN_SIZE()":"45dcd02c","MISS_LIMIT()":"23e955d8","MONTH()":"d5999a5c","VOTE_WINDOW()":"469a78d2","activeEmergencyGroup(address)":"ddf1a681","activeKick(uint256,address)":"42d3d77f","admin()":"f851a440","approveGroup(uint256)":"1faba943","castVote(uint256,address)":"77df41b7","createGroup(string,uint256,uint256,bool,address[])":"b5555a3d","emergencyRequests(uint256,uint256)":"7d888499","emergencyVoted(uint256,uint256,address)":"a5d03381","emiPaid(uint256,uint256,address)":"6cacddb6","ethToINR(uint256)":"938ce87e","expireGroup(uint256)":"06911660","getCreditScore(uint256,address)":"935d2ed0","getEMI(uint256)":"36b8c126","getEMIinINR(uint256)":"8746a4be","getGroupCount()":"06545a93","getInvitedList(uint256)":"a673cee6","getLateFee(uint256)":"53b7e0e5","getMemberInfo(uint256,address)":"1e67939e","getMembers(uint256)":"c477ecab","getMyInvites(address)":"7728c709","getNextDueTime(uint256)":"f62da739","getOpenGroups()":"95ad7d2e","getPendingGroups()":"612e6754","getPoolBalance(uint256)":"ed1375d5","getPoolInINR(uint256)":"6a47f8e8","getProfitBalance(uint256,address)":"a415d2f4","getRemainingMonths(uint256)":"dfd99358","getVoteCount(uint256,address)":"8169bb73","groupCount()":"8f23b326","groupInvites(uint256,address)":"f5b02926","groups(uint256)":"96324bd4","hasVoted(uint256,address)":"43859632","inGroup(address)":"2048cba4","inviteMember(uint256,address)":"9e6d6830","invitedList(uint256,uint256)":"74bf5392","joinGroup(uint256)":"eed02e4b","kickRequests(uint256,uint256)":"15a9313e","kickVoted(uint256,uint256,address)":"c04977d3","memberGroup(address)":"ebe59152","memberInfo(uint256,address)":"07e079d3","pause()":"8456cb59","paused()":"5c975abb","payEMI(uint256)":"73370600","profitBalance(uint256,address)":"b6eb3afc","raiseEmergency(uint256,uint256,string)":"cf6a77d5","raiseKick(uint256,address)":"0eb8d824","rejectGroup(uint256)":"ca61b301","releaseFunds(uint256)":"4d68282f","repayEmergency(uint256,uint256)":"6433b9b3","resolveEmergency(uint256,uint256)":"29fe0bda","resolveKick(uint256,uint256)":"c648fe8e","resolveVote(uint256)":"30f4ccac","revokeInvite(uint256,address)":"87b67393","startVoting(uint256)":"3d2f5bda","unpause()":"3f4ba83a","voteEmergency(uint256,uint256,bool)":"63c1f262","voteKick(uint256,uint256,bool)":"e517dd1a","votesReceived(uint256,address)":"33dd6bed","withdrawAllProfit(uint256)":"8115f4ff","withdrawPartialProfit(uint256,uint256)":"e7aae115"}}}}}