{
  "_format": "hh-sol-artifact-1",
  "contractName": "CommunityFinance",
  "sourceName": "contracts/CommunityFinance.sol",
  "abi": [
    {
      "inputs": [],
      "stateMutability": "nonpayable",
      "type": "constructor"
    },
    {
      "anonymous": false,
      "inputs": [
        {
          "indexed": true,
          "internalType": "uint256",
          "name": "gid",
          "type": "uint256"
        },
        {
          "indexed": false,
          "internalType": "address",
          "name": "borrower",
          "type": "address"
        },
        {
          "indexed": false,
          "internalType": "bool",
          "name": "wasTie",
          "type": "bool"
        }
      ],
      "name": "BorrowerSelected",
      "type": "event"
    },
    {
      "anonymous": false,
      "inputs": [
        {
          "indexed": true,
          "internalType": "uint256",
          "name": "gid",
          "type": "uint256"
        },
        {
          "indexed": false,
          "internalType": "address",
          "name": "member",
          "type": "address"
        },
        {
          "indexed": false,
          "internalType": "uint256",
          "name": "newScore",
          "type": "uint256"
        }
      ],
      "name": "CreditUpdated",
      "type": "event"
    },
    {
      "anonymous": false,
      "inputs": [
        {
          "indexed": true,
          "internalType": "uint256",
          "name": "gid",
          "type": "uint256"
        },
        {
          "indexed": false,
          "internalType": "address",
          "name": "borrower",
          "type": "address"
        },
        {
          "indexed": false,
          "internalType": "uint256",
          "name": "missedCount",
          "type": "uint256"
        }
      ],
      "name": "EMIMissed",
      "type": "event"
    },
    {
      "anonymous": false,
      "inputs": [
        {
          "indexed": true,
          "internalType": "uint256",
          "name": "gid",
          "type": "uint256"
        },
        {
          "indexed": false,
          "internalType": "address",
          "name": "borrower",
          "type": "address"
        },
        {
          "indexed": false,
          "internalType": "uint256",
          "name": "amount",
          "type": "uint256"
        },
        {
          "indexed": false,
          "internalType": "uint256",
          "name": "month",
          "type": "uint256"
        },
        {
          "indexed": false,
          "internalType": "uint256",
          "name": "lateFee",
          "type": "uint256"
        }
      ],
      "name": "EMIPaid",
      "type": "event"
    },
    {
      "anonymous": false,
      "inputs": [
        {
          "indexed": true,
          "internalType": "uint256",
          "name": "gid",
          "type": "uint256"
        },
        {
          "indexed": true,
          "internalType": "uint256",
          "name": "rid",
          "type": "uint256"
        },
        {
          "indexed": false,
          "internalType": "address",
          "name": "requester",
          "type": "address"
        },
        {
          "indexed": false,
          "internalType": "uint256",
          "name": "amount",
          "type": "uint256"
        }
      ],
      "name": "EmergencyReleased",
      "type": "event"
    },
    {
      "anonymous": false,
      "inputs": [
        {
          "indexed": true,
          "internalType": "uint256",
          "name": "gid",
          "type": "uint256"
        },
        {
          "indexed": true,
          "internalType": "uint256",
          "name": "rid",
          "type": "uint256"
        },
        {
          "indexed": false,
          "internalType": "address",
          "name": "requester",
          "type": "address"
        },
        {
          "indexed": false,
          "internalType": "uint256",
          "name": "amount",
          "type": "uint256"
        }
      ],
      "name": "EmergencyRepaid",
      "type": "event"
    },
    {
      "anonymous": false,
      "inputs": [
        {
          "indexed": true,
          "internalType": "uint256",
          "name": "gid",
          "type": "uint256"
        },
        {
          "indexed": true,
          "internalType": "uint256",
          "name": "rid",
          "type": "uint256"
        },
        {
          "indexed": false,
          "internalType": "address",
          "name": "requester",
          "type": "address"
        },
        {
          "indexed": false,
          "internalType": "uint256",
          "name": "amount",
          "type": "uint256"
        },
        {
          "indexed": false,
          "internalType": "string",
          "name": "reason",
          "type": "string"
        }
      ],
      "name": "EmergencyRequested",
      "type": "event"
    },
    {
      "anonymous": false,
      "inputs": [
        {
          "indexed": true,
          "internalType": "uint256",
          "name": "gid",
          "type": "uint256"
        },
        {
          "indexed": true,
          "internalType": "uint256",
          "name": "rid",
          "type": "uint256"
        },
        {
          "indexed": false,
          "internalType": "bool",
          "name": "approved",
          "type": "bool"
        },
        {
          "indexed": false,
          "internalType": "uint256",
          "name": "yes",
          "type": "uint256"
        },
        {
          "indexed": false,
          "internalType": "uint256",
          "name": "no",
          "type": "uint256"
        }
      ],
      "name": "EmergencyResolved",
      "type": "event"
    },
    {
      "anonymous": false,
      "inputs": [
        {
          "indexed": true,
          "internalType": "uint256",
          "name": "gid",
          "type": "uint256"
        },
        {
          "indexed": true,
          "internalType": "uint256",
          "name": "rid",
          "type": "uint256"
        },
        {
          "indexed": false,
          "internalType": "address",
          "name": "voter",
          "type": "address"
        },
        {
          "indexed": false,
          "internalType": "bool",
          "name": "support",
          "type": "bool"
        }
      ],
      "name": "EmergencyVoteCast",
      "type": "event"
    },
    {
      "anonymous": false,
      "inputs": [
        {
          "indexed": true,
          "internalType": "uint256",
          "name": "gid",
          "type": "uint256"
        }
      ],
      "name": "GroupApproved",
      "type": "event"
    },
    {
      "anonymous": false,
      "inputs": [
        {
          "indexed": true,
          "internalType": "uint256",
          "name": "gid",
          "type": "uint256"
        },
        {
          "indexed": false,
          "internalType": "string",
          "name": "reason",
          "type": "string"
        }
      ],
      "name": "GroupClosed",
      "type": "event"
    },
    {
      "anonymous": false,
      "inputs": [
        {
          "indexed": true,
          "internalType": "uint256",
          "name": "gid",
          "type": "uint256"
        },
        {
          "indexed": false,
          "internalType": "address",
          "name": "creator",
          "type": "address"
        },
        {
          "indexed": false,
          "internalType": "string",
          "name": "name",
          "type": "string"
        },
        {
          "indexed": false,
          "internalType": "uint256",
          "name": "contribution",
          "type": "uint256"
        },
        {
          "indexed": false,
          "internalType": "uint256",
          "name": "maxSize",
          "type": "uint256"
        },
        {
          "indexed": false,
          "internalType": "uint256",
          "name": "tenure",
          "type": "uint256"
        },
        {
          "indexed": false,
          "internalType": "bool",
          "name": "isPrivate",
          "type": "bool"
        }
      ],
      "name": "GroupCreated",
      "type": "event"
    },
    {
      "anonymous": false,
      "inputs": [
        {
          "indexed": true,
          "internalType": "uint256",
          "name": "gid",
          "type": "uint256"
        }
      ],
      "name": "GroupRejected",
      "type": "event"
    },
    {
      "anonymous": false,
      "inputs": [
        {
          "indexed": true,
          "internalType": "uint256",
          "name": "gid",
          "type": "uint256"
        },
        {
          "indexed": true,
          "internalType": "address",
          "name": "invitee",
          "type": "address"
        }
      ],
      "name": "InviteRevoked",
      "type": "event"
    },
    {
      "anonymous": false,
      "inputs": [
        {
          "indexed": true,
          "internalType": "uint256",
          "name": "gid",
          "type": "uint256"
        },
        {
          "indexed": true,
          "internalType": "uint256",
          "name": "kid",
          "type": "uint256"
        },
        {
          "indexed": false,
          "internalType": "address",
          "name": "target",
          "type": "address"
        },
        {
          "indexed": false,
          "internalType": "address",
          "name": "raisedBy",
          "type": "address"
        }
      ],
      "name": "KickRaised",
      "type": "event"
    },
    {
      "anonymous": false,
      "inputs": [
        {
          "indexed": true,
          "internalType": "uint256",
          "name": "gid",
          "type": "uint256"
        },
        {
          "indexed": true,
          "internalType": "uint256",
          "name": "kid",
          "type": "uint256"
        },
        {
          "indexed": false,
          "internalType": "address",
          "name": "target",
          "type": "address"
        },
        {
          "indexed": false,
          "internalType": "bool",
          "name": "kicked",
          "type": "bool"
        }
      ],
      "name": "KickResolved",
      "type": "event"
    },
    {
      "anonymous": false,
      "inputs": [
        {
          "indexed": true,
          "internalType": "uint256",
          "name": "gid",
          "type": "uint256"
        },
        {
          "indexed": true,
          "internalType": "uint256",
          "name": "kid",
          "type": "uint256"
        },
        {
          "indexed": false,
          "internalType": "address",
          "name": "voter",
          "type": "address"
        },
        {
          "indexed": false,
          "internalType": "bool",
          "name": "support",
          "type": "bool"
        }
      ],
      "name": "KickVoteCast",
      "type": "event"
    },
    {
      "anonymous": false,
      "inputs": [
        {
          "indexed": true,
          "internalType": "uint256",
          "name": "gid",
          "type": "uint256"
        },
        {
          "indexed": false,
          "internalType": "uint256",
          "name": "round",
          "type": "uint256"
        }
      ],
      "name": "LoanCompleted",
      "type": "event"
    },
    {
      "anonymous": false,
      "inputs": [
        {
          "indexed": true,
          "internalType": "uint256",
          "name": "gid",
          "type": "uint256"
        },
        {
          "indexed": false,
          "internalType": "address",
          "name": "borrower",
          "type": "address"
        },
        {
          "indexed": false,
          "internalType": "uint256",
          "name": "amount",
          "type": "uint256"
        }
      ],
      "name": "LoanReleased",
      "type": "event"
    },
    {
      "anonymous": false,
      "inputs": [
        {
          "indexed": true,
          "internalType": "uint256",
          "name": "gid",
          "type": "uint256"
        },
        {
          "indexed": true,
          "internalType": "address",
          "name": "invitee",
          "type": "address"
        }
      ],
      "name": "MemberInvited",
      "type": "event"
    },
    {
      "anonymous": false,
      "inputs": [
        {
          "indexed": true,
          "internalType": "uint256",
          "name": "gid",
          "type": "uint256"
        },
        {
          "indexed": false,
          "internalType": "address",
          "name": "member",
          "type": "address"
        }
      ],
      "name": "MemberJoined",
      "type": "event"
    },
    {
      "anonymous": false,
      "inputs": [
        {
          "indexed": true,
          "internalType": "uint256",
          "name": "gid",
          "type": "uint256"
        },
        {
          "indexed": false,
          "internalType": "address",
          "name": "member",
          "type": "address"
        }
      ],
      "name": "MemberLeft",
      "type": "event"
    },
    {
      "anonymous": false,
      "inputs": [
        {
          "indexed": false,
          "internalType": "address",
          "name": "account",
          "type": "address"
        }
      ],
      "name": "Paused",
      "type": "event"
    },
    {
      "anonymous": false,
      "inputs": [
        {
          "indexed": true,
          "internalType": "uint256",
          "name": "gid",
          "type": "uint256"
        },
        {
          "indexed": false,
          "internalType": "address",
          "name": "member",
          "type": "address"
        },
        {
          "indexed": false,
          "internalType": "uint256",
          "name": "amount",
          "type": "uint256"
        }
      ],
      "name": "ProfitWithdrawn",
      "type": "event"
    },
    {
      "anonymous": false,
      "inputs": [
        {
          "indexed": false,
          "internalType": "address",
          "name": "account",
          "type": "address"
        }
      ],
      "name": "Unpaused",
      "type": "event"
    },
    {
      "anonymous": false,
      "inputs": [
        {
          "indexed": true,
          "internalType": "uint256",
          "name": "gid",
          "type": "uint256"
        },
        {
          "indexed": false,
          "internalType": "address",
          "name": "voter",
          "type": "address"
        },
        {
          "indexed": false,
          "internalType": "address",
          "name": "candidate",
          "type": "address"
        }
      ],
      "name": "VoteCast",
      "type": "event"
    },
    {
      "anonymous": false,
      "inputs": [
        {
          "indexed": true,
          "internalType": "uint256",
          "name": "gid",
          "type": "uint256"
        },
        {
          "indexed": false,
          "internalType": "uint256",
          "name": "endTime",
          "type": "uint256"
        }
      ],
      "name": "VotingStarted",
      "type": "event"
    },
    {
      "inputs": [],
      "name": "CREDIT_DEFAULT",
      "outputs": [
        {
          "internalType": "uint256",
          "name": "",
          "type": "uint256"
        }
      ],
      "stateMutability": "view",
      "type": "function"
    },
    {
      "inputs": [],
      "name": "CREDIT_LATE",
      "outputs": [
        {
          "internalType": "uint256",
          "name": "",
          "type": "uint256"
        }
      ],
      "stateMutability": "view",
      "type": "function"
    },
    {
      "inputs": [],
      "name": "CREDIT_ON_TIME",
      "outputs": [
        {
          "internalType": "uint256",
          "name": "",
          "type": "uint256"
        }
      ],
      "stateMutability": "view",
      "type": "function"
    },
    {
      "inputs": [],
      "name": "EMERGENCY_CAP_PCT",
      "outputs": [
        {
          "internalType": "uint256",
          "name": "",
          "type": "uint256"
        }
      ],
      "stateMutability": "view",
      "type": "function"
    },
    {
      "inputs": [],
      "name": "EMERGENCY_EXTRA",
      "outputs": [
        {
          "internalType": "uint256",
          "name": "",
          "type": "uint256"
        }
      ],
      "stateMutability": "view",
      "type": "function"
    },
    {
      "inputs": [],
      "name": "EMERGENCY_WINDOW",
      "outputs": [
        {
          "internalType": "uint256",
          "name": "",
          "type": "uint256"
        }
      ],
      "stateMutability": "view",
      "type": "function"
    },
    {
      "inputs": [],
      "name": "ETH_TO_INR",
      "outputs": [
        {
          "internalType": "uint256",
          "name": "",
          "type": "uint256"
        }
      ],
      "stateMutability": "view",
      "type": "function"
    },
    {
      "inputs": [],
      "name": "FILL_DEADLINE",
      "outputs": [
        {
          "internalType": "uint256",
          "name": "",
          "type": "uint256"
        }
      ],
      "stateMutability": "view",
      "type": "function"
    },
    {
      "inputs": [],
      "name": "INTEREST_RATE",
      "outputs": [
        {
          "internalType": "uint256",
          "name": "",
          "type": "uint256"
        }
      ],
      "stateMutability": "view",
      "type": "function"
    },
    {
      "inputs": [],
      "name": "KICK_WINDOW",
      "outputs": [
        {
          "internalType": "uint256",
          "name": "",
          "type": "uint256"
        }
      ],
      "stateMutability": "view",
      "type": "function"
    },
    {
      "inputs": [],
      "name": "LATE_FEE_PER_DAY",
      "outputs": [
        {
          "internalType": "uint256",
          "name": "",
          "type": "uint256"
        }
      ],
      "stateMutability": "view",
      "type": "function"
    },
    {
      "inputs": [],
      "name": "MAX_SIZE",
      "outputs": [
        {
          "internalType": "uint256",
          "name": "",
          "type": "uint256"
        }
      ],
      "stateMutability": "view",
      "type": "function"
    },
    {
      "inputs": [],
      "name": "MIN_SIZE",
      "outputs": [
        {
          "internalType": "uint256",
          "name": "",
          "type": "uint256"
        }
      ],
      "stateMutability": "view",
      "type": "function"
    },
    {
      "inputs": [],
      "name": "MISS_LIMIT",
      "outputs": [
        {
          "internalType": "uint256",
          "name": "",
          "type": "uint256"
        }
      ],
      "stateMutability": "view",
      "type": "function"
    },
    {
      "inputs": [],
      "name": "MONTH",
      "outputs": [
        {
          "internalType": "uint256",
          "name": "",
          "type": "uint256"
        }
      ],
      "stateMutability": "view",
      "type": "function"
    },
    {
      "inputs": [],
      "name": "VOTE_WINDOW",
      "outputs": [
        {
          "internalType": "uint256",
          "name": "",
          "type": "uint256"
        }
      ],
      "stateMutability": "view",
      "type": "function"
    },
    {
      "inputs": [
        {
          "internalType": "address",
          "name": "",
          "type": "address"
        }
      ],
      "name": "activeEmergencyGroup",
      "outputs": [
        {
          "internalType": "uint256",
          "name": "",
          "type": "uint256"
        }
      ],
      "stateMutability": "view",
      "type": "function"
    },
    {
      "inputs": [
        {
          "internalType": "uint256",
          "name": "",
          "type": "uint256"
        },
        {
          "internalType": "address",
          "name": "",
          "type": "address"
        }
      ],
      "name": "activeKick",
      "outputs": [
        {
          "internalType": "uint256",
          "name": "",
          "type": "uint256"
        }
      ],
      "stateMutability": "view",
      "type": "function"
    },
    {
      "inputs": [],
      "name": "admin",
      "outputs": [
        {
          "internalType": "address",
          "name": "",
          "type": "address"
        }
      ],
      "stateMutability": "view",
      "type": "function"
    },
    {
      "inputs": [
        {
          "internalType": "uint256",
          "name": "gid",
          "type": "uint256"
        }
      ],
      "name": "approveGroup",
      "outputs": [],
      "stateMutability": "nonpayable",
      "type": "function"
    },
    {
      "inputs": [
        {
          "internalType": "uint256",
          "name": "gid",
          "type": "uint256"
        },
        {
          "internalType": "address",
          "name": "candidate",
          "type": "address"
        }
      ],
      "name": "castVote",
      "outputs": [],
      "stateMutability": "nonpayable",
      "type": "function"
    },
    {
      "inputs": [
        {
          "internalType": "uint256",
          "name": "gid",
          "type": "uint256"
        }
      ],
      "name": "checkAndMarkMissed",
      "outputs": [],
      "stateMutability": "nonpayable",
      "type": "function"
    },
    {
      "inputs": [
        {
          "internalType": "string",
          "name": "name",
          "type": "string"
        },
        {
          "internalType": "uint256",
          "name": "maxSize",
          "type": "uint256"
        },
        {
          "internalType": "uint256",
          "name": "tenure",
          "type": "uint256"
        },
        {
          "internalType": "bool",
          "name": "isPrivate",
          "type": "bool"
        },
        {
          "internalType": "address[]",
          "name": "invites",
          "type": "address[]"
        }
      ],
      "name": "createGroup",
      "outputs": [],
      "stateMutability": "payable",
      "type": "function"
    },
    {
      "inputs": [
        {
          "internalType": "uint256",
          "name": "",
          "type": "uint256"
        },
        {
          "internalType": "uint256",
          "name": "",
          "type": "uint256"
        }
      ],
      "name": "emergencyRequests",
      "outputs": [
        {
          "internalType": "uint256",
          "name": "id",
          "type": "uint256"
        },
        {
          "internalType": "address",
          "name": "requester",
          "type": "address"
        },
        {
          "internalType": "uint256",
          "name": "amount",
          "type": "uint256"
        },
        {
          "internalType": "string",
          "name": "reason",
          "type": "string"
        },
        {
          "internalType": "uint256",
          "name": "endTime",
          "type": "uint256"
        },
        {
          "internalType": "uint256",
          "name": "yesVotes",
          "type": "uint256"
        },
        {
          "internalType": "uint256",
          "name": "noVotes",
          "type": "uint256"
        },
        {
          "internalType": "bool",
          "name": "resolved",
          "type": "bool"
        },
        {
          "internalType": "bool",
          "name": "approved",
          "type": "bool"
        },
        {
          "internalType": "bool",
          "name": "repaid",
          "type": "bool"
        },
        {
          "internalType": "uint256",
          "name": "repayBy",
          "type": "uint256"
        }
      ],
      "stateMutability": "view",
      "type": "function"
    },
    {
      "inputs": [
        {
          "internalType": "uint256",
          "name": "",
          "type": "uint256"
        },
        {
          "internalType": "uint256",
          "name": "",
          "type": "uint256"
        },
        {
          "internalType": "address",
          "name": "",
          "type": "address"
        }
      ],
      "name": "emergencyVoted",
      "outputs": [
        {
          "internalType": "bool",
          "name": "",
          "type": "bool"
        }
      ],
      "stateMutability": "view",
      "type": "function"
    },
    {
      "inputs": [
        {
          "internalType": "uint256",
          "name": "",
          "type": "uint256"
        },
        {
          "internalType": "uint256",
          "name": "",
          "type": "uint256"
        },
        {
          "internalType": "address",
          "name": "",
          "type": "address"
        }
      ],
      "name": "emiPaid",
      "outputs": [
        {
          "internalType": "bool",
          "name": "",
          "type": "bool"
        }
      ],
      "stateMutability": "view",
      "type": "function"
    },
    {
      "inputs": [
        {
          "internalType": "uint256",
          "name": "ethAmount",
          "type": "uint256"
        }
      ],
      "name": "ethToINR",
      "outputs": [
        {
          "internalType": "uint256",
          "name": "",
          "type": "uint256"
        }
      ],
      "stateMutability": "pure",
      "type": "function"
    },
    {
      "inputs": [
        {
          "internalType": "uint256",
          "name": "gid",
          "type": "uint256"
        }
      ],
      "name": "expireGroup",
      "outputs": [],
      "stateMutability": "nonpayable",
      "type": "function"
    },
    {
      "inputs": [
        {
          "internalType": "uint256",
          "name": "gid",
          "type": "uint256"
        },
        {
          "internalType": "address",
          "name": "member",
          "type": "address"
        }
      ],
      "name": "getCreditScore",
      "outputs": [
        {
          "internalType": "uint256",
          "name": "",
          "type": "uint256"
        }
      ],
      "stateMutability": "view",
      "type": "function"
    },
    {
      "inputs": [
        {
          "internalType": "uint256",
          "name": "gid",
          "type": "uint256"
        }
      ],
      "name": "getEMI",
      "outputs": [
        {
          "internalType": "uint256",
          "name": "",
          "type": "uint256"
        }
      ],
      "stateMutability": "view",
      "type": "function"
    },
    {
      "inputs": [
        {
          "internalType": "uint256",
          "name": "gid",
          "type": "uint256"
        }
      ],
      "name": "getEMIinINR",
      "outputs": [
        {
          "internalType": "uint256",
          "name": "",
          "type": "uint256"
        }
      ],
      "stateMutability": "view",
      "type": "function"
    },
    {
      "inputs": [],
      "name": "getGroupCount",
      "outputs": [
        {
          "internalType": "uint256",
          "name": "",
          "type": "uint256"
        }
      ],
      "stateMutability": "view",
      "type": "function"
    },
    {
      "inputs": [
        {
          "internalType": "uint256",
          "name": "gid",
          "type": "uint256"
        }
      ],
      "name": "getGroupHealth",
      "outputs": [
        {
          "internalType": "uint256",
          "name": "fillPercentage",
          "type": "uint256"
        },
        {
          "internalType": "uint256",
          "name": "averageCreditScore",
          "type": "uint256"
        },
        {
          "internalType": "uint256",
          "name": "onTimeMemberCount",
          "type": "uint256"
        },
        {
          "internalType": "uint256",
          "name": "defaultedMemberCount",
          "type": "uint256"
        },
        {
          "internalType": "uint256",
          "name": "profitPoolAmount",
          "type": "uint256"
        }
      ],
      "stateMutability": "view",
      "type": "function"
    },
    {
      "inputs": [
        {
          "internalType": "uint256",
          "name": "gid",
          "type": "uint256"
        }
      ],
      "name": "getGroupMetrics",
      "outputs": [
        {
          "internalType": "uint256",
          "name": "totalMembers",
          "type": "uint256"
        },
        {
          "internalType": "bool",
          "name": "activeLoan",
          "type": "bool"
        },
        {
          "internalType": "uint256",
          "name": "poolETH",
          "type": "uint256"
        },
        {
          "internalType": "uint256",
          "name": "completedLoans",
          "type": "uint256"
        }
      ],
      "stateMutability": "view",
      "type": "function"
    },
    {
      "inputs": [
        {
          "internalType": "uint256",
          "name": "gid",
          "type": "uint256"
        }
      ],
      "name": "getGroupROI",
      "outputs": [
        {
          "internalType": "uint256",
          "name": "principalReturned",
          "type": "uint256"
        },
        {
          "internalType": "uint256",
          "name": "profitEarned",
          "type": "uint256"
        },
        {
          "internalType": "uint256",
          "name": "roiPercentage",
          "type": "uint256"
        },
        {
          "internalType": "uint256",
          "name": "defaultRate",
          "type": "uint256"
        }
      ],
      "stateMutability": "view",
      "type": "function"
    },
    {
      "inputs": [
        {
          "internalType": "uint256",
          "name": "gid",
          "type": "uint256"
        }
      ],
      "name": "getInvitedList",
      "outputs": [
        {
          "internalType": "address[]",
          "name": "",
          "type": "address[]"
        }
      ],
      "stateMutability": "view",
      "type": "function"
    },
    {
      "inputs": [
        {
          "internalType": "uint256",
          "name": "gid",
          "type": "uint256"
        }
      ],
      "name": "getLateFee",
      "outputs": [
        {
          "internalType": "uint256",
          "name": "",
          "type": "uint256"
        }
      ],
      "stateMutability": "view",
      "type": "function"
    },
    {
      "inputs": [
        {
          "internalType": "uint256",
          "name": "gid",
          "type": "uint256"
        },
        {
          "internalType": "address",
          "name": "member",
          "type": "address"
        }
      ],
      "name": "getMemberInfo",
      "outputs": [
        {
          "internalType": "uint256",
          "name": "creditScore",
          "type": "uint256"
        },
        {
          "internalType": "uint256",
          "name": "missed",
          "type": "uint256"
        },
        {
          "internalType": "uint256",
          "name": "onTime",
          "type": "uint256"
        },
        {
          "internalType": "uint256",
          "name": "late",
          "type": "uint256"
        }
      ],
      "stateMutability": "view",
      "type": "function"
    },
    {
      "inputs": [
        {
          "internalType": "uint256",
          "name": "gid",
          "type": "uint256"
        }
      ],
      "name": "getMembers",
      "outputs": [
        {
          "internalType": "address[]",
          "name": "",
          "type": "address[]"
        }
      ],
      "stateMutability": "view",
      "type": "function"
    },
    {
      "inputs": [
        {
          "internalType": "address",
          "name": "user",
          "type": "address"
        }
      ],
      "name": "getMyInvites",
      "outputs": [
        {
          "internalType": "uint256[]",
          "name": "",
          "type": "uint256[]"
        }
      ],
      "stateMutability": "view",
      "type": "function"
    },
    {
      "inputs": [
        {
          "internalType": "address",
          "name": "user",
          "type": "address"
        }
      ],
      "name": "getMyPrivateInvites",
      "outputs": [
        {
          "internalType": "uint256[]",
          "name": "",
          "type": "uint256[]"
        }
      ],
      "stateMutability": "view",
      "type": "function"
    },
    {
      "inputs": [
        {
          "internalType": "uint256",
          "name": "gid",
          "type": "uint256"
        }
      ],
      "name": "getNextDueTime",
      "outputs": [
        {
          "internalType": "uint256",
          "name": "",
          "type": "uint256"
        }
      ],
      "stateMutability": "view",
      "type": "function"
    },
    {
      "inputs": [],
      "name": "getOpenGroups",
      "outputs": [
        {
          "internalType": "uint256[]",
          "name": "",
          "type": "uint256[]"
        }
      ],
      "stateMutability": "view",
      "type": "function"
    },
    {
      "inputs": [],
      "name": "getPendingGroups",
      "outputs": [
        {
          "internalType": "uint256[]",
          "name": "",
          "type": "uint256[]"
        }
      ],
      "stateMutability": "view",
      "type": "function"
    },
    {
      "inputs": [
        {
          "internalType": "uint256",
          "name": "gid",
          "type": "uint256"
        }
      ],
      "name": "getPoolBalance",
      "outputs": [
        {
          "internalType": "uint256",
          "name": "",
          "type": "uint256"
        }
      ],
      "stateMutability": "view",
      "type": "function"
    },
    {
      "inputs": [
        {
          "internalType": "uint256",
          "name": "gid",
          "type": "uint256"
        }
      ],
      "name": "getPoolInINR",
      "outputs": [
        {
          "internalType": "uint256",
          "name": "",
          "type": "uint256"
        }
      ],
      "stateMutability": "view",
      "type": "function"
    },
    {
      "inputs": [
        {
          "internalType": "uint256",
          "name": "gid",
          "type": "uint256"
        },
        {
          "internalType": "address",
          "name": "member",
          "type": "address"
        }
      ],
      "name": "getProfitBalance",
      "outputs": [
        {
          "internalType": "uint256",
          "name": "",
          "type": "uint256"
        }
      ],
      "stateMutability": "view",
      "type": "function"
    },
    {
      "inputs": [
        {
          "internalType": "uint256",
          "name": "gid",
          "type": "uint256"
        }
      ],
      "name": "getRemainingMonths",
      "outputs": [
        {
          "internalType": "uint256",
          "name": "",
          "type": "uint256"
        }
      ],
      "stateMutability": "view",
      "type": "function"
    },
    {
      "inputs": [
        {
          "internalType": "uint256",
          "name": "gid",
          "type": "uint256"
        },
        {
          "internalType": "address",
          "name": "member",
          "type": "address"
        }
      ],
      "name": "getTrustScore",
      "outputs": [
        {
          "internalType": "uint256",
          "name": "",
          "type": "uint256"
        }
      ],
      "stateMutability": "view",
      "type": "function"
    },
    {
      "inputs": [
        {
          "internalType": "uint256",
          "name": "gid",
          "type": "uint256"
        },
        {
          "internalType": "address",
          "name": "candidate",
          "type": "address"
        }
      ],
      "name": "getVoteCount",
      "outputs": [
        {
          "internalType": "uint256",
          "name": "",
          "type": "uint256"
        }
      ],
      "stateMutability": "view",
      "type": "function"
    },
    {
      "inputs": [],
      "name": "groupCount",
      "outputs": [
        {
          "internalType": "uint256",
          "name": "",
          "type": "uint256"
        }
      ],
      "stateMutability": "view",
      "type": "function"
    },
    {
      "inputs": [
        {
          "internalType": "uint256",
          "name": "",
          "type": "uint256"
        },
        {
          "internalType": "address",
          "name": "",
          "type": "address"
        }
      ],
      "name": "groupInvites",
      "outputs": [
        {
          "internalType": "bool",
          "name": "",
          "type": "bool"
        }
      ],
      "stateMutability": "view",
      "type": "function"
    },
    {
      "inputs": [
        {
          "internalType": "uint256",
          "name": "",
          "type": "uint256"
        }
      ],
      "name": "groups",
      "outputs": [
        {
          "internalType": "uint256",
          "name": "id",
          "type": "uint256"
        },
        {
          "internalType": "string",
          "name": "name",
          "type": "string"
        },
        {
          "internalType": "address",
          "name": "creator",
          "type": "address"
        },
        {
          "internalType": "enum CommunityFinance.GroupStatus",
          "name": "status",
          "type": "uint8"
        },
        {
          "internalType": "uint256",
          "name": "contribution",
          "type": "uint256"
        },
        {
          "internalType": "uint256",
          "name": "maxSize",
          "type": "uint256"
        },
        {
          "internalType": "uint256",
          "name": "tenure",
          "type": "uint256"
        },
        {
          "internalType": "uint256",
          "name": "fillDeadline",
          "type": "uint256"
        },
        {
          "internalType": "address",
          "name": "borrower",
          "type": "address"
        },
        {
          "components": [
            {
              "internalType": "uint256",
              "name": "principal",
              "type": "uint256"
            },
            {
              "internalType": "uint256",
              "name": "monthlyInterest",
              "type": "uint256"
            },
            {
              "internalType": "uint256",
              "name": "monthlyPrincipal",
              "type": "uint256"
            },
            {
              "internalType": "uint256",
              "name": "monthsPaid",
              "type": "uint256"
            },
            {
              "internalType": "uint256",
              "name": "lastPaymentTime",
              "type": "uint256"
            },
            {
              "internalType": "uint256",
              "name": "nextDueTime",
              "type": "uint256"
            },
            {
              "internalType": "bool",
              "name": "active",
              "type": "bool"
            }
          ],
          "internalType": "struct CommunityFinance.Loan",
          "name": "loan",
          "type": "tuple"
        },
        {
          "components": [
            {
              "internalType": "enum CommunityFinance.VoteState",
              "name": "state",
              "type": "uint8"
            },
            {
              "internalType": "uint256",
              "name": "endTime",
              "type": "uint256"
            },
            {
              "internalType": "uint256",
              "name": "totalCast",
              "type": "uint256"
            },
            {
              "internalType": "address",
              "name": "winner",
              "type": "address"
            },
            {
              "internalType": "bool",
              "name": "wasTie",
              "type": "bool"
            }
          ],
          "internalType": "struct CommunityFinance.VoteRound",
          "name": "voteRound",
          "type": "tuple"
        },
        {
          "internalType": "uint256",
          "name": "emergencyCount",
          "type": "uint256"
        },
        {
          "internalType": "uint256",
          "name": "kickCount",
          "type": "uint256"
        },
        {
          "internalType": "uint256",
          "name": "totalPool",
          "type": "uint256"
        },
        {
          "internalType": "uint256",
          "name": "profitPool",
          "type": "uint256"
        },
        {
          "internalType": "bool",
          "name": "isPrivate",
          "type": "bool"
        },
        {
          "internalType": "uint256",
          "name": "completedLoans",
          "type": "uint256"
        }
      ],
      "stateMutability": "view",
      "type": "function"
    },
    {
      "inputs": [
        {
          "internalType": "uint256",
          "name": "",
          "type": "uint256"
        },
        {
          "internalType": "address",
          "name": "",
          "type": "address"
        }
      ],
      "name": "hasVoted",
      "outputs": [
        {
          "internalType": "bool",
          "name": "",
          "type": "bool"
        }
      ],
      "stateMutability": "view",
      "type": "function"
    },
    {
      "inputs": [
        {
          "internalType": "address",
          "name": "",
          "type": "address"
        }
      ],
      "name": "inGroup",
      "outputs": [
        {
          "internalType": "bool",
          "name": "",
          "type": "bool"
        }
      ],
      "stateMutability": "view",
      "type": "function"
    },
    {
      "inputs": [
        {
          "internalType": "uint256",
          "name": "gid",
          "type": "uint256"
        },
        {
          "internalType": "address",
          "name": "invitee",
          "type": "address"
        }
      ],
      "name": "inviteMember",
      "outputs": [],
      "stateMutability": "nonpayable",
      "type": "function"
    },
    {
      "inputs": [
        {
          "internalType": "uint256",
          "name": "",
          "type": "uint256"
        },
        {
          "internalType": "uint256",
          "name": "",
          "type": "uint256"
        }
      ],
      "name": "invitedList",
      "outputs": [
        {
          "internalType": "address",
          "name": "",
          "type": "address"
        }
      ],
      "stateMutability": "view",
      "type": "function"
    },
    {
      "inputs": [
        {
          "internalType": "uint256",
          "name": "gid",
          "type": "uint256"
        },
        {
          "internalType": "address",
          "name": "user",
          "type": "address"
        }
      ],
      "name": "isInvited",
      "outputs": [
        {
          "internalType": "bool",
          "name": "",
          "type": "bool"
        }
      ],
      "stateMutability": "view",
      "type": "function"
    },
    {
      "inputs": [
        {
          "internalType": "uint256",
          "name": "gid",
          "type": "uint256"
        }
      ],
      "name": "joinGroup",
      "outputs": [],
      "stateMutability": "payable",
      "type": "function"
    },
    {
      "inputs": [
        {
          "internalType": "uint256",
          "name": "",
          "type": "uint256"
        },
        {
          "internalType": "uint256",
          "name": "",
          "type": "uint256"
        }
      ],
      "name": "kickRequests",
      "outputs": [
        {
          "internalType": "uint256",
          "name": "id",
          "type": "uint256"
        },
        {
          "internalType": "address",
          "name": "target",
          "type": "address"
        },
        {
          "internalType": "address",
          "name": "raisedBy",
          "type": "address"
        },
        {
          "internalType": "uint256",
          "name": "endTime",
          "type": "uint256"
        },
        {
          "internalType": "uint256",
          "name": "yesVotes",
          "type": "uint256"
        },
        {
          "internalType": "uint256",
          "name": "noVotes",
          "type": "uint256"
        },
        {
          "internalType": "bool",
          "name": "resolved",
          "type": "bool"
        },
        {
          "internalType": "bool",
          "name": "approved",
          "type": "bool"
        }
      ],
      "stateMutability": "view",
      "type": "function"
    },
    {
      "inputs": [
        {
          "internalType": "uint256",
          "name": "",
          "type": "uint256"
        },
        {
          "internalType": "uint256",
          "name": "",
          "type": "uint256"
        },
        {
          "internalType": "address",
          "name": "",
          "type": "address"
        }
      ],
      "name": "kickVoted",
      "outputs": [
        {
          "internalType": "bool",
          "name": "",
          "type": "bool"
        }
      ],
      "stateMutability": "view",
      "type": "function"
    },
    {
      "inputs": [
        {
          "internalType": "uint256",
          "name": "gid",
          "type": "uint256"
        }
      ],
      "name": "leaveGroup",
      "outputs": [],
      "stateMutability": "nonpayable",
      "type": "function"
    },
    {
      "inputs": [
        {
          "internalType": "address",
          "name": "",
          "type": "address"
        }
      ],
      "name": "memberGroup",
      "outputs": [
        {
          "internalType": "uint256",
          "name": "",
          "type": "uint256"
        }
      ],
      "stateMutability": "view",
      "type": "function"
    },
    {
      "inputs": [
        {
          "internalType": "uint256",
          "name": "",
          "type": "uint256"
        },
        {
          "internalType": "address",
          "name": "",
          "type": "address"
        }
      ],
      "name": "memberInfo",
      "outputs": [
        {
          "internalType": "address",
          "name": "wallet",
          "type": "address"
        },
        {
          "internalType": "uint256",
          "name": "creditScore",
          "type": "uint256"
        },
        {
          "internalType": "uint256",
          "name": "missedEMIs",
          "type": "uint256"
        },
        {
          "internalType": "uint256",
          "name": "onTimeEMIs",
          "type": "uint256"
        },
        {
          "internalType": "uint256",
          "name": "lateEMIs",
          "type": "uint256"
        },
        {
          "internalType": "bool",
          "name": "active",
          "type": "bool"
        }
      ],
      "stateMutability": "view",
      "type": "function"
    },
    {
      "inputs": [],
      "name": "pause",
      "outputs": [],
      "stateMutability": "nonpayable",
      "type": "function"
    },
    {
      "inputs": [],
      "name": "paused",
      "outputs": [
        {
          "internalType": "bool",
          "name": "",
          "type": "bool"
        }
      ],
      "stateMutability": "view",
      "type": "function"
    },
    {
      "inputs": [
        {
          "internalType": "uint256",
          "name": "gid",
          "type": "uint256"
        }
      ],
      "name": "payEMI",
      "outputs": [],
      "stateMutability": "payable",
      "type": "function"
    },
    {
      "inputs": [
        {
          "internalType": "uint256",
          "name": "",
          "type": "uint256"
        },
        {
          "internalType": "address",
          "name": "",
          "type": "address"
        }
      ],
      "name": "profitBalance",
      "outputs": [
        {
          "internalType": "uint256",
          "name": "",
          "type": "uint256"
        }
      ],
      "stateMutability": "view",
      "type": "function"
    },
    {
      "inputs": [
        {
          "internalType": "uint256",
          "name": "gid",
          "type": "uint256"
        },
        {
          "internalType": "uint256",
          "name": "amount",
          "type": "uint256"
        },
        {
          "internalType": "string",
          "name": "reason",
          "type": "string"
        }
      ],
      "name": "raiseEmergency",
      "outputs": [],
      "stateMutability": "nonpayable",
      "type": "function"
    },
    {
      "inputs": [
        {
          "internalType": "uint256",
          "name": "gid",
          "type": "uint256"
        },
        {
          "internalType": "address",
          "name": "target",
          "type": "address"
        }
      ],
      "name": "raiseKick",
      "outputs": [],
      "stateMutability": "nonpayable",
      "type": "function"
    },
    {
      "inputs": [
        {
          "internalType": "uint256",
          "name": "gid",
          "type": "uint256"
        }
      ],
      "name": "rejectGroup",
      "outputs": [],
      "stateMutability": "nonpayable",
      "type": "function"
    },
    {
      "inputs": [
        {
          "internalType": "uint256",
          "name": "gid",
          "type": "uint256"
        }
      ],
      "name": "releaseFunds",
      "outputs": [],
      "stateMutability": "nonpayable",
      "type": "function"
    },
    {
      "inputs": [
        {
          "internalType": "uint256",
          "name": "gid",
          "type": "uint256"
        },
        {
          "internalType": "uint256",
          "name": "rid",
          "type": "uint256"
        }
      ],
      "name": "repayEmergency",
      "outputs": [],
      "stateMutability": "payable",
      "type": "function"
    },
    {
      "inputs": [
        {
          "internalType": "uint256",
          "name": "gid",
          "type": "uint256"
        },
        {
          "internalType": "uint256",
          "name": "rid",
          "type": "uint256"
        }
      ],
      "name": "resolveEmergency",
      "outputs": [],
      "stateMutability": "nonpayable",
      "type": "function"
    },
    {
      "inputs": [
        {
          "internalType": "uint256",
          "name": "gid",
          "type": "uint256"
        },
        {
          "internalType": "uint256",
          "name": "kid",
          "type": "uint256"
        }
      ],
      "name": "resolveKick",
      "outputs": [],
      "stateMutability": "nonpayable",
      "type": "function"
    },
    {
      "inputs": [
        {
          "internalType": "uint256",
          "name": "gid",
          "type": "uint256"
        }
      ],
      "name": "resolveVote",
      "outputs": [],
      "stateMutability": "nonpayable",
      "type": "function"
    },
    {
      "inputs": [
        {
          "internalType": "uint256",
          "name": "gid",
          "type": "uint256"
        },
        {
          "internalType": "address",
          "name": "invitee",
          "type": "address"
        }
      ],
      "name": "revokeInvite",
      "outputs": [],
      "stateMutability": "nonpayable",
      "type": "function"
    },
    {
      "inputs": [
        {
          "internalType": "uint256",
          "name": "gid",
          "type": "uint256"
        }
      ],
      "name": "startVoting",
      "outputs": [],
      "stateMutability": "nonpayable",
      "type": "function"
    },
    {
      "inputs": [],
      "name": "unpause",
      "outputs": [],
      "stateMutability": "nonpayable",
      "type": "function"
    },
    {
      "inputs": [
        {
          "internalType": "uint256",
          "name": "gid",
          "type": "uint256"
        },
        {
          "internalType": "uint256",
          "name": "rid",
          "type": "uint256"
        },
        {
          "internalType": "bool",
          "name": "support",
          "type": "bool"
        }
      ],
      "name": "voteEmergency",
      "outputs": [],
      "stateMutability": "nonpayable",
      "type": "function"
    },
    {
      "inputs": [
        {
          "internalType": "uint256",
          "name": "gid",
          "type": "uint256"
        },
        {
          "internalType": "uint256",
          "name": "kid",
          "type": "uint256"
        },
        {
          "internalType": "bool",
          "name": "support",
          "type": "bool"
        }
      ],
      "name": "voteKick",
      "outputs": [],
      "stateMutability": "nonpayable",
      "type": "function"
    },
    {
      "inputs": [
        {
          "internalType": "uint256",
          "name": "",
          "type": "uint256"
        },
        {
          "internalType": "address",
          "name": "",
          "type": "address"
        }
      ],
      "name": "votesReceived",
      "outputs": [
        {
          "internalType": "uint256",
          "name": "",
          "type": "uint256"
        }
      ],
      "stateMutability": "view",
      "type": "function"
    },
    {
      "inputs": [
        {
          "internalType": "uint256",
          "name": "gid",
          "type": "uint256"
        }
      ],
      "name": "withdrawAllProfit",
      "outputs": [],
      "stateMutability": "nonpayable",
      "type": "function"
    },
    {
      "inputs": [
        {
          "internalType": "uint256",
          "name": "gid",
          "type": "uint256"
        },
        {
          "internalType": "uint256",
          "name": "amount",
          "type": "uint256"
        }
      ],
      "name": "withdrawPartialProfit",
      "outputs": [],
      "stateMutability": "nonpayable",
      "type": "function"
    },
    {
      "stateMutability": "payable",
      "type": "receive"
    }
  ],
  "bytecode": "0x6080806040523461003b576001600081905580546001600160a81b0319163360081b610100600160a81b0316179055615f409081620000418239f35b600080fdfe60a0604052600436101561001b575b361561001957600080fd5b005b60003560e01c806305bcca8c14614cc357806306545a931461227e5780630691166014614aec57806307e079d314614a655780630eb8d8241461479a57806312e81b801461041d57806315a9313e146147085780631e67939e1461466b5780631faba9431461458d5780632048cba41461454e57806323e955d81461339c57806329fe0bda1461431d57806330f4ccac14613f0b57806331c19d50146137ce57806333471df514613d4457806333dd6bed1461246857806336b8c12614613d045780633d2f5bda14613a585780633e737a721461390c5780633f4ba83a1461386857806342d3d77f1461382057806343859632146137d357806345dcd02c1461339c57806346013b73146137ce578063469a78d2146137b057806349c7032d146137945780634aa5f1e21461359c5780634d68282f146133bf57806353b7e0e5146133a15780635a45d69b1461339c5780635b72a33a146133975780635c975abb146133745780635def8d8314613358578063612e67541461329257806363c1f262146131355780636433b9b314612f135780636a47f8e814612ee45780636cacddb614612e985780637337060014612aa057806374bf539214612a565780637728c709146128cc57806377df41b71461268f5780637d888499146125c35780637f08ee7c146125a55780638115f4ff146124b05780638169bb73146124685780638456cb59146123ff5780638746a4be146123b757806387b67393146122b85780638d67799e1461229c5780638f23b3261461227e5780639065758714612260578063935d2ed014612215578063938ce87e146121f757806395ad7d2e146120be57806396324bd414611ec757806399c4993814611c985780639e6d683014611ab1578063a415d2f414611365578063a4db91b9146119b6578063a5d033811461196a578063a673cee61461193e578063b5555a3d146113ad578063b6eb3afc14611365578063c046cd381461133f578063c04977d3146112f3578063c477ecab146112b4578063c648fe8e14611080578063ca61b30114610f77578063cf6a77d514610b5a578063d3f514ca14610b3e578063d5999a5c14610b20578063ddf1a68114610ae6578063de21901a14610aa8578063dfd9935814610a82578063e517dd1a14610909578063e7aae115146107b8578063ebe591521461077e578063ed1375d51461074f578063eed02e4b14610486578063f3d25fc51461046a578063f5b029261461041d578063f62da739146103ee5763f851a4400361000e57346103e95760003660031901126103e95760015460405160089190911c6001600160a01b03168152602090f35b600080fd5b346103e95760203660031901126103e95760043560005260036020526020600e60406000200154604051908152f35b346103e95760403660031901126103e957610436614cdf565b600435600052601260205260406000209060018060a01b0316600052602052602060ff604060002054166040519015158152f35b346103e95760003660031901126103e9576020604051600a8152f35b6020806003193601126103e9576004359061049f615285565b81151580610743575b6104b190615115565b816000526003815260ff60026040600020015460a01c16600481101561072d5760016104dd9114615451565b6104e561522f565b81600052600381526040600020336000526011825261050c60ff60406000205416156152c9565b6007810180546004830154111561070257600382015434036106d757600682015442116106ac5760ff60188301541661063e575b7f78da64a590c3052953ad9e0a5546bbf12bb68ae7634e3fb2a774e22a8c6557c1929161057060169233906153ee565b0161057c34825461518a565b9055336000526010815282604060002055601181526040600020600160ff198254161790556106306040516105b081614e51565b3381526005838201606481526040830160008152606084016000815260808501916000835260a0860193600185528a600052858952604060002033600052895260406000209660018060a01b0390511660018060a01b03198854161787555160018701555160028601555160038501555160048401555115159101615197565b604051338152a26001600055005b8360005260128352604060002033600052835260ff604060002054161561068157600084815260128452604080822033835285529020805460ff19169055610540565b60405162461bcd60e51b81526004808201859052602482015263114e8c4d60e21b6044820152606490fd5b60405162461bcd60e51b81526004808201859052602482015263453a313360e01b6044820152606490fd5b60405162461bcd60e51b81526004808201859052602482015263229d189960e11b6044820152606490fd5b60405162461bcd60e51b81526004808201859052602482015263453a313160e01b6044820152606490fd5b634e487b7160e01b600052602160045260246000fd5b506002548211156104a8565b346103e95760203660031901126103e95760043560005260036020526020601660406000200154604051908152f35b346103e95760203660031901126103e9576001600160a01b0361079f614cf5565b1660005260106020526020604060002054604051908152f35b346103e9576107c636614d0b565b6107ce615285565b811515806108fd575b6107e090615115565b6107f26107ed3384615d22565b615529565b6107fa61522f565b80156108d25781600052602060048152604060002033600052815281604060002054106108a757600080516020615eeb83398151915291600361089d9285600052600481526040600020336000528152604060002061085a848254615492565b905585600052526017604060002001610874828254615492565b9055610890600080808085335af161088a6151c3565b5061566e565b6040519182913383615653565b0390a26001600055005b6064906040519062461bcd60e51b825260048201526004602482015263114e8d0d60e21b6044820152fd5b606460405162461bcd60e51b8152602060048201526004602482015263453a343360e01b6044820152fd5b506002548211156107d7565b346103e95761091736614db2565b610922929192615285565b81151580610a76575b61093490615115565b6109416107ed3384615d22565b816000526020600d8152604060002084600052815260406000209061096d60ff600684015416156156c4565b61097d60038301544211156156f6565b83600052600e8152604060002085600052815260406000203360005281526109ad60ff6040600020541615615728565b60018201546001600160a01b03163314610a4b576000848152600e82526040808220878352835280822033835290925220805460ff191660011790557fe53131b3767d3218d9029021e0da07299664eb92b41dc80ab1f2be0f41ce47b991610a32918115610a3757600401610a22815461532d565b90555b604051918291338361562e565b0390a3005b600501610a44815461532d565b9055610a25565b6064906040519062461bcd60e51b825260048201526004602482015263229d1b1960e11b6044820152fd5b5060025482111561092b565b346103e95760203660031901126103e9576020610aa0600435615845565b604051908152f35b346103e95760203660031901126103e95760a0610ac6600435615aa0565b926040929192519485526020850152604084015260608301526080820152f35b346103e95760203660031901126103e9576001600160a01b03610b07614cf5565b16600052600c6020526020604060002054604051908152f35b346103e95760003660031901126103e957602060405162278d008152f35b346103e95760003660031901126103e957602060405160038152f35b346103e95760603660031901126103e9576044356001600160401b0381116103e957610b8a9036906004016150b0565b610b92615285565b600435151580610f69575b610ba690615115565b610bb56107ed33600435615d22565b6004356000526003602052604060002033600052600c602052604060002054610f3e578115610f1357610beb60243515156152fb565b47603281029080820460321490151715610ed2576064900460243511610ee85760140191610c19835461532d565b8093556203f48042014211610ed25760405161016081016001600160401b03811182821017610ebc576040528381523360208201526024356040820152610c5f836151a8565b610c6c6040519182614ea3565b83815236848401116103e9578383602083013760006020858301015260608201526203f48042016080820152600060a0820152600060c0820152600060e0820152600061010082015260006101208201526000610140820152600435600052600a602052604060002084600052602052604060002090805182556001820160018060a01b0360208301511660018060a01b031982541617905560408101516002830155606081015180519060018060401b038211610ebc57610d3e82610d356003870154614e17565b600387016153a9565b602090601f8311600114610e3257600080516020615e8b833981519152959383610a32969460089461014094600092610e27575b50508160011b916000199060031b1c19161760038501555b6080810151600485015560a0810151600585015560c0810151600685015560078401610dbc60e0830151151582615197565b610dcd6101008301511515826156ac565b610120820151151562ff000082549160101b169062ff00001916179055015191015533600052600c602052600435604060002055604051918291338352602435602084015260606040840152600435956060840191615430565b015190508b80610d72565b906003850160005260206000209160005b601f1985168110610ea457509360018460089461014094600080516020615e8b8339815191529a98610a329a98601f19811610610e8b575b505050811b016003850155610d8a565b015160001960f88460031b161c191690558b8080610e7b565b91926020600181928685015181550194019201610e43565b634e487b7160e01b600052604160045260246000fd5b634e487b7160e01b600052601160045260246000fd5b606460405162461bcd60e51b8152602060048201526004602482015263453a343760e01b6044820152fd5b606460405162461bcd60e51b8152602060048201526004602482015263229d1a1b60e11b6044820152fd5b606460405162461bcd60e51b8152602060048201526004602482015263453a343560e01b6044820152fd5b506002546004351115610b9d565b346103e95760203660031901126103e95760043560018060a01b03610fa48160015460081c1633146150dd565b81151580611074575b610fb690615115565b610fbe61522f565b816000526003602052604060002090600282019182549060ff8260a01c16600481101561072d576000808686600383968b9961104899610fff879915615158565b8360a01b60ff60a01b19821617865516855260116020526040852060ff198154169055828454168552601060205284604081205501549154165af16110426151c3565b506151f3565b7f6e5041900d295bfa61f87310386b97d863882ff214021a45b4e5da847849f10f600080a26001600055005b50600254821115610fad565b346103e95761108e36614d0b565b611096615285565b811515806112a8575b6110a890615115565b6110b56107ed3384615d22565b6110bd61522f565b816000526003916020928084526040600020600d8552604060002084600052855260406000209060068201928354966110f960ff8916156156c4565b61110782850154421161575a565b60078301908154986001998a1c948a8601809611610ed25761113c8b966004890154101580998860ff198096161781556156ac565b871561126757868601546001600160a01b03929083169061115d828c615d82565b8160005260118552604060002081815416905560108552600060408120558a600052600585526040600020826000528552600560406000200190815416905589600052600f8452604060002090600052835260006040812055835490816111fd575b5050505050505090600080516020615e4b833981519152915b8501546040519182916111f591906001600160a01b03168361562e565b0390a3600055005b908561120a920154615649565b936000865b156111bf5784548110156112625761125c908a600052600485526040600020846112398389614dff565b905490861b1c166000528552604060002061125588825461518a565b905561532d565b8661120f565b6111bf565b50506000878152600f825260408082208b8801546001600160a01b031683529092529081205550600080516020615e4b833981519152939291506111d89050565b5060025482111561109f565b346103e95760203660031901126103e95760043560005260036020526112ef6112e360076040600020016154d1565b6040519182918261506c565b0390f35b346103e95761130136614dd5565b91600052600e60205260406000209060005260205260406000209060018060a01b0316600052602052602060ff604060002054166040519015158152f35b346103e95760403660031901126103e9576020610aa061135d614cdf565b60043561599d565b346103e95760403660031901126103e95761137e614cdf565b600435600052600460205260406000209060018060a01b03166000526020526020604060002054604051908152f35b60a03660031901126103e9576004356001600160401b0381116103e9576113d89036906004016150b0565b6064351515606435036103e9576001600160401b03608435116103e9573660236084350112156103e9576001600160401b0360046084350135116103e9573660246084356004013560051b6084350101116103e957611435615285565b33600052601160205261145060ff60406000205416156152c9565b8015611913576002602435106118e8576028602435116118bd57604491600183351015806118b1575b15611886576114893415156152fb565b6064356117b9575b61149c60025461532d565b9182600255826000526003602052604060002083815560018060401b038211610ebc576114d9826114d06001840154614e17565b600184016153a9565b60009082601f81116001146117485761155b9260009161173d575b508360011b906000198560031b1c19161760018201555b6002810180546001600160a81b0319163360ff60a01b19161790553460038201819055602435600483015586356005830155601682015561155160643560188301615197565b60073391016153ee565b33600052601060205282604060002055601160205260406000209360ff19946001868254161790556040519461159086614e51565b33865261161760208701606481526005604089016000815260608a016000815260808b01906000825260a08c0192600184528b6000528460205260406000203360005260205260406000209560018060a01b03809e511660018060a01b03198854161787555160018701555160028601555160038501555160048401555115159101615197565b606435611673575b50600080516020615ecb83398151915293945061164f60405193849333855260c0602086015260c0850191615430565b903460408401526024356060840152356080830152606435151560a08301520390a2005b60843560240160005b6084356004013581106116c757505084600080516020615ecb83398151915295965060005260126020526040600020336000526020526001604060002091825416179055849361161f565b611738908760005260126020526040600020896116f36116ee84608435600401358861533c565b61534c565b166000526020526040600020600185825416179055876000526013602052611733604060002061172d6116ee84608435600401358861533c565b906153ee565b61532d565b61167c565b9050840135876114f4565b506001810160005260206000206000925b601f19851684106117a15761155b935084601f19811610611787575b5050600183811b01600182015561150b565b850135600019600386901b60f8161c191690558680611775565b85810135825560209384019360019092019101611759565b608435600401351561185b5760843560240160005b6084356004013581106117e2575050611491565b6001600160a01b03806117ff6116ee84600460843501358761533c565b1615611830579061173361182b9233906118236116ee85608435600401358961533c565b161415615360565b6117ce565b6064866308a7460760e31b6040519162461bcd60e51b83526020600484015260046024840152820152fd5b60648363453a303760e01b6040519162461bcd60e51b83526020600484015260046024840152820152fd5b60648363453a303560e01b6040519162461bcd60e51b83526020600484015260046024840152820152fd5b50601883351115611479565b606460405162461bcd60e51b8152602060048201526004602482015263114e8c0d60e21b6044820152fd5b606460405162461bcd60e51b8152602060048201526004602482015263453a303360e01b6044820152fd5b606460405162461bcd60e51b8152602060048201526004602482015263229d181960e11b6044820152fd5b346103e95760203660031901126103e95760043560005260136020526112ef6112e360406000206154d1565b346103e95761197836614dd5565b91600052600b60205260406000209060005260205260406000209060018060a01b0316600052602052602060ff604060002054166040519015158152f35b346103e9576020806003193601126103e9576119d0614cf5565b604051637728c70960e01b81526001600160a01b039091166004820152600081602481305afa908115611aa557600091611a13575b604051806112ef8482614d77565b90503d806000833e611a258183614ea3565b81019082818303126103e9578051906001600160401b0382116103e957019080601f830112156103e9578151611a5a81615603565b92611a686040519485614ea3565b818452848085019260051b8201019283116103e9578401905b828210611a96575050506112ef915082611a05565b81518152908401908401611a81565b6040513d6000823e3d90fd5b346103e95760403660031901126103e957600435611acd614cdf565b90611ad6615285565b80151580611c8c575b611ae890615115565b8060005260209160038352604060002092600284015460ff601860018060a01b0396611b17888516331461549f565b01541615611c6157836000526012825260406000209483169485600052825260ff60406000205416611c36578415611c0b5760ff90611b5833871415615360565b60a01c16600481101561072d5760018114908115611c02575b5015611bd757906013611bb092846000526012815260406000208660005281526040600020600160ff19825416179055846000525260406000206153ee565b7f6e32da99952e6892c42b54eec8c835d9a2e0a6c879c0219cc693229e6894175a600080a3005b6064906040519062461bcd60e51b825260048201526004602482015263114e8c8d60e21b6044820152fd5b90501585611b71565b60405162461bcd60e51b81526004808201849052602482015263453a323360e01b6044820152606490fd5b60405162461bcd60e51b81526004808201849052602482015263229d191960e11b6044820152606490fd5b60405162461bcd60e51b81526004808201849052602482015263453a323160e01b6044820152606490fd5b50600254811115611adf565b346103e9576020806003193601126103e957600435908160005260038152604060002060405191611cc883614e6c565b81548352611cd860018301614ec6565b838201526002828101546001600160a01b038082166040870152959060a01c60ff16600481101561072d57606086015260038401546080860152600484015460a08601526005918285015460c0870152600685015460e0870152611d3e600786016154d1565b956101008101968752876008870154166101208201526102206019611d6560098901614fac565b976101408401988952611d7a60108201615001565b610160850152601481015461018085015260158101546101a085015260168101546101c085015260178101546101e085015260ff60188201541615156102008501520154910152855151945195865194611dec606089015198611de6836040830151920151918b6155a4565b996155a4565b9860009680611ea1575b5060009560005b898110611e4f57505087159450611e41935050505057606481029080820460641490151715610ed2576112ef92611e3391615649565b905b60405194859485614d21565b506112ef9150600090611e35565b86600052818452604060002083611e6783885161561a565b511660005284528580604060002001541015611e8c575b611e879061532d565b611dfd565b96611e99611e879161532d565b979050611e7e565b90965060648a02908a82046064148b151715610ed257611ec091615649565b958a611df6565b346103e95760203660031901126103e95760043560005260036020526040600020805460018201611ef790614ec6565b600283015460038401546004850154600586015460068701546008880154939795949293919290916001600160a01b031690611f3560098801614fac565b611f4160108901615001565b9260148901549460158a01549660168b01549860178c01549a60188d015460ff169c601901549d6040518060805252610360806080516020015260805101611f8891614f6c565b6080516001600160a01b0388166040909101529d60ff60a088901c166004111561072d5760ff60c09760a01c166060608051015260808051015260a0608051015284608051015260e0608051015261010060805101528051610120608051015260208101516101406080510152604081015161016060805101526060810151610180608051015260808101516101a0608051015260a08101516101c06080510152015115156101e06080510152805190600382101561072d576080916102008351015260208101516102208351015260408101516102408351015260018060a01b03606082015116610260835101520151151561028060805101526102a060805101526102c060805101526102e06080510152610300608051015215156103206080510152610340608051015260805180910390f35b346103e95760003660031901126103e95760028054600060015b8281111561218157506120ea9061578c565b9060009260015b8281111561210757604051806112ef8682614d77565b80600052600390602082815260ff80856040600020015460a01c1693600485101561072d57600161214695149283612165575b50505061214b5761532d565b6120f1565b8061215f6121588861532d565b978761561a565b5261532d565b909192508360005252601860406000200154161587808061213a565b80600052600360209080825260ff9081876040600020015460a01c16600481101561072d5760011492836121db575b5050506121c6575b6121c19061532d565b6120d8565b906121d36121c19161532d565b9190506121b8565b90919250836000525260186040600020015416158580806121b0565b346103e95760203660031901126103e9576020610aa060043561597a565b346103e95760403660031901126103e95761222e614cdf565b600435600052600560205260406000209060018060a01b03166000526020526020600160406000200154604051908152f35b346103e95760003660031901126103e95760206040516207a1208152f35b346103e95760003660031901126103e9576020600254604051908152f35b346103e95760003660031901126103e957602060405160288152f35b346103e95760403660031901126103e9576004356122d4614cdf565b906122dd615285565b801515806123ab575b6122ef90615115565b8060005260206003815260018060a01b036123158160026040600020015416331461549f565b8260005260128252604060002093169283600052815260ff60406000205416156123805781600052601281526040600020908360005252604060002060ff1981541690557f8aec0db50e2fb503d8ef5d554809d700e2878a7431e522a5da1d94bf356dc438600080a3005b6064906040519062461bcd60e51b825260048201526004602482015263453a323560e01b6044820152fd5b506002548111156122e6565b346103e95760203660031901126103e95760043560005260036020526020610aa06123fa6123eb6009604060002001614fac565b8360408201519101519061518a565b61597a565b346103e95760003660031901126103e9576001805461242c33600883901c6001600160a01b0316146150dd565b612434615285565b60ff1916176001557f62e78cea01bee320cd4e420270b5ea74000d11b0c9f74754ebdbfc544b05a2586020604051338152a1005b346103e95760403660031901126103e957612481614cdf565b600435600052600860205260406000209060018060a01b03166000526020526020604060002054604051908152f35b346103e9576020806003193601126103e957600435906124ce615285565b81151580612599575b6124e090615115565b6124ed6107ed3384615d22565b6124f561522f565b8160005260048152604060002033600052815260406000205490811561255d57600080516020615eeb83398151915291600361089d92856000526004815260406000203360005281526000604081205585600052526017604060002001610874828254615492565b6064906040519062461bcd60e51b8252600482015260156024820152744e6f2070726f66697420746f20776974686472617760581b6044820152fd5b506002548211156124d7565b346103e95760003660031901126103e957602060405162093a808152f35b346103e9576125d136614d0b565b90600052600a6020526040600020906000526020526040600020805460018060a01b0360018301541691600281015460ff61260e60038401614ec6565b92600481015493600582015461265160068401549260086007860154950154966040519a8b9a8b5260208b015260408a01526101608060608b0152890190614f6c565b95608088015260a087015260c0860152818116151560e0860152818160081c16151561010086015260101c1615156101208401526101408301520390f35b346103e95760403660031901126103e9576004356126ab614cdf565b6126b3615285565b811515806128c0575b6126c590615115565b6126d26107ed3384615d22565b8160005260206003815260406000209060ff601083015416600381101561072d5760016126ff91146155b7565b60118201544211612895578360005260078152604060002033600052815260ff6040600020541661286a576001600160a01b0383169033821461283f576127468486615d22565b15612814576127f4927fcfff1651bcea794952a516ce970ab17518a85210bd939aaeaac670a8d3e65ec7949260129287600052600881526040600020826000528152604060002054156127f9575b876000526007815260406000203360005281526040600020600160ff1982541617905587600052600881526040600020916000525260406000206127d8815461532d565b9055016127e5815461532d565b905560405191829133836155e9565b0390a2005b876000526009815261280f8560406000206153ee565b612794565b6064906040519062461bcd60e51b825260048201526004602482015263453a333560e01b6044820152fd5b6064906040519062461bcd60e51b825260048201526004602482015263114e8ccd60e21b6044820152fd5b6064906040519062461bcd60e51b825260048201526004602482015263453a333360e01b6044820152fd5b6064906040519062461bcd60e51b825260048201526004602482015263229d199960e11b6044820152fd5b506002548211156126bc565b346103e9576020806003193601126103e9576128e6614cf5565b60028054909291600060015b838111156129bd57506129049061578c565b9260009460015b8481111561292157604051806112ef8882614d77565b80600052600380845260ff80601860406000200154169182612999575b8261296d575b505090612954916129595761532d565b61290b565b8061215f6129668a61532d565b998961561a565b909150826000528452826040600020015460a01c1690600482101561072d579060011461295489612944565b60128652604060008181206001600160a01b038a168252885220548216925061293e565b80600052600380865260ff80601860406000200154169182612a32575b82612a0a575b50506129f5575b6129f09061532d565b6128f2565b90612a026129f09161532d565b9190506129e7565b909150826000528652866040600020015460a01c16600481101561072d5760011487806129e0565b60128852604060008181206001600160a01b03891682528a522054821692506129da565b346103e957612a6436614d0b565b906000526013602052604060002080548210156103e957602091612a8791614dff565b905460405160039290921b1c6001600160a01b03168152f35b60203660031901126103e957612ab4615285565b600435151580612e8a575b612ac890615115565b612ad061522f565b600435600090815260036020526040902060088101546001600160a01b03163303612e5f5760ff600f8201541615612e3457600c81015460058201541115612e0957600b810154612b26600a830154809261518a565b600091600190600e850154804211612dcf575b50612b44848461518a565b3403612da45783612b549161518a565b92612b63600786015485615649565b9260005b6007870154811015612bbe57612bb99060043560005260046020526040600020612b948260078b01614dff565b60018060a01b0391549060031b1c16600052602052604060002061125587825461518a565b612b67565b5085935084612bd26017860191825461518a565b9055612be1600c85015461532d565b600c85015542600d85015562278d004201804211610ed257600e8501556004356000526005602052604060002060018060a01b03600886015416600052602052604060002092600014612d695760038301612c3c815461532d565b905560018301805490600a8201809211610ed257555b600c8401549160405191338352602083015282604083015260608201527fa311ef6156db45bbe3ce4128bbe878541a06d895ff987c4316315b345ad499c0608060043592a260016008840154920154600080516020615e6b83398151915260405180612cca6004359460018060a01b03881683615653565b0390a2600583015414612cdf575b6001600055005b60009160129160ff199081600f84015416600f84015560198301612d03815461532d565b8091556040519081527f03d7f456a773b484d2552719bd744b62049588737d6a02948eba3dcae1b0d77f602060043592a26001600160a01b031916600883015560108201805490911690556013810180546001600160a81b031916905501558080612cd8565b60048301612d77815461532d565b9055600183018054600511612d9b578054600419810191908211610ed25755612c52565b60009055612c52565b606460405162461bcd60e51b8152602060048201526004602482015263453a343160e01b6044820152fd5b83919450612de1620151809142615492565b04911b82810460021483151715610ed257606491612dfe916155a4565b049160009085612b39565b606460405162461bcd60e51b81526020600482015260046024820152630453a34360e41b6044820152fd5b606460405162461bcd60e51b8152602060048201526004602482015263453a333960e01b6044820152fd5b606460405162461bcd60e51b815260206004820152600460248201526308a7466760e31b6044820152fd5b506002546004351115612abf565b346103e957612ea636614dd5565b91600052600660205260406000209060005260205260406000209060018060a01b0316600052602052602060ff604060002054166040519015158152f35b346103e95760203660031901126103e95760043560005260036020526020610aa060166040600020015461597a565b612f1c36614d0b565b612f24615285565b81151580613129575b612f3690615115565b612f3e61522f565b81600052602091600a83526040600020826000528352604060002081600052600393848152604060002060018060a01b039560019680888601541633036130fe57600785019384549560ff8760081c16156130d35760ff8760101c166130a8576002015494838602868104851487151715610ed2576064612fc19104809761518a565b9687340361307d5790620100008b9594939262ff0000191617905533600052600c8152600060408120556007850191612ffb835488615649565b936000865b61304d575b50858b8b7f5b32583ca9f1a2a6ac67b63a9553e4ae06ed06e8dee3ad359e71e202dd84d5cd6111f58d8d61303e60178f0191825461518a565b90556040519182913383615653565b845481101561307857613072908b600052600485526040600020846112398389614dff565b86613000565b613005565b60405162461bcd60e51b81526004808201859052602482015263453a353760e01b6044820152606490fd5b60405162461bcd60e51b81526004808201849052602482015263229d1a9b60e11b6044820152606490fd5b60405162461bcd60e51b81526004808201849052602482015263453a353560e01b6044820152606490fd5b60405162461bcd60e51b81526004808201869052602482015263114e8d4d60e21b6044820152606490fd5b50600254821115612f2d565b346103e95761314336614db2565b61314e929192615285565b81151580613286575b61316090615115565b61316d6107ed3384615d22565b816000526020600a8152604060002084600052815260406000209061319960ff600784015416156156c4565b6131a960048301544211156156f6565b83600052600b8152604060002085600052815260406000203360005281526131d960ff6040600020541615615728565b60018201546001600160a01b0316331461325b576000848152600b82526040808220878352835280822033835290925220805460ff191660011790557f6f6e44e06b7560d636d01fa051314d5d0169c306bb1ad5914156cb73d166373791610a3291811561324e57600501610a22815461532d565b600601610a44815461532d565b6064906040519062461bcd60e51b825260048201526004602482015263453a353160e01b6044820152fd5b50600254821115613157565b346103e95760003660031901126103e95760028054600060015b8281111561330f57506132be9061578c565b9060009260015b828111156132db57604051806112ef8682614d77565b80600052600360205260ff826040600020015460a01c1690600482101561072d5761330a911561214b5761532d565b6132c5565b80600052600360205260ff846040600020015460a01c16600481101561072d5715613343575b61333e9061532d565b6132ac565b9061335061333e9161532d565b919050613335565b346103e95760003660031901126103e957602060405160328152f35b346103e95760003660031901126103e957602060ff600154166040519015158152f35b614cc3565b614d3d565b346103e95760203660031901126103e9576020610aa06004356157be565b346103e95760203660031901126103e9576004356133db615285565b80151580613590575b6133ed90615115565b6133fa6107ed3383615d22565b61340261522f565b8060005260036020526040600020600f81019081549061342560ff831615615572565b600881019260018060a01b03918285541693841561356557601682018054956005870287810460051488151715610ed2576064900490613469600586015489615649565b9462278d00420193844211610ed2576000976001899897899897600e8a99968f99978b988660c08d6040519061349e82614e88565b81528360208201528460408201528c60608201524260808201528760a082015201528b6009840155600a830155600b82015587600c82015542600d820155015560ff1916179055555af16134f06151c3565b5015613529577f895130d6ec3d51c762d94617e61152b1be8447db99e1efe41d743cbde09b39d792541661089d60405192839283615653565b60405162461bcd60e51b8152602060048201526014602482015273119d5b99081d1c985b9cd9995c8819985a5b195960621b6044820152606490fd5b606460405162461bcd60e51b8152602060048201526004602482015263453a333760e01b6044820152fd5b506002548111156133e4565b346103e9576020806003193601126103e957600435906135ba615285565b81151580613788575b6135cc90615115565b816000526003815260406000209060ff600f8301541615613753576008820180546001600160a01b03939084169190821561372057600e019182549362278d0094858101809111610ed2574211156136dc5786600052600581526040600020916000525260406000209260016002850194613647865461532d565b865501926014845410156000146136d35783546013198101908111610ed25784555b8054918201809211610ed257600080516020615e6b8339815191529587937f0a90557dba179566735be5e2a7c9e8b16e2242037372b763e05c77590bcd2992936136bf9355541694546040519182918783615653565b0390a254906127f460405192839283615653565b60008455613669565b6064906040519062461bcd60e51b82526004820152601f60248201527f4e6f7420796574206f76657264756520627920612066756c6c206d6f6e7468006044820152fd5b60405162461bcd60e51b815260048101859052600b60248201526a2737903137b93937bbb2b960a91b6044820152606490fd5b6064906040519062461bcd60e51b82526004820152600e60248201526d27379030b1ba34bb32903637b0b760911b6044820152fd5b506002548211156135c3565b346103e95760003660031901126103e957602060405160148152f35b346103e95760003660031901126103e95760206040516202a3008152f35b614d59565b346103e95760403660031901126103e9576137ec614cdf565b600435600052600760205260406000209060018060a01b0316600052602052602060ff604060002054166040519015158152f35b346103e95760403660031901126103e957613839614cdf565b600435600052600f60205260406000209060018060a01b03166000526020526020604060002054604051908152f35b346103e95760003660031901126103e95760015461389433600883901c6001600160a01b0316146150dd565b60ff8116156138d05760ff19166001557f5db9ee0a495bf2e6ff9c91a7834c1ba4fdd244a5e8aa4e537bd38aeae4b073aa6020604051338152a1005b60405162461bcd60e51b815260206004820152601460248201527314185d5cd8589b194e881b9bdd081c185d5cd95960621b6044820152606490fd5b346103e95760203660031901126103e9576004356000526003602052604060002060405161393981614e6c565b8154815261394960018301614ec6565b602082015260028201546001600160a01b03808216604084015260a09190911c60ff1692600484101561072d5760c0610220926080956060860152600383015486860152600483015460a0860152600583015482860152600683015460e08601526139b6600784016154d1565b9061010086019182526008840154166101208601526139d760098401614fac565b9461014081019586526139ec60108501615001565b610160820152601484015461018082015260158401546101a08201526019601685015494856101c084015260178101546101e084015260ff6018820154161515610200840152015494859101525151935101511515604051938452602084015260408301526060820152f35b346103e9576020806003193601126103e95760043590613a76615285565b81151580613cf8575b613a8890615115565b613a956107ed3384615d22565b8160005260038082526040600020916007808401928354600486015403613ccd576008858101546001600160a01b0393908416613ca257601087019660ff8854168481101561072d57613c7757613af360ff600f8301541615615572565b6002810160ff815460a01c16600481101561072d5760028114908115613c6c575b5015613c415760005b8854811015613b8e57613b89908b600052848952604060002088613b41838d614dff565b9054908a1b1c166000528952604060002060ff1981541690558b600052858952604060002088613b71838d614dff565b9054908a1b1c1660005289526000604081205561532d565b613b1d565b8a8389848d8460005260098352604060002080546000825580613c26575b5050600160ff198254161790556202a300420190814211610ed257601184018290556000601285015560139390930180546001600160a01b0319169055825460ff60a01b1916600160a11b179092556040519182527ff8c022056754dbacca05aff710dc315a2fa7699ae9309fda403cd1e55c11d40f91a2005b613c3a916000528460002090810190615392565b8580613bac565b60405162461bcd60e51b815260048082018990526024820152630453a33360e41b6044820152606490fd5b60019150148b613b14565b60405162461bcd60e51b8152600480820188905260248201526308a7464760e31b6044820152606490fd5b60405162461bcd60e51b81526004808201879052602482015263453a323760e01b6044820152606490fd5b60405162461bcd60e51b81526004808201859052602482015263229d191b60e11b6044820152606490fd5b50600254821115613a7f565b346103e95760203660031901126103e95760043560005260036020526020610aa0613d356009604060002001614fac565b8260408201519101519061518a565b346103e9576020806003193601126103e95760043590613d62615285565b81151580613eff575b613d7490615115565b816000526003815260ff60026040600020015460a01c16600481101561072d576001613da09114615451565b613da861522f565b81600052600381526040600020613dbf3384615d22565b15613ed45760028101546001600160a01b03163314613ea957600080808093613de83388615d82565b6003810190613dfe601683549201918254615492565b9055338252601186526040822060ff199081815416905560108752826040812055878352600587526040832033845287526005604084200190815416905554335af1613e486151c3565b5015613e7e577fa8dcd974806422d974a6135dd981896f1694065789986f7ba7947fbb4759e89990604051338152a26001600055005b6064906040519062461bcd60e51b825260048201526004602482015263453a313760e01b6044820152fd5b60405162461bcd60e51b81526004808201849052602482015263229d189b60e11b6044820152606490fd5b60405162461bcd60e51b81526004808201849052602482015263453a313560e01b6044820152606490fd5b50600254821115613d6b565b346103e95760203660031901126103e957613f24615285565b60043515158061430f575b613f3890615115565b613f476107ed33600435615d22565b60043560005260036020526040600020601081015460ff8116600381101561072d576001613f7591146155b7565b6011820154421180156142fe575b156142d3576000601283015480156000146140445750600783019081541561402e57600080516020615eab833981519152926127f492600052601360018060a01b0360206000205416955b6008810180546001600160a01b0319166001600160a01b03891690811790915560ff1990931660021760108201550180546001600160a81b03191690911782151560a01b60ff60a01b16179055604051600435949092839290918361562e565b634e487b7160e01b600052603260045260246000fd5b60009060005b6004356000526009806020526040600020548210156140fd5760088060205260406000209082602052614081846040600020614dff565b929060018060a01b03938491549060031b1c1660005260205285604060002054116140b8575b5050506140b39061532d565b61404a565b90919294506004356000526020526040600020916020526140dd846040600020614dff565b90549060031b1c166000526020526140b3604060002054929087806140a7565b5050929160043560005260096020526040600020549261411c84615603565b9361412a6040519586614ea3565b808552614139601f1991615603565b0136602086013760009160005b60043560005260096020526040600020548110156141eb576141ab9060086020526040600020600960205261417f826040600020614dff565b919060018060a01b03928391549060031b1c1660005260205286604060002054146141b0575b5061532d565b614146565b60043560005260096020526141c9826040600020614dff565b90549060031b1c166141e46141dd8761532d565b968961561a565b52896141a5565b509250936001821460001461423057505081511561402e576020909101516001600160a01b031692600080516020615eab833981519152926127f49291601390613fce565b91509192600191600019430190438211610ed257604051906020820192408352426040830152606082015260043560808201526080815260a0810181811060018060401b03821117610ebc576040525190209383156142bd57600080516020615eab833981519152946127f4946013926001600160a01b03926142b59290069061561a565b511695613fce565b634e487b7160e01b600052601260045260246000fd5b606460405162461bcd60e51b8152602060048201526004602482015263229d199b60e11b6044820152fd5b506012820154600783015414613f83565b506002546004351115613f2f565b346103e95761432b36614d0b565b614333615285565b81151580614542575b61434590615115565b6143526107ed3384615d22565b61435a61522f565b81600052602091600383526040600020600a845260406000208360005284526040600020600781019485549561439360ff8816156156c4565b6143a26004840154421161575a565b600784015496600197881c888101809111610ed2577fb910e2ac7b2959d46de10c641870eb1ca8bef723e4f53e0e026dd2ef9c6d04ab606088926143fb8b958d9760058b01938454101598899260ff19161781556156ac565b54600688015460405191878352888301526040820152a31561451d574791600281019384548094106144f257600501549062278d0091828102928184041490151715610ed25761444c88924261518a565b60088201550190600080808060018060a01b0396878754165af161446e6151c3565b50156144b25750907faca58d80f1ad9e62dac1912d6c507cd35fe5410df8d1d09d6ba4487241d1db6e929154169054906111f560405192839283615653565b600055005b6064906040519062461bcd60e51b825260048201526019602482015278115b595c99d95b98de481d1c985b9cd9995c8819985a5b1959603a1b6044820152fd5b60405162461bcd60e51b81526004808201859052602482015263453a353360e01b6044820152606490fd5b908501546001600160a01b03166000908152600c9091526040812055506144ad915050565b5060025482111561433c565b346103e95760203660031901126103e9576001600160a01b0361456f614cf5565b166000526011602052602060ff604060002054166040519015158152f35b346103e95760203660031901126103e9576004356145b960018060a01b0360015460081c1633146150dd565b8015158061465f575b6145cb90615115565b80600052600360205260ff60026040600020015460a01c16600481101561072d576145f69015615158565b6000818152600360205260409020600201805460ff60a01b1916600160a01b1790554262093a808101908110610ed2578160005260036020526006604060002001557f6afb1f32c9b62907732c7131785b4227d9840afc33d8762875f6dada618d620a600080a2005b506002548111156145c2565b346103e95760403660031901126103e957614684614cdf565b6004356000526005602052604060002060018060a01b038092166000526020526040600020604051916146b683614e51565b81541682526112ef60018201549182602085015260028101549384604082015260038201549081606082015260a060ff6005600486015495866080860152015416151591015260405194859485614d21565b346103e95761471636614d0b565b90600052600d602052604060002090600052602052610100604060002060ff81549160018060a01b0390816001820154169160028201541660038201546004830154916006600585015494015494604051978852602088015260408701526060860152608085015260a0840152818116151560c084015260081c16151560e0820152f35b346103e95760403660031901126103e9576147b3614cdf565b6147bb615285565b600435151580614a57575b6147cf90615115565b6147de6107ed33600435615d22565b60043560009081526003602052604090206001600160a01b0382169190338314614a2c5761480e82600435615d22565b15614a0157600435600052600560205260406000208360005260205260028060406000200154106149d657600435600052600f6020526040600020836000526020526040600020546149ab5760150191614868835461532d565b8093556203f4804201804211610ed2576040516101008101916001600160401b03831182841017610ebc576149599260405285825261495060c0600660208501878152604086019433865260608701908152608087016000815260a0880191600083526000868a015260e089019760008952600435600052600d6020528d6040600020906000526020526040600020948a518655600186019060018060a01b039051169060018060a01b03199182825416179055600286019160018060a01b039051169082541617905551600384015551600483015551600582015501930151151583615197565b511515906156ac565b600435600052600f602052604060002090600052602052816040600020557f079aade8012992f30385b9c91c5bdca9b4dffdb497b853421e7833b758617b4460405180610a32600435943390836155e9565b606460405162461bcd60e51b8152602060048201526004602482015263453a363160e01b6044820152fd5b606460405162461bcd60e51b81526020600482015260046024820152630453a36360e41b6044820152fd5b606460405162461bcd60e51b8152602060048201526004602482015263453a353960e01b6044820152fd5b606460405162461bcd60e51b815260206004820152600460248201526308a746a760e31b6044820152fd5b5060025460043511156147c6565b346103e95760403660031901126103e95760c0614a80614cdf565b6004356000526005602052604060002060018060a01b0380921660005260205260406000209081541690600181015490600281015460038201549060ff6005600485015494015416936040519586526020860152604085015260608401526080830152151560a0820152f35b346103e9576020806003193601126103e957600435614b09615285565b80151580614cb7575b614b1b90615115565b8060005260039182815260ff60026040600020015460a01c1692600484101561072d57614b4b6001809514615451565b614b5361522f565b826000528082526040600020906006820154421115614c8c5760078201805460048401541115614c615760028301805460ff60a01b1916600360a01b179055918101918591906000835b614bfe575b83877f7aac2e1f5d480dd5ee714064322c3f2b41af09e78bcf63417f5c981c424c6a30606089601b604051918083528201527a457870697265643a206e6f742066696c6c656420696e2074696d6560281b6040820152a2600055005b8154811015614c5c57806117336000808080614c1d614c569789614dff565b9054908a1b1c6001600160a01b031680825260118d526040808320805460ff1916905560108e5282208290558b54905af16110426151c3565b83614b9d565b614ba2565b60405162461bcd60e51b81526004808201869052602482015263453a313960e01b6044820152606490fd5b60405162461bcd60e51b8152600480820185905260248201526308a7462760e31b6044820152606490fd5b50600254811115614b12565b346103e95760003660031901126103e957602060405160058152f35b602435906001600160a01b03821682036103e957565b600435906001600160a01b03821682036103e957565b60409060031901126103e9576004359060243590565b9094939260609260808301968352602083015260408201520152565b346103e95760003660031901126103e957602060405160028152f35b346103e95760003660031901126103e95760206040516203f4808152f35b6020908160408183019282815285518094520193019160005b828110614d9e575050505090565b835185529381019392810192600101614d90565b60609060031901126103e957600435906024359060443580151581036103e95790565b60609060031901126103e95760043590602435906044356001600160a01b03811681036103e95790565b805482101561402e5760005260206000200190600090565b90600182811c92168015614e47575b6020831014614e3157565b634e487b7160e01b600052602260045260246000fd5b91607f1691614e26565b60c081019081106001600160401b03821117610ebc57604052565b61024081019081106001600160401b03821117610ebc57604052565b60e081019081106001600160401b03821117610ebc57604052565b601f909101601f19168101906001600160401b03821190821017610ebc57604052565b9060405191826000825492614eda84614e17565b908184526001948581169081600014614f495750600114614f06575b5050614f0492500383614ea3565b565b9093915060005260209081600020936000915b818310614f31575050614f0493508201013880614ef6565b85548884018501529485019487945091830191614f19565b915050614f0494506020925060ff191682840152151560051b8201013880614ef6565b919082519283825260005b848110614f98575050826000602080949584010152601f8019910116010190565b602081830181015184830182015201614f77565b90604051614fb981614e88565b60c060ff600683958054855260018101546020860152600281015460408601526003810154606086015260048101546080860152600581015460a08601520154161515910152565b60405190919060a081016001600160401b03811182821017610ebc57604052809260ff81541690600382101561072d579082526001810154602083015260028101546040830152600301546001600160a01b038116606083015260a01c60ff16151560809190910152565b6020908160408183019282815285518094520193019160005b828110615093575050505090565b83516001600160a01b031685529381019392810192600101615085565b9181601f840112156103e9578235916001600160401b0383116103e957602083818601950101116103e957565b156150e457565b60405162461bcd60e51b81526020600482015260096024820152682737ba1030b236b4b760b91b6044820152606490fd5b1561511c57565b60405162461bcd60e51b815260206004820152601460248201527311dc9bdd5c08191bd95cc81b9bdd08195e1a5cdd60621b6044820152606490fd5b1561515f57565b606460405162461bcd60e51b81526020600482015260046024820152630453a31360e41b6044820152fd5b91908201809211610ed257565b9060ff801983541691151516179055565b6001600160401b038111610ebc57601f01601f191660200190565b3d156151ee573d906151d4826151a8565b916151e26040519384614ea3565b82523d6000602084013e565b606090565b156151fa57565b60405162461bcd60e51b815260206004820152600d60248201526c1499599d5b990819985a5b1959609a1b6044820152606490fd5b600260005414615240576002600055565b60405162461bcd60e51b815260206004820152601f60248201527f5265656e7472616e637947756172643a207265656e7472616e742063616c6c006044820152606490fd5b60ff6001541661529157565b60405162461bcd60e51b815260206004820152601060248201526f14185d5cd8589b194e881c185d5cd95960821b6044820152606490fd5b156152d057565b606460405162461bcd60e51b8152602060048201526004602482015263453a303160e01b6044820152fd5b1561530257565b606460405162461bcd60e51b8152602060048201526004602482015263229d181b60e11b6044820152fd5b6000198114610ed25760010190565b919081101561402e5760051b0190565b356001600160a01b03811681036103e95790565b1561536757565b606460405162461bcd60e51b8152602060048201526004602482015263453a303960e01b6044820152fd5b81811061539d575050565b60008155600101615392565b9190601f81116153b857505050565b614f04926000526020600020906020601f840160051c830193106153e4575b601f0160051c0190615392565b90915081906153d7565b80549190600160401b831015610ebc5782615411916001614f0495018155614dff565b90919082549060031b9160018060a01b03809116831b921b1916179055565b908060209392818452848401376000828201840152601f01601f1916010190565b1561545857565b60405162461bcd60e51b815260206004820152601260248201527157726f6e672067726f75702073746174757360701b6044820152606490fd5b91908203918211610ed257565b156154a657565b606460405162461bcd60e51b81526020600482015260046024820152630453a32360e41b6044820152fd5b9060405191828154918282526020928383019160005283600020936000905b82821061550657505050614f0492500383614ea3565b85546001600160a01b0316845260019586019588955093810193909101906154f0565b1561553057565b60405162461bcd60e51b815260206004820152601a60248201527904e6f742061206d656d626572206f6620746869732067726f75760341b6044820152606490fd5b1561557957565b606460405162461bcd60e51b8152602060048201526004602482015263453a323960e01b6044820152fd5b81810292918115918404141715610ed257565b156155be57565b606460405162461bcd60e51b8152602060048201526004602482015263453a333160e01b6044820152fd5b6001600160a01b0391821681529116602082015260400190565b6001600160401b038111610ebc5760051b60200190565b805182101561402e5760209160051b010190565b6001600160a01b039091168152901515602082015260400190565b81156142bd570490565b6001600160a01b039091168152602081019190915260400190565b1561567557565b60405162461bcd60e51b815260206004820152600f60248201526e151c985b9cd9995c8819985a5b1959608a1b6044820152606490fd5b9061ff00825491151560081b169061ff001916179055565b156156cb57565b606460405162461bcd60e51b815260206004820152600460248201526308a7468760e31b6044820152fd5b156156fd57565b606460405162461bcd60e51b8152602060048201526004602482015263453a343960e01b6044820152fd5b1561572f57565b606460405162461bcd60e51b81526020600482015260046024820152630453a35360e41b6044820152fd5b1561576157565b606460405162461bcd60e51b8152602060048201526004602482015263229d1a9960e11b6044820152fd5b9061579682615603565b6157a36040519182614ea3565b82815280926157b4601f1991615603565b0190602036910137565b60005260036020526157d66009604060002001614fac565b60c0810151158015615837575b6158315761580e620151806157fc60a084015142615492565b0491602060408201519101519061518a565b8060011b9080820460021490151715610ed25760649161582d916155a4565b0490565b50600090565b5060a08101514211156157e3565b6000526003602052604060002060405161585e81614e6c565b8154815261586e60018301614ec6565b602082015260028201546001600160a01b0380821660408401529260a09190911c60ff1691600483101561072d576060928382015260038201546080820152600482015460a082015260058201549360c08201948552600683015460e08301526158da600784016154d1565b61010083015260088301541661012082015261022060196158fd60098501614fac565b93610140840194855261591260108201615001565b610160850152601481015461018085015260158101546101a085015260168101546101c085015260178101546101e085015260ff60188201541615156102008501520154910152510151905190818110156159735761597091615492565b90565b5050600090565b6207a12090818102918183041490151715610ed257670de0b6b3a7640000900490565b90600091825260056020526040822060018060a01b03809216835260205260408220604051916159cc83614e51565b815416825260018101548060208401526002820154926040810193845260a060ff6005600386015495866060860152600481015460808601520154161515910152600582029180830460051490151715615a8c5790615a329160328211615a835761518a565b905190600f820291808304600f1490151715615a6f57808211615a6a57615a599250615492565b60c88111615a645790565b5060c890565b505090565b634e487b7160e01b83526011600452602483fd5b6032915061518a565b634e487b7160e01b84526011600452602484fd5b9081600052600360205260406000209160405192615abd84614e6c565b80548452615acd60018201614ec6565b602085015260028101546001600160a01b038116604086015260a01c60ff1690600482101561072d57601991606086015260038101546080860152600481015460a0860152600581015460c0860152600681015460e0860152615b32600782016154d1565b61010086015260088101546001600160a01b0316610120860152615b5860098201614fac565b610140860152615b6a60108201615001565b610160860152601481015461018086015260158101546101a086015260168101546101c086015260178101546101e086015260ff6018820154161515610200860152015461022084015261010083015151918215615d125760009060009360009360005b828110615c0c57505060648102818104606403610ed2576101e091615bfb615c019260a08a015190615649565b94615649565b950151919493929190565b816000526005602052604060002060018060a01b03615c30836101008c015161561a565b5116600052602052615c99604060002060405196615c4d88614e51565b81546001600160a01b03168852600182015460208901819052600283015460408a0152600383015460608a0152600483015460808a015260059092015460ff16151560a089015261518a565b946060810151151580615d06575b80615cfa575b615ce3575b604060029101511015615cce575b615cc99061532d565b615bce565b94615cdb615cc99161532d565b959050615cc0565b966040615cf160029261532d565b98915050615cb2565b50604081015115615cad565b50608081015115615ca7565b6000935083925082915081908190565b6000526003602052615d3a60076040600020016154d1565b9060005b8251811015615d7a576001600160a01b0380615d5a838661561a565b511690831614615d7257615d6d9061532d565b615d3e565b505050600190565b505050600090565b906000918252600390816020526007604084200190835b825480821015615e4257615dad8285614dff565b90546001600160a01b039291871b1c821684831614615dd6575050615dd19061532d565b615d99565b92509293949060001992838101908111615a6f579061541185615dfc615e0a9489614dff565b9054908a1b1c169187614dff565b8354908115615e2e57500192615e208484614dff565b81939154921b1b1916905555565b634e487b7160e01b81526031600452602490fd5b50505050505056fedfb03b3beee04de7b14abd3e288ba800b7aaa69f5b9f8ee9fe361dd24d4c098d52b03660df9e58e6a5519f066933b571653ce7309b41e9e172a00a429d5f11ae51e7b7715627110f62280ac03d656c8dbd6adb8f0c4acbbfb4b9ed094e3d0be2a4de64f8ece5e3d0e00794857bf4663d0774d75efc197695fa248f3f3e0b43e97a227e0e50d43ccba33ae2da80553feecfe250cb454156c8d1d7fd53e80a6d169dadf9e0a46d44d7f45907190d0c0fdbf833f91d9b4b7478bad96964bb98372ca264697066735822122059f00e95eb7931375b1f1104c474c15237acca52ef63e95b77174a2fe79b787f64736f6c63430008140033",
  "linkReferences": {},
  "deployedLinkReferences": {}
}